{"abi":[{"type":"function","name":"getSwapResult","inputs":[{"name":"pool","type":"address","internalType":"address"},{"name":"zeroForOne","type":"bool","internalType":"bool"},{"name":"amountSpecified","type":"int256","internalType":"int256"},{"name":"sqrtPriceLimitX96","type":"uint160","internalType":"uint160"}],"outputs":[{"name":"amount0Delta","type":"int256","internalType":"int256"},{"name":"amount1Delta","type":"int256","internalType":"int256"},{"name":"nextSqrtRatio","type":"uint160","internalType":"uint160"}],"stateMutability":"nonpayable"},{"type":"function","name":"pancakeV3SwapCallback","inputs":[{"name":"amount0Delta","type":"int256","internalType":"int256"},{"name":"amount1Delta","type":"int256","internalType":"int256"},{"name":"data","type":"bytes","internalType":"bytes"}],"outputs":[],"stateMutability":"nonpayable"}],"bytecode":{"object":"0x608060405234801561001057600080fd5b50610522806100206000396000f3fe608060405234801561001057600080fd5b50600436106100365760003560e01c806323a69e751461003b5780637f2ba7bc146100b9575b600080fd5b6100b76004803603606081101561005157600080fd5b81359160208101359181019060608101604082013564010000000081111561007857600080fd5b82018360208201111561008a57600080fd5b803590602001918460018302840111640100000000831117156100ac57600080fd5b50909250905061011c565b005b6100f5600480360360808110156100cf57600080fd5b506001600160a01b0381358116916020810135151591604082013591606001351661032f565b6040805193845260208401929092526001600160a01b031682820152519081900360600190f35b60008282602081101561012e57600080fd5b50356001600160a01b03169050600085131561023457336001600160a01b0316630dfe16816040518163ffffffff1660e01b815260040160206040518083038186803b15801561017d57600080fd5b505afa158015610191573d6000803e3d6000fd5b505050506040513d60208110156101a757600080fd5b5051604080516323b872dd60e01b81526001600160a01b03848116600483015233602483015260448201899052915191909216916323b872dd9160648083019260209291908290030181600087803b15801561020257600080fd5b505af1158015610216573d6000803e3d6000fd5b505050506040513d602081101561022c57600080fd5b506103289050565b600084131561032857336001600160a01b031663d21220a76040518163ffffffff1660e01b815260040160206040518083038186803b15801561027657600080fd5b505afa15801561028a573d6000803e3d6000fd5b505050506040513d60208110156102a057600080fd5b5051604080516323b872dd60e01b81526001600160a01b03848116600483015233602483015260448201889052915191909216916323b872dd9160648083019260209291908290030181600087803b1580156102fb57600080fd5b505af115801561030f573d6000803e3d6000fd5b505050506040513d602081101561032557600080fd5b50505b5050505050565b6000806000866001600160a01b031663128acb0860008888883360405160200180826001600160a01b031681526020019150506040516020818303038152906040526040518663ffffffff1660e01b815260040180866001600160a01b031681526020018515158152602001848152602001836001600160a01b0316815260200180602001828103825283818151815260200191508051906020019080838360005b838110156103e95781810151838201526020016103d1565b50505050905090810190601f1680156104165780820380516001836020036101000a031916815260200191505b5096505050505050506040805180830381600087803b15801561043857600080fd5b505af115801561044c573d6000803e3d6000fd5b505050506040513d604081101561046257600080fd5b50805160209091015160408051633850c7bd60e01b815290519295509093506001600160a01b03891691633850c7bd9160048082019260e092909190829003018186803b1580156104b257600080fd5b505afa1580156104c6573d6000803e3d6000fd5b505050506040513d60e08110156104dc57600080fd5b505192979196509194509250505056fea264697066735822122096c466411ea4999831dff56ef00e7160932d78dd26e9b8874fcd1614e29ae64d64736f6c63430007060033","linkReferences":{}},"methodIdentifiers":{"getSwapResult(address,bool,int256,uint160)":"7f2ba7bc","pancakeV3SwapCallback(int256,int256,bytes)":"23a69e75"},"id":181}