{"abi":[{"type":"constructor","inputs":[{"name":"_deployer","type":"address","internalType":"address"},{"name":"_factory","type":"address","internalType":"address"},{"name":"_WETH9","type":"address","internalType":"address"}],"stateMutability":"nonpayable"},{"type":"function","name":"WETH9","inputs":[],"outputs":[{"name":"","type":"address","internalType":"address"}],"stateMutability":"view"},{"type":"function","name":"deployer","inputs":[],"outputs":[{"name":"","type":"address","internalType":"address"}],"stateMutability":"view"},{"type":"function","name":"factory","inputs":[],"outputs":[{"name":"","type":"address","internalType":"address"}],"stateMutability":"view"},{"type":"function","name":"getPool","inputs":[{"name":"tokenA","type":"address","internalType":"address"},{"name":"tokenB","type":"address","internalType":"address"},{"name":"fee","type":"uint24","internalType":"uint24"}],"outputs":[{"name":"","type":"address","internalType":"contract IPancakeV3Pool"}],"stateMutability":"view"},{"type":"function","name":"pancakeV3SwapCallback","inputs":[{"name":"amount0Delta","type":"int256","internalType":"int256"},{"name":"amount1Delta","type":"int256","internalType":"int256"},{"name":"path","type":"bytes","internalType":"bytes"}],"outputs":[],"stateMutability":"view"},{"type":"function","name":"quoteExactInput","inputs":[{"name":"path","type":"bytes","internalType":"bytes"},{"name":"amountIn","type":"uint256","internalType":"uint256"}],"outputs":[{"name":"amountOut","type":"uint256","internalType":"uint256"},{"name":"sqrtPriceX96AfterList","type":"uint160[]","internalType":"uint160[]"},{"name":"initializedTicksCrossedList","type":"uint32[]","internalType":"uint32[]"},{"name":"gasEstimate","type":"uint256","internalType":"uint256"}],"stateMutability":"nonpayable"},{"type":"function","name":"quoteExactInputSingle","inputs":[{"name":"params","type":"tuple","internalType":"struct IQuoterV2.QuoteExactInputSingleParams","components":[{"name":"tokenIn","type":"address","internalType":"address"},{"name":"tokenOut","type":"address","internalType":"address"},{"name":"amountIn","type":"uint256","internalType":"uint256"},{"name":"fee","type":"uint24","internalType":"uint24"},{"name":"sqrtPriceLimitX96","type":"uint160","internalType":"uint160"}]}],"outputs":[{"name":"amountOut","type":"uint256","internalType":"uint256"},{"name":"sqrtPriceX96After","type":"uint160","internalType":"uint160"},{"name":"initializedTicksCrossed","type":"uint32","internalType":"uint32"},{"name":"gasEstimate","type":"uint256","internalType":"uint256"}],"stateMutability":"nonpayable"},{"type":"function","name":"quoteExactOutput","inputs":[{"name":"path","type":"bytes","internalType":"bytes"},{"name":"amountOut","type":"uint256","internalType":"uint256"}],"outputs":[{"name":"amountIn","type":"uint256","internalType":"uint256"},{"name":"sqrtPriceX96AfterList","type":"uint160[]","internalType":"uint160[]"},{"name":"initializedTicksCrossedList","type":"uint32[]","internalType":"uint32[]"},{"name":"gasEstimate","type":"uint256","internalType":"uint256"}],"stateMutability":"nonpayable"},{"type":"function","name":"quoteExactOutputSingle","inputs":[{"name":"params","type":"tuple","internalType":"struct IQuoterV2.QuoteExactOutputSingleParams","components":[{"name":"tokenIn","type":"address","internalType":"address"},{"name":"tokenOut","type":"address","internalType":"address"},{"name":"amount","type":"uint256","internalType":"uint256"},{"name":"fee","type":"uint24","internalType":"uint24"},{"name":"sqrtPriceLimitX96","type":"uint160","internalType":"uint160"}]}],"outputs":[{"name":"amountIn","type":"uint256","internalType":"uint256"},{"name":"sqrtPriceX96After","type":"uint160","internalType":"uint160"},{"name":"initializedTicksCrossed","type":"uint32","internalType":"uint32"},{"name":"gasEstimate","type":"uint256","internalType":"uint256"}],"stateMutability":"nonpayable"}],"bytecode":{"object":"0x60e06040523480156200001157600080fd5b5060405162001caf38038062001caf833981016040819052620000349162000079565b6001600160601b0319606093841b811660805291831b821660a05290911b1660c052620000c2565b80516001600160a01b03811681146200007457600080fd5b919050565b6000806000606084860312156200008e578283fd5b62000099846200005c565b9250620000a9602085016200005c565b9150620000b9604085016200005c565b90509250925092565b60805160601c60a05160601c60c05160601c611bad62000102600039806104ca5250806106c152508061016152806101c952806109f25250611bad6000f3fe608060405234801561001057600080fd5b50600436106100935760003560e01c8063bd21704a11610066578063bd21704a14610101578063c45a015514610124578063c6a5026a1461012c578063cdca17531461013f578063d5f394881461015257610093565b80631698ee821461009857806323a69e75146100c15780632f80bb1d146100d65780634aa4a4fc146100f9575b600080fd5b6100ab6100a63660046116d2565b61015a565b6040516100b8919061198d565b60405180910390f35b6100d46100cf36600461177e565b610198565b005b6100e96100e4366004611718565b610313565b6040516100b89493929190611a24565b6100ab6104c8565b61011461010f366004611836565b6104ec565b6040516100b89493929190611abf565b6100ab6106bf565b61011461013a366004611836565b6106e3565b6100e961014d366004611718565b610859565b6100ab6109f0565b60006101907f000000000000000000000000000000000000000000000000000000000000000061018b868686610a14565b610a6a565b949350505050565b60008313806101a75750600082135b6101b057600080fd5b60008060006101be84610b4e565b9250925092506101f07f0000000000000000000000000000000000000000000000000000000000000000848484610b7f565b50600080600080891361021c57856001600160a01b0316856001600160a01b031610888a600003610237565b846001600160a01b0316866001600160a01b03161089896000035b925092509250600061024a87878761015a565b9050600080826001600160a01b0316633850c7bd6040518163ffffffff1660e01b815260040160e06040518083038186803b15801561028857600080fd5b505afa15801561029c573d6000803e3d6000fd5b505050506040513d601f19601f820116820180604052508101906102c09190611858565b50505050509150915085156102e657604051848152826020820152816040820152606081fd5b600054156102fc5760005484146102fc57600080fd5b604051858152826020820152816040820152606081fd5b6000606080600061032386610b9e565b67ffffffffffffffff8111801561033957600080fd5b50604051908082528060200260200182016040528015610363578160200160208202803683370190505b50925061036f86610b9e565b67ffffffffffffffff8111801561038557600080fd5b506040519080825280602002602001820160405280156103af578160200160208202803683370190505b50915060005b60008060006103c38a610b4e565b92509250925060008060008061041f6040518060a00160405280886001600160a01b03168152602001896001600160a01b031681526020018f81526020018762ffffff16815260200160006001600160a01b03168152506104ec565b9350935093509350828b898151811061043457fe5b60200260200101906001600160a01b031690816001600160a01b031681525050818a898151811061046157fe5b63ffffffff90921660209283029190910190910152929b50968201966001909601958b9261048e8e610baf565b156104a35761049c8e610bb7565b9d506104b3565b8c9b5050505050505050506104bf565b505050505050506103b5565b92959194509250565b7f000000000000000000000000000000000000000000000000000000000000000081565b6020810151815160608301516000928392839283926001600160a01b038082169084161092849261051d929061015a565b905086608001516001600160a01b03166000141561053e5760408701516000555b60005a9050816001600160a01b031663128acb0830856105618c60400151610bd4565b6000038c608001516001600160a01b0316600014610583578c608001516105a9565b876105a25773fffd8963efd1fc6a506488495d951d5263988d256105a9565b6401000276a45b8d602001518e606001518f600001516040516020016105ca93929190611952565b6040516020818303038152906040526040518663ffffffff1660e01b81526004016105f99594939291906119a1565b6040805180830381600087803b15801561061257600080fd5b505af1925050508015610642575060408051601f3d908101601f1916820190925261063f9181019061175b565b60015b6106b2573d808015610670576040519150601f19603f3d011682016040523d82523d6000602084013e610675565b606091505b505a8203945088608001516001600160a01b03166000141561069657600080555b6106a1818487610bea565b9750975097509750505050506106b8565b50505050505b9193509193565b7f000000000000000000000000000000000000000000000000000000000000000081565b6020810151815160608301516000928392839283926001600160a01b0380821690841610928492610714929061015a565b905060005a9050816001600160a01b031663128acb0830856107398c60400151610bd4565b60808d01516001600160a01b031615610756578c6080015161077c565b876107755773fffd8963efd1fc6a506488495d951d5263988d2561077c565b6401000276a45b8d600001518e606001518f6020015160405160200161079d93929190611952565b6040516020818303038152906040526040518663ffffffff1660e01b81526004016107cc9594939291906119a1565b6040805180830381600087803b1580156107e557600080fd5b505af1925050508015610815575060408051601f3d908101601f191682019092526108129181019061175b565b60015b6106b2573d808015610843576040519150601f19603f3d011682016040523d82523d6000602084013e610848565b606091505b505a820394506106a1818487610bea565b6000606080600061086986610b9e565b67ffffffffffffffff8111801561087f57600080fd5b506040519080825280602002602001820160405280156108a9578160200160208202803683370190505b5092506108b586610b9e565b67ffffffffffffffff811180156108cb57600080fd5b506040519080825280602002602001820160405280156108f5578160200160208202803683370190505b50915060005b60008060006109098a610b4e565b9250925092506000806000806109656040518060a00160405280896001600160a01b03168152602001886001600160a01b031681526020018f81526020018762ffffff16815260200160006001600160a01b03168152506106e3565b9350935093509350828b898151811061097a57fe5b60200260200101906001600160a01b031690816001600160a01b031681525050818a89815181106109a757fe5b63ffffffff90921660209283029190910190910152929b50968201966001909601958b926109d48e610baf565b156104a3576109e28e610bb7565b9d50505050505050506108fb565b7f000000000000000000000000000000000000000000000000000000000000000081565b610a1c6115a0565b826001600160a01b0316846001600160a01b03161115610a3a579192915b50604080516060810182526001600160a01b03948516815292909316602083015262ffffff169181019190915290565b600081602001516001600160a01b031682600001516001600160a01b031610610a9257600080fd5b50805160208083015160409384015184516001600160a01b0394851681850152939091168385015262ffffff166060808401919091528351808403820181526080840185528051908301206001600160f81b031960a085015294901b6bffffffffffffffffffffffff191660a183015260b58201939093527ff5c8cd209dba528041d79d4ba7073926156cd25911491a8fd976619bfd753a6060d5808301919091528251808303909101815260f5909101909152805191012090565b60008080610b5c8482610ca4565b9250610b69846014610d54565b9050610b76846017610ca4565b91509193909250565b6000610b9585610b90868686610a14565b610dfb565b95945050505050565b80516017601319909101045b919050565b516042111590565b8051606090610bce90839060179060161901610e1e565b92915050565b6000600160ff1b8210610be657600080fd5b5090565b600080600080600080876001600160a01b0316633850c7bd6040518163ffffffff1660e01b815260040160e06040518083038186803b158015610c2c57600080fd5b505afa158015610c40573d6000803e3d6000fd5b505050506040513d601f19601f82011682018060405250810190610c649190611858565b50939650610c7994508d9350610f6f92505050565b91975095509050610c946001600160a01b0389168383610ffc565b9350869250505093509350935093565b600081826014011015610cf3576040805162461bcd60e51b8152602060048201526012602482015271746f416464726573735f6f766572666c6f7760701b604482015290519081900360640190fd5b8160140183511015610d44576040805162461bcd60e51b8152602060048201526015602482015274746f416464726573735f6f75744f66426f756e647360581b604482015290519081900360640190fd5b500160200151600160601b900490565b600081826003011015610da2576040805162461bcd60e51b8152602060048201526011602482015270746f55696e7432345f6f766572666c6f7760781b604482015290519081900360640190fd5b8160030183511015610df2576040805162461bcd60e51b8152602060048201526014602482015273746f55696e7432345f6f75744f66426f756e647360601b604482015290519081900360640190fd5b50016003015190565b6000610e078383610a6a565b9050336001600160a01b03821614610bce57600080fd5b60608182601f011015610e69576040805162461bcd60e51b815260206004820152600e60248201526d736c6963655f6f766572666c6f7760901b604482015290519081900360640190fd5b828284011015610eb1576040805162461bcd60e51b815260206004820152600e60248201526d736c6963655f6f766572666c6f7760901b604482015290519081900360640190fd5b81830184511015610efd576040805162461bcd60e51b8152602060048201526011602482015270736c6963655f6f75744f66426f756e647360781b604482015290519081900360640190fd5b606082158015610f1c5760405191506000825260208201604052610f66565b6040519150601f8416801560200281840101858101878315602002848b0101015b81831015610f55578051835260209283019201610f3d565b5050858452601f01601f1916604052505b50949350505050565b60008060008351606014610fdb57604484511015610fa85760405162461bcd60e51b8152600401610f9f906119fa565b60405180910390fd5b60048401935083806020019051810190610fc291906117cc565b60405162461bcd60e51b8152600401610f9f91906119e7565b83806020019051810190610fef91906118f2565b9250925092509193909250565b60008060008060008060008060088b6001600160a01b031663d0c93a7c6040518163ffffffff1660e01b815260040160206040518083038186803b15801561104357600080fd5b505afa158015611057573d6000803e3d6000fd5b505050506040513d602081101561106d57600080fd5b5051600290810b908c900b8161107f57fe5b0560020b901d905060006101008c6001600160a01b031663d0c93a7c6040518163ffffffff1660e01b815260040160206040518083038186803b1580156110c557600080fd5b505afa1580156110d9573d6000803e3d6000fd5b505050506040513d60208110156110ef57600080fd5b5051600290810b908d900b8161110157fe5b0560020b8161110c57fe5b079050600060088d6001600160a01b031663d0c93a7c6040518163ffffffff1660e01b815260040160206040518083038186803b15801561114c57600080fd5b505afa158015611160573d6000803e3d6000fd5b505050506040513d602081101561117657600080fd5b5051600290810b908d900b8161118857fe5b0560020b901d905060006101008e6001600160a01b031663d0c93a7c6040518163ffffffff1660e01b815260040160206040518083038186803b1580156111ce57600080fd5b505afa1580156111e2573d6000803e3d6000fd5b505050506040513d60208110156111f857600080fd5b5051600290810b908e900b8161120a57fe5b0560020b8161121557fe5b07905060008160ff166001901b8f6001600160a01b0316635339c296856040518263ffffffff1660e01b8152600401808260010b815260200191505060206040518083038186803b15801561126957600080fd5b505afa15801561127d573d6000803e3d6000fd5b505050506040513d602081101561129357600080fd5b50511611801561131957508d6001600160a01b031663d0c93a7c6040518163ffffffff1660e01b815260040160206040518083038186803b1580156112d757600080fd5b505afa1580156112eb573d6000803e3d6000fd5b505050506040513d602081101561130157600080fd5b5051600290810b908d900b8161131357fe5b0760020b155b801561132a57508b60020b8d60020b135b945060008360ff166001901b8f6001600160a01b0316635339c296876040518263ffffffff1660e01b8152600401808260010b815260200191505060206040518083038186803b15801561137d57600080fd5b505afa158015611391573d6000803e3d6000fd5b505050506040513d60208110156113a757600080fd5b50511611801561142d57508d6001600160a01b031663d0c93a7c6040518163ffffffff1660e01b815260040160206040518083038186803b1580156113eb57600080fd5b505afa1580156113ff573d6000803e3d6000fd5b505050506040513d602081101561141557600080fd5b5051600290810b908e900b8161142757fe5b0760020b155b801561143e57508b60020b8d60020b125b95508160010b8460010b128061146a57508160010b8460010b14801561146a57508060ff168360ff1611155b156114805783995082975081985080965061148d565b8199508097508398508296505b505060001960ff87161b9150505b8560010b8760010b1361155d578560010b8760010b14156114c25760001960ff858103161c165b6000818c6001600160a01b0316635339c2968a6040518263ffffffff1660e01b8152600401808260010b815260200191505060206040518083038186803b15801561150c57600080fd5b505afa158015611520573d6000803e3d6000fd5b505050506040513d602081101561153657600080fd5b505116905061154481611585565b61ffff169890980197505060019095019460001961149b565b811561156a576001880397505b8215611577576001880397505b505050505050509392505050565b6000805b8215610bce57600019830190921691600101611589565b604080516060810182526000808252602082018190529181019190915290565b600082601f8301126115d0578081fd5b81356115e36115de82611b0d565b611ae9565b8181528460208386010111156115f7578283fd5b816020850160208301379081016020019190915292915050565b8051600281900b8114610baa57600080fd5b600060a08284031215611634578081fd5b60405160a0810181811067ffffffffffffffff8211171561165157fe5b604052905080823561166281611b5f565b8152602083013561167281611b5f565b60208201526040838101359082015261168d606084016116bf565b606082015260808301356116a081611b5f565b6080919091015292915050565b805161ffff81168114610baa57600080fd5b803562ffffff81168114610baa57600080fd5b6000806000606084860312156116e6578283fd5b83356116f181611b5f565b9250602084013561170181611b5f565b915061170f604085016116bf565b90509250925092565b6000806040838503121561172a578182fd5b823567ffffffffffffffff811115611740578283fd5b61174c858286016115c0565b95602094909401359450505050565b6000806040838503121561176d578182fd5b505080516020909101519092909150565b600080600060608486031215611792578283fd5b8335925060208401359150604084013567ffffffffffffffff8111156117b6578182fd5b6117c2868287016115c0565b9150509250925092565b6000602082840312156117dd578081fd5b815167ffffffffffffffff8111156117f3578182fd5b8201601f81018413611803578182fd5b80516118116115de82611b0d565b818152856020838501011115611825578384fd5b610b95826020830160208601611b2f565b600060a08284031215611847578081fd5b6118518383611623565b9392505050565b600080600080600080600060e0888a031215611872578485fd5b875161187d81611b5f565b965061188b60208901611611565b9550611899604089016116ad565b94506118a7606089016116ad565b93506118b5608089016116ad565b925060a088015163ffffffff811681146118cd578283fd5b60c089015190925080151581146118e2578182fd5b8091505092959891949750929550565b600080600060608486031215611906578081fd5b83519250602084015161191881611b5f565b915061170f60408501611611565b6000815180845261193e816020860160208601611b2f565b601f01601f19169290920160200192915050565b606093841b6bffffffffffffffffffffffff19908116825260e89390931b6001600160e81b0319166014820152921b166017820152602b0190565b6001600160a01b0391909116815260200190565b6001600160a01b0386811682528515156020830152604082018590528316606082015260a0608082018190526000906119dc90830184611926565b979650505050505050565b6000602082526118516020830184611926565b60208082526010908201526f2ab732bc3832b1ba32b21032b93937b960811b604082015260600190565b600060808201868352602060808185015281875180845260a0860191508289019350845b81811015611a6d5784516001600160a01b031683529383019391830191600101611a48565b505084810360408601528651808252908201925081870190845b81811015611aa957825163ffffffff1685529383019391830191600101611a87565b5050505060609290920192909252949350505050565b9384526001600160a01b0392909216602084015263ffffffff166040830152606082015260800190565b60405181810167ffffffffffffffff81118282101715611b0557fe5b604052919050565b600067ffffffffffffffff821115611b2157fe5b50601f01601f191660200190565b60005b83811015611b4a578181015183820152602001611b32565b83811115611b59576000848401525b50505050565b6001600160a01b0381168114611b7457600080fd5b5056fea2646970667358221220bbc89a70c01bf0ba93173377969c469b627a6f3130ad2382125b21b155b1bab364736f6c63430007060033","linkReferences":{}},"methodIdentifiers":{"WETH9()":"4aa4a4fc","deployer()":"d5f39488","factory()":"c45a0155","getPool(address,address,uint24)":"1698ee82","pancakeV3SwapCallback(int256,int256,bytes)":"23a69e75","quoteExactInput(bytes,uint256)":"cdca1753","quoteExactInputSingle((address,address,uint256,uint24,uint160))":"c6a5026a","quoteExactOutput(bytes,uint256)":"2f80bb1d","quoteExactOutputSingle((address,address,uint256,uint24,uint160))":"bd21704a"},"id":126}