{"abi":[{"type":"constructor","inputs":[{"name":"_deployer","type":"address","internalType":"address"},{"name":"_factory","type":"address","internalType":"address"},{"name":"_WETH9","type":"address","internalType":"address"},{"name":"_tokenDescriptor_","type":"address","internalType":"address"}],"stateMutability":"payable"},{"type":"receive","stateMutability":"payable"},{"type":"function","name":"DOMAIN_SEPARATOR","inputs":[],"outputs":[{"name":"","type":"bytes32","internalType":"bytes32"}],"stateMutability":"view"},{"type":"function","name":"PERMIT_TYPEHASH","inputs":[],"outputs":[{"name":"","type":"bytes32","internalType":"bytes32"}],"stateMutability":"view"},{"type":"function","name":"WETH9","inputs":[],"outputs":[{"name":"","type":"address","internalType":"address"}],"stateMutability":"view"},{"type":"function","name":"approve","inputs":[{"name":"to","type":"address","internalType":"address"},{"name":"tokenId","type":"uint256","internalType":"uint256"}],"outputs":[],"stateMutability":"nonpayable"},{"type":"function","name":"balanceOf","inputs":[{"name":"owner","type":"address","internalType":"address"}],"outputs":[{"name":"","type":"uint256","internalType":"uint256"}],"stateMutability":"view"},{"type":"function","name":"baseURI","inputs":[],"outputs":[{"name":"","type":"string","internalType":"string"}],"stateMutability":"pure"},{"type":"function","name":"burn","inputs":[{"name":"tokenId","type":"uint256","internalType":"uint256"}],"outputs":[],"stateMutability":"payable"},{"type":"function","name":"collect","inputs":[{"name":"params","type":"tuple","internalType":"struct INonfungiblePositionManager.CollectParams","components":[{"name":"tokenId","type":"uint256","internalType":"uint256"},{"name":"recipient","type":"address","internalType":"address"},{"name":"amount0Max","type":"uint128","internalType":"uint128"},{"name":"amount1Max","type":"uint128","internalType":"uint128"}]}],"outputs":[{"name":"amount0","type":"uint256","internalType":"uint256"},{"name":"amount1","type":"uint256","internalType":"uint256"}],"stateMutability":"payable"},{"type":"function","name":"createAndInitializePoolIfNecessary","inputs":[{"name":"token0","type":"address","internalType":"address"},{"name":"token1","type":"address","internalType":"address"},{"name":"fee","type":"uint24","internalType":"uint24"},{"name":"sqrtPriceX96","type":"uint160","internalType":"uint160"}],"outputs":[{"name":"pool","type":"address","internalType":"address"}],"stateMutability":"payable"},{"type":"function","name":"decreaseLiquidity","inputs":[{"name":"params","type":"tuple","internalType":"struct INonfungiblePositionManager.DecreaseLiquidityParams","components":[{"name":"tokenId","type":"uint256","internalType":"uint256"},{"name":"liquidity","type":"uint128","internalType":"uint128"},{"name":"amount0Min","type":"uint256","internalType":"uint256"},{"name":"amount1Min","type":"uint256","internalType":"uint256"},{"name":"deadline","type":"uint256","internalType":"uint256"}]}],"outputs":[{"name":"amount0","type":"uint256","internalType":"uint256"},{"name":"amount1","type":"uint256","internalType":"uint256"}],"stateMutability":"payable"},{"type":"function","name":"deployer","inputs":[],"outputs":[{"name":"","type":"address","internalType":"address"}],"stateMutability":"view"},{"type":"function","name":"factory","inputs":[],"outputs":[{"name":"","type":"address","internalType":"address"}],"stateMutability":"view"},{"type":"function","name":"getApproved","inputs":[{"name":"tokenId","type":"uint256","internalType":"uint256"}],"outputs":[{"name":"","type":"address","internalType":"address"}],"stateMutability":"view"},{"type":"function","name":"increaseLiquidity","inputs":[{"name":"params","type":"tuple","internalType":"struct INonfungiblePositionManager.IncreaseLiquidityParams","components":[{"name":"tokenId","type":"uint256","internalType":"uint256"},{"name":"amount0Desired","type":"uint256","internalType":"uint256"},{"name":"amount1Desired","type":"uint256","internalType":"uint256"},{"name":"amount0Min","type":"uint256","internalType":"uint256"},{"name":"amount1Min","type":"uint256","internalType":"uint256"},{"name":"deadline","type":"uint256","internalType":"uint256"}]}],"outputs":[{"name":"liquidity","type":"uint128","internalType":"uint128"},{"name":"amount0","type":"uint256","internalType":"uint256"},{"name":"amount1","type":"uint256","internalType":"uint256"}],"stateMutability":"payable"},{"type":"function","name":"isApprovedForAll","inputs":[{"name":"owner","type":"address","internalType":"address"},{"name":"operator","type":"address","internalType":"address"}],"outputs":[{"name":"","type":"bool","internalType":"bool"}],"stateMutability":"view"},{"type":"function","name":"mint","inputs":[{"name":"params","type":"tuple","internalType":"struct INonfungiblePositionManager.MintParams","components":[{"name":"token0","type":"address","internalType":"address"},{"name":"token1","type":"address","internalType":"address"},{"name":"fee","type":"uint24","internalType":"uint24"},{"name":"tickLower","type":"int24","internalType":"int24"},{"name":"tickUpper","type":"int24","internalType":"int24"},{"name":"amount0Desired","type":"uint256","internalType":"uint256"},{"name":"amount1Desired","type":"uint256","internalType":"uint256"},{"name":"amount0Min","type":"uint256","internalType":"uint256"},{"name":"amount1Min","type":"uint256","internalType":"uint256"},{"name":"recipient","type":"address","internalType":"address"},{"name":"deadline","type":"uint256","internalType":"uint256"}]}],"outputs":[{"name":"tokenId","type":"uint256","internalType":"uint256"},{"name":"liquidity","type":"uint128","internalType":"uint128"},{"name":"amount0","type":"uint256","internalType":"uint256"},{"name":"amount1","type":"uint256","internalType":"uint256"}],"stateMutability":"payable"},{"type":"function","name":"multicall","inputs":[{"name":"data","type":"bytes[]","internalType":"bytes[]"}],"outputs":[{"name":"results","type":"bytes[]","internalType":"bytes[]"}],"stateMutability":"payable"},{"type":"function","name":"name","inputs":[],"outputs":[{"name":"","type":"string","internalType":"string"}],"stateMutability":"view"},{"type":"function","name":"ownerOf","inputs":[{"name":"tokenId","type":"uint256","internalType":"uint256"}],"outputs":[{"name":"","type":"address","internalType":"address"}],"stateMutability":"view"},{"type":"function","name":"pancakeV3MintCallback","inputs":[{"name":"amount0Owed","type":"uint256","internalType":"uint256"},{"name":"amount1Owed","type":"uint256","internalType":"uint256"},{"name":"data","type":"bytes","internalType":"bytes"}],"outputs":[],"stateMutability":"nonpayable"},{"type":"function","name":"permit","inputs":[{"name":"spender","type":"address","internalType":"address"},{"name":"tokenId","type":"uint256","internalType":"uint256"},{"name":"deadline","type":"uint256","internalType":"uint256"},{"name":"v","type":"uint8","internalType":"uint8"},{"name":"r","type":"bytes32","internalType":"bytes32"},{"name":"s","type":"bytes32","internalType":"bytes32"}],"outputs":[],"stateMutability":"payable"},{"type":"function","name":"positions","inputs":[{"name":"tokenId","type":"uint256","internalType":"uint256"}],"outputs":[{"name":"nonce","type":"uint96","internalType":"uint96"},{"name":"operator","type":"address","internalType":"address"},{"name":"token0","type":"address","internalType":"address"},{"name":"token1","type":"address","internalType":"address"},{"name":"fee","type":"uint24","internalType":"uint24"},{"name":"tickLower","type":"int24","internalType":"int24"},{"name":"tickUpper","type":"int24","internalType":"int24"},{"name":"liquidity","type":"uint128","internalType":"uint128"},{"name":"feeGrowthInside0LastX128","type":"uint256","internalType":"uint256"},{"name":"feeGrowthInside1LastX128","type":"uint256","internalType":"uint256"},{"name":"tokensOwed0","type":"uint128","internalType":"uint128"},{"name":"tokensOwed1","type":"uint128","internalType":"uint128"}],"stateMutability":"view"},{"type":"function","name":"refundETH","inputs":[],"outputs":[],"stateMutability":"payable"},{"type":"function","name":"safeTransferFrom","inputs":[{"name":"from","type":"address","internalType":"address"},{"name":"to","type":"address","internalType":"address"},{"name":"tokenId","type":"uint256","internalType":"uint256"}],"outputs":[],"stateMutability":"nonpayable"},{"type":"function","name":"safeTransferFrom","inputs":[{"name":"from","type":"address","internalType":"address"},{"name":"to","type":"address","internalType":"address"},{"name":"tokenId","type":"uint256","internalType":"uint256"},{"name":"_data","type":"bytes","internalType":"bytes"}],"outputs":[],"stateMutability":"nonpayable"},{"type":"function","name":"selfPermit","inputs":[{"name":"token","type":"address","internalType":"address"},{"name":"value","type":"uint256","internalType":"uint256"},{"name":"deadline","type":"uint256","internalType":"uint256"},{"name":"v","type":"uint8","internalType":"uint8"},{"name":"r","type":"bytes32","internalType":"bytes32"},{"name":"s","type":"bytes32","internalType":"bytes32"}],"outputs":[],"stateMutability":"payable"},{"type":"function","name":"selfPermitAllowed","inputs":[{"name":"token","type":"address","internalType":"address"},{"name":"nonce","type":"uint256","internalType":"uint256"},{"name":"expiry","type":"uint256","internalType":"uint256"},{"name":"v","type":"uint8","internalType":"uint8"},{"name":"r","type":"bytes32","internalType":"bytes32"},{"name":"s","type":"bytes32","internalType":"bytes32"}],"outputs":[],"stateMutability":"payable"},{"type":"function","name":"selfPermitAllowedIfNecessary","inputs":[{"name":"token","type":"address","internalType":"address"},{"name":"nonce","type":"uint256","internalType":"uint256"},{"name":"expiry","type":"uint256","internalType":"uint256"},{"name":"v","type":"uint8","internalType":"uint8"},{"name":"r","type":"bytes32","internalType":"bytes32"},{"name":"s","type":"bytes32","internalType":"bytes32"}],"outputs":[],"stateMutability":"payable"},{"type":"function","name":"selfPermitIfNecessary","inputs":[{"name":"token","type":"address","internalType":"address"},{"name":"value","type":"uint256","internalType":"uint256"},{"name":"deadline","type":"uint256","internalType":"uint256"},{"name":"v","type":"uint8","internalType":"uint8"},{"name":"r","type":"bytes32","internalType":"bytes32"},{"name":"s","type":"bytes32","internalType":"bytes32"}],"outputs":[],"stateMutability":"payable"},{"type":"function","name":"setApprovalForAll","inputs":[{"name":"operator","type":"address","internalType":"address"},{"name":"approved","type":"bool","internalType":"bool"}],"outputs":[],"stateMutability":"nonpayable"},{"type":"function","name":"supportsInterface","inputs":[{"name":"interfaceId","type":"bytes4","internalType":"bytes4"}],"outputs":[{"name":"","type":"bool","internalType":"bool"}],"stateMutability":"view"},{"type":"function","name":"sweepToken","inputs":[{"name":"token","type":"address","internalType":"address"},{"name":"amountMinimum","type":"uint256","internalType":"uint256"},{"name":"recipient","type":"address","internalType":"address"}],"outputs":[],"stateMutability":"payable"},{"type":"function","name":"symbol","inputs":[],"outputs":[{"name":"","type":"string","internalType":"string"}],"stateMutability":"view"},{"type":"function","name":"tokenByIndex","inputs":[{"name":"index","type":"uint256","internalType":"uint256"}],"outputs":[{"name":"","type":"uint256","internalType":"uint256"}],"stateMutability":"view"},{"type":"function","name":"tokenOfOwnerByIndex","inputs":[{"name":"owner","type":"address","internalType":"address"},{"name":"index","type":"uint256","internalType":"uint256"}],"outputs":[{"name":"","type":"uint256","internalType":"uint256"}],"stateMutability":"view"},{"type":"function","name":"tokenURI","inputs":[{"name":"tokenId","type":"uint256","internalType":"uint256"}],"outputs":[{"name":"","type":"string","internalType":"string"}],"stateMutability":"view"},{"type":"function","name":"totalSupply","inputs":[],"outputs":[{"name":"","type":"uint256","internalType":"uint256"}],"stateMutability":"view"},{"type":"function","name":"transferFrom","inputs":[{"name":"from","type":"address","internalType":"address"},{"name":"to","type":"address","internalType":"address"},{"name":"tokenId","type":"uint256","internalType":"uint256"}],"outputs":[],"stateMutability":"nonpayable"},{"type":"function","name":"unwrapWETH9","inputs":[{"name":"amountMinimum","type":"uint256","internalType":"uint256"},{"name":"recipient","type":"address","internalType":"address"}],"outputs":[],"stateMutability":"payable"},{"type":"event","name":"Approval","inputs":[{"name":"owner","type":"address","indexed":true,"internalType":"address"},{"name":"approved","type":"address","indexed":true,"internalType":"address"},{"name":"tokenId","type":"uint256","indexed":true,"internalType":"uint256"}],"anonymous":false},{"type":"event","name":"ApprovalForAll","inputs":[{"name":"owner","type":"address","indexed":true,"internalType":"address"},{"name":"operator","type":"address","indexed":true,"internalType":"address"},{"name":"approved","type":"bool","indexed":false,"internalType":"bool"}],"anonymous":false},{"type":"event","name":"Collect","inputs":[{"name":"tokenId","type":"uint256","indexed":true,"internalType":"uint256"},{"name":"recipient","type":"address","indexed":false,"internalType":"address"},{"name":"amount0","type":"uint256","indexed":false,"internalType":"uint256"},{"name":"amount1","type":"uint256","indexed":false,"internalType":"uint256"}],"anonymous":false},{"type":"event","name":"DecreaseLiquidity","inputs":[{"name":"tokenId","type":"uint256","indexed":true,"internalType":"uint256"},{"name":"liquidity","type":"uint128","indexed":false,"internalType":"uint128"},{"name":"amount0","type":"uint256","indexed":false,"internalType":"uint256"},{"name":"amount1","type":"uint256","indexed":false,"internalType":"uint256"}],"anonymous":false},{"type":"event","name":"IncreaseLiquidity","inputs":[{"name":"tokenId","type":"uint256","indexed":true,"internalType":"uint256"},{"name":"liquidity","type":"uint128","indexed":false,"internalType":"uint128"},{"name":"amount0","type":"uint256","indexed":false,"internalType":"uint256"},{"name":"amount1","type":"uint256","indexed":false,"internalType":"uint256"}],"anonymous":false},{"type":"event","name":"Transfer","inputs":[{"name":"from","type":"address","indexed":true,"internalType":"address"},{"name":"to","type":"address","indexed":true,"internalType":"address"},{"name":"tokenId","type":"uint256","indexed":true,"internalType":"uint256"}],"anonymous":false}],"bytecode":{"object":"0x6101406040819052600d80546001600160b01b0319166001176001600160b01b0316600160b01b17905562005cc6388190039081908339810160408190526200004891620002d6565b8383836040518060400160405280601b81526020017f50616e63616b6520563320506f736974696f6e73204e46542d563100000000008152506040518060400160405280600a8152602001695043532d56332d504f5360b01b815250604051806040016040528060018152602001603160f81b8152508282620000d86301ffc9a760e01b6200018860201b60201c565b8151620000ed9060069060208501906200020d565b508051620001039060079060208401906200020d565b50620001166380ac58cd60e01b62000188565b62000128635b5e139f60e01b62000188565b6200013a63780e9d6360e01b62000188565b50508251602093840120608052805192019190912060a052506001600160601b0319606093841b811660c05291831b821660e052821b81166101005291901b16610120525062000332915050565b6001600160e01b03198082161415620001e8576040805162461bcd60e51b815260206004820152601c60248201527f4552433136353a20696e76616c696420696e7465726661636520696400000000604482015290519081900360640190fd5b6001600160e01b0319166000908152602081905260409020805460ff19166001179055565b828054600181600116156101000203166002900490600052602060002090601f01602090048101928262000245576000855562000290565b82601f106200026057805160ff191683800117855562000290565b8280016001018555821562000290579182015b828111156200029057825182559160200191906001019062000273565b506200029e929150620002a2565b5090565b5b808211156200029e5760008155600101620002a3565b80516001600160a01b0381168114620002d157600080fd5b919050565b60008060008060808587031215620002ec578384fd5b620002f785620002b9565b93506200030760208601620002b9565b92506200031760408601620002b9565b91506200032760608601620002b9565b905092959194509250565b60805160a05160c05160601c60e05160601c6101005160601c6101205160601c615902620003c46000398061282252508061024452806115ce52806116b9528061174152806139a152806139e75280613a5b525080610ce55280610dac52806127d55250806109c5528061218e52806128af5280612b6252806132eb5250806113ce5250806113ad52506159026000f3fe6080604052600436106102345760003560e01c80636352211e1161012e578063ac9650d8116100ab578063d5f394881161006f578063d5f3948814610679578063df2ab5bb1461068e578063e985e9c5146106a1578063f3995c67146106c1578063fc6f7865146106d4576102a4565b8063ac9650d8146105f1578063b88d4fde14610611578063c2e3140a14610631578063c45a015514610644578063c87b56dd14610659576102a4565b806395d89b41116100f257806395d89b411461055157806399eee9d01461056657806399fbab8814610586578063a22cb465146105be578063a4a78f0c146105de576102a4565b80636352211e146104c65780636c0360eb146104e657806370a08231146104fb5780637ac2ff7b1461051b578063883164561461052e576102a4565b806323b872dd116101bc57806342966c681161018057806342966c68146104585780634659a4941461046b57806349404b7c1461047e5780634aa4a4fc146104915780634f6ccce7146104a6576102a4565b806323b872dd146103ce5780632f745c59146103ee57806330adf81f1461040e5780633644e5151461042357806342842e0e14610438576102a4565b80630c49ccbe116102035780630c49ccbe1461034e57806312210e8a1461036f57806313ead5621461037757806318160ddd1461038a578063219f5d17146103ac576102a4565b806301ffc9a7146102a957806306fdde03146102df578063081812fc14610301578063095ea7b31461032e576102a4565b366102a457336001600160a01b037f000000000000000000000000000000000000000000000000000000000000000016146102a2576040805162461bcd60e51b81526020600482015260096024820152684e6f7420574554483960b81b604482015290519081900360640190fd5b005b600080fd5b3480156102b557600080fd5b506102c96102c4366004614e43565b6106e7565b6040516102d6919061538c565b60405180910390f35b3480156102eb57600080fd5b506102f461070a565b6040516102d691906153df565b34801561030d57600080fd5b5061032161031c366004615145565b6107a0565b6040516102d6919061526f565b34801561033a57600080fd5b506102a2610349366004614d08565b6107f3565b61036161035c366004614f08565b610869565b6040516102d6929190615566565b6102a2610cb1565b610321610385366004614b9b565b610cc3565b34801561039657600080fd5b5061039f610fb7565b6040516102d69190615397565b6103bf6103ba366004614f19565b610fc8565b6040516102d693929190615521565b3480156103da57600080fd5b506102a26103e9366004614bf4565b6112dd565b3480156103fa57600080fd5b5061039f610409366004614d08565b611339565b34801561041a57600080fd5b5061039f611364565b34801561042f57600080fd5b5061039f611388565b34801561044457600080fd5b506102a2610453366004614bf4565b611446565b6102a2610466366004615145565b611461565b6102a2610479366004614d74565b611530565b6102a261048c36600461515d565b6115ca565b34801561049d57600080fd5b5061032161173f565b3480156104b257600080fd5b5061039f6104c1366004615145565b611763565b3480156104d257600080fd5b506103216104e1366004615145565b611779565b3480156104f257600080fd5b506102f46117a1565b34801561050757600080fd5b5061039f610516366004614b47565b6117a6565b6102a2610529366004614d74565b61180e565b61054161053c366004614fd5565b611c00565b6040516102d69493929190615542565b34801561055d57600080fd5b506102f4612118565b34801561057257600080fd5b506102a26105813660046151a4565b612179565b34801561059257600080fd5b506105a66105a1366004615145565b6121f7565b6040516102d69c9b9a99989796959493929190615574565b3480156105ca57600080fd5b506102a26105d9366004614cdb565b612408565b6102a26105ec366004614d74565b61250d565b6106046105ff366004614dd4565b6125a6565b6040516102d6919061532c565b34801561061d57600080fd5b506102a261062c366004614c34565b6126e6565b6102a261063f366004614d74565b612744565b34801561065057600080fd5b506103216127d3565b34801561066557600080fd5b506102f4610674366004615145565b6127f7565b34801561068557600080fd5b506103216128ad565b6102a261069c366004614d33565b6128d1565b3480156106ad57600080fd5b506102c96106bc366004614b63565b6129a9565b6102a26106cf366004614d74565b6129d7565b6103616106e2366004614ef1565b612a49565b6001600160e01b0319811660009081526020819052604090205460ff165b919050565b60068054604080516020601f60026000196101006001881615020190951694909404938401819004810282018101909252828152606093909290918301828280156107965780601f1061076b57610100808354040283529160200191610796565b820191906000526020600020905b81548152906001019060200180831161077957829003601f168201915b5050505050905090565b60006107ab82612f14565b6107d05760405162461bcd60e51b81526004016107c790615418565b60405180910390fd5b506000908152600c6020526040902054600160601b90046001600160a01b031690565b6000818152600c6020526040902080546001600160601b0316600160601b6001600160a01b03851690810291909117909155819061083082611779565b6001600160a01b03167f8c5be1e5ebec7d5bd14f71427d1e84f3dd0314c0f7b2291e5b200ac8c7c3b92560405160405180910390a45050565b60008082356108783382612f21565b6108945760405162461bcd60e51b81526004016107c7906153f2565b8360800135806108a2612fbd565b11156108eb576040805162461bcd60e51b8152602060048201526013602482015272151c985b9cd858dd1a5bdb881d1bdbc81bdb19606a1b604482015290519081900360640190fd5b60006108fd6040870160208801614fe7565b6001600160801b03161161091057600080fd5b84356000908152600c602090815260409182902060018101549092600160801b9091046001600160801b03169161094b918901908901614fe7565b6001600160801b0316816001600160801b0316101561096957600080fd5b6001828101546001600160501b03166000908152600b60209081526040808320815160608101835281546001600160a01b039081168252919095015490811692850192909252600160a01b90910462ffffff16908301526109ea7f000000000000000000000000000000000000000000000000000000000000000083612fc1565b60018501549091506001600160a01b0382169063a34123a790600160501b8104600290810b91600160681b9004900b610a2960408e0160208f01614fe7565b6040518463ffffffff1660e01b8152600401610a47939291906153b9565b6040805180830381600087803b158015610a6057600080fd5b505af1158015610a74573d6000803e3d6000fd5b505050506040513d601f19601f82011682018060405250810190610a989190615181565b909850965060408901358810801590610ab5575088606001358710155b610ad15760405162461bcd60e51b81526004016107c790615464565b6001840154600090610afa903090600160501b8104600290810b91600160681b9004900b6130a0565b9050600080836001600160a01b031663514ea4bf846040518263ffffffff1660e01b8152600401610b2b9190615397565b60a06040518083038186803b158015610b4357600080fd5b505afa158015610b57573d6000803e3d6000fd5b505050506040513d601f19601f82011682018060405250810190610b7b9190615031565b50509250925050610ba087600201548303876001600160801b0316600160801b6130f5565b6004880180546001600160801b03198116928e016001600160801b039182160181169290921790556003880154610be191908303908816600160801b6130f5565b6004880180546001600160801b03808216938e01600160801b9283900482160116029190911790556002870182905560038701819055610c2760408d0160208e01614fe7565b86038760010160106101000a8154816001600160801b0302191690836001600160801b031602179055508b600001357f26f6a048ee9138f2c0ce266f322cb99228e8d619ae2bff30c67f8dcf9d2377b48d6020016020810190610c8a9190614fe7565b8d8d604051610c9b93929190615521565b60405180910390a2505050505050505050915091565b4715610cc157610cc133476131a4565b565b6000836001600160a01b0316856001600160a01b031610610ce357600080fd5b7f00000000000000000000000000000000000000000000000000000000000000006001600160a01b0316631698ee828686866040518463ffffffff1660e01b815260040180846001600160a01b03168152602001836001600160a01b031681526020018262ffffff168152602001935050505060206040518083038186803b158015610d6e57600080fd5b505afa158015610d82573d6000803e3d6000fd5b505050506040513d6020811015610d9857600080fd5b505190506001600160a01b038116610ece577f00000000000000000000000000000000000000000000000000000000000000006001600160a01b031663a16712958686866040518463ffffffff1660e01b815260040180846001600160a01b03168152602001836001600160a01b031681526020018262ffffff1681526020019350505050602060405180830381600087803b158015610e3757600080fd5b505af1158015610e4b573d6000803e3d6000fd5b505050506040513d6020811015610e6157600080fd5b50516040805163f637731d60e01b81526001600160a01b03858116600483015291519293509083169163f637731d9160248082019260009290919082900301818387803b158015610eb157600080fd5b505af1158015610ec5573d6000803e3d6000fd5b50505050610faf565b6000816001600160a01b0316633850c7bd6040518163ffffffff1660e01b815260040160e06040518083038186803b158015610f0957600080fd5b505afa158015610f1d573d6000803e3d6000fd5b505050506040513d60e0811015610f3357600080fd5b505190506001600160a01b038116610fad57816001600160a01b031663f637731d846040518263ffffffff1660e01b815260040180826001600160a01b03168152602001915050600060405180830381600087803b158015610f9457600080fd5b505af1158015610fa8573d6000803e3d6000fd5b505050505b505b949350505050565b6000610fc36002613293565b905090565b60008060008360a0013580610fdb612fbd565b1115611024576040805162461bcd60e51b8152602060048201526013602482015272151c985b9cd858dd1a5bdb881d1bdbc81bdb19606a1b604482015290519081900360640190fd5b84356000908152600c602090815260408083206001808201546001600160501b0381168652600b855283862084516060808201875282546001600160a01b039081168352929094015480831682890190815262ffffff600160a01b9092048216838901908152885161014081018a528451861681529151909416818a0152925116828701523082850152600160501b8304600290810b810b608080850191909152600160681b909404810b900b60a0830152958c013560c0820152938b013560e0850152908a013561010084015289013561012083015292906111069061329e565b6001870154939a5091985096509150600090611139903090600160501b8104600290810b91600160681b9004900b6130a0565b9050600080836001600160a01b031663514ea4bf846040518263ffffffff1660e01b815260040161116a9190615397565b60a06040518083038186803b15801561118257600080fd5b505afa158015611196573d6000803e3d6000fd5b505050506040513d601f19601f820116820180604052508101906111ba9190615031565b505092509250506111f6866002015483038760010160109054906101000a90046001600160801b03166001600160801b0316600160801b6130f5565b6004870180546001600160801b0380821690930183166001600160801b03199091161790556003870154600188015461123d9291840391600160801b9182900416906130f5565b6004870180546001600160801b03600160801b80830482169094018116840291811691909117909155600288018490556003880183905560018801805483810483168e018316909302929091169190911790556040518b35907f3067048beee31b25b2f1681f88dac838c8bba36af25bfb2b7cf7473a5847e35f906112c7908d908d908d90615521565b60405180910390a2505050505050509193909250565b6112ee6112e86134d9565b82612f21565b6113295760405162461bcd60e51b815260040180806020018281038252603181526020018061589c6031913960400191505060405180910390fd5b6113348383836134dd565b505050565b6001600160a01b038216600090815260016020526040812061135b9083613629565b90505b92915050565b7f49ecf333e5b8c95c40fdafc95c1ad136e8914a8fb55e9dc8bb01eaa83a2df9ad81565b60007f8b73c3c69bb8fe3d512ecc4cf759cc79239f7b179b0ffacaa9a75d522b39400f7f00000000000000000000000000000000000000000000000000000000000000007f00000000000000000000000000000000000000000000000000000000000000006113f5613635565b3060405160200180868152602001858152602001848152602001838152602001826001600160a01b031681526020019550505050505060405160208183030381529060405280519060200120905090565b611334838383604051806020016040528060008152506126e6565b8061146c3382612f21565b6114885760405162461bcd60e51b81526004016107c7906153f2565b6000828152600c602052604090206001810154600160801b90046001600160801b03161580156114c3575060048101546001600160801b0316155b80156114e157506004810154600160801b90046001600160801b0316155b6114fd5760405162461bcd60e51b81526004016107c7906154bc565b6000838152600c602052604081208181556001810182905560028101829055600381018290556004015561133483613639565b604080516323f2ebc360e21b815233600482015230602482015260448101879052606481018690526001608482015260ff851660a482015260c4810184905260e4810183905290516001600160a01b03881691638fcbaf0c9161010480830192600092919082900301818387803b1580156115aa57600080fd5b505af11580156115be573d6000803e3d6000fd5b50505050505050505050565b60007f00000000000000000000000000000000000000000000000000000000000000006001600160a01b03166370a08231306040518263ffffffff1660e01b815260040180826001600160a01b0316815260200191505060206040518083038186803b15801561163957600080fd5b505afa15801561164d573d6000803e3d6000fd5b505050506040513d602081101561166357600080fd5b50519050828110156116b1576040805162461bcd60e51b8152602060048201526012602482015271496e73756666696369656e7420574554483960701b604482015290519081900360640190fd5b8015611334577f00000000000000000000000000000000000000000000000000000000000000006001600160a01b0316632e1a7d4d826040518263ffffffff1660e01b815260040180828152602001915050600060405180830381600087803b15801561171d57600080fd5b505af1158015611731573d6000803e3d6000fd5b5050505061133482826131a4565b7f000000000000000000000000000000000000000000000000000000000000000081565b600080611771600284613706565b509392505050565b600061135e826040518060600160405280602981526020016158286029913960029190613724565b606090565b60006001600160a01b0382166117ed5760405162461bcd60e51b815260040180806020018281038252602a8152602001806157fe602a913960400191505060405180910390fd5b6001600160a01b038216600090815260016020526040902061135e90613293565b83611817612fbd565b111561185b576040805162461bcd60e51b815260206004820152600e60248201526d14195c9b5a5d08195e1c1a5c995960921b604482015290519081900360640190fd5b6000611865611388565b7f49ecf333e5b8c95c40fdafc95c1ad136e8914a8fb55e9dc8bb01eaa83a2df9ad888861189181613731565b604080516020808201969096526001600160a01b03909416848201526060840192909252608083015260a08083018a90528151808403909101815260c08301825280519084012061190160f01b60e084015260e28301949094526101028083019490945280518083039094018452610122909101905281519101209050600061191987611779565b9050806001600160a01b0316886001600160a01b0316141561196c5760405162461bcd60e51b81526004018080602001828103825260278152602001806157616027913960400191505060405180910390fd5b61197581613766565b15611add576040805160208082018790528183018690526001600160f81b031960f889901b1660608301528251604181840301815260618301808552630b135d3f60e11b90526065830186815260858401948552815160a585015281516001600160a01b03871695631626ba7e958995919260c59091019185019080838360005b83811015611a0e5781810151838201526020016119f6565b50505050905090810190601f168015611a3b5780820380516001836020036101000a031916815260200191505b50935050505060206040518083038186803b158015611a5957600080fd5b505afa158015611a6d573d6000803e3d6000fd5b505050506040513d6020811015611a8357600080fd5b50516001600160e01b031916630b135d3f60e11b14611ad8576040805162461bcd60e51b815260206004820152600c60248201526b155b985d5d1a1bdc9a5e995960a21b604482015290519081900360640190fd5b611bec565b600060018387878760405160008152602001604052604051808581526020018460ff1681526020018381526020018281526020019450505050506020604051602081039080840390855afa158015611b39573d6000803e3d6000fd5b5050604051601f1901519150506001600160a01b038116611b95576040805162461bcd60e51b8152602060048201526011602482015270496e76616c6964207369676e617475726560781b604482015290519081900360640190fd5b816001600160a01b0316816001600160a01b031614611bea576040805162461bcd60e51b815260206004820152600c60248201526b155b985d5d1a1bdc9a5e995960a21b604482015290519081900360640190fd5b505b611bf688886107f3565b5050505050505050565b60008060008084610140013580611c15612fbd565b1115611c5e576040805162461bcd60e51b8152602060048201526013602482015272151c985b9cd858dd1a5bdb881d1bdbc81bdb19606a1b604482015290519081900360640190fd5b604080516101408101909152600090611d2a9080611c7f60208b018b614b47565b6001600160a01b03168152602001896020016020810190611ca09190614b47565b6001600160a01b03168152602001611cbe60608b0160408c0161512b565b62ffffff168152306020820152604001611cde60808b0160608c01614e6b565b60020b8152602001611cf660a08b0160808c01614e6b565b60020b81526020018960a0013581526020018960c0013581526020018960e00135815260200189610100013581525061329e565b92975090955093509050611d77611d4961014089016101208a01614b47565b600d80546001600160b01b0319811660016001600160b01b039283169081019092161790915597508761376c565b6000611da230611d8d60808b0160608c01614e6b565b611d9d60a08c0160808d01614e6b565b6130a0565b9050600080836001600160a01b031663514ea4bf846040518263ffffffff1660e01b8152600401611dd39190615397565b60a06040518083038186803b158015611deb57600080fd5b505afa158015611dff573d6000803e3d6000fd5b505050506040513d601f19601f82011682018060405250810190611e239190615031565b505092509250506000611e9c8560405180606001604052808e6000016020810190611e4e9190614b47565b6001600160a01b031681526020018e6020016020810190611e6f9190614b47565b6001600160a01b031681526020018e6040016020810190611e90919061512b565b62ffffff16905261389a565b905060405180610140016040528060006001600160601b0316815260200160006001600160a01b03168152602001826001600160501b031681526020018c6060016020810190611eec9190614e6b565b60020b8152602001611f0460a08e0160808f01614e6b565b60020b81526020018a6001600160801b0316815260200184815260200183815260200160006001600160801b0316815260200160006001600160801b0316815250600c60008c815260200190815260200160002060008201518160000160006101000a8154816001600160601b0302191690836001600160601b03160217905550602082015181600001600c6101000a8154816001600160a01b0302191690836001600160a01b0316021790555060408201518160010160006101000a8154816001600160501b0302191690836001600160501b03160217905550606082015181600101600a6101000a81548162ffffff021916908360020b62ffffff160217905550608082015181600101600d6101000a81548162ffffff021916908360020b62ffffff16021790555060a08201518160010160106101000a8154816001600160801b0302191690836001600160801b0316021790555060c0820151816002015560e082015181600301556101008201518160040160006101000a8154816001600160801b0302191690836001600160801b031602179055506101208201518160040160106101000a8154816001600160801b0302191690836001600160801b03160217905550905050897f3067048beee31b25b2f1681f88dac838c8bba36af25bfb2b7cf7473a5847e35f8a8a8a60405161210393929190615521565b60405180910390a25050505050509193509193565b60078054604080516020601f60026000196101006001881615020190951694909404938401819004810282018101909252828152606093909290918301828280156107965780601f1061076b57610100808354040283529160200191610796565b600061218782840184614f2a565b90506121b77f0000000000000000000000000000000000000000000000000000000000000000826000015161397c565b5084156121d25780515160208201516121d29190338861399f565b83156121f0576121f08160000151602001518260200151338761399f565b5050505050565b6000818152600c6020908152604080832081516101408101835281546001600160601b03811682526001600160a01b03600160601b909104169381019390935260018101546001600160501b038116928401839052600160501b8104600290810b810b810b6060860152600160681b8204810b810b810b60808601526001600160801b03600160801b92839004811660a08701529083015460c0860152600383015460e0860152600490920154808316610100860152041661012083015282918291829182918291829182918291829182918291906122e85760405162461bcd60e51b81526004016107c790615492565b6000600b600083604001516001600160501b03166001600160501b031681526020019081526020016000206040518060600160405290816000820160009054906101000a90046001600160a01b03166001600160a01b03166001600160a01b031681526020016001820160009054906101000a90046001600160a01b03166001600160a01b03166001600160a01b031681526020016001820160149054906101000a900462ffffff1662ffffff1662ffffff1681525050905081600001518260200151826000015183602001518460400151866060015187608001518860a001518960c001518a60e001518b61010001518c61012001519d509d509d509d509d509d509d509d509d509d509d509d50505091939597999b5091939597999b565b6124106134d9565b6001600160a01b0316826001600160a01b03161415612476576040805162461bcd60e51b815260206004820152601960248201527f4552433732313a20617070726f766520746f2063616c6c657200000000000000604482015290519081900360640190fd5b80600560006124836134d9565b6001600160a01b03908116825260208083019390935260409182016000908120918716808252919093529120805460ff1916921515929092179091556124c76134d9565b6001600160a01b03167f17307eab39ab6107e8899845ad3d59bd9653f200f220920489ca2b5937696c318360405180821515815260200191505060405180910390a35050565b60408051636eb1769f60e11b81523360048201523060248201529051600019916001600160a01b0389169163dd62ed3e91604480820192602092909190829003018186803b15801561255e57600080fd5b505afa158015612572573d6000803e3d6000fd5b505050506040513d602081101561258857600080fd5b5051101561259e5761259e868686868686611530565b505050505050565b60608167ffffffffffffffff811180156125bf57600080fd5b506040519080825280602002602001820160405280156125f357816020015b60608152602001906001900390816125de5790505b50905060005b828110156126df576000803086868581811061261157fe5b9050602002810190612623919061560e565b60405161263192919061525f565b600060405180830381855af49150503d806000811461266c576040519150601f19603f3d011682016040523d82523d6000602084013e612671565b606091505b5091509150816126bd5760448151101561268a57600080fd5b600481019050808060200190518101906126a49190614e87565b60405162461bcd60e51b81526004016107c791906153df565b808484815181106126ca57fe5b602090810291909101015250506001016125f9565b5092915050565b6126f76126f16134d9565b83612f21565b6127325760405162461bcd60e51b815260040180806020018281038252603181526020018061589c6031913960400191505060405180910390fd5b61273e84848484613b2f565b50505050565b60408051636eb1769f60e11b8152336004820152306024820152905186916001600160a01b0389169163dd62ed3e91604480820192602092909190829003018186803b15801561279357600080fd5b505afa1580156127a7573d6000803e3d6000fd5b505050506040513d60208110156127bd57600080fd5b5051101561259e5761259e8686868686866129d7565b7f000000000000000000000000000000000000000000000000000000000000000081565b606061280282612f14565b61280b57600080fd5b60405163e9dc637560e01b81526001600160a01b037f0000000000000000000000000000000000000000000000000000000000000000169063e9dc63759061285990309086906004016153a0565b60006040518083038186803b15801561287157600080fd5b505afa158015612885573d6000803e3d6000fd5b505050506040513d6000823e601f3d908101601f1916820160405261135e9190810190614e87565b7f000000000000000000000000000000000000000000000000000000000000000081565b6000836001600160a01b03166370a08231306040518263ffffffff1660e01b815260040180826001600160a01b0316815260200191505060206040518083038186803b15801561292057600080fd5b505afa158015612934573d6000803e3d6000fd5b505050506040513d602081101561294a57600080fd5b5051905082811015612998576040805162461bcd60e51b815260206004820152601260248201527124b739bab33334b1b4b2b73a103a37b5b2b760711b604482015290519081900360640190fd5b801561273e5761273e848383613b81565b6001600160a01b03918216600090815260056020908152604080832093909416825291909152205460ff1690565b6040805163d505accf60e01b8152336004820152306024820152604481018790526064810186905260ff8516608482015260a4810184905260c4810183905290516001600160a01b0388169163d505accf9160e480830192600092919082900301818387803b1580156115aa57600080fd5b6000808235612a583382612f21565b612a745760405162461bcd60e51b81526004016107c7906153f2565b6000612a866060860160408701614fe7565b6001600160801b03161180612ab357506000612aa86080860160608701614fe7565b6001600160801b0316115b612abc57600080fd5b600080612acf6040870160208801614b47565b6001600160a01b031614612af257612aed6040860160208701614b47565b612af4565b305b85356000908152600c602090815260408083206001808201546001600160501b03168552600b8452828520835160608101855281546001600160a01b039081168252919092015490811694820194909452600160a01b90930462ffffff169183019190915292935090612b877f000000000000000000000000000000000000000000000000000000000000000083612fc1565b600484015460018501549192506001600160801b0380821692600160801b9283900482169290041615612d7d57600185015460405163a34123a760e01b81526001600160a01b0385169163a34123a791612bfe91600160501b8104600290810b92600160681b909204900b906000906004016153b9565b6040805180830381600087803b158015612c1757600080fd5b505af1158015612c2b573d6000803e3d6000fd5b505050506040513d601f19601f82011682018060405250810190612c4f9190615181565b5050600185015460009081906001600160a01b0386169063514ea4bf90612c8d903090600160501b8104600290810b91600160681b9004900b6130a0565b6040518263ffffffff1660e01b8152600401612ca99190615397565b60a06040518083038186803b158015612cc157600080fd5b505afa158015612cd5573d6000803e3d6000fd5b505050506040513d601f19601f82011682018060405250810190612cf99190615031565b50509250925050612d35876002015483038860010160109054906101000a90046001600160801b03166001600160801b0316600160801b6130f5565b84019350612d6e876003015482038860010160109054906101000a90046001600160801b03166001600160801b0316600160801b6130f5565b60028801929092556003870155015b6000806001600160801b038416612d9a60608e0160408f01614fe7565b6001600160801b031611612dbd57612db860608d0160408e01614fe7565b612dbf565b835b836001600160801b03168d6060016020810190612ddc9190614fe7565b6001600160801b031611612dff57612dfa60808e0160608f01614fe7565b612e01565b835b60018901546040516309e3d67b60e31b81529294509092506001600160a01b03871691634f1eb3d891612e54918c91600160501b8104600290810b92600160681b909204900b90889088906004016152c5565b6040805180830381600087803b158015612e6d57600080fd5b505af1158015612e81573d6000803e3d6000fd5b505050506040513d601f19601f82011682018060405250810190612ea59190615003565b6004890180546001600160801b03196001600160801b03918216600160801b878a0384160217168689038216179091556040519281169d50169a508c35907f40d0efd1a53d60ecbf40971b9daf7dc90178c3aadc7aab1765632738fa8b8f0190610c9b908b9086908690615302565b600061135e600283613cc8565b6000612f2c82612f14565b612f675760405162461bcd60e51b815260040180806020018281038252602c8152602001806157d2602c913960400191505060405180910390fd5b6000612f7283611779565b9050806001600160a01b0316846001600160a01b03161480612fad5750836001600160a01b0316612fa2846107a0565b6001600160a01b0316145b80610faf5750610faf81856129a9565b4290565b600081602001516001600160a01b031682600001516001600160a01b031610612fe957600080fd5b50805160208083015160409384015184516001600160a01b0394851681850152939091168385015262ffffff166060808401919091528351808403820181526080840185528051908301206001600160f81b031960a085015294901b6001600160601b03191660a183015260b58201939093527ff5c8cd209dba528041d79d4ba7073926156cd25911491a8fd976619bfd753a6060d5808301919091528251808303909101815260f5909101909152805191012090565b604080516001600160601b0319606086901b16602080830191909152600285810b60e890811b60348501529085900b901b60378301528251601a818403018152603a90920190925280519101205b9392505050565b600080806000198587098686029250828110908390030390508061312b576000841161312057600080fd5b5082900490506130ee565b80841161313757600080fd5b6000848688096000868103871696879004966002600389028118808a02820302808a02820302808a02820302808a02820302808a02820302808a02909103029181900381900460010186841190950394909402919094039290920491909117919091029150509392505050565b604080516000808252602082019092526001600160a01b0384169083906040518082805190602001908083835b602083106131f05780518252601f1990920191602091820191016131d1565b6001836020036101000a03801982511681845116808217855250505050505090500191505060006040518083038185875af1925050503d8060008114613252576040519150601f19603f3d011682016040523d82523d6000602084013e613257565b606091505b5050905080611334576040805162461bcd60e51b815260206004820152600360248201526253544560e81b604482015290519081900360640190fd5b600061135e82613cd4565b6000806000806000604051806060016040528087600001516001600160a01b0316815260200187602001516001600160a01b03168152602001876040015162ffffff1681525090506133107f000000000000000000000000000000000000000000000000000000000000000082612fc1565b91506000826001600160a01b0316633850c7bd6040518163ffffffff1660e01b815260040160e06040518083038186803b15801561334d57600080fd5b505afa158015613361573d6000803e3d6000fd5b505050506040513d601f19601f820116820180604052508101906133859190615092565b5050505050509050600061339c8860800151613cd8565b905060006133ad8960a00151613cd8565b90506133c48383838c60c001518d60e0015161400a565b9750505050816001600160a01b0316633c8a7d8d876060015188608001518960a00151896040518060400160405280888152602001336001600160a01b031681525060405160200161341691906154e1565b6040516020818303038152906040526040518663ffffffff1660e01b8152600401613445959493929190615283565b6040805180830381600087803b15801561345e57600080fd5b505af1158015613472573d6000803e3d6000fd5b505050506040513d601f19601f820116820180604052508101906134969190615181565b610100880151919550935084108015906134b557508561012001518310155b6134d15760405162461bcd60e51b81526004016107c790615464565b509193509193565b3390565b826001600160a01b03166134f082611779565b6001600160a01b0316146135355760405162461bcd60e51b81526004018080602001828103825260298152602001806158736029913960400191505060405180910390fd5b6001600160a01b03821661357a5760405162461bcd60e51b81526004018080602001828103825260248152602001806157886024913960400191505060405180910390fd5b613585838383611334565b6135906000826140ce565b6001600160a01b03831660009081526001602052604090206135b29082614103565b506001600160a01b03821660009081526001602052604090206135d5908261410f565b506135e26002828461411b565b5080826001600160a01b0316846001600160a01b03167fddf252ad1be2c89b69c2b068fc378daa952ba7f163c4a11628f55a4df523b3ef60405160405180910390a4505050565b600061135b8383614131565b4690565b600061364482611779565b905061365281600084611334565b61365d6000836140ce565b600082815260086020526040902054600260001961010060018416150201909116041561369b57600082815260086020526040812061369b91614ab7565b6001600160a01b03811660009081526001602052604090206136bd9083614103565b506136c9600283614195565b5060405182906000906001600160a01b038416907fddf252ad1be2c89b69c2b068fc378daa952ba7f163c4a11628f55a4df523b3ef908390a45050565b600080808061371586866141a1565b909450925050505b9250929050565b6000610faf84848461421c565b6000908152600c6020526040902080546001600160601b0319811660016001600160601b039283169081019092161790915590565b3b151590565b6001600160a01b0382166137c7576040805162461bcd60e51b815260206004820181905260248201527f4552433732313a206d696e7420746f20746865207a65726f2061646472657373604482015290519081900360640190fd5b6137d081612f14565b15613822576040805162461bcd60e51b815260206004820152601c60248201527f4552433732313a20746f6b656e20616c7265616479206d696e74656400000000604482015290519081900360640190fd5b61382e60008383611334565b6001600160a01b0382166000908152600160205260409020613850908261410f565b5061385d6002828461411b565b5060405181906001600160a01b038416906000907fddf252ad1be2c89b69c2b068fc378daa952ba7f163c4a11628f55a4df523b3ef908290a45050565b6001600160a01b0382166000908152600a60205260409020546001600160501b03168061135e5750600d805460016001600160501b03600160b01b8084048216838101909216026001600160b01b03909316929092179092556001600160a01b038085166000908152600a60209081526040808320805469ffffffffffffffffffff191686179055848352600b825291829020865181549085166001600160a01b031991821617825591870151950180549287015162ffffff16600160a01b0262ffffff60a01b19969094169290911691909117939093161790915592915050565b60006139888383612fc1565b9050336001600160a01b0382161461135e57600080fd5b7f00000000000000000000000000000000000000000000000000000000000000006001600160a01b0316846001600160a01b03161480156139e05750804710155b15613b02577f00000000000000000000000000000000000000000000000000000000000000006001600160a01b031663d0e30db0826040518263ffffffff1660e01b81526004016000604051808303818588803b158015613a4057600080fd5b505af1158015613a54573d6000803e3d6000fd5b50505050507f00000000000000000000000000000000000000000000000000000000000000006001600160a01b031663a9059cbb83836040518363ffffffff1660e01b815260040180836001600160a01b0316815260200182815260200192505050602060405180830381600087803b158015613ad057600080fd5b505af1158015613ae4573d6000803e3d6000fd5b505050506040513d6020811015613afa57600080fd5b5061273e9050565b6001600160a01b038316301415613b2357613b1e848383613b81565b61273e565b61273e848484846142e6565b613b3a8484846134dd565b613b4684848484614436565b61273e5760405162461bcd60e51b815260040180806020018281038252603281526020018061572f6032913960400191505060405180910390fd5b604080516001600160a01b038481166024830152604480830185905283518084039091018152606490920183526020820180516001600160e01b031663a9059cbb60e01b1781529251825160009485949389169392918291908083835b60208310613bfd5780518252601f199092019160209182019101613bde565b6001836020036101000a0380198251168184511680821785525050505050509050019150506000604051808303816000865af19150503d8060008114613c5f576040519150601f19603f3d011682016040523d82523d6000602084013e613c64565b606091505b5091509150818015613c92575080511580613c925750808060200190516020811015613c8f57600080fd5b50515b6121f0576040805162461bcd60e51b815260206004820152600260248201526114d560f21b604482015290519081900360640190fd5b600061135b838361459e565b5490565b60008060008360020b12613cef578260020b613cf7565b8260020b6000035b9050620d89e8811115613d35576040805162461bcd60e51b81526020600482015260016024820152601560fa1b604482015290519081900360640190fd5b600060018216613d4957600160801b613d5b565b6ffffcb933bd6fad37aa2d162d1a5940015b70ffffffffffffffffffffffffffffffffff1690506002821615613d8f576ffff97272373d413259a46990580e213a0260801c5b6004821615613dae576ffff2e50f5f656932ef12357cf3c7fdcc0260801c5b6008821615613dcd576fffe5caca7e10e4e61c3624eaa0941cd00260801c5b6010821615613dec576fffcb9843d60f6159c9db58835c9266440260801c5b6020821615613e0b576fff973b41fa98c081472e6896dfb254c00260801c5b6040821615613e2a576fff2ea16466c96a3843ec78b326b528610260801c5b6080821615613e49576ffe5dee046a99a2a811c461f1969c30530260801c5b610100821615613e69576ffcbe86c7900a88aedcffc83b479aa3a40260801c5b610200821615613e89576ff987a7253ac413176f2b074cf7815e540260801c5b610400821615613ea9576ff3392b0822b70005940c7a398e4b70f30260801c5b610800821615613ec9576fe7159475a2c29b7443b29c7fa6e889d90260801c5b611000821615613ee9576fd097f3bdfd2022b8845ad8f792aa58250260801c5b612000821615613f09576fa9f746462d870fdf8a65dc1f90e061e50260801c5b614000821615613f29576f70d869a156d2a1b890bb3df62baf32f70260801c5b618000821615613f49576f31be135f97d08fd981231505542fcfa60260801c5b62010000821615613f6a576f09aa508b5b7a84e1c677de54f3e99bc90260801c5b62020000821615613f8a576e5d6af8dedb81196699c329225ee6040260801c5b62040000821615613fa9576d2216e584f5fa1ea926041bedfe980260801c5b62080000821615613fc6576b048a170391f7dc42444e8fa20260801c5b60008460020b1315613fe1578060001981613fdd57fe5b0490505b640100000000810615613ff5576001613ff8565b60005b60ff16602082901c0192505050919050565b6000836001600160a01b0316856001600160a01b0316111561402a579293925b846001600160a01b0316866001600160a01b0316116140555761404e8585856145b6565b90506140c5565b836001600160a01b0316866001600160a01b031610156140b757600061407c8786866145b6565b9050600061408b878986614619565b9050806001600160801b0316826001600160801b0316106140ac57806140ae565b815b925050506140c5565b6140c2858584614619565b90505b95945050505050565b600081815260046020526040902080546001600160a01b0319166001600160a01b038416908117909155819061083082611779565b600061135b8383614656565b600061135b838361471c565b6000610faf84846001600160a01b038516614766565b815460009082106141735760405162461bcd60e51b815260040180806020018281038252602281526020018061570d6022913960400191505060405180910390fd5b82600001828154811061418257fe5b9060005260206000200154905092915050565b600061135b83836147fd565b8154600090819083106141e55760405162461bcd60e51b81526004018080602001828103825260228152602001806158516022913960400191505060405180910390fd5b60008460000184815481106141f657fe5b906000526020600020906002020190508060000154816001015492509250509250929050565b600082815260018401602052604081205482816142b75760405162461bcd60e51b81526004018080602001828103825283818151815260200191508051906020019080838360005b8381101561427c578181015183820152602001614264565b50505050905090810190601f1680156142a95780820380516001836020036101000a031916815260200191505b509250505060405180910390fd5b508460000160018203815481106142ca57fe5b9060005260206000209060020201600101549150509392505050565b604080516001600160a01b0385811660248301528481166044830152606480830185905283518084039091018152608490920183526020820180516001600160e01b03166323b872dd60e01b178152925182516000948594938a169392918291908083835b6020831061436a5780518252601f19909201916020918201910161434b565b6001836020036101000a0380198251168184511680821785525050505050509050019150506000604051808303816000865af19150503d80600081146143cc576040519150601f19603f3d011682016040523d82523d6000602084013e6143d1565b606091505b50915091508180156143ff5750805115806143ff57508080602001905160208110156143fc57600080fd5b50515b61259e576040805162461bcd60e51b815260206004820152600360248201526229aa2360e91b604482015290519081900360640190fd5b600061444a846001600160a01b0316613766565b61445657506001610faf565b6000614564630a85bd0160e11b61446b6134d9565b88878760405160240180856001600160a01b03168152602001846001600160a01b0316815260200183815260200180602001828103825283818151815260200191508051906020019080838360005b838110156144d25781810151838201526020016144ba565b50505050905090810190601f1680156144ff5780820380516001836020036101000a031916815260200191505b5095505050505050604051602081830303815290604052906001600160e01b0319166020820180516001600160e01b03838183161783525050505060405180606001604052806032815260200161572f603291396001600160a01b03881691906148d1565b9050600081806020019051602081101561457d57600080fd5b50516001600160e01b031916630a85bd0160e11b1492505050949350505050565b60009081526001919091016020526040902054151590565b6000826001600160a01b0316846001600160a01b031611156145d6579192915b60006145f9856001600160a01b0316856001600160a01b0316600160601b6130f5565b90506140c561461484838888036001600160a01b03166130f5565b6148e0565b6000826001600160a01b0316846001600160a01b03161115614639579192915b610faf61461483600160601b8787036001600160a01b03166130f5565b60008181526001830160205260408120548015614712578354600019808301919081019060009087908390811061468957fe5b90600052602060002001549050808760000184815481106146a657fe5b6000918252602080832090910192909255828152600189810190925260409020908401905586548790806146d657fe5b6001900381819060005260206000200160009055905586600101600087815260200190815260200160002060009055600194505050505061135e565b600091505061135e565b6000614728838361459e565b61475e5750815460018181018455600084815260208082209093018490558454848252828601909352604090209190915561135e565b50600061135e565b6000828152600184016020526040812054806147cb5750506040805180820182528381526020808201848152865460018181018955600089815284812095516002909302909501918255915190820155865486845281880190925292909120556130ee565b828560000160018303815481106147de57fe5b90600052602060002090600202016001018190555060009150506130ee565b60008181526001830160205260408120548015614712578354600019808301919081019060009087908390811061483057fe5b906000526020600020906002020190508087600001848154811061485057fe5b60009182526020808320845460029093020191825560019384015491840191909155835482528983019052604090209084019055865487908061488f57fe5b600082815260208082206002600019909401938402018281556001908101839055929093558881528982019092526040822091909155945061135e9350505050565b6060610faf84846000856148f6565b806001600160801b038116811461070557600080fd5b6060824710156149375760405162461bcd60e51b81526004018080602001828103825260268152602001806157ac6026913960400191505060405180910390fd5b61494085613766565b614991576040805162461bcd60e51b815260206004820152601d60248201527f416464726573733a2063616c6c20746f206e6f6e2d636f6e7472616374000000604482015290519081900360640190fd5b600080866001600160a01b031685876040518082805190602001908083835b602083106149cf5780518252601f1990920191602091820191016149b0565b6001836020036101000a03801982511681845116808217855250505050505090500191505060006040518083038185875af1925050503d8060008114614a31576040519150601f19603f3d011682016040523d82523d6000602084013e614a36565b606091505b5091509150614a46828286614a51565b979650505050505050565b60608315614a605750816130ee565b825115614a705782518084602001fd5b60405162461bcd60e51b815260206004820181815284516024840152845185939192839260440191908501908083836000831561427c578181015183820152602001614264565b50805460018160011615610100020316600290046000825580601f10614add5750614afb565b601f016020900490600052602060002090810190614afb9190614afe565b50565b5b80821115614b135760008155600101614aff565b5090565b8035610705816156c5565b805161ffff8116811461070557600080fd5b803562ffffff8116811461070557600080fd5b600060208284031215614b58578081fd5b81356130ee816156c5565b60008060408385031215614b75578081fd5b8235614b80816156c5565b91506020830135614b90816156c5565b809150509250929050565b60008060008060808587031215614bb0578182fd5b8435614bbb816156c5565b93506020850135614bcb816156c5565b9250614bd960408601614b34565b91506060850135614be9816156c5565b939692955090935050565b600080600060608486031215614c08578081fd5b8335614c13816156c5565b92506020840135614c23816156c5565b929592945050506040919091013590565b60008060008060808587031215614c49578182fd5b8435614c54816156c5565b93506020850135614c64816156c5565b925060408501359150606085013567ffffffffffffffff811115614c86578182fd5b8501601f81018713614c96578182fd5b8035614ca9614ca482615677565b615653565b818152886020838501011115614cbd578384fd5b81602084016020830137908101602001929092525092959194509250565b60008060408385031215614ced578182fd5b8235614cf8816156c5565b91506020830135614b90816156da565b60008060408385031215614d1a578182fd5b8235614d25816156c5565b946020939093013593505050565b600080600060608486031215614d47578081fd5b8335614d52816156c5565b9250602084013591506040840135614d69816156c5565b809150509250925092565b60008060008060008060c08789031215614d8c578384fd5b8635614d97816156c5565b95506020870135945060408701359350606087013560ff81168114614dba578283fd5b9598949750929560808101359460a0909101359350915050565b60008060208385031215614de6578182fd5b823567ffffffffffffffff80821115614dfd578384fd5b818501915085601f830112614e10578384fd5b813581811115614e1e578485fd5b8660208083028501011115614e31578485fd5b60209290920196919550909350505050565b600060208284031215614e54578081fd5b81356001600160e01b0319811681146130ee578182fd5b600060208284031215614e7c578081fd5b81356130ee816156e8565b600060208284031215614e98578081fd5b815167ffffffffffffffff811115614eae578182fd5b8201601f81018413614ebe578182fd5b8051614ecc614ca482615677565b818152856020838501011115614ee0578384fd5b6140c5826020830160208601615699565b600060808284031215614f02578081fd5b50919050565b600060a08284031215614f02578081fd5b600060c08284031215614f02578081fd5b60008183036080811215614f3c578182fd5b6040516040810167ffffffffffffffff8282108183111715614f5a57fe5b816040526060841215614f6b578485fd5b60a0830193508184108185111715614f7f57fe5b508260405284359250614f91836156c5565b918252602084013591614fa3836156c5565b826060830152614fb560408601614b34565b60808301528152614fc860608501614b17565b6020820152949350505050565b60006101608284031215614f02578081fd5b600060208284031215614ff8578081fd5b81356130ee816156f7565b60008060408385031215615015578182fd5b8251615020816156f7565b6020840151909250614b90816156f7565b600080600080600060a08688031215615048578283fd5b8551615053816156f7565b8095505060208601519350604086015192506060860151615073816156f7565b6080870151909250615084816156f7565b809150509295509295909350565b600080600080600080600060e0888a0312156150ac578485fd5b87516150b7816156c5565b60208901519097506150c8816156e8565b95506150d660408901614b22565b94506150e460608901614b22565b93506150f260808901614b22565b925060a088015163ffffffff8116811461510a578182fd5b60c089015190925061511b816156da565b8091505092959891949750929550565b60006020828403121561513c578081fd5b61135b82614b34565b600060208284031215615156578081fd5b5035919050565b6000806040838503121561516f578182fd5b823591506020830135614b90816156c5565b60008060408385031215615193578182fd5b505080516020909101519092909150565b600080600080606085870312156151b9578182fd5b8435935060208501359250604085013567ffffffffffffffff808211156151de578384fd5b818701915087601f8301126151f1578384fd5b8135818111156151ff578485fd5b886020828501011115615210578485fd5b95989497505060200194505050565b60008151808452615237816020860160208601615699565b601f01601f19169290920160200192915050565b60020b9052565b6001600160801b03169052565b6000828483379101908152919050565b6001600160a01b0391909116815260200190565b600060018060a01b03871682528560020b60208301528460020b60408301526001600160801b038416606083015260a06080830152614a4660a083018461521f565b6001600160a01b03959095168552600293840b60208601529190920b60408401526001600160801b03918216606084015216608082015260a00190565b6001600160a01b039390931683526001600160801b03918216602084015216604082015260600190565b6000602080830181845280855180835260408601915060408482028701019250838701855b8281101561537f57603f1988860301845261536d85835161521f565b94509285019290850190600101615351565b5092979650505050505050565b901515815260200190565b90815260200190565b6001600160a01b03929092168252602082015260400190565b600293840b81529190920b60208201526001600160801b03909116604082015260600190565b60006020825261135b602083018461521f565b6020808252600c908201526b139bdd08185c1c1c9bdd995960a21b604082015260600190565b6020808252602c908201527f4552433732313a20617070726f76656420717565727920666f72206e6f6e657860408201526b34b9ba32b73a103a37b5b2b760a11b606082015260800190565b602080825260149082015273507269636520736c69707061676520636865636b60601b604082015260600190565b60208082526010908201526f125b9d985b1a59081d1bdad95b88125160821b604082015260600190565b6020808252600b908201526a139bdd0818db19585c995960aa1b604082015260600190565b815180516001600160a01b03908116835260208083015182168185015260409283015162ffffff1692840192909252920151909116606082015260800190565b6001600160801b039390931683526020830191909152604082015260600190565b9384526001600160801b039290921660208401526040830152606082015260800190565b918252602082015260400190565b6001600160601b038d1681526001600160a01b038c811660208301528b811660408301528a16606082015262ffffff89166080820152600288900b60a082015261018081016155c660c083018961524b565b6155d360e0830188615252565b85610100830152846101208301526155ef610140830185615252565b6155fd610160830184615252565b9d9c50505050505050505050505050565b6000808335601e19843603018112615624578283fd5b83018035915067ffffffffffffffff82111561563e578283fd5b60200191503681900382131561371d57600080fd5b60405181810167ffffffffffffffff8111828210171561566f57fe5b604052919050565b600067ffffffffffffffff82111561568b57fe5b50601f01601f191660200190565b60005b838110156156b457818101518382015260200161569c565b8381111561273e5750506000910152565b6001600160a01b0381168114614afb57600080fd5b8015158114614afb57600080fd5b8060020b8114614afb57600080fd5b6001600160801b0381168114614afb57600080fdfe456e756d657261626c655365743a20696e646578206f7574206f6620626f756e64734552433732313a207472616e7366657220746f206e6f6e20455243373231526563656976657220696d706c656d656e7465724552433732315065726d69743a20617070726f76616c20746f2063757272656e74206f776e65724552433732313a207472616e7366657220746f20746865207a65726f2061646472657373416464726573733a20696e73756666696369656e742062616c616e636520666f722063616c6c4552433732313a206f70657261746f7220717565727920666f72206e6f6e6578697374656e7420746f6b656e4552433732313a2062616c616e636520717565727920666f7220746865207a65726f20616464726573734552433732313a206f776e657220717565727920666f72206e6f6e6578697374656e7420746f6b656e456e756d657261626c654d61703a20696e646578206f7574206f6620626f756e64734552433732313a207472616e73666572206f6620746f6b656e2074686174206973206e6f74206f776e4552433732313a207472616e736665722063616c6c6572206973206e6f74206f776e6572206e6f7220617070726f766564a26469706673582212203e70716ac3d1ffa82b73f96290b48e53ed58c5973ceb6a1f7b6dd4a7a6f2256d64736f6c63430007060033","linkReferences":{}},"methodIdentifiers":{"DOMAIN_SEPARATOR()":"3644e515","PERMIT_TYPEHASH()":"30adf81f","WETH9()":"4aa4a4fc","approve(address,uint256)":"095ea7b3","balanceOf(address)":"70a08231","baseURI()":"6c0360eb","burn(uint256)":"42966c68","collect((uint256,address,uint128,uint128))":"fc6f7865","createAndInitializePoolIfNecessary(address,address,uint24,uint160)":"13ead562","decreaseLiquidity((uint256,uint128,uint256,uint256,uint256))":"0c49ccbe","deployer()":"d5f39488","factory()":"c45a0155","getApproved(uint256)":"081812fc","increaseLiquidity((uint256,uint256,uint256,uint256,uint256,uint256))":"219f5d17","isApprovedForAll(address,address)":"e985e9c5","mint((address,address,uint24,int24,int24,uint256,uint256,uint256,uint256,address,uint256))":"88316456","multicall(bytes[])":"ac9650d8","name()":"06fdde03","ownerOf(uint256)":"6352211e","pancakeV3MintCallback(uint256,uint256,bytes)":"99eee9d0","permit(address,uint256,uint256,uint8,bytes32,bytes32)":"7ac2ff7b","positions(uint256)":"99fbab88","refundETH()":"12210e8a","safeTransferFrom(address,address,uint256)":"42842e0e","safeTransferFrom(address,address,uint256,bytes)":"b88d4fde","selfPermit(address,uint256,uint256,uint8,bytes32,bytes32)":"f3995c67","selfPermitAllowed(address,uint256,uint256,uint8,bytes32,bytes32)":"4659a494","selfPermitAllowedIfNecessary(address,uint256,uint256,uint8,bytes32,bytes32)":"a4a78f0c","selfPermitIfNecessary(address,uint256,uint256,uint8,bytes32,bytes32)":"c2e3140a","setApprovalForAll(address,bool)":"a22cb465","supportsInterface(bytes4)":"01ffc9a7","sweepToken(address,uint256,address)":"df2ab5bb","symbol()":"95d89b41","tokenByIndex(uint256)":"4f6ccce7","tokenOfOwnerByIndex(address,uint256)":"2f745c59","tokenURI(uint256)":"c87b56dd","totalSupply()":"18160ddd","transferFrom(address,address,uint256)":"23b872dd","unwrapWETH9(uint256,address)":"49404b7c"},"id":97}