{"abi":[{"type":"function","name":"pancakeV3SwapCallback","inputs":[{"name":"amount0Delta","type":"int256","internalType":"int256"},{"name":"amount1Delta","type":"int256","internalType":"int256"},{"name":"data","type":"bytes","internalType":"bytes"}],"outputs":[],"stateMutability":"nonpayable"},{"type":"function","name":"swap0ForExact1","inputs":[{"name":"pool","type":"address","internalType":"address"},{"name":"amount1Out","type":"uint256","internalType":"uint256"},{"name":"recipient","type":"address","internalType":"address"},{"name":"sqrtPriceLimitX96","type":"uint160","internalType":"uint160"}],"outputs":[],"stateMutability":"nonpayable"},{"type":"function","name":"swap1ForExact0","inputs":[{"name":"pool","type":"address","internalType":"address"},{"name":"amount0Out","type":"uint256","internalType":"uint256"},{"name":"recipient","type":"address","internalType":"address"},{"name":"sqrtPriceLimitX96","type":"uint160","internalType":"uint160"}],"outputs":[],"stateMutability":"nonpayable"},{"type":"function","name":"swapExact0For1","inputs":[{"name":"pool","type":"address","internalType":"address"},{"name":"amount0In","type":"uint256","internalType":"uint256"},{"name":"recipient","type":"address","internalType":"address"},{"name":"sqrtPriceLimitX96","type":"uint160","internalType":"uint160"}],"outputs":[],"stateMutability":"nonpayable"},{"type":"function","name":"swapExact1For0","inputs":[{"name":"pool","type":"address","internalType":"address"},{"name":"amount1In","type":"uint256","internalType":"uint256"},{"name":"recipient","type":"address","internalType":"address"},{"name":"sqrtPriceLimitX96","type":"uint160","internalType":"uint160"}],"outputs":[],"stateMutability":"nonpayable"}],"bytecode":{"object":"0x608060405234801561001057600080fd5b50610659806100206000396000f3fe608060405234801561001057600080fd5b50600436106100575760003560e01c806323a69e751461005c5780636dfc0ddb146100da578063bac7bf7814610116578063e2be910914610152578063f603482c1461018e575b600080fd5b6100d86004803603606081101561007257600080fd5b81359160208101359181019060608101604082013564010000000081111561009957600080fd5b8201836020820111156100ab57600080fd5b803590602001918460018302840111640100000000831117156100cd57600080fd5b5090925090506101ca565b005b6100d8600480360360808110156100f057600080fd5b506001600160a01b038135811691602081013591604082013581169160600135166103de565b6100d86004803603608081101561012c57600080fd5b506001600160a01b0381358116916020810135916040820135811691606001351661051c565b6100d86004803603608081101561016857600080fd5b506001600160a01b038135811691602081013591604082013581169160600135166105db565b6100d8600480360360808110156101a457600080fd5b506001600160a01b038135811691602081013591604082013581169160600135166105f6565b6000828260208110156101dc57600080fd5b50356001600160a01b0316905060008513156102e257336001600160a01b0316630dfe16816040518163ffffffff1660e01b815260040160206040518083038186803b15801561022b57600080fd5b505afa15801561023f573d6000803e3d6000fd5b505050506040513d602081101561025557600080fd5b5051604080516323b872dd60e01b81526001600160a01b03848116600483015233602483015260448201899052915191909216916323b872dd9160648083019260209291908290030181600087803b1580156102b057600080fd5b505af11580156102c4573d6000803e3d6000fd5b505050506040513d60208110156102da57600080fd5b506103d79050565b600084136102ec57fe5b336001600160a01b031663d21220a76040518163ffffffff1660e01b815260040160206040518083038186803b15801561032557600080fd5b505afa158015610339573d6000803e3d6000fd5b505050506040513d602081101561034f57600080fd5b5051604080516323b872dd60e01b81526001600160a01b03848116600483015233602483015260448201889052915191909216916323b872dd9160648083019260209291908290030181600087803b1580156103aa57600080fd5b505af11580156103be573d6000803e3d6000fd5b505050506040513d60208110156103d457600080fd5b50505b5050505050565b836001600160a01b031663128acb088360016103f98761060d565b853360405160200180826001600160a01b031681526020019150506040516020818303038152906040526040518663ffffffff1660e01b815260040180866001600160a01b031681526020018515158152602001848152602001836001600160a01b0316815260200180602001828103825283818151815260200191508051906020019080838360005b8381101561049b578181015183820152602001610483565b50505050905090810190601f1680156104c85780820380516001836020036101000a031916815260200191505b5096505050505050506040805180830381600087803b1580156104ea57600080fd5b505af11580156104fe573d6000803e3d6000fd5b505050506040513d604081101561051457600080fd5b505050505050565b836001600160a01b031663128acb088360016105378761060d565b600003853360405160200180826001600160a01b031681526020019150506040516020818303038152906040526040518663ffffffff1660e01b815260040180866001600160a01b031681526020018515158152602001848152602001836001600160a01b0316815260200180602001828103825283818151815260200191508051906020019080838360008381101561049b578181015183820152602001610483565b836001600160a01b031663128acb088360006103f98761060d565b836001600160a01b031663128acb08836000610537875b6000600160ff1b821061061f57600080fd5b509056fea2646970667358221220e69998c418440439dfa52d2c4db38589f54835ef71e2f03a5396be86e8ca846a64736f6c63430007060033","linkReferences":{}},"methodIdentifiers":{"pancakeV3SwapCallback(int256,int256,bytes)":"23a69e75","swap0ForExact1(address,uint256,address,uint160)":"bac7bf78","swap1ForExact0(address,uint256,address,uint160)":"f603482c","swapExact0For1(address,uint256,address,uint160)":"6dfc0ddb","swapExact1For0(address,uint256,address,uint160)":"e2be9109"},"id":284}