{"abi":[{"type":"function","name":"checkAdd","inputs":[{"name":"x","type":"uint256","internalType":"uint256"},{"name":"y","type":"uint256","internalType":"uint256"}],"outputs":[],"stateMutability":"pure"},{"type":"function","name":"checkAddi","inputs":[{"name":"x","type":"int256","internalType":"int256"},{"name":"y","type":"int256","internalType":"int256"}],"outputs":[],"stateMutability":"pure"},{"type":"function","name":"checkMul","inputs":[{"name":"x","type":"uint256","internalType":"uint256"},{"name":"y","type":"uint256","internalType":"uint256"}],"outputs":[],"stateMutability":"pure"},{"type":"function","name":"checkSub","inputs":[{"name":"x","type":"uint256","internalType":"uint256"},{"name":"y","type":"uint256","internalType":"uint256"}],"outputs":[],"stateMutability":"pure"},{"type":"function","name":"checkSubi","inputs":[{"name":"x","type":"int256","internalType":"int256"},{"name":"y","type":"int256","internalType":"int256"}],"outputs":[],"stateMutability":"pure"}],"bytecode":{"object":"0x608060405234801561001057600080fd5b506102b5806100206000396000f3fe608060405234801561001057600080fd5b50600436106100575760003560e01c80630f9350001461005c5780630fe48c5c146100815780636d886fae146100a45780639239e777146100c7578063bd78b20d146100ea575b600080fd5b61007f6004803603604081101561007257600080fd5b508035906020013561010d565b005b61007f6004803603604081101561009757600080fd5b5080359060200135610141565b61007f600480360360408110156100ba57600080fd5b5080359060200135610180565b61007f600480360360408110156100dd57600080fd5b50803590602001356101a3565b61007f6004803603604081101561010057600080fd5b50803590602001356101d6565b60006101198383610209565b9050818301811461012657fe5b8281101580156101365750818110155b61013c57fe5b505050565b600061014d838361021f565b9050818302811461015a57fe5b821580610165575081155b80610136575082811015801561013657508181101561013c57fe5b600061018c8383610243565b9050818303811461019957fe5b8281111561013c57fe5b60006101af8383610253565b905081830181146101bc57fe5b600082126101cd5782811215610136565b82811261013c57fe5b60006101e28383610269565b905081830381146101ef57fe5b600082126102005782811315610136565b82811361013c57fe5b8082018281101561021957600080fd5b92915050565b600082158061023a5750508181028183828161023757fe5b04145b61021957600080fd5b8082038281111561021957600080fd5b8181018281121560008312151461021957600080fd5b8082038281131560008312151461021957600080fdfea26469706673582212204147405b4ebb34f2847f0ebe509745652e19bdd51cbae6e9c0b969c76f1b81b164736f6c63430007060033","linkReferences":{}},"methodIdentifiers":{"checkAdd(uint256,uint256)":"0f935000","checkAddi(int256,int256)":"9239e777","checkMul(uint256,uint256)":"0fe48c5c","checkSub(uint256,uint256)":"6d886fae","checkSubi(int256,int256)":"bd78b20d"},"id":175}