{"abi":[{"type":"function","name":"pancakeV3SwapCallback","inputs":[{"name":"","type":"int256","internalType":"int256"},{"name":"","type":"int256","internalType":"int256"},{"name":"data","type":"bytes","internalType":"bytes"}],"outputs":[],"stateMutability":"nonpayable"},{"type":"function","name":"swap","inputs":[{"name":"pool","type":"address","internalType":"address"},{"name":"recipient","type":"address","internalType":"address"},{"name":"zeroForOne","type":"bool","internalType":"bool"},{"name":"sqrtPriceX96","type":"uint160","internalType":"uint160"},{"name":"amountSpecified","type":"int256","internalType":"int256"},{"name":"pay0","type":"uint256","internalType":"uint256"},{"name":"pay1","type":"uint256","internalType":"uint256"}],"outputs":[],"stateMutability":"nonpayable"}],"bytecode":{"object":"0x608060405234801561001057600080fd5b5061049e806100206000396000f3fe608060405234801561001057600080fd5b50600436106100365760003560e01c806323a69e751461003b578063f13cdf90146100b9575b600080fd5b6100b76004803603606081101561005157600080fd5b81359160208101359181019060608101604082013564010000000081111561007857600080fd5b82018360208201111561008a57600080fd5b803590602001918460018302840111640100000000831117156100ac57600080fd5b50909250905061010b565b005b6100b7600480360360e08110156100cf57600080fd5b506001600160a01b0381358116916020810135821691604082013515159160608101359091169060808101359060a08101359060c0013561032b565b60008060008484606081101561012057600080fd5b506001600160a01b03813516935060208101359250604001359050811561023157336001600160a01b0316630dfe16816040518163ffffffff1660e01b815260040160206040518083038186803b15801561017a57600080fd5b505afa15801561018e573d6000803e3d6000fd5b505050506040513d60208110156101a457600080fd5b5051604080516323b872dd60e01b81526001600160a01b03868116600483015233602483015260448201869052915191909216916323b872dd9160648083019260209291908290030181600087803b1580156101ff57600080fd5b505af1158015610213573d6000803e3d6000fd5b505050506040513d602081101561022957600080fd5b506103229050565b801561032257336001600160a01b031663d21220a76040518163ffffffff1660e01b815260040160206040518083038186803b15801561027057600080fd5b505afa158015610284573d6000803e3d6000fd5b505050506040513d602081101561029a57600080fd5b5051604080516323b872dd60e01b81526001600160a01b03868116600483015233602483015260448201859052915191909216916323b872dd9160648083019260209291908290030181600087803b1580156102f557600080fd5b505af1158015610309573d6000803e3d6000fd5b505050506040513d602081101561031f57600080fd5b50505b50505050505050565b866001600160a01b031663128acb088787868833888860405160200180846001600160a01b0316815260200183815260200182815260200193505050506040516020818303038152906040526040518663ffffffff1660e01b815260040180866001600160a01b031681526020018515158152602001848152602001836001600160a01b0316815260200180602001828103825283818151815260200191508051906020019080838360005b838110156103ef5781810151838201526020016103d7565b50505050905090810190601f16801561041c5780820380516001836020036101000a031916815260200191505b5096505050505050506040805180830381600087803b15801561043e57600080fd5b505af1158015610452573d6000803e3d6000fd5b505050506040513d604081101561031f57600080fdfea2646970667358221220d0ba09aff9ff69fae4452a8d0897b61f1b057af94a4819a5b714bb2bfc15711b64736f6c63430007060033","linkReferences":{}},"methodIdentifiers":{"pancakeV3SwapCallback(int256,int256,bytes)":"23a69e75","swap(address,address,bool,uint160,int256,uint256,uint256)":"f13cdf90"},"id":190}