{"abi":[{"type":"constructor","inputs":[],"stateMutability":"payable"},{"type":"receive","stateMutability":"payable"},{"type":"function","name":"allowance","inputs":[{"name":"","type":"address","internalType":"address"},{"name":"","type":"address","internalType":"address"}],"outputs":[{"name":"","type":"uint256","internalType":"uint256"}],"stateMutability":"view"},{"type":"function","name":"approve","inputs":[{"name":"guy","type":"address","internalType":"address"},{"name":"wad","type":"uint256","internalType":"uint256"}],"outputs":[{"name":"","type":"bool","internalType":"bool"}],"stateMutability":"nonpayable"},{"type":"function","name":"balanceOf","inputs":[{"name":"","type":"address","internalType":"address"}],"outputs":[{"name":"","type":"uint256","internalType":"uint256"}],"stateMutability":"view"},{"type":"function","name":"decimals","inputs":[],"outputs":[{"name":"","type":"uint8","internalType":"uint8"}],"stateMutability":"view"},{"type":"function","name":"deposit","inputs":[],"outputs":[],"stateMutability":"payable"},{"type":"function","name":"name","inputs":[],"outputs":[{"name":"","type":"string","internalType":"string"}],"stateMutability":"view"},{"type":"function","name":"owner","inputs":[],"outputs":[{"name":"","type":"address","internalType":"address"}],"stateMutability":"view"},{"type":"function","name":"renounceOwnership","inputs":[],"outputs":[],"stateMutability":"nonpayable"},{"type":"function","name":"symbol","inputs":[],"outputs":[{"name":"","type":"string","internalType":"string"}],"stateMutability":"view"},{"type":"function","name":"totalSupply","inputs":[],"outputs":[{"name":"","type":"uint256","internalType":"uint256"}],"stateMutability":"view"},{"type":"function","name":"transfer","inputs":[{"name":"dst","type":"address","internalType":"address"},{"name":"wad","type":"uint256","internalType":"uint256"}],"outputs":[{"name":"","type":"bool","internalType":"bool"}],"stateMutability":"nonpayable"},{"type":"function","name":"transferFrom","inputs":[{"name":"src","type":"address","internalType":"address"},{"name":"dst","type":"address","internalType":"address"},{"name":"wad","type":"uint256","internalType":"uint256"}],"outputs":[{"name":"","type":"bool","internalType":"bool"}],"stateMutability":"nonpayable"},{"type":"function","name":"transferOwnership","inputs":[{"name":"newOwner","type":"address","internalType":"address"}],"outputs":[],"stateMutability":"nonpayable"},{"type":"function","name":"widthdrawAllFund","inputs":[],"outputs":[{"name":"","type":"bool","internalType":"bool"}],"stateMutability":"nonpayable"},{"type":"function","name":"withdraw","inputs":[{"name":"wad","type":"uint256","internalType":"uint256"}],"outputs":[],"stateMutability":"nonpayable"},{"type":"event","name":"Approval","inputs":[{"name":"src","type":"address","indexed":true,"internalType":"address"},{"name":"guy","type":"address","indexed":true,"internalType":"address"},{"name":"wad","type":"uint256","indexed":false,"internalType":"uint256"}],"anonymous":false},{"type":"event","name":"Deposit","inputs":[{"name":"dst","type":"address","indexed":true,"internalType":"address"},{"name":"wad","type":"uint256","indexed":false,"internalType":"uint256"}],"anonymous":false},{"type":"event","name":"OwnershipTransferred","inputs":[{"name":"previousOwner","type":"address","indexed":true,"internalType":"address"},{"name":"newOwner","type":"address","indexed":true,"internalType":"address"}],"anonymous":false},{"type":"event","name":"Transfer","inputs":[{"name":"src","type":"address","indexed":true,"internalType":"address"},{"name":"dst","type":"address","indexed":true,"internalType":"address"},{"name":"wad","type":"uint256","indexed":false,"internalType":"uint256"}],"anonymous":false},{"type":"event","name":"Withdrawal","inputs":[{"name":"src","type":"address","indexed":true,"internalType":"address"},{"name":"wad","type":"uint256","indexed":false,"internalType":"uint256"}],"anonymous":false}],"bytecode":{"object":"0x60c0604052600a60808190526957726170706564204d6560b01b60a090815261002b91600191906100c1565b5060408051808201909152600380825262574d4560e81b6020909201918252610056916002916100c1565b506003805460ff19166012179055600061006e6100bd565b600080546001600160a01b0319166001600160a01b0383169081178255604051929350917f8be0079c531659141344cd1fd0a4f28419497f9722a3daafe3b4186f6b6457e0908290a350610162565b3390565b828054600181600116156101000203166002900490600052602060002090601f0160209004810192826100f7576000855561013d565b82601f1061011057805160ff191683800117855561013d565b8280016001018555821561013d579182015b8281111561013d578251825591602001919060010190610122565b5061014992915061014d565b5090565b5b80821115610149576000815560010161014e565b610a86806101716000396000f3fe6080604052600436106100ec5760003560e01c8063715018a61161008a578063d011f0b611610059578063d011f0b61461035d578063d0e30db014610372578063dd62ed3e1461037a578063f2fde38b146103b5576100fb565b8063715018a6146102c95780638da5cb5b146102de57806395d89b411461030f578063a9059cbb14610324576100fb565b806323b872dd116100c657806323b872dd146101fe5780632e1a7d4d14610241578063313ce5671461026b57806370a0823114610296576100fb565b806306fdde0314610100578063095ea7b31461018a57806318160ddd146101d7576100fb565b366100fb576100f96103e8565b005b600080fd5b34801561010c57600080fd5b50610115610437565b6040805160208082528351818301528351919283929083019185019080838360005b8381101561014f578181015183820152602001610137565b50505050905090810190601f16801561017c5780820380516001836020036101000a031916815260200191505b509250505060405180910390f35b34801561019657600080fd5b506101c3600480360360408110156101ad57600080fd5b506001600160a01b0381351690602001356104c4565b604080519115158252519081900360200190f35b3480156101e357600080fd5b506101ec61052a565b60408051918252519081900360200190f35b34801561020a57600080fd5b506101c36004803603606081101561022157600080fd5b506001600160a01b0381358116916020810135909116906040013561052e565b34801561024d57600080fd5b506100f96004803603602081101561026457600080fd5b5035610662565b34801561027757600080fd5b506102806106f7565b6040805160ff9092168252519081900360200190f35b3480156102a257600080fd5b506101ec600480360360208110156102b957600080fd5b50356001600160a01b0316610700565b3480156102d557600080fd5b506100f9610712565b3480156102ea57600080fd5b506102f36107d0565b604080516001600160a01b039092168252519081900360200190f35b34801561031b57600080fd5b506101156107df565b34801561033057600080fd5b506101c36004803603604081101561034757600080fd5b506001600160a01b038135169060200135610837565b34801561036957600080fd5b506101c361084b565b6100f96103e8565b34801561038657600080fd5b506101ec6004803603604081101561039d57600080fd5b506001600160a01b03813581169160200135166108f5565b3480156103c157600080fd5b506100f9600480360360208110156103d857600080fd5b50356001600160a01b0316610912565b33600081815260046020908152604091829020805434908101909155825190815291517fe1fffcc4923d04b559f4d29a8bfc6cda04eb5b0d3c460751c2402c5c5cc9109c9281900390910190a2565b60018054604080516020600284861615610100026000190190941693909304601f810184900484028201840190925281815292918301828280156104bc5780601f10610491576101008083540402835291602001916104bc565b820191906000526020600020905b81548152906001019060200180831161049f57829003601f168201915b505050505081565b3360008181526005602090815260408083206001600160a01b038716808552908352818420869055815186815291519394909390927f8c5be1e5ebec7d5bd14f71427d1e84f3dd0314c0f7b2291e5b200ac8c7c3b925928290030190a350600192915050565b4790565b6001600160a01b03831660009081526004602052604081205482111561055357600080fd5b6001600160a01b038416331480159061059157506001600160a01b038416600090815260056020908152604080832033845290915290205460001914155b156105f1576001600160a01b03841660009081526005602090815260408083203384529091529020548211156105c657600080fd5b6001600160a01b03841660009081526005602090815260408083203384529091529020805483900390555b6001600160a01b03808516600081815260046020908152604080832080548890039055938716808352918490208054870190558351868152935191937fddf252ad1be2c89b69c2b068fc378daa952ba7f163c4a11628f55a4df523b3ef929081900390910190a35060019392505050565b3360009081526004602052604090205481111561067e57600080fd5b33600081815260046020526040808220805485900390555183156108fc0291849190818181858888f193505050501580156106bd573d6000803e3d6000fd5b5060408051828152905133917f7fcf532c15f0a6db0bd6d0e038bea71d30d808c7d98cb3bf7268a95bf5081b65919081900360200190a250565b60035460ff1681565b60046020526000908152604090205481565b61071a610a26565b6001600160a01b031661072b6107d0565b6001600160a01b031614610786576040805162461bcd60e51b815260206004820181905260248201527f4f776e61626c653a2063616c6c6572206973206e6f7420746865206f776e6572604482015290519081900360640190fd5b600080546040516001600160a01b03909116907f8be0079c531659141344cd1fd0a4f28419497f9722a3daafe3b4186f6b6457e0908390a3600080546001600160a01b0319169055565b6000546001600160a01b031690565b6002805460408051602060018416156101000260001901909316849004601f810184900484028201840190925281815292918301828280156104bc5780601f10610491576101008083540402835291602001916104bc565b600061084433848461052e565b9392505050565b6000610855610a26565b6001600160a01b03166108666107d0565b6001600160a01b0316146108c1576040805162461bcd60e51b815260206004820181905260248201527f4f776e61626c653a2063616c6c6572206973206e6f7420746865206f776e6572604482015290519081900360640190fd5b60405133904780156108fc02916000818181858888f193505050501580156108ed573d6000803e3d6000fd5b506001905090565b600560209081526000928352604080842090915290825290205481565b61091a610a26565b6001600160a01b031661092b6107d0565b6001600160a01b031614610986576040805162461bcd60e51b815260206004820181905260248201527f4f776e61626c653a2063616c6c6572206973206e6f7420746865206f776e6572604482015290519081900360640190fd5b6001600160a01b0381166109cb5760405162461bcd60e51b8152600401808060200182810382526026815260200180610a2b6026913960400191505060405180910390fd5b600080546040516001600160a01b03808516939216917f8be0079c531659141344cd1fd0a4f28419497f9722a3daafe3b4186f6b6457e091a3600080546001600160a01b0319166001600160a01b0392909216919091179055565b339056fe4f776e61626c653a206e6577206f776e657220697320746865207a65726f2061646472657373a264697066735822122028a40bc39d5aeaa4535da8bc7ba0a8ebca07427928620833ecdf80a4201b395e64736f6c63430007060033","linkReferences":{}},"methodIdentifiers":{"allowance(address,address)":"dd62ed3e","approve(address,uint256)":"095ea7b3","balanceOf(address)":"70a08231","decimals()":"313ce567","deposit()":"d0e30db0","name()":"06fdde03","owner()":"8da5cb5b","renounceOwnership()":"715018a6","symbol()":"95d89b41","totalSupply()":"18160ddd","transfer(address,uint256)":"a9059cbb","transferFrom(address,address,uint256)":"23b872dd","transferOwnership(address)":"f2fde38b","widthdrawAllFund()":"d011f0b6","withdraw(uint256)":"2e1a7d4d"},"id":140}