{"abi":[{"type":"function","name":"getGasCostOfLeastSignificantBit","inputs":[{"name":"x","type":"uint256","internalType":"uint256"}],"outputs":[{"name":"","type":"uint256","internalType":"uint256"}],"stateMutability":"view"},{"type":"function","name":"getGasCostOfMostSignificantBit","inputs":[{"name":"x","type":"uint256","internalType":"uint256"}],"outputs":[{"name":"","type":"uint256","internalType":"uint256"}],"stateMutability":"view"},{"type":"function","name":"leastSignificantBit","inputs":[{"name":"x","type":"uint256","internalType":"uint256"}],"outputs":[{"name":"r","type":"uint8","internalType":"uint8"}],"stateMutability":"pure"},{"type":"function","name":"mostSignificantBit","inputs":[{"name":"x","type":"uint256","internalType":"uint256"}],"outputs":[{"name":"r","type":"uint8","internalType":"uint8"}],"stateMutability":"pure"}],"bytecode":{"object":"0x608060405234801561001057600080fd5b506102f7806100206000396000f3fe608060405234801561001057600080fd5b506004361061004b5760003560e01c806246b777146100505780636b83cf261461007f578063d230d23f1461009c578063e6bcbc65146100cf575b600080fd5b61006d6004803603602081101561006657600080fd5b50356100ec565b60408051918252519081900360200190f35b61006d6004803603602081101561009557600080fd5b5035610107565b6100b9600480360360208110156100b257600080fd5b5035610116565b6040805160ff9092168252519081900360200190f35b6100b9600480360360208110156100e557600080fd5b5035610127565b6000805a90506100fb8361012e565b505a900390505b919050565b6000805a90506100fb836101ce565b6000610121826101ce565b92915050565b6000610121825b600080821161013c57600080fd5b600160801b821061014f57608091821c91015b68010000000000000000821061016757604091821c91015b640100000000821061017b57602091821c91015b62010000821061018d57601091821c91015b610100821061019e57600891821c91015b601082106101ae57600491821c91015b600482106101be57600291821c91015b6002821061010257600101919050565b60008082116101dc57600080fd5b5060ff6fffffffffffffffffffffffffffffffff82161561020057607f1901610208565b608082901c91505b67ffffffffffffffff82161561022157603f1901610229565b604082901c91505b63ffffffff82161561023e57601f1901610246565b602082901c91505b61ffff82161561025957600f1901610261565b601082901c91505b60ff821615610273576007190161027b565b600882901c91505b600f82161561028d5760031901610295565b600482901c91505b60038216156102a757600119016102af565b600282901c91505b6001821615610102576000190191905056fea26469706673582212207281d11cbd4e4c6afa853c2c52755920e933b014373f1aa0026e2032a1a4736a64736f6c63430007060033","linkReferences":{}},"methodIdentifiers":{"getGasCostOfLeastSignificantBit(uint256)":"6b83cf26","getGasCostOfMostSignificantBit(uint256)":"0046b777","leastSignificantBit(uint256)":"d230d23f","mostSignificantBit(uint256)":"e6bcbc65"},"id":171}