{"abi":[{"type":"constructor","inputs":[{"name":"_factoryV2","type":"address","internalType":"address"},{"name":"_positionManager","type":"address","internalType":"address"}],"stateMutability":"nonpayable"},{"type":"function","name":"batchValidate","inputs":[{"name":"tokens","type":"address[]","internalType":"address[]"},{"name":"baseTokens","type":"address[]","internalType":"address[]"},{"name":"amountToBorrow","type":"uint256","internalType":"uint256"}],"outputs":[{"name":"isFotResults","type":"uint8[]","internalType":"enum ITokenValidator.Status[]"}],"stateMutability":"nonpayable"},{"type":"function","name":"factoryV2","inputs":[],"outputs":[{"name":"","type":"address","internalType":"address"}],"stateMutability":"view"},{"type":"function","name":"positionManager","inputs":[],"outputs":[{"name":"","type":"address","internalType":"address"}],"stateMutability":"view"},{"type":"function","name":"uniswapV2Call","inputs":[{"name":"","type":"address","internalType":"address"},{"name":"amount0","type":"uint256","internalType":"uint256"},{"name":"","type":"uint256","internalType":"uint256"},{"name":"data","type":"bytes","internalType":"bytes"}],"outputs":[],"stateMutability":"view"},{"type":"function","name":"validate","inputs":[{"name":"token","type":"address","internalType":"address"},{"name":"baseTokens","type":"address[]","internalType":"address[]"},{"name":"amountToBorrow","type":"uint256","internalType":"uint256"}],"outputs":[{"name":"","type":"uint8","internalType":"enum ITokenValidator.Status"}],"stateMutability":"nonpayable"}],"bytecode":{"object":"0x60c060405234801561001057600080fd5b50604051610e21380380610e2183398101604081905261002f91610069565b6001600160601b0319606092831b8116608052911b1660a05261009b565b80516001600160a01b038116811461006457600080fd5b919050565b6000806040838503121561007b578182fd5b6100848361004d565b91506100926020840161004d565b90509250929050565b60805160601c60a05160601c610d5d6100c46000398061037152508061034d5250610d5d6000f3fe608060405234801561001057600080fd5b50600436106100575760003560e01c80630143aace1461005c57806310d1e85c1461008557806368e0d4e11461009a578063791b98bc146100af578063be7672e5146100b7575b600080fd5b61006f61006a36600461090f565b6100d7565b60405161007c9190610b7c565b60405180910390f35b610098610093366004610969565b61015c565b005b6100a261034b565b60405161007c9190610afa565b6100a261036f565b6100ca6100c53660046109fa565b610393565b60405161007c9190610b31565b6000805b8381101561014e576000610110878787858181106100f557fe5b905060200201602081019061010a91906108d7565b86610451565b9050600181600281111561012057fe5b14806101375750600281600281111561013557fe5b145b156101455791506101549050565b506001016100db565b50600090505b949350505050565b6000339050600080826001600160a01b0316630dfe16816040518163ffffffff1660e01b815260040160206040518083038186803b15801561019d57600080fd5b505afa1580156101b1573d6000803e3d6000fd5b505050506040513d601f19601f820116820180604052508101906101d591906108f3565b836001600160a01b031663d21220a76040518163ffffffff1660e01b815260040160206040518083038186803b15801561020e57600080fd5b505afa158015610222573d6000803e3d6000fd5b505050506040513d601f19601f8201168201806040525081019061024691906108f3565b915091506000808811610259578161025b565b825b905060008061026c87890189610a83565b91509150600082846001600160a01b03166370a08231306040518263ffffffff1660e01b815260040161029f9190610afa565b60206040518083038186803b1580156102b757600080fd5b505afa1580156102cb573d6000803e3d6000fd5b505050506040513d601f19601f820116820180604052508101906102ef9190610a6b565b0390508181146103335760408051808201825260038152621193d560ea1b6020820152905162461bcd60e51b815261032a9190600401610b90565b60405180910390fd5b60405162461bcd60e51b815260040161032a90610ba3565b7f000000000000000000000000000000000000000000000000000000000000000081565b7f000000000000000000000000000000000000000000000000000000000000000081565b60608467ffffffffffffffff811180156103ac57600080fd5b506040519080825280602002602001820160405280156103d6578160200160208202803683370190505b50905060005b85811015610447576104108787838181106103f357fe5b905060200201602081019061040891906108d7565b8686866100d7565b82828151811061041c57fe5b6020026020010190600281111561042f57fe5b9081600281111561043c57fe5b9052506001016103dc565b5095945050505050565b6000826001600160a01b0316846001600160a01b03161415610475575060006107e0565b600073__$708233afd6c8f5dd23d33a215fb048c749$__636d91c0e2306001600160a01b03166368e0d4e16040518163ffffffff1660e01b815260040160206040518083038186803b1580156104ca57600080fd5b505afa1580156104de573d6000803e3d6000fd5b505050506040513d601f19601f8201168201806040525081019061050291906108f3565b87876040518463ffffffff1660e01b815260040161052293929190610b0e565b60206040518083038186803b15801561053a57600080fd5b505af415801561054e573d6000803e3d6000fd5b505050506040513d601f19601f8201168201806040525081019061057291906108f3565b60408051600481526024810182526020810180516001600160e01b0316630dfe168160e01b17905290519192506000916001600160a01b038416916105b691610ade565b6000604051808303816000865af19150503d80600081146105f3576040519150601f19603f3d011682016040523d82523d6000602084013e6105f8565b606091505b50915050805160001415610611576000925050506107e0565b60008180602001905181019061062791906108f3565b9050600080826001600160a01b0316896001600160a01b03161461064d57600087610651565b8660005b915091506000896001600160a01b03166370a08231306040518263ffffffff1660e01b81526004016106839190610afa565b60206040518083038186803b15801561069b57600080fd5b505afa1580156106af573d6000803e3d6000fd5b505050506040513d601f19601f820116820180604052508101906106d39190610a6b565b90506000869050806001600160a01b031663022c0d9f858530868e6040516020016106ff929190610bee565b6040516020818303038152906040526040518563ffffffff1660e01b815260040161072d9493929190610bfc565b600060405180830381600087803b15801561074757600080fd5b505af1925050508015610758575060015b6107c857610764610c69565b8061076f57506107be565b610778816107e7565b1561078e576001985050505050505050506107e0565b61079781610830565b156107ad576002985050505050505050506107e0565b6000985050505050505050506107e0565b3d6000803e3d6000fd5b60405162461bcd60e51b815260040161032a90610bc4565b9392505050565b6040805180820190915260038152621193d560ea1b6020918201528151908201207f0d441c7cb74abc94cc606c98870ca9174ef5b167b2f7ffed505658cf4574b003145b919050565b60408051808201909152600f8082526e1514905394d1915497d19052531151608a1b602083015282516000929180821015610871576000935050505061082b565b602092830181902091819003850190920191909120149050919050565b60008083601f84011261089f578182fd5b50813567ffffffffffffffff8111156108b6578182fd5b60208301915083602080830285010111156108d057600080fd5b9250929050565b6000602082840312156108e8578081fd5b81356107e081610d0f565b600060208284031215610904578081fd5b81516107e081610d0f565b60008060008060608587031215610924578283fd5b843561092f81610d0f565b9350602085013567ffffffffffffffff81111561094a578384fd5b6109568782880161088e565b9598909750949560400135949350505050565b600080600080600060808688031215610980578081fd5b853561098b81610d0f565b94506020860135935060408601359250606086013567ffffffffffffffff808211156109b5578283fd5b818801915088601f8301126109c8578283fd5b8135818111156109d6578384fd5b8960208285010111156109e7578384fd5b9699959850939650602001949392505050565b600080600080600060608688031215610a11578081fd5b853567ffffffffffffffff80821115610a28578283fd5b610a3489838a0161088e565b90975095506020880135915080821115610a4c578283fd5b50610a598882890161088e565b96999598509660400135949350505050565b600060208284031215610a7c578081fd5b5051919050565b60008060408385031215610a95578182fd5b50508035926020909101359150565b60008151808452610abc816020860160208601610c33565b601f01601f19169290920160200192915050565b60038110610ada57fe5b9052565b60008251610af0818460208701610c33565b9190910192915050565b6001600160a01b0391909116815260200190565b6001600160a01b0393841681529183166020830152909116604082015260600190565b6020808252825182820181905260009190848201906040850190845b81811015610b7057610b60838551610ad0565b9284019291840191600101610b4d565b50909695505050505050565b60208101610b8a8284610ad0565b92915050565b6000602082526107e06020830184610aa4565b6020808252600790820152662ab735b737bbb760c91b604082015260600190565b60208082526010908201526f2ab732bc3832b1ba32b21032b93937b960811b604082015260600190565b918252602082015260400190565b600085825284602083015260018060a01b038416604083015260806060830152610c296080830184610aa4565b9695505050505050565b60005b83811015610c4e578181015183820152602001610c36565b83811115610c5d576000848401525b50505050565b60e01c90565b600060443d1015610c7957610d0c565b600481823e6308c379a0610c8d8251610c63565b14610c9757610d0c565b6040513d600319016004823e80513d67ffffffffffffffff8160248401118184111715610cc75750505050610d0c565b82840192508251915080821115610ce15750505050610d0c565b503d83016020828401011115610cf957505050610d0c565b601f01601f191681016020016040529150505b90565b6001600160a01b0381168114610d2457600080fd5b5056fea2646970667358221220e62d7e4d8181e261c099f908e5e5e230c356bed968546f439929f5e9dae4841c64736f6c63430007060033","linkReferences":{"src/router/contracts/libraries/SmartRouterHelper.sol":{"SmartRouterHelper":[{"start":1341,"length":20}]}}},"methodIdentifiers":{"batchValidate(address[],address[],uint256)":"be7672e5","factoryV2()":"68e0d4e1","positionManager()":"791b98bc","uniswapV2Call(address,uint256,uint256,bytes)":"10d1e85c","validate(address,address[],uint256)":"0143aace"},"id":131}