{"abi":[{"type":"constructor","inputs":[],"stateMutability":"payable"},{"type":"function","name":"constructTokenURI","inputs":[{"name":"params","type":"tuple","internalType":"struct NFTDescriptorEx.ConstructTokenURIParams","components":[{"name":"tokenId","type":"uint256","internalType":"uint256"},{"name":"quoteTokenAddress","type":"address","internalType":"address"},{"name":"baseTokenAddress","type":"address","internalType":"address"},{"name":"quoteTokenSymbol","type":"string","internalType":"string"},{"name":"baseTokenSymbol","type":"string","internalType":"string"},{"name":"quoteTokenDecimals","type":"uint8","internalType":"uint8"},{"name":"baseTokenDecimals","type":"uint8","internalType":"uint8"},{"name":"flipRatio","type":"bool","internalType":"bool"},{"name":"tickLower","type":"int24","internalType":"int24"},{"name":"tickUpper","type":"int24","internalType":"int24"},{"name":"tickCurrent","type":"int24","internalType":"int24"},{"name":"tickSpacing","type":"int24","internalType":"int24"},{"name":"fee","type":"uint24","internalType":"uint24"},{"name":"poolAddress","type":"address","internalType":"address"}]}],"outputs":[{"name":"","type":"string","internalType":"string"}],"stateMutability":"view"},{"type":"function","name":"owner","inputs":[],"outputs":[{"name":"","type":"address","internalType":"address"}],"stateMutability":"view"},{"type":"function","name":"setOwner","inputs":[{"name":"_owner","type":"address","internalType":"address"}],"outputs":[],"stateMutability":"nonpayable"},{"type":"function","name":"toggleSwitchAndUpdateNFTDomain","inputs":[{"name":"_switchToHttpLink","type":"bool","internalType":"bool"},{"name":"_NFTDomain","type":"string","internalType":"string"}],"outputs":[],"stateMutability":"nonpayable"},{"type":"event","name":"OwnerChanged","inputs":[{"name":"oldOwner","type":"address","indexed":true,"internalType":"address"},{"name":"newOwner","type":"address","indexed":true,"internalType":"address"}],"anonymous":false},{"type":"event","name":"ToggleSwitchAndUpdateNFTDomain","inputs":[{"name":"sender","type":"address","indexed":true,"internalType":"address"},{"name":"switchToHttpLink","type":"bool","indexed":false,"internalType":"bool"},{"name":"NFTDomain","type":"string","indexed":false,"internalType":"string"}],"anonymous":false}],"bytecode":{"object":"0x60806040526000805460ff60a01b196001600160a01b0319909116331716600160a01b179055615f04806100346000396000f3fe608060405234801561001057600080fd5b506004361061004c5760003560e01c806313af40351461005157806365f2fb3a146100665780638da5cb5b14610079578063f93a791114610097575b600080fd5b61006461005f366004613da5565b6100b7565b005b610064610074366004613dbf565b610138565b6100816101d4565b60405161008e919061450e565b60405180910390f35b6100aa6100a5366004613e0b565b6101e3565b60405161008e9190614545565b6000546001600160a01b031633146100ea5760405162461bcd60e51b81526004016100e190614558565b60405180910390fd5b600080546001600160a01b0319166001600160a01b0383811691821780845560405192939116917fb532073b38c83145e3e5135377a08bf9aab55bc0fd7c1179cd4fb995d2a5159c9190a350565b6000546001600160a01b031633146101625760405162461bcd60e51b81526004016100e190614558565b6000805460ff60a01b1916600160a01b84151502179055805161018c906001906020840190613c02565b50336001600160a01b03167fb66bd08d260c968739bfc68d59dcf7ef6291a6d1f765e818583bbba512cfa21f83836040516101c8929190614522565b60405180910390a25050565b6000546001600160a01b031681565b606060006101fe836101f9856101800151610332565b61056d565b905060006102326102128560600151610628565b61021f8660800151610628565b61022d876101a00151610794565b6107aa565b9050600061028061024686600001516107dc565b6102538760800151610628565b6102608860200151610794565b61026d8960400151610794565b61027b8a6101800151610332565b6108b7565b90506000610295610290876108ed565b610b28565b905060006102c7858585856040516020016102b3949392919061411b565b604051602081830303815290604052610b28565b6040516020016102d79190614395565b60408051808303601f19018152919052600054909150600160a01b900460ff166103015780610325565b60018160405160200161031592919061408f565b6040516020818303038152906040525b955050505050505b919050565b606062ffffff821661035d5750604080518082019091526002815261302560f01b602082015261032d565b816000805b62ffffff8316156103ad5760ff81161561037e57600101610397565b600a62ffffff84160662ffffff16600014610397576001015b600190910190600a62ffffff8416049250610362565b6103b5613c8a565b6000600584106104aa57600060046103d08660ff8716610c76565b10156103dd5760016103e0565b60005b60ff90811691506103f49085166001610c76565b6103ff866005610c76565b1061042b5761042661041560ff86166001610c76565b610420876005610c76565b90610c76565b61042e565b60005b60ff85166080850181905290925061044d906001906104209085610cd3565b60ff90811660a0850152608084015161047491839161046e91166001610c76565b90610cd3565b60ff908116604085015261049c90829061046e906104959088166001610cd3565b8590610cd3565b60ff1660208401525061051a565b6104b5600585610c76565b6002608084018190529091506104d390600190610420908490610cd3565b60ff90811660a08401526104f5906104ee9085166002610cd3565b8290610cd3565b60ff166020830181905261050a906002610c76565b60ff166040830152600160c08301525b61053961052a8560ff8616610c76565b62ffffff891690600a0a610d2d565b8252600160e08301526004841161055157600061055c565b61055c846004610c76565b60ff16606083015261032582610d94565b60608161057d8460600151610628565b61058a8560800151610628565b6105c38660e00151156105a2578661012001516105a9565b8661010001515b8761016001518860c001518960a001518a60e00151610fa4565b6105fc8760e00151156105db578761010001516105e2565b8761012001515b8861016001518960c001518a60a001518b60e00151610fa4565b6040516020016106109594939291906141f9565b60405160208183030381529060405290505b92915050565b6060816000805b82518160ff16101561067457828160ff168151811061064a57fe5b6020910101516001600160f81b031916601160f91b141561066c576001909101905b60010161062f565b5060ff81161561078c5760008160ff1683510167ffffffffffffffff8111801561069d57600080fd5b506040519080825280601f01601f1916602001820160405280156106c8576020820181803683370190505b5090506000805b84518160ff16101561077f57848160ff16815181106106ea57fe5b6020910101516001600160f81b031916601160f91b141561073457601760fa1b83838060010194508151811061071c57fe5b60200101906001600160f81b031916908160001a9053505b848160ff168151811061074357fe5b602001015160f81c60f81b83838060010194508151811061076057fe5b60200101906001600160f81b031916908160001a9053506001016106cf565b508194505050505061032d565b509192915050565b60606106226001600160a01b03831660146110b9565b6060838383866040516020016107c394939291906143da565b60405160208183030381529060405290505b9392505050565b60608161080157506040805180820190915260018152600360fc1b602082015261032d565b8160005b811561081957600101600a82049150610805565b60008167ffffffffffffffff8111801561083257600080fd5b506040519080825280601f01601f19166020018201604052801561085d576020820181803683370190505b50859350905060001982015b83156108ae57600a840660300160f81b8282806001900393508151811061088c57fe5b60200101906001600160f81b031916908160001a905350600a84049350610869565b50949350505050565b606083858484896040516020016108d29594939291906142b2565b60405160208183030381529060405290505b95945050505050565b60606000604051806102a0016040528061090a8560200151610794565b815260200161091c8560400151610794565b8152602001846101a001516001600160a01b031681526020018460600151815260200184608001518152602001610957856101800151610332565b815260200184610100015160020b815260200184610120015160020b815260200184610160015160020b81526020016109a0856101000151866101200151876101400151611218565b60000b8152602001846000015181526020016109ca85602001516001600160a01b0316608861124f565b81526020016109e785604001516001600160a01b0316608861124f565b8152602001610a0485602001516001600160a01b0316600061124f565b8152602001610a2185604001516001600160a01b0316600061124f565b8152602001610a54610a4686602001516001600160a01b03166010886000015161125e565b600060ff601061011261127e565b8152602001610a87610a7986604001516001600160a01b03166010886000015161125e565b600060ff60646101e461127e565b8152602001610aac610a4686602001516001600160a01b03166020886000015161125e565b8152602001610ad1610a7986604001516001600160a01b03166020886000015161125e565b8152602001610af6610a4686602001516001600160a01b03166030886000015161125e565b8152602001610b1b610a7986604001516001600160a01b03166030886000015161125e565b905290506107d5816112c6565b6060815160001415610b49575060408051602081019091526000815261032d565b600060405180606001604052806040815260200161516960409139905060006003845160020181610b7657fe5b04600402905060008160200167ffffffffffffffff81118015610b9857600080fd5b506040519080825280601f01601f191660200182016040528015610bc3576020820181803683370190505b509050818152600183018586518101602084015b81831015610c315760039283018051603f601282901c811687015160f890811b8552600c83901c8216880151811b6001860152600683901c8216880151811b60028601529116860151901b93820193909352600401610bd7565b600389510660018114610c4b5760028114610c5c57610c68565b613d3d60f01b600119830152610c68565b603d60f81b6000198301525b509398975050505050505050565b600082821115610ccd576040805162461bcd60e51b815260206004820152601e60248201527f536166654d6174683a207375627472616374696f6e206f766572666c6f770000604482015290519081900360640190fd5b50900390565b6000828201838110156107d5576040805162461bcd60e51b815260206004820152601b60248201527f536166654d6174683a206164646974696f6e206f766572666c6f770000000000604482015290519081900360640190fd5b6000808211610d83576040805162461bcd60e51b815260206004820152601a60248201527f536166654d6174683a206469766973696f6e206279207a65726f000000000000604482015290519081900360640190fd5b818381610d8c57fe5b049392505050565b60606000826020015160ff1667ffffffffffffffff81118015610db657600080fd5b506040519080825280601f01601f191660200182016040528015610de1576020820181803683370190505b5090508260e0015115610e1b57602560f81b81600183510381518110610e0357fe5b60200101906001600160f81b031916908160001a9053505b8260c0015115610e7857600360fc1b81600081518110610e3757fe5b60200101906001600160f81b031916908160001a905350601760f91b81600181518110610e6057fe5b60200101906001600160f81b031916908160001a9053505b608083015160ff165b60a0840151610e949060ff166001610cd3565b811015610ecb57603060f81b828281518110610eac57fe5b60200101906001600160f81b031916908160001a905350600101610e81565b505b825115610622576000836060015160ff16118015610ef85750826060015160ff16836040015160ff16145b15610f3b5760408301805160ff600019820181169092528251601760f91b92849216908110610f2357fe5b60200101906001600160f81b031916908160001a9053505b8251610f4d90603090600a9006610cd3565b60f81b818460400180518091906001900360ff1660ff1681525060ff1681518110610f7457fe5b60200101906001600160f81b031916908160001a905350600a8360000181815181610f9b57fe5b04905250610ecd565b606084600281900b620d89e71981610fb857fe5b050260020b8660020b1415611012578115610fee576040518060400160405280600381526020016209a82b60eb1b81525061100b565b6040518060400160405280600381526020016226a4a760e91b8152505b90506108e4565b84600281900b620d89e88161102357fe5b050260020b8660020b1415611079578115611059576040518060400160405280600381526020016226a4a760e91b81525061100b565b5060408051808201909152600381526209a82b60eb1b60208201526108e4565b60006110848761153e565b905082156110a6576110a3600160c01b6001600160a01b038316610d2d565b90505b6110b1818686611870565b9150506108e4565b606060008260020260020167ffffffffffffffff811180156110da57600080fd5b506040519080825280601f01601f191660200182016040528015611105576020820181803683370190505b509050600360fc1b8160008151811061111a57fe5b60200101906001600160f81b031916908160001a905350600f60fb1b8160018151811061114357fe5b60200101906001600160f81b031916908160001a905350600160028402015b60018111156111c4576f181899199a1a9b1b9c1cb0b131b232b360811b85600f166010811061118d57fe5b1a60f81b82828151811061119d57fe5b60200101906001600160f81b031916908160001a90535060049490941c9360001901611162565b5083156107d5576040805162461bcd60e51b815260206004820181905260248201527f537472696e67733a20686578206c656e67746820696e73756666696369656e74604482015290519081900360640190fd5b60008360020b8260020b121561123157506000196107d5565b8260020b8260020b1315611247575060016107d5565b5060006107d5565b60606107d583831c6003611a30565b600060ff8261126d8686611aea565b028161127557fe5b06949350505050565b60606112bc6112b78461046e611294888a610c76565b6112b16112a1888a610c76565b6112ab8d8d610c76565b90611af1565b90610d2d565b6107dc565b9695505050505050565b60606112d182611b4a565b6112ed83600001518460200151856060015186608001516121a9565b611304846060015185608001518660a001516124d4565b6113228560c001518660e00151876101000151886101200151612624565b6113426113338761014001516107dc565b8760c001518860e00151612907565b6113558761014001518860400151612d1f565b6040516020018087805190602001908083835b602083106113875780518252601f199092019160209182019101611368565b51815160209384036101000a600019018019909216911617905289519190930192890191508083835b602083106113cf5780518252601f1990920191602091820191016113b0565b51815160209384036101000a600019018019909216911617905288519190930192880191508083835b602083106114175780518252601f1990920191602091820191016113f8565b51815160209384036101000a600019018019909216911617905287519190930192870191508083835b6020831061145f5780518252601f199092019160209182019101611440565b51815160209384036101000a600019018019909216911617905286519190930192860191508083835b602083106114a75780518252601f199092019160209182019101611488565b51815160209384036101000a600019018019909216911617905285519190930192850191508083835b602083106114ef5780518252601f1990920191602091820191016114d0565b5181516020939093036101000a6000190180199091169216919091179052651e17b9bb339f60d11b92019182525060408051808303601919018152600690920190529998505050505050505050565b60008060008360020b12611555578260020b61155d565b8260020b6000035b9050620d89e881111561159b576040805162461bcd60e51b81526020600482015260016024820152601560fa1b604482015290519081900360640190fd5b6000600182166115af57600160801b6115c1565b6ffffcb933bd6fad37aa2d162d1a5940015b70ffffffffffffffffffffffffffffffffff16905060028216156115f5576ffff97272373d413259a46990580e213a0260801c5b6004821615611614576ffff2e50f5f656932ef12357cf3c7fdcc0260801c5b6008821615611633576fffe5caca7e10e4e61c3624eaa0941cd00260801c5b6010821615611652576fffcb9843d60f6159c9db58835c9266440260801c5b6020821615611671576fff973b41fa98c081472e6896dfb254c00260801c5b6040821615611690576fff2ea16466c96a3843ec78b326b528610260801c5b60808216156116af576ffe5dee046a99a2a811c461f1969c30530260801c5b6101008216156116cf576ffcbe86c7900a88aedcffc83b479aa3a40260801c5b6102008216156116ef576ff987a7253ac413176f2b074cf7815e540260801c5b61040082161561170f576ff3392b0822b70005940c7a398e4b70f30260801c5b61080082161561172f576fe7159475a2c29b7443b29c7fa6e889d90260801c5b61100082161561174f576fd097f3bdfd2022b8845ad8f792aa58250260801c5b61200082161561176f576fa9f746462d870fdf8a65dc1f90e061e50260801c5b61400082161561178f576f70d869a156d2a1b890bb3df62baf32f70260801c5b6180008216156117af576f31be135f97d08fd981231505542fcfa60260801c5b620100008216156117d0576f09aa508b5b7a84e1c677de54f3e99bc90260801c5b620200008216156117f0576e5d6af8dedb81196699c329225ee6040260801c5b6204000082161561180f576d2216e584f5fa1ea926041bedfe980260801c5b6208000082161561182c576b048a170391f7dc42444e8fa20260801c5b60008460020b131561184757806000198161184357fe5b0490505b64010000000081061561185b57600161185e565b60005b60ff16602082901c0192505050919050565b6060600061187f858585612d97565b905060006118928283600160401b612e99565b9050600160601b821080156118ca576118c38272047bf19673df52e37f2410011d100000000000600160801b612e99565b91506118df565b6118dc82620186a0600160801b612e99565b91505b8160005b81156118f757600101600a820491506118e3565b600019016000806119088684612f48565b915091508015611919576001909201915b611921613c8a565b851561198e57611940611938602b60ff8716610c76565b600790610cd3565b60ff9081166020830152600260808301526119669060019061046e90602b908816610c76565b60ff90811660a0830152602082015161198191166001610c76565b60ff166040820152611a05565b60098460ff16106119d7576119a760ff85166004610c76565b60ff1660208201819052600560808301526119c3906001610c76565b60ff1660a082015260046040820152611a05565b600660208201526005604082018190526119fc9060019061046e9060ff881690610c76565b60ff1660608201525b82815285151560c0820152600060e0820152611a2081610d94565b9c9b505050505050505050505050565b606060008260020267ffffffffffffffff81118015611a4e57600080fd5b506040519080825280601f01601f191660200182016040528015611a79576020820181803683370190505b5080519091505b8015611ae2576f181899199a1a9b1b9c1cb0b131b232b360811b85600f1660108110611aa857fe5b1a60f81b826001830381518110611abb57fe5b60200101906001600160f81b031916908160001a90535060049490941c9360001901611a80565b509392505050565b1c60ff1690565b600082611b0057506000610622565b82820282848281611b0d57fe5b04146107d55760405162461bcd60e51b81526004018080602001828103825260218152602001806153886021913960400191505060405180910390fd5b6060611bdf8261016001516040516020018080614f426081913960810182805190602001908083835b60208310611b925780518252601f199092019160209182019101611b73565b6001836020036101000a038019825116818451168082178552505050505050905001806813979f1e17b9bb339f60b91b815250600901915050604051602081830303815290604052610b28565b611d41836101e001518461020001518561018001516040516020018080614a7f6063913960630184805190602001908083835b60208310611c315780518252601f199092019160209182019101611c12565b51815160209384036101000a600019018019909216911617905265272063793d2760d01b919093019081528551600690910192860191508083835b60208310611c8b5780518252601f199092019160209182019101611c6c565b51815160209384036101000a6000190180199092169116179052722720723d273132307078272066696c6c3d272360681b919093019081528451601390910192850191508083835b60208310611cf25780518252601f199092019160209182019101611cd3565b6001836020036101000a038019825116818451168082178552505050505050905001806813979f1e17b9bb339f60b91b8152506009019350505050604051602081830303815290604052610b28565b611d92846102200151856102400151866101a001516040516020018080614a7f60639139606301848051906020019080838360208310611c315780518252601f199092019160209182019101611c12565b611ea7856102600151866102800151876101c001516040516020018080614a7f6063913960630184805190602001908083835b60208310611de45780518252601f199092019160209182019101611dc5565b51815160209384036101000a600019018019909216911617905265272063793d2760d01b919093019081528551600690910192860191508083835b60208310611e3e5780518252601f199092019160209182019101611e1f565b51815160001960209485036101000a01908116901991909116179052722720723d273130307078272066696c6c3d272360681b939091019283528451601390930192908501915080838360208310611cf25780518252601f199092019160209182019101611cd3565b6101608601516040516020018060566147fa8239605601602c6151a98239651e3232b3399f60d11b602c820152603201604b614ef78239604b0186805190602001908083835b60208310611f0c5780518252601f199092019160209182019101611eed565b6001836020036101000a03801982511681845116808217855250505050505090500180615a2f603e9139603e0185805190602001908083835b60208310611f645780518252601f199092019160209182019101611f45565b6001836020036101000a03801982511681845116808217855250505050505090500180614fc3603e9139603e0184805190602001908083835b60208310611fbc5780518252601f199092019160209182019101611f9d565b5181516020939093036101000a6000190180199091169216919091179052631110179f60e11b920191825250600401603b6146f28239603b0183805190602001908083835b602083106120205780518252601f199092019160209182019101612001565b6001836020036101000a03801982511681845116808217855250505050505090500180614b3f60999139609901607f6155e08239607f0160886159a782396088016041614bd88239604101605d615b678239605d01607261568c8239607201604961465b823960490160be614e39823960be01607161490b8239607101607561552382396075016066614c19823960660160a46151d5823960a4016085615a6d82397f3c6720636c69702d706174683d2275726c2823636f726e65727329223e00000060858201526b1e3932b1ba103334b6361e9160a11b60a2820152825160ae9091019060208401908083835b6020831061212d5780518252601f19909201916020918201910161210e565b6001836020036101000a03801982511681845116808217855250505050505090500180614c7f60319139603101604e6146a48239604e01605d614ae28239605d0160416151288239604101605261500182396052016075615af28239607501955050505050506040516020818303038152906040529050919050565b60608382858488878a896040516020018080615c4a60259139602501607d614dbc8239607d0189805190602001908083835b602083106121fa5780518252601f1990920191602091820191016121db565b51815160209384036101000a600019018019909216911617905264010714051160dd1b919093019081528a516005909101928b0191508083835b602083106122535780518252601f199092019160209182019101612234565b6001836020036101000a03801982511681845116808217855250505050505090500180614cb0607991396079016086615bc4823960860187805190602001908083835b602083106122b55780518252601f199092019160209182019101612296565b51815160209384036101000a600019018019909216911617905264010714051160dd1b919093019081528851600590910192890191508083835b6020831061230e5780518252601f1990920191602091820191016122ef565b6001836020036101000a0380198251168184511680821785525050505050509050018061488660859139608501607b6158158239607b0185805190602001908083835b602083106123705780518252601f199092019160209182019101612351565b51815160209384036101000a600019018019909216911617905264010714051160dd1b919093019081528651600590910192870191508083835b602083106123c95780518252601f1990920191602091820191016123aa565b6001836020036101000a038019825116818451168082178552505050505050905001806149d0605d9139605d0160a3615480823960a30183805190602001908083835b6020831061242b5780518252601f19909201916020918201910161240c565b51815160209384036101000a600019018019909216911617905264010714051160dd1b919093019081528451600590910192850191508083835b602083106124845780518252601f199092019160209182019101612465565b6001836020036101000a038019825116818451168082178552505050505050905001806145d0608b9139608b01985050505050505050506040516020818303038152906040529050949350505050565b6060838383604051602001808061472d60cd913960cd0184805190602001908083835b602083106125165780518252601f1990920191602091820191016124f7565b6001836020036101000a03801982511681845116808217855250505050505090500180602f60f81b81525060010183805190602001908083835b6020831061256f5780518252601f199092019160209182019101612550565b6001836020036101000a03801982511681845116808217855250505050505090500180615df36077913960770182805190602001908083835b602083106125c75780518252601f1990920191602091820191016125a8565b5181516020939093036101000a60001901801990911692169190911790526a1e17ba32bc3a1f1e17b39f60a91b920191825250600b016073615c938239607301935050505060405160208183030381529060405290509392505050565b606060008260000b60011461268b578260000b600019146126625760405180604001604052806005815260200164236e6f6e6560d81b815250612686565b6040518060400160405280600a81526020016911b330b23296b237bbb760b11b8152505b6126ad565b60405180604001604052806008815260200167023666164652d75760c41b8152505b905060006126bc878787612fb9565b9050818183836126cb88613207565b60405160200180806c078ce40dac2e6d67a44eae4d85609b1b815250600d0186805190602001908083835b602083106127155780518252601f1990920191602091820191016126f6565b5181516020939093036101000a600019018019909116921691909117905261149160f11b9201918252506002016077615279823960770185805190602001908083835b602083106127775780518252601f199092019160209182019101612758565b6001836020036101000a0380198251168184511680821785525050505050509050018061497c6054913960540180700785ece7c78ce40dac2e6d67a44eae4d85607b1b81525060110184805190602001908083835b602083106127eb5780518252601f1990920191602091820191016127cc565b5181516020939093036101000a600019018019909116921691909117905261149160f11b92019182525060020160296152f082396029016045615343823960450180681e3830ba3410321e9160b91b81525060090183805190602001908083835b6020831061286b5780518252601f19909201916020918201910161284c565b6001836020036101000a038019825116818451168082178552505050505050905001806155986048913960480182805190602001908083835b602083106128c35780518252601f1990920191602091820191016128a4565b6001836020036101000a0380198251168184511680821785525050505050509050019550505050505060405160208183030381529060405292505050949350505050565b6060600061291484613672565b9050600061292184613672565b865183518251929350600490910191600a91820191016000806129448a8a61377c565b91509150612957856004016007026107dc565b8b612967866004016007026107dc565b89612977876004016007026107dc565b8a8787604051602001808061565f602d9139602d01806c1e3932b1ba103bb4b23a341e9160991b815250600d0189805190602001908083835b602083106129cf5780518252601f1990920191602091820191016129b0565b6001836020036101000a03801982511681845116808217855250505050505090500180615053603d9139603d01608d615d068239608d0188805190602001908083835b60208310612a315780518252601f199092019160209182019101612a12565b5181516020939093036101000a60001901801990911692169190911790526a1e17ba32bc3a1f1e17b39f60a91b920191825250600b01602d615ea28239602d01806c1e3932b1ba103bb4b23a341e9160991b815250600d0187805190602001908083835b60208310612ab45780518252601f199092019160209182019101612a95565b6001836020036101000a03801982511681845116808217855250505050505090500180615053603d9139603d016093614d29823960930186805190602001908083835b60208310612b165780518252601f199092019160209182019101612af7565b5181516020939093036101000a60001901801990911692169190911790526a1e17ba32bc3a1f1e17b39f60a91b920191825250600b01602d614a2d8239602d01806c1e3932b1ba103bb4b23a341e9160991b815250600d0185805190602001908083835b60208310612b995780518252601f199092019160209182019101612b7a565b6001836020036101000a03801982511681845116808217855250505050505090500180615053603d9139603d016093615890823960930184805190602001908083835b60208310612bfb5780518252601f199092019160209182019101612bdc565b6001836020036101000a03801982511681845116808217855250505050505090500180615e6a603891396038016060615d938239606001606461541c82396064016025614a5a823960250183805190602001908083835b60208310612c715780518252601f199092019160209182019101612c52565b51815160209384036101000a6000190180199092169116179052630383c16160e51b919093019081528451600490910192850191508083835b60208310612cc95780518252601f199092019160209182019101612caa565b6001836020036101000a0380198251168184511680821785525050505050509050018061485060369139603601985050505050505050506040516020818303038152906040529750505050505050509392505050565b6060612d2b8383613a88565b15612d815760405160200180608d6157888239608d0160736153a9823960730160716150b78239607101608a6156fe8239608a016084615923823960840190506040516020818303038152906040529050610622565b5060408051602081019091526000815292915050565b600080612db2612dad60ff868116908616613aeb565b613b50565b9050600081118015612dc5575060128111155b15612e86578260ff168460ff161115612e2f57612df9612de6826002610d2d565b6001600160a01b03871690600a0a611af1565b91506002810660011415612e2a57612e27827003298b075b4b6a5240945790619b37fd4a600160801b612e99565b91505b612e81565b612e50612e3d826002610d2d565b6001600160a01b03871690600a0a610d2d565b91506002810660011415612e8157612e7e82600160801b7003298b075b4b6a5240945790619b37fd4a612e99565b91505b611ae2565b50506001600160a01b0390921692915050565b6000808060001985870986860292508281109083900303905080612ecf5760008411612ec457600080fd5b5082900490506107d5565b808411612edb57600080fd5b6000848688096000868103871696879004966002600389028118808a02820302808a02820302808a02820302808a02820302808a02820302808a02909103029181900381900460010186841190950394909402919094039290920491909117919091029150509392505050565b600080600060058460ff161115612f7057612f6d8560ff600419870116600a0a610d2d565b94505b60006004600a8706119050612f8686600a610d2d565b95508015612f95578560010195505b85620186a01415612fab57600a86049550600191505b5084925090505b9250929050565b606060008260020b85850360020b81612fce57fe5b05905060048160020b13613019576040518060400160405280601a81526020017f4d312031433431203431203130352031303520313435203134350000000000008152509150611ae2565b60088160020b13613061576040518060400160405280601981526020017f4d312031433333203439203937203131332031343520313435000000000000008152509150611ae2565b60108160020b136130a9576040518060400160405280601981526020017f4d312031433333203537203839203131332031343520313435000000000000008152509150611ae2565b60208160020b136130f1576040518060400160405280601981526020017f4d312031433235203635203831203132312031343520313435000000000000008152509150611ae2565b60408160020b13613139576040518060400160405280601981526020017f4d312031433137203733203733203132392031343520313435000000000000008152509150611ae2565b60808160020b13613181576040518060400160405280601881526020017f4d312031433920383120363520313337203134352031343500000000000000008152509150611ae2565b6101008160020b136131ca576040518060400160405280601a81526020017f4d31203143312038392035372e352031343520313435203134350000000000008152509150611ae2565b505060408051808201909152601881527f4d3120314331203937203439203134352031343520313435000000000000000060208201529392505050565b6040805180820182526002815261373360f01b6020808301919091528251808401845260038082526203139360ec1b82840152845180860186528181526232313760e81b818501528551808701909652908552620ccccd60ea1b928501929092526060939091906001600087900b148061328557508560000b600019145b1561347c578560000b6000191461329c578161329e565b835b8660000b600019146132b057816132b2565b835b8760000b600019146132c457836132c6565b855b8860000b600019146132d857836132da565b855b60405160200180806b1e31b4b931b6329031bc1e9160a11b815250600c0185805190602001908083835b602083106133235780518252601f199092019160209182019101613304565b51815160209384036101000a600019018019909216911617905267383c111031bc9e9160c11b919093019081528651600890910192870191508083835b6020831061337f5780518252601f199092019160209182019101613360565b6001836020036101000a038019825116818451168082178552505050505050905001806150906027913960270183805190602001908083835b602083106133d75780518252601f1990920191602091820191016133b8565b51815160209384036101000a600019018019909216911617905267383c111031bc9e9160c11b919093019081528451600890910192850191508083835b602083106134335780518252601f199092019160209182019101613414565b6001836020036101000a03801982511681845116808217855250505050505090500180615319602a9139602a019450505050506040516020818303038152906040529450613669565b8383838360405160200180806b1e31b4b931b6329031bc1e9160a11b815250600c0185805190602001908083835b602083106134c95780518252601f1990920191602091820191016134aa565b51815160209384036101000a600019018019909216911617905267383c111031bc9e9160c11b919093019081528651600890910192870191508083835b602083106135255780518252601f199092019160209182019101613506565b51815160209384036101000a60001901801990921691161790527f70782220723d22347078222066696c6c3d22776869746522202f3e0000000000919093019081526b1e31b4b931b6329031bc1e9160a11b601b8201528551602790910192860191508083835b602083106135ab5780518252601f19909201916020918201910161358c565b51815160209384036101000a600019018019909216911617905267383c111031bc9e9160c11b919093019081528451600890910192850191508083835b602083106136075780518252601f1990920191602091820191016135e8565b6001836020036101000a038019825116818451168082178552505050505050905001807f70782220723d22347078222066696c6c3d22776869746522202f3e0000000000815250601b0194505050505060405160208183030381529060405294505b50505050919050565b6060600060405180602001604052806000815250905060008360020b12156136b85782600019029250604051806040016040528060018152602001602d60f81b81525090505b806136c58460020b6107dc565b6040516020018083805190602001908083835b602083106136f75780518252601f1990920191602091820191016136d8565b51815160209384036101000a600019018019909216911617905285519190930192850191508083835b6020831061373f5780518252601f199092019160209182019101613720565b6001836020036101000a03801982511681845116808217855250505050505090500192505050604051602081830303815290604052915050919050565b60608060006002858501810b0590506201e847198160020b12156137d857604051806040016040528060018152602001600760fb1b815250604051806040016040528060018152602001603760f81b8152509250925050612fb2565b620124f7198160020b121561382857604051806040016040528060018152602001600760fb1b8152506040518060400160405280600481526020016331302e3560e01b8152509250925050612fb2565b6161a7198160020b121561387857604051806040016040528060018152602001600760fb1b8152506040518060400160405280600581526020016431342e323560d81b8152509250925050612fb2565b611387198160020b12156138c65760405180604001604052806002815260200161031360f41b81525060405180604001604052806002815260200161062760f31b8152509250925050612fb2565b60008160020b12156139125760405180604001604052806002815260200161313160f01b81525060405180604001604052806002815260200161323160f01b8152509250925050612fb2565b6113888160020b121561395f5760405180604001604052806002815260200161313360f01b81525060405180604001604052806002815260200161323360f01b8152509250925050612fb2565b6161a88160020b12156139ac5760405180604001604052806002815260200161313560f01b81525060405180604001604052806002815260200161323560f01b8152509250925050612fb2565b620124f88160020b12156139fa5760405180604001604052806002815260200161062760f31b81525060405180604001604052806002815260200161191b60f11b8152509250925050612fb2565b6201e8488160020b1215613a485760405180604001604052806002815260200161323160f01b81525060405180604001604052806002815260200161323760f01b8152509250925050612fb2565b604051806040016040528060028152602001610c8d60f21b81525060405180604001604052806002815260200161323760f01b8152509250925050612fb2565b6040805160208082018590526bffffffffffffffffffffffff19606085901b16828401528251603481840301815260549092019092528051910120600090613acf84613b67565b60020260010160ff1660001981613ae257fe5b04119392505050565b6000818303818312801590613b005750838113155b80613b155750600083128015613b1557508381135b6107d55760405162461bcd60e51b8152600401808060200182810382526024815260200180615c6f6024913960400191505060405180910390fd5b600080821215613b635781600003610622565b5090565b6000808211613b7557600080fd5b600160801b8210613b8857608091821c91015b600160401b8210613b9b57604091821c91015b6401000000008210613baf57602091821c91015b620100008210613bc157601091821c91015b6101008210613bd257600891821c91015b60108210613be257600491821c91015b60048210613bf257600291821c91015b6002821061032d57600101919050565b828054600181600116156101000203166002900490600052602060002090601f016020900481019282613c385760008555613c7e565b82601f10613c5157805160ff1916838001178555613c7e565b82800160010185558215613c7e579182015b82811115613c7e578251825591602001919060010190613c63565b50613b63929150613cce565b6040805161010081018252600080825260208201819052918101829052606081018290526080810182905260a0810182905260c0810182905260e081019190915290565b5b80821115613b635760008155600101613ccf565b80356001600160a01b038116811461032d57600080fd5b8035801515811461032d57600080fd5b8035600281900b811461032d57600080fd5b600082601f830112613d2c578081fd5b813567ffffffffffffffff811115613d4057fe5b613d53601f8201601f191660200161457b565b818152846020838601011115613d67578283fd5b816020850160208301379081016020019190915292915050565b803562ffffff8116811461032d57600080fd5b803560ff8116811461032d57600080fd5b600060208284031215613db6578081fd5b6107d582613ce3565b60008060408385031215613dd1578081fd5b613dda83613cfa565b9150602083013567ffffffffffffffff811115613df5578182fd5b613e0185828601613d1c565b9150509250929050565b600060208284031215613e1c578081fd5b813567ffffffffffffffff80821115613e33578283fd5b81840191506101c0808387031215613e49578384fd5b613e528161457b565b905082358152613e6460208401613ce3565b6020820152613e7560408401613ce3565b6040820152606083013582811115613e8b578485fd5b613e9787828601613d1c565b606083015250608083013582811115613eae578485fd5b613eba87828601613d1c565b608083015250613ecc60a08401613d94565b60a0820152613edd60c08401613d94565b60c0820152613eee60e08401613cfa565b60e08201526101009150613f03828401613d0a565b828201526101209150613f17828401613d0a565b828201526101409150613f2b828401613d0a565b828201526101609150613f3f828401613d0a565b828201526101809150613f53828401613d81565b828201526101a09150613f67828401613ce3565b91810191909152949350505050565b60008151613f8881856020860161459f565b9290920192915050565b60008151808452613faa81602086016020860161459f565b601f01601f19169290920160200192915050565b7fe29aa0efb88f20444953434c41494d45523a204475652064696c6967656e636581527f20697320696d7065726174697665207768656e20617373657373696e6720746860208201527f6973204e46542e204d616b65207375726520746f6b656e20616464726573736560408201527f73206d617463682074686520657870656374656420746f6b656e732c2061732060608201527f746f6b656e2073796d626f6c73206d617920626520696d6974617465642e00006080820152609e0190565b632e372e3760e11b815260040190565b60008084546001808216600081146140ae57600181146140c5576140f4565b60ff198316865260028304607f16860193506140f4565b600283048886526020808720875b838110156140ec5781548a8201529085019082016140d3565b505050860193505b50602f60f81b835285519150614110828285016020890161459f565b910101949350505050565b683d913730b6b2911d1160b91b81528451600090614140816009850160208a0161459f565b71111610113232b9b1b934b83a34b7b7111d1160711b600991840191820152855161417281601b840160208a0161459f565b855191019061418881601b84016020890161459f565b6c1116101134b6b0b3b2911d101160991b601b92909101918201527f646174613a696d6167652f7376672b786d6c3b6261736536342c000000000000602882015283516141dc81604284016020880161459f565b61227d60f01b604292909101918201526044019695505050505050565b60006902830b731b0b5b29016960b51b8252865161421e81600a850160208b0161459f565b80830190506201016960ed1b80600a830152875161424381600d850160208c0161459f565b602f60f81b600d9390910192830152865161426581600e850160208b0161459f565b600e920191820152845161428081601184016020890161459f565b611e1f60f11b6011929091019182015283516142a381601384016020880161459f565b01601301979650505050505050565b60006901020b2323932b9b99d160b51b80835287516142d881600a860160208c0161459f565b612e3760f11b600a9185019182015287516142fa81600c840160208c0161459f565b01600c810191909152855190614317826016830160208a0161459f565b8181019150506b02e372332b2902a34b2b91d160a51b6016820152845161434581602284016020890161459f565b6b02e372a37b5b2b71024a21d160a51b60229290910191820152835161437281602e84016020880161459f565b614388614383602e8385010161407f565b613fbe565b9998505050505050505050565b60007f646174613a6170706c69636174696f6e2f6a736f6e3b6261736536342c000000825282516143cd81601d85016020870161459f565b91909101601d0192915050565b60007f54686973204e465420726570726573656e74732061206c69717569646974792082527f706f736974696f6e20696e20612050616e63616b65205633200000000000000060208301528551614438816039850160208a0161459f565b602d60f81b603991840191820152855161445981603a840160208a0161459f565b660103837b7b617160cd1b603a92909101918201527f546865206f776e6572206f662074686973204e46542063616e206d6f6469667960418201527f206f722072656465656d2074686520706f736974696f6e2e5c6e00000000000060618201526f02e372837b7b61020b2323932b9b99d160851b607b82015284516144e681608b84016020890161459f565b612e3760f11b608b9290910191820152614503608d820185613f76565b979650505050505050565b6001600160a01b0391909116815260200190565b600083151582526040602083015261453d6040830184613f92565b949350505050565b6000602082526107d56020830184613f92565b6020808252600990820152682737ba1037bbb732b960b91b604082015260600190565b60405181810167ffffffffffffffff8111828210171561459757fe5b604052919050565b60005b838110156145ba5781810151838201526020016145a2565b838111156145c9576000848401525b5050505056fe203c616e696d6174652061646469746976653d2273756d22206174747269627574654e616d653d2273746172744f6666736574222066726f6d3d2230252220746f3d22313030252220626567696e3d22307322206475723d223330732220726570656174436f756e743d22696e646566696e69746522202f3e3c2f74657874506174683e3c2f746578743e3c73746f70206f66667365743d222e39222073746f702d636f6c6f723d227768697465222073746f702d6f7061636974793d223022202f3e3c2f6c696e6561724772616469656e743e3c72656374207374796c653d2266696c7465723a2075726c28236631292220783d223070782220793d22307078222077696474683d22323930707822206865696768743d22353030707822202f3e3c6665496d61676520726573756c743d2270332220786c696e6b3a687265663d22646174613a696d6167652f7376672b786d6c3b6261736536342c3c67206d61736b3d2275726c2823666164652d73796d626f6c29223e3c726563742066696c6c3d226e6f6e652220783d223070782220793d22307078222077696474683d22323930707822206865696768743d22323030707822202f3e203c7465787420793d22373070782220783d2233327078222066696c6c3d2277686974652220666f6e742d66616d696c793d2227436f7572696572204e6577272c206d6f6e6f73706163652220666f6e742d7765696768743d223230302220666f6e742d73697a653d2233367078223e3c7376672077696474683d2232393022206865696768743d22353030222076696577426f783d2230203020323930203530302220786d6c6e733d22687474703a2f2f7777772e77332e6f72672f323030302f7376672270782c2030707829222063783d22307078222063793d223070782220723d22347078222066696c6c3d227768697465222f3e3c2f673e203c616e696d6174652061646469746976653d2273756d22206174747269627574654e616d653d2273746172744f6666736574222066726f6d3d2230252220746f3d22313030252220626567696e3d22307322206475723d223330732220726570656174436f756e743d22696e646566696e69746522202f3e203c2f74657874506174683e3c6d61736b2069643d22666164652d757022206d61736b436f6e74656e74556e6974733d226f626a656374426f756e64696e67426f78223e3c726563742077696474683d223122206865696768743d2231222066696c6c3d2275726c2823677261642d75702922202f3e3c2f6d61736b3e22207374726f6b653d227267626128302c302c302c302e332922207374726f6b652d77696474683d2233327078222066696c6c3d226e6f6e6522207374726f6b652d6c696e656361703d22726f756e6422202f3e203c616e696d6174652061646469746976653d2273756d22206174747269627574654e616d653d2273746172744f6666736574222066726f6d3d2230252220746f3d22313030252220626567696e3d22307322206475723d2233307322203c67207374796c653d227472616e73666f726d3a7472616e736c61746528323970782c20343434707829223e3c636972636c65207374796c653d227472616e73666f726d3a7472616e736c6174653364283c7376672077696474683d2732393027206865696768743d27353030272076696577426f783d2730203020323930203530302720786d6c6e733d27687474703a2f2f7777772e77332e6f72672f323030302f737667273e3c636972636c652063783d27203c67207374796c653d2266696c7465723a75726c2823746f702d726567696f6e2d626c7572293b207472616e73666f726d3a7363616c6528312e35293b207472616e73666f726d2d6f726967696e3a63656e74657220746f703b223e22202f3e3c6665426c656e64206d6f64653d226f7665726c61792220696e3d2270302220696e323d22703122202f3e3c6665426c656e64206d6f64653d226578636c7573696f6e2220696e323d22703222202f3e3c6665426c656e64206d6f64653d226f7665726c61792220696e323d2270332220726573756c743d22626c656e644f757422202f3e3c6665476175737369616e426c7572203c706174682069643d226d696e696d61702220643d224d3233342034343443323334203435372e393439203234322e323120343633203235332034363322202f3e3c6d61736b2069643d226e6f6e6522206d61736b436f6e74656e74556e6974733d226f626a656374426f756e64696e67426f78223e3c726563742077696474683d223122206865696768743d2231222066696c6c3d22776869746522202f3e3c2f6d61736b3e2220783d223070782220793d22307078222077696474683d22323930707822206865696768743d22353030707822202f3e203c616e696d6174652061646469746976653d2273756d22206174747269627574654e616d653d2273746172744f6666736574222066726f6d3d2230252220746f3d22313030252220626567696e3d22307322206475723d223330732220726570656174436f756e743d22696e646566696e69746522202f3e3c7465787420783d22313270782220793d22313770782220666f6e742d66616d696c793d2227436f7572696572204e6577272c206d6f6e6f73706163652220666f6e742d73697a653d2231327078222066696c6c3d227768697465223e3c747370616e2066696c6c3d2272676261283235352c3235352c3235352c302e3629223e4d696e205469636b3a203c2f747370616e3e3c74657874506174682073746172744f66667365743d222d31303025222066696c6c3d2277686974652220666f6e742d66616d696c793d2227436f7572696572204e6577272c206d6f6e6f73706163652220666f6e742d73697a653d22313070782220786c696e6b3a687265663d2223746578742d706174682d61223e3c6c696e6561724772616469656e742069643d22677261642d646f776e222078313d2230222078323d2231222079313d2230222079323d2231223e3c73746f70206f66667365743d22302e30222073746f702d636f6c6f723d227768697465222073746f702d6f7061636974793d223122202f3e3c73746f70206f66667365743d22302e39222073746f702d636f6c6f723d227768697465222073746f702d6f7061636974793d223022202f3e3c2f6c696e6561724772616469656e743e3c66696c7465722069643d226631223e3c6665496d61676520726573756c743d2270302220786c696e6b3a687265663d22646174613a696d6167652f7376672b786d6c3b6261736536342c3c7376672077696474683d2732393027206865696768743d27353030272076696577426f783d2730203020323930203530302720786d6c6e733d27687474703a2f2f7777772e77332e6f72672f323030302f737667273e3c726563742077696474683d27323930707827206865696768743d273530307078272066696c6c3d2723222f3e3c6665496d61676520726573756c743d2270322220786c696e6b3a687265663d22646174613a696d6167652f7376672b786d6c3b6261736536342c3c656c6c697073652063783d22353025222063793d22307078222072783d223138307078222072793d223132307078222066696c6c3d222330303022206f7061636974793d22302e383522202f3e3c2f673e707822206865696768743d2232367078222072783d22387078222072793d22387078222066696c6c3d227267626128302c302c302c302e362922202f3e70782220723d22347078222066696c6c3d22776869746522202f3e3c636972636c652063783d2231312e333437384c32342031324c31342e343334312031322e363532324c32322e333932332031384c31332e373831392031332e373831394c31382032322e333932334c31322e363532322031342e343334314c31322032344c31312e333437382031342e343334314c362032322e33393c726563742066696c6c3d226e6f6e652220783d223070782220793d22307078222077696474683d22323930707822206865696768743d22353030707822202f3e4142434445464748494a4b4c4d4e4f505152535455565758595a6162636465666768696a6b6c6d6e6f707172737475767778797a303132333435363738392b2f20786d6c6e733a786c696e6b3d27687474703a2f2f7777772e77332e6f72672f313939392f786c696e6b273e3c6c696e6561724772616469656e742069643d22677261642d73796d626f6c223e3c73746f70206f66667365743d22302e37222073746f702d636f6c6f723d227768697465222073746f702d6f7061636974793d223122202f3e3c73746f70206f66667365743d222e3935222073746f702d636f6c6f723d227768697465222073746f702d6f7061636974793d223022202f3e3c2f6c696e6561724772616469656e743e207374796c653d227472616e73666f726d3a7472616e736c61746528373270782c313839707829223e3c7265637420783d222d313670782220793d222d31367078222077696474683d22313830707822206865696768743d223138307078222066696c6c3d226e6f6e6522202f3e3c7061746820643d22207374796c653d227472616e73666f726d3a7472616e736c61746528373270782c313839707829223e70782220723d2232347078222066696c6c3d226e6f6e6522207374726f6b653d22776869746522202f3e3c7265637420783d222d313670782220793d222d31367078222077696474683d22313830707822206865696768743d223138307078222066696c6c3d226e6f6e6522202f3e536166654d6174683a206d756c7469706c69636174696f6e206f766572666c6f773c673e3c70617468207374796c653d227472616e73666f726d3a7472616e736c617465283670782c367078292220643d224d313220304c31322e3635323220392e35363538374c313820312e363037374c31332e373831392031302e323138314c32322e3339323320364c31342e34333431203c70617468207374726f6b652d6c696e656361703d22726f756e642220643d224d38203943382e30303030342032322e393439342031362e32303939203238203237203238222066696c6c3d226e6f6e6522207374726f6b653d22776869746522202f3e20726570656174436f756e743d22696e646566696e69746522202f3e3c2f74657874506174683e3c74657874506174682073746172744f66667365743d222d353025222066696c6c3d2277686974652220666f6e742d66616d696c793d2227436f7572696572204e6577272c206d6f6e6f73706163652220666f6e742d73697a653d22313070782220786c696e6b3a687265663d2223746578742d706174682d61223e3c6d61736b2069643d22666164652d646f776e22206d61736b436f6e74656e74556e6974733d226f626a656374426f756e64696e67426f78223e3c726563742077696474683d223122206865696768743d2231222066696c6c3d2275726c2823677261642d646f776e2922202f3e3c2f6d61736b3e22207374726f6b653d2272676261283235352c3235352c3235352c3129222066696c6c3d226e6f6e6522207374726f6b652d6c696e656361703d22726f756e6422202f3e3c2f673e696e3d22626c656e644f75742220737464446576696174696f6e3d22343222202f3e3c2f66696c7465723e203c636c6970506174682069643d22636f726e657273223e3c726563742077696474683d2232393022206865696768743d22353030222072783d223432222072793d22343222202f3e3c2f636c6970506174683e203c67207374796c653d227472616e73666f726d3a7472616e736c61746528323970782c20333834707829223e3c6c696e6561724772616469656e742069643d22677261642d7570222078313d2231222078323d2230222079313d2231222079323d2230223e3c73746f70206f66667365743d22302e30222073746f702d636f6c6f723d227768697465222073746f702d6f7061636974793d223122202f3e32334c31302e323138312031332e373831394c312e363037372031384c392e35363538372031322e363532324c302031324c392e35363538372031312e333437384c312e3630373720364c31302e323138312031302e323138314c3620312e363037374c31312e3334373820392e35363538374c313220305a222066696c6c3d22776869746522202f3e3c67207374796c653d227472616e73666f726d3a7472616e736c6174652832323670782c20333932707829223e3c726563742077696474683d223336707822206865696768743d2233367078222072783d22387078222072793d22387078222066696c6c3d226e6f6e6522207374726f6b653d2272676261283235352c3235352c3235352c302e322922202f3e3c74657874506174682073746172744f66667365743d22353025222066696c6c3d2277686974652220666f6e742d66616d696c793d2227436f7572696572204e6577272c206d6f6e6f73706163652220666f6e742d73697a653d22313070782220786c696e6b3a687265663d2223746578742d706174682d61223e3c7465787420783d22313270782220793d22313770782220666f6e742d66616d696c793d2227436f7572696572204e6577272c206d6f6e6f73706163652220666f6e742d73697a653d2231327078222066696c6c3d227768697465223e3c747370616e2066696c6c3d2272676261283235352c3235352c3235352c302e3629223e4d6178205469636b3a203c2f747370616e3e3c616e696d6174655472616e73666f726d206174747269627574654e616d653d227472616e73666f726d2220747970653d22726f74617465222066726f6d3d22302031382031382220746f3d2233363020313820313822206475723d223130732220726570656174436f756e743d22696e646566696e697465222f3e3c2f673e3c2f673e3c706174682069643d22746578742d706174682d612220643d224d34302031322048323530204132382032382030203020312032373820343020563436302041323820323820302030203120323530203438382048343020413238203238203020302031203132203436302056343020413238203238203020302031203430203132207a22202f3e222f3e3c6665496d61676520726573756c743d2270312220786c696e6b3a687265663d22646174613a696d6167652f7376672b786d6c3b6261736536342c3c6d61736b2069643d22666164652d73796d626f6c22206d61736b436f6e74656e74556e6974733d227573657253706163654f6e557365223e3c726563742077696474683d22323930707822206865696768743d223230307078222066696c6c3d2275726c2823677261642d73796d626f6c2922202f3e3c2f6d61736b3e3c2f646566733e3c7265637420783d22302220793d2230222077696474683d2232393022206865696768743d22353030222072783d223432222072793d223432222066696c6c3d227267626128302c302c302c302922207374726f6b653d2272676261283235352c3235352c3235352c302e322922202f3e3c2f673e3c66696c7465722069643d22746f702d726567696f6e2d626c7572223e3c6665476175737369616e426c757220696e3d22536f75726365477261706869632220737464446576696174696f6e3d22323422202f3e3c2f66696c7465723e3c2f74657874506174683e203c74657874506174682073746172744f66667365743d223025222066696c6c3d2277686974652220666f6e742d66616d696c793d2227436f7572696572204e6577272c206d6f6e6f73706163652220666f6e742d73697a653d22313070782220786c696e6b3a687265663d2223746578742d706174682d61223e3c7465787420746578742d72656e646572696e673d226f7074696d697a655370656564223e5369676e6564536166654d6174683a207375627472616374696f6e206f766572666c6f773c7265637420783d2231362220793d223136222077696474683d2232353822206865696768743d22343638222072783d223236222072793d223236222066696c6c3d227267626128302c302c302c302922207374726f6b653d2272676261283235352c3235352c3235352c302e322922202f3e3c7465787420783d22313270782220793d22313770782220666f6e742d66616d696c793d2227436f7572696572204e6577272c206d6f6e6f73706163652220666f6e742d73697a653d2231327078222066696c6c3d227768697465223e3c747370616e2066696c6c3d2272676261283235352c3235352c3235352c302e3629223e49443a203c2f747370616e3e3c726563742077696474683d223336707822206865696768743d2233367078222072783d22387078222072793d22387078222066696c6c3d226e6f6e6522207374726f6b653d2272676261283235352c3235352c3235352c302e322922202f3e3c2f746578743e3c7465787420793d2231313570782220783d2233327078222066696c6c3d2277686974652220666f6e742d66616d696c793d2227436f7572696572204e6577272c206d6f6e6f73706163652220666f6e742d7765696768743d223230302220666f6e742d73697a653d2233367078223e3c2f746578743e3c2f673e3c67207374796c653d227472616e73666f726d3a7472616e736c6174652832323670782c20343333707829223e203c67207374796c653d227472616e73666f726d3a7472616e736c61746528323970782c20343134707829223ea26469706673582212200e4bf5bb4c436f37cf1f51afd21e917c05daecf10c761ca392560d39302c7a9f64736f6c63430007060033","linkReferences":{}},"methodIdentifiers":{"constructTokenURI((uint256,address,address,string,string,uint8,uint8,bool,int24,int24,int24,int24,uint24,address))":"f93a7911","owner()":"8da5cb5b","setOwner(address)":"13af4035","toggleSwitchAndUpdateNFTDomain(bool,string)":"65f2fb3a"},"id":96}