{"abi":[{"type":"function","name":"advanceTime","inputs":[{"name":"by","type":"uint256","internalType":"uint256"}],"outputs":[],"stateMutability":"nonpayable"},{"type":"function","name":"burn","inputs":[{"name":"tickLower","type":"int24","internalType":"int24"},{"name":"tickUpper","type":"int24","internalType":"int24"},{"name":"amount","type":"uint128","internalType":"uint128"}],"outputs":[{"name":"amount0","type":"uint256","internalType":"uint256"},{"name":"amount1","type":"uint256","internalType":"uint256"}],"stateMutability":"nonpayable"},{"type":"function","name":"collect","inputs":[{"name":"recipient","type":"address","internalType":"address"},{"name":"tickLower","type":"int24","internalType":"int24"},{"name":"tickUpper","type":"int24","internalType":"int24"},{"name":"amount0Requested","type":"uint128","internalType":"uint128"},{"name":"amount1Requested","type":"uint128","internalType":"uint128"}],"outputs":[{"name":"amount0","type":"uint128","internalType":"uint128"},{"name":"amount1","type":"uint128","internalType":"uint128"}],"stateMutability":"nonpayable"},{"type":"function","name":"collectProtocol","inputs":[{"name":"recipient","type":"address","internalType":"address"},{"name":"amount0Requested","type":"uint128","internalType":"uint128"},{"name":"amount1Requested","type":"uint128","internalType":"uint128"}],"outputs":[{"name":"amount0","type":"uint128","internalType":"uint128"},{"name":"amount1","type":"uint128","internalType":"uint128"}],"stateMutability":"nonpayable"},{"type":"function","name":"factory","inputs":[],"outputs":[{"name":"","type":"address","internalType":"address"}],"stateMutability":"view"},{"type":"function","name":"fee","inputs":[],"outputs":[{"name":"","type":"uint24","internalType":"uint24"}],"stateMutability":"view"},{"type":"function","name":"feeGrowthGlobal0X128","inputs":[],"outputs":[{"name":"","type":"uint256","internalType":"uint256"}],"stateMutability":"view"},{"type":"function","name":"feeGrowthGlobal1X128","inputs":[],"outputs":[{"name":"","type":"uint256","internalType":"uint256"}],"stateMutability":"view"},{"type":"function","name":"flash","inputs":[{"name":"recipient","type":"address","internalType":"address"},{"name":"amount0","type":"uint256","internalType":"uint256"},{"name":"amount1","type":"uint256","internalType":"uint256"},{"name":"data","type":"bytes","internalType":"bytes"}],"outputs":[],"stateMutability":"nonpayable"},{"type":"function","name":"increaseObservationCardinalityNext","inputs":[{"name":"observationCardinalityNext","type":"uint16","internalType":"uint16"}],"outputs":[],"stateMutability":"nonpayable"},{"type":"function","name":"initialize","inputs":[{"name":"sqrtPriceX96","type":"uint160","internalType":"uint160"}],"outputs":[],"stateMutability":"nonpayable"},{"type":"function","name":"liquidity","inputs":[],"outputs":[{"name":"","type":"uint128","internalType":"uint128"}],"stateMutability":"view"},{"type":"function","name":"lmPool","inputs":[],"outputs":[{"name":"","type":"address","internalType":"contract IPancakeV3LmPool"}],"stateMutability":"view"},{"type":"function","name":"maxLiquidityPerTick","inputs":[],"outputs":[{"name":"","type":"uint128","internalType":"uint128"}],"stateMutability":"view"},{"type":"function","name":"mint","inputs":[{"name":"recipient","type":"address","internalType":"address"},{"name":"tickLower","type":"int24","internalType":"int24"},{"name":"tickUpper","type":"int24","internalType":"int24"},{"name":"amount","type":"uint128","internalType":"uint128"},{"name":"data","type":"bytes","internalType":"bytes"}],"outputs":[{"name":"amount0","type":"uint256","internalType":"uint256"},{"name":"amount1","type":"uint256","internalType":"uint256"}],"stateMutability":"nonpayable"},{"type":"function","name":"observations","inputs":[{"name":"","type":"uint256","internalType":"uint256"}],"outputs":[{"name":"blockTimestamp","type":"uint32","internalType":"uint32"},{"name":"tickCumulative","type":"int56","internalType":"int56"},{"name":"secondsPerLiquidityCumulativeX128","type":"uint160","internalType":"uint160"},{"name":"initialized","type":"bool","internalType":"bool"}],"stateMutability":"view"},{"type":"function","name":"observe","inputs":[{"name":"secondsAgos","type":"uint32[]","internalType":"uint32[]"}],"outputs":[{"name":"tickCumulatives","type":"int56[]","internalType":"int56[]"},{"name":"secondsPerLiquidityCumulativeX128s","type":"uint160[]","internalType":"uint160[]"}],"stateMutability":"view"},{"type":"function","name":"positions","inputs":[{"name":"","type":"bytes32","internalType":"bytes32"}],"outputs":[{"name":"liquidity","type":"uint128","internalType":"uint128"},{"name":"feeGrowthInside0LastX128","type":"uint256","internalType":"uint256"},{"name":"feeGrowthInside1LastX128","type":"uint256","internalType":"uint256"},{"name":"tokensOwed0","type":"uint128","internalType":"uint128"},{"name":"tokensOwed1","type":"uint128","internalType":"uint128"}],"stateMutability":"view"},{"type":"function","name":"protocolFees","inputs":[],"outputs":[{"name":"token0","type":"uint128","internalType":"uint128"},{"name":"token1","type":"uint128","internalType":"uint128"}],"stateMutability":"view"},{"type":"function","name":"setFeeGrowthGlobal0X128","inputs":[{"name":"_feeGrowthGlobal0X128","type":"uint256","internalType":"uint256"}],"outputs":[],"stateMutability":"nonpayable"},{"type":"function","name":"setFeeGrowthGlobal1X128","inputs":[{"name":"_feeGrowthGlobal1X128","type":"uint256","internalType":"uint256"}],"outputs":[],"stateMutability":"nonpayable"},{"type":"function","name":"setFeeProtocol","inputs":[{"name":"feeProtocol0","type":"uint32","internalType":"uint32"},{"name":"feeProtocol1","type":"uint32","internalType":"uint32"}],"outputs":[],"stateMutability":"nonpayable"},{"type":"function","name":"setLmPool","inputs":[{"name":"_lmPool","type":"address","internalType":"address"}],"outputs":[],"stateMutability":"nonpayable"},{"type":"function","name":"slot0","inputs":[],"outputs":[{"name":"sqrtPriceX96","type":"uint160","internalType":"uint160"},{"name":"tick","type":"int24","internalType":"int24"},{"name":"observationIndex","type":"uint16","internalType":"uint16"},{"name":"observationCardinality","type":"uint16","internalType":"uint16"},{"name":"observationCardinalityNext","type":"uint16","internalType":"uint16"},{"name":"feeProtocol","type":"uint32","internalType":"uint32"},{"name":"unlocked","type":"bool","internalType":"bool"}],"stateMutability":"view"},{"type":"function","name":"snapshotCumulativesInside","inputs":[{"name":"tickLower","type":"int24","internalType":"int24"},{"name":"tickUpper","type":"int24","internalType":"int24"}],"outputs":[{"name":"tickCumulativeInside","type":"int56","internalType":"int56"},{"name":"secondsPerLiquidityInsideX128","type":"uint160","internalType":"uint160"},{"name":"secondsInside","type":"uint32","internalType":"uint32"}],"stateMutability":"view"},{"type":"function","name":"swap","inputs":[{"name":"recipient","type":"address","internalType":"address"},{"name":"zeroForOne","type":"bool","internalType":"bool"},{"name":"amountSpecified","type":"int256","internalType":"int256"},{"name":"sqrtPriceLimitX96","type":"uint160","internalType":"uint160"},{"name":"data","type":"bytes","internalType":"bytes"}],"outputs":[{"name":"amount0","type":"int256","internalType":"int256"},{"name":"amount1","type":"int256","internalType":"int256"}],"stateMutability":"nonpayable"},{"type":"function","name":"tickBitmap","inputs":[{"name":"","type":"int16","internalType":"int16"}],"outputs":[{"name":"","type":"uint256","internalType":"uint256"}],"stateMutability":"view"},{"type":"function","name":"tickSpacing","inputs":[],"outputs":[{"name":"","type":"int24","internalType":"int24"}],"stateMutability":"view"},{"type":"function","name":"ticks","inputs":[{"name":"","type":"int24","internalType":"int24"}],"outputs":[{"name":"liquidityGross","type":"uint128","internalType":"uint128"},{"name":"liquidityNet","type":"int128","internalType":"int128"},{"name":"feeGrowthOutside0X128","type":"uint256","internalType":"uint256"},{"name":"feeGrowthOutside1X128","type":"uint256","internalType":"uint256"},{"name":"tickCumulativeOutside","type":"int56","internalType":"int56"},{"name":"secondsPerLiquidityOutsideX128","type":"uint160","internalType":"uint160"},{"name":"secondsOutside","type":"uint32","internalType":"uint32"},{"name":"initialized","type":"bool","internalType":"bool"}],"stateMutability":"view"},{"type":"function","name":"time","inputs":[],"outputs":[{"name":"","type":"uint256","internalType":"uint256"}],"stateMutability":"view"},{"type":"function","name":"token0","inputs":[],"outputs":[{"name":"","type":"address","internalType":"address"}],"stateMutability":"view"},{"type":"function","name":"token1","inputs":[],"outputs":[{"name":"","type":"address","internalType":"address"}],"stateMutability":"view"},{"type":"event","name":"Burn","inputs":[{"name":"owner","type":"address","indexed":true,"internalType":"address"},{"name":"tickLower","type":"int24","indexed":true,"internalType":"int24"},{"name":"tickUpper","type":"int24","indexed":true,"internalType":"int24"},{"name":"amount","type":"uint128","indexed":false,"internalType":"uint128"},{"name":"amount0","type":"uint256","indexed":false,"internalType":"uint256"},{"name":"amount1","type":"uint256","indexed":false,"internalType":"uint256"}],"anonymous":false},{"type":"event","name":"Collect","inputs":[{"name":"owner","type":"address","indexed":true,"internalType":"address"},{"name":"recipient","type":"address","indexed":false,"internalType":"address"},{"name":"tickLower","type":"int24","indexed":true,"internalType":"int24"},{"name":"tickUpper","type":"int24","indexed":true,"internalType":"int24"},{"name":"amount0","type":"uint128","indexed":false,"internalType":"uint128"},{"name":"amount1","type":"uint128","indexed":false,"internalType":"uint128"}],"anonymous":false},{"type":"event","name":"CollectProtocol","inputs":[{"name":"sender","type":"address","indexed":true,"internalType":"address"},{"name":"recipient","type":"address","indexed":true,"internalType":"address"},{"name":"amount0","type":"uint128","indexed":false,"internalType":"uint128"},{"name":"amount1","type":"uint128","indexed":false,"internalType":"uint128"}],"anonymous":false},{"type":"event","name":"Flash","inputs":[{"name":"sender","type":"address","indexed":true,"internalType":"address"},{"name":"recipient","type":"address","indexed":true,"internalType":"address"},{"name":"amount0","type":"uint256","indexed":false,"internalType":"uint256"},{"name":"amount1","type":"uint256","indexed":false,"internalType":"uint256"},{"name":"paid0","type":"uint256","indexed":false,"internalType":"uint256"},{"name":"paid1","type":"uint256","indexed":false,"internalType":"uint256"}],"anonymous":false},{"type":"event","name":"IncreaseObservationCardinalityNext","inputs":[{"name":"observationCardinalityNextOld","type":"uint16","indexed":false,"internalType":"uint16"},{"name":"observationCardinalityNextNew","type":"uint16","indexed":false,"internalType":"uint16"}],"anonymous":false},{"type":"event","name":"Initialize","inputs":[{"name":"sqrtPriceX96","type":"uint160","indexed":false,"internalType":"uint160"},{"name":"tick","type":"int24","indexed":false,"internalType":"int24"}],"anonymous":false},{"type":"event","name":"Mint","inputs":[{"name":"sender","type":"address","indexed":false,"internalType":"address"},{"name":"owner","type":"address","indexed":true,"internalType":"address"},{"name":"tickLower","type":"int24","indexed":true,"internalType":"int24"},{"name":"tickUpper","type":"int24","indexed":true,"internalType":"int24"},{"name":"amount","type":"uint128","indexed":false,"internalType":"uint128"},{"name":"amount0","type":"uint256","indexed":false,"internalType":"uint256"},{"name":"amount1","type":"uint256","indexed":false,"internalType":"uint256"}],"anonymous":false},{"type":"event","name":"SetFeeProtocol","inputs":[{"name":"feeProtocol0Old","type":"uint32","indexed":false,"internalType":"uint32"},{"name":"feeProtocol1Old","type":"uint32","indexed":false,"internalType":"uint32"},{"name":"feeProtocol0New","type":"uint32","indexed":false,"internalType":"uint32"},{"name":"feeProtocol1New","type":"uint32","indexed":false,"internalType":"uint32"}],"anonymous":false},{"type":"event","name":"SetLmPoolEvent","inputs":[{"name":"addr","type":"address","indexed":false,"internalType":"address"}],"anonymous":false},{"type":"event","name":"Swap","inputs":[{"name":"sender","type":"address","indexed":true,"internalType":"address"},{"name":"recipient","type":"address","indexed":true,"internalType":"address"},{"name":"amount0","type":"int256","indexed":false,"internalType":"int256"},{"name":"amount1","type":"int256","indexed":false,"internalType":"int256"},{"name":"sqrtPriceX96","type":"uint160","indexed":false,"internalType":"uint160"},{"name":"liquidity","type":"uint128","indexed":false,"internalType":"uint128"},{"name":"tick","type":"int24","indexed":false,"internalType":"int24"},{"name":"protocolFeesToken0","type":"uint128","indexed":false,"internalType":"uint128"},{"name":"protocolFeesToken1","type":"uint128","indexed":false,"internalType":"uint128"}],"anonymous":false}],"bytecode":{"object":"0x610140604052635f7b26e062010009553480156200001c57600080fd5b506000336001600160a01b031663890357306040518163ffffffff1660e01b815260040160a06040518083038186803b1580156200005957600080fd5b505afa1580156200006e573d6000803e3d6000fd5b505050506040513d60a08110156200008557600080fd5b50805160208083015160408401516060808601516080968701516001600160e81b031960e892831b1660e0526001600160601b031993831b841660c05293821b831660a05294901b16909352600283810b900b90911b61010052909150620000f89082906200300862000110821b17901c565b60801b6001600160801b03191661012052506200017e565b60008082600281900b620d89e719816200012657fe5b05029050600083600281900b620d89e8816200013e57fe5b0502905060008460020b83830360020b816200015657fe5b0560010190508062ffffff166001600160801b038016816200017457fe5b0495945050505050565b60805160601c60a05160601c60c05160601c60e05160e81c6101005160e81c6101205160801c615a6262000266600039806122135280614f615280614f98525080610d495280612c895280614fcc5280614ffe525080610e385280611be75280611c1e5280612cd65280612ea55280612ee75280612f2e5280612f755250806113ac5280611ca1528061210852806124985280612cad528061429a5250806109ac52806114da5280611c7052806120a25280612412528061415152508061229652806122bf5280612975528061299e5280612b435280612b705280612b995250615a626000f3fe608060405234801561001057600080fd5b50600436106101f05760003560e01c806370cf754a1161010f578063d0c93a7c116100a2578063f305839911610071578063f3058399146108d0578063f30dba93146108d8578063f637731d1461095a578063f6eb760f14610980576101f0565b8063d0c93a7c1461086c578063d21220a71461088b578063d380c67914610893578063ddca3f43146108b0576101f0565b8063a38807f2116100de578063a38807f2146107b8578063b0d0d21114610813578063c45a01551461083e578063cc7e7fa214610846576101f0565b806370cf754a1461063257806385b667291461063a578063883bdbfd14610677578063a34123a71461077e576101f0565b80633850c7bd116101875780634f1eb3d8116101565780634f1eb3d814610560578063514ea4bf146105b15780635339c2961461060a578063540d49181461062a576101f0565b80633850c7bd146103d25780633c8a7d8d1461042e57806346141319146104ce578063490e6cbc146104d6576101f0565b80631a686502116101c35780631a686502146102ff5780631ad8b03b14610323578063252c09d71461035a57806332148f67146103b1576101f0565b806307e32f0a146101f55780630dfe168114610214578063128acb081461023857806316ada547146102e5575b600080fd5b6102126004803603602081101561020b57600080fd5b503561099d565b005b61021c6109aa565b604080516001600160a01b039092168252519081900360200190f35b6102cc600480360360a081101561024e57600080fd5b6001600160a01b0382358116926020810135151592604082013592606083013516919081019060a081016080820135600160201b81111561028e57600080fd5b8201836020820111156102a057600080fd5b803590602001918460018302840111600160201b831117156102c157600080fd5b5090925090506109ce565b6040805192835260208301919091528051918290030190f35b6102ed6116cb565b60408051918252519081900360200190f35b6103076116d3565b604080516001600160801b039092168252519081900360200190f35b61032b6116e2565b60405180836001600160801b03168152602001826001600160801b031681526020019250505060405180910390f35b6103776004803603602081101561037057600080fd5b50356116fc565b6040805163ffffffff909516855260069390930b60208501526001600160a01b039091168383015215156060830152519081900360800190f35b610212600480360360208110156103c757600080fd5b503561ffff16611741565b6103da611833565b604080516001600160a01b03909816885260029690960b602088015261ffff9485168787015292841660608701529216608085015263ffffffff90911660a0840152151560c0830152519081900360e00190f35b6102cc600480360360a081101561044457600080fd5b6001600160a01b03823516916020810135600290810b92604083013590910b916001600160801b036060820135169181019060a081016080820135600160201b81111561049057600080fd5b8201836020820111156104a257600080fd5b803590602001918460018302840111600160201b831117156104c357600080fd5b509092509050611888565b6102ed611b46565b610212600480360360808110156104ec57600080fd5b6001600160a01b038235169160208101359160408201359190810190608081016060820135600160201b81111561052257600080fd5b82018360208201111561053457600080fd5b803590602001918460018302840111600160201b8311171561055557600080fd5b509092509050611b4c565b61032b600480360360a081101561057657600080fd5b506001600160a01b03813516906020810135600290810b91604081013590910b906001600160801b0360608201358116916080013516611f93565b6105ce600480360360208110156105c757600080fd5b50356121b1565b604080516001600160801b0396871681526020810195909552848101939093529084166060840152909216608082015290519081900360a00190f35b6102ed6004803603602081101561062057600080fd5b503560010b6121ee565b61021c612200565b610307612211565b61032b6004803603606081101561065057600080fd5b506001600160a01b03813516906001600160801b0360208201358116916040013516612235565b6106e56004803603602081101561068d57600080fd5b810190602081018135600160201b8111156106a757600080fd5b8201836020820111156106b957600080fd5b803590602001918460208302840111600160201b831117156106da57600080fd5b509092509050612530565b604051808060200180602001838103835285818151815260200191508051906020019060200280838360005b83811015610729578181015183820152602001610711565b50505050905001838103825284818151815260200191508051906020019060200280838360005b83811015610768578181015183820152602001610750565b5050505090500194505050505060405180910390f35b6102cc6004803603606081101561079457600080fd5b508035600290810b91602081013590910b90604001356001600160801b03166125b5565b6107e2600480360360408110156107ce57600080fd5b508035600290810b9160200135900b612731565b6040805160069490940b84526001600160a01b03909216602084015263ffffffff1682820152519081900360600190f35b6102126004803603604081101561082957600080fd5b5063ffffffff81358116916020013516612919565b61021c612b41565b6102126004803603602081101561085c57600080fd5b50356001600160a01b0316612b65565b610874612c87565b6040805160029290920b8252519081900360200190f35b61021c612cab565b610212600480360360208110156108a957600080fd5b5035612ccf565b6108b8612cd4565b6040805162ffffff9092168252519081900360200190f35b6102ed612cf8565b6108f8600480360360208110156108ee57600080fd5b503560020b612cfe565b604080516001600160801b039099168952600f9790970b602089015287870195909552606087019390935260069190910b60808601526001600160a01b031660a085015263ffffffff1660c0840152151560e083015251908190036101000190f35b6102126004803603602081101561097057600080fd5b50356001600160a01b0316612d6a565b6102126004803603602081101561099657600080fd5b5035613003565b6201000980549091019055565b7f000000000000000000000000000000000000000000000000000000000000000081565b60008085610a08576040805162461bcd60e51b8152602060048201526002602482015261415360f01b604482015290519081900360640190fd5b6040805160e0810182526000546001600160a01b0381168252600160a01b8104600290810b810b900b602083015261ffff600160b81b8204811693830193909352600160c81b810483166060830152600160d81b9004909116608082015260015463ffffffff811660a083015260ff600160201b90910416151560c08201819052610ac0576040805162461bcd60e51b81526020600482015260036024820152624c4f4b60e81b604482015290519081900360640190fd5b87610b0b5780600001516001600160a01b0316866001600160a01b0316118015610b06575073fffd8963efd1fc6a506488495d951d5263988d266001600160a01b038716105b610b3d565b80600001516001600160a01b0316866001600160a01b0316108015610b3d57506401000276a36001600160a01b038716115b610b74576040805162461bcd60e51b815260206004820152600360248201526214d41360ea1b604482015290519081900360640190fd5b6001805460ff60201b191690556040805160c08101909152600090808a610ba95760108460a0015163ffffffff16901c610bb3565b60a084015161ffff165b63ffffffff1681526005546001600160801b03166020820152604001610bd7613074565b63ffffffff1681526000602082018190526040820181905260609091015262010008549091506001600160a01b031615610c7d57620100085460408083015181516310a537f160e11b815263ffffffff909116600482015290516001600160a01b039092169163214a6fe29160248082019260009290919082900301818387803b158015610c6457600080fd5b505af1158015610c78573d6000803e3d6000fd5b505050505b6000808913905060006040518060e001604052808b81526020016000815260200185600001516001600160a01b03168152602001856020015160020b81526020018c610ccb57600354610ccf565b6002545b815260200160006001600160801b0316815260200184602001516001600160801b031681525090505b805115801590610d1e5750886001600160a01b031681604001516001600160a01b031614155b1561118d57610d2b6159c9565b60408201516001600160a01b031681526060820151610d6e906007907f00000000000000000000000000000000000000000000000000000000000000008f61307c565b15156040830152600290810b810b60208301819052620d89e719910b1215610d9f57620d89e7196020820152610dbe565b6020810151620d89e860029190910b1315610dbe57620d89e860208201525b610dcb81602001516131be565b6001600160a01b031660608201526040820151610e5c908d610e05578b6001600160a01b031683606001516001600160a01b031611610e1f565b8b6001600160a01b031683606001516001600160a01b0316105b610e2d578260600151610e2f565b8b5b60c085015185517f00000000000000000000000000000000000000000000000000000000000000006134ef565b60c085015260a084015260808301526001600160a01b031660408301528215610ebe57610e928160c001518260800151016136e1565b825103825260a0810151610eb490610ea9906136e1565b6020840151906136f7565b6020830152610ef9565b610ecb8160a001516136e1565b825101825260c08101516080820151610ef391610ee891016136e1565b602084015190613713565b60208301525b835163ffffffff1615610f59576000612710610f2c866000015163ffffffff168460c0015161372990919063ffffffff16565b81610f3357fe5b60c0840180519290910491829003905260a0840180519091016001600160801b03169052505b60c08201516001600160801b031615610f9857610f8c8160c00151600160801b8460c001516001600160801b031661374d565b60808301805190910190525b80606001516001600160a01b031682604001516001600160a01b0316141561114c57806040015115611123578360a0015161102257611000846040015160008760200151886040015188602001518a6060015160096137fd909695949392919063ffffffff16565b6001600160a01b03166080860152600690810b900b6060850152600160a08501525b62010008546001600160a01b0316156110ad57620100085460208201516040805163a498463360e01b815260029290920b60048301528e15156024830152516001600160a01b039092169163a49846339160448082019260009290919082900301818387803b15801561109457600080fd5b505af11580156110a8573d6000803e3d6000fd5b505050505b60006110f982602001518e6110c4576002546110ca565b84608001515b8f6110d95785608001516110dd565b6003545b608089015160608a015160408b0151600695949392919061398f565b90508c15611105576000035b6111138360c0015182613a49565b6001600160801b031660c0840152505b8b61113257806020015161113b565b60018160200151035b600290810b900b6060830152611187565b80600001516001600160a01b031682604001516001600160a01b0316146111875761117a8260400151613aff565b600290810b900b60608301525b50610cf8565b836020015160020b816060015160020b1461125b576000806111db86604001518660400151886020015188602001518a606001518b608001516009613e1a909695949392919063ffffffff16565b604085015160608601516000805461ffff60c81b1916600160c81b61ffff958616021761ffff60b81b1916600160b81b95909416949094029290921762ffffff60a01b1916600160a01b62ffffff60029490940b9390931692909202919091176001600160a01b0319166001600160a01b03909116179055506112809050565b6040810151600080546001600160a01b0319166001600160a01b039092169190911790555b8060c001516001600160801b031683602001516001600160801b0316146112c65760c0810151600580546001600160801b0319166001600160801b039092169190911790555b6000808c1561132057608083015160025560a08301516001600160801b0316156113145760a0830151600480546001600160801b031981166001600160801b03918216909301169190911790555b8260a00151915061136d565b608083015160035560a08301516001600160801b0316156113665760a0830151600480546001600160801b03808216600160801b92839004821690940116029190911790555b5060a08201515b8315158d15151461138657602083015183518d03611393565b82600001518c0383602001515b90985096508c156114cc5760008712156113d5576113d57f00000000000000000000000000000000000000000000000000000000000000008f89600003613fb5565b60006113df614103565b9050336001600160a01b03166323a69e758a8a8e8e6040518563ffffffff1660e01b815260040180858152602001848152602001806020018281038252848482818152602001925080828437600081840152601f19601f82011690508083019250505095505050505050600060405180830381600087803b15801561146357600080fd5b505af1158015611477573d6000803e3d6000fd5b50505050611483614103565b61148d828b61423c565b11156114c6576040805162461bcd60e51b815260206004820152600360248201526249494160e81b604482015290519081900360640190fd5b506115f6565b6000881215611503576115037f00000000000000000000000000000000000000000000000000000000000000008f8a600003613fb5565b600061150d61424c565b9050336001600160a01b03166323a69e758a8a8e8e6040518563ffffffff1660e01b815260040180858152602001848152602001806020018281038252848482818152602001925080828437600081840152601f19601f82011690508083019250505095505050505050600060405180830381600087803b15801561159157600080fd5b505af11580156115a5573d6000803e3d6000fd5b505050506115b161424c565b6115bb828a61423c565b11156115f4576040805162461bcd60e51b815260206004820152600360248201526249494160e81b604482015290519081900360640190fd5b505b8d6001600160a01b0316336001600160a01b03167f19b47279256b2a23a1665c810c8d55a1758940ee09377d4f8d26497a3577dc838a8a87604001518860c001518960600151898960405180888152602001878152602001866001600160a01b03168152602001856001600160801b031681526020018460020b8152602001836001600160801b03168152602001826001600160801b0316815260200197505050505050505060405180910390a350506001805460ff60201b1916600160201b17905550939a92995091975050505050505050565b620100095481565b6005546001600160801b031681565b6004546001600160801b0380821691600160801b90041682565b60098161ffff811061170d57600080fd5b015463ffffffff81169150600160201b810460060b90600160581b81046001600160a01b031690600160f81b900460ff1684565b600154600160201b900460ff16611785576040805162461bcd60e51b81526020600482015260036024820152624c4f4b60e81b604482015290519081900360640190fd5b6001805460ff60201b1916905560008054600160d81b900461ffff16906117ae600983856142e4565b6000805461ffff808416600160d81b810261ffff60d81b199093169290921790925591925083161461181b576040805161ffff80851682528316602082015281517fac49e518f90a358f652e4400164f05a5d8f7e35e7747279bc3a93dbf584e125a929181900390910190a15b50506001805460ff60201b1916600160201b17905550565b6000546001546001600160a01b03821691600160a01b810460020b9161ffff600160b81b8304811692600160c81b8104821692600160d81b9091049091169063ffffffff81169060ff600160201b9091041687565b6001546000908190600160201b900460ff166118d1576040805162461bcd60e51b81526020600482015260036024820152624c4f4b60e81b604482015290519081900360640190fd5b6001805460ff60201b191690556001600160801b0385166118f157600080fd5b60008061193f60405180608001604052808c6001600160a01b031681526020018b60020b81526020018a60020b81526020016119358a6001600160801b0316614387565b600f0b9052614398565b925092505081935080925060008060008611156119615761195e614103565b91505b84156119725761196f61424c565b90505b336001600160a01b03166399eee9d087878b8b6040518563ffffffff1660e01b815260040180858152602001848152602001806020018281038252848482818152602001925080828437600081840152601f19601f82011690508083019250505095505050505050600060405180830381600087803b1580156119f457600080fd5b505af1158015611a08573d6000803e3d6000fd5b505050506000861115611a5f57611a1d614103565b611a27838861423c565b1115611a5f576040805162461bcd60e51b815260206004820152600260248201526104d360f41b604482015290519081900360640190fd5b8415611aaf57611a6d61424c565b611a77828761423c565b1115611aaf576040805162461bcd60e51b81526020600482015260026024820152614d3160f01b604482015290519081900360640190fd5b8960020b8b60020b8d6001600160a01b03167f7a53080ba414158be7ec69b987b5fb7d07dee101fe85488f0853ae16239d0bde338d8b8b60405180856001600160a01b03168152602001846001600160801b0316815260200183815260200182815260200194505050505060405180910390a450506001805460ff60201b1916600160201b17905550919890975095505050505050565b60035481565b600154600160201b900460ff16611b90576040805162461bcd60e51b81526020600482015260036024820152624c4f4b60e81b604482015290519081900360640190fd5b6001805460ff60201b191690556005546001600160801b031680611bdf576040805162461bcd60e51b81526020600482015260016024820152601360fa1b604482015290519081900360640190fd5b6000611c14867f000000000000000000000000000000000000000000000000000000000000000062ffffff16620f42406145ce565b90506000611c4b867f000000000000000000000000000000000000000000000000000000000000000062ffffff16620f42406145ce565b90506000611c57614103565b90506000611c6361424c565b90508815611c9657611c967f00000000000000000000000000000000000000000000000000000000000000008b8b613fb5565b8715611cc757611cc77f00000000000000000000000000000000000000000000000000000000000000008b8a613fb5565b336001600160a01b031663a1d4833685858a8a6040518563ffffffff1660e01b815260040180858152602001848152602001806020018281038252848482818152602001925080828437600081840152601f19601f82011690508083019250505095505050505050600060405180830381600087803b158015611d4957600080fd5b505af1158015611d5d573d6000803e3d6000fd5b505050506000611d6b614103565b90506000611d7761424c565b905081611d84858861423c565b1115611dbc576040805162461bcd60e51b8152602060048201526002602482015261046360f41b604482015290519081900360640190fd5b80611dc7848761423c565b1115611dff576040805162461bcd60e51b8152602060048201526002602482015261463160f01b604482015290519081900360640190fd5b8382038382038115611e885760015461ffff1660008115611e2c5761271063ffffffff8316850204611e2f565b60005b90506001600160801b03811615611e6257600480546001600160801b038082168401166001600160801b03199091161790555b611e7c818503600160801b8d6001600160801b031661374d565b60028054909101905550505b8015611f0d5760015460101c61ffff1660008115611eb25761271063ffffffff8316840204611eb5565b60005b90506001600160801b03811615611ee757600480546001600160801b03600160801b8083048216850182160291161790555b611f01818403600160801b8d6001600160801b031661374d565b60038054909101905550505b8d6001600160a01b0316336001600160a01b03167fbdbdb71d7860376ba52b25a5028beea23581364a40522f6bcfb86bb1f2dca6338f8f86866040518085815260200184815260200183815260200182815260200194505050505060405180910390a350506001805460ff60201b1916600160201b179055505050505050505050505050565b6001546000908190600160201b900460ff16611fdc576040805162461bcd60e51b81526020600482015260036024820152624c4f4b60e81b604482015290519081900360640190fd5b6001805460ff60201b191690556000611ff86008338989614608565b60038101549091506001600160801b03908116908616116120195784612028565b60038101546001600160801b03165b60038201549093506001600160801b03600160801b9091048116908516116120505783612066565b6003810154600160801b90046001600160801b03165b91506001600160801b038316156120cb576003810180546001600160801b031981166001600160801b039182168690038216179091556120cb907f0000000000000000000000000000000000000000000000000000000000000000908a908616613fb5565b6001600160801b03821615612131576003810180546001600160801b03600160801b808304821686900382160291811691909117909155612131907f0000000000000000000000000000000000000000000000000000000000000000908a908516613fb5565b604080516001600160a01b038a1681526001600160801b0380861660208301528416818301529051600288810b92908a900b9133917f70935338e69775456a85ddef226c395fb668b63fa0115f5f20610b388e6ca9c0919081900360600190a4506001805460ff60201b1916600160201b17905590969095509350505050565b60086020526000908152604090208054600182015460028301546003909301546001600160801b0392831693919281811691600160801b90041685565b60076020526000908152604090205481565b62010008546001600160a01b031681565b7f000000000000000000000000000000000000000000000000000000000000000081565b6001546000908190600160201b900460ff1661227e576040805162461bcd60e51b81526020600482015260036024820152624c4f4b60e81b604482015290519081900360640190fd5b6001805460ff60201b19169055336001600160a01b037f000000000000000000000000000000000000000000000000000000000000000016148061234e57507f00000000000000000000000000000000000000000000000000000000000000006001600160a01b0316638da5cb5b6040518163ffffffff1660e01b815260040160206040518083038186803b15801561231657600080fd5b505afa15801561232a573d6000803e3d6000fd5b505050506040513d602081101561234057600080fd5b50516001600160a01b031633145b61235757600080fd5b6004546001600160801b03908116908516116123735783612380565b6004546001600160801b03165b6004549092506001600160801b03600160801b9091048116908416116123a657826123ba565b600454600160801b90046001600160801b03165b90506001600160801b0382161561243b576004546001600160801b03838116911614156123e957600019909101905b600480546001600160801b031981166001600160801b0391821685900382161790915561243b907f00000000000000000000000000000000000000000000000000000000000000009087908516613fb5565b6001600160801b038116156124c1576004546001600160801b03828116600160801b90920416141561246c57600019015b600480546001600160801b03600160801b8083048216859003821602918116919091179091556124c1907f00000000000000000000000000000000000000000000000000000000000000009087908416613fb5565b604080516001600160801b0380851682528316602082015281516001600160a01b0388169233927f596b573906218d3411850b26a6b437d6c4522fdb43d2d2386263f86d50b8b151929081900390910190a36001805460ff60201b1916600160201b1790559094909350915050565b6060806125aa61253e613074565b858580806020026020016040519081016040528093929190818152602001838360200280828437600092018290525054600554600996959450600160a01b820460020b935061ffff600160b81b8304811693506001600160801b0390911691600160c81b90041661466c565b915091509250929050565b6001546000908190600160201b900460ff166125fe576040805162461bcd60e51b81526020600482015260036024820152624c4f4b60e81b604482015290519081900360640190fd5b6001805460ff60201b1916905560408051608081018252338152600287810b602083015286900b918101919091526000908190819061265a906060810161264d6001600160801b038a16614387565b600003600f0b9052614398565b925092509250816000039450806000039350600085118061267b5750600084115b156126ba576003830180546001600160801b038082168089018216600160801b93849004831689019092169092029091176001600160801b0319161790555b604080516001600160801b0388168152602081018790528082018690529051600289810b92908b900b9133917f0c396cd989a39f4459b5fa1aed6a9a8dcdbc45908acfd67e028cd568da98982c919081900360600190a450506001805460ff60201b1916600160201b179055509094909350915050565b600080600061274085856147c6565b600285810b810b600090815260066020819052604080832088850b90940b8352822060038401549182900b93600160381b83046001600160a01b0316928492600160d81b820463ffffffff16928492909190600160f81b900460ff16806127a657600080fd5b6003820154600681900b9850600160381b81046001600160a01b03169650600160d81b810463ffffffff169450600160f81b900460ff16806127e757600080fd5b50506040805160e0810182526000546001600160a01b0381168252600160a01b8104600290810b810b810b6020840181905261ffff600160b81b8404811695850195909552600160c81b830485166060850152600160d81b909204909316608083015260015463ffffffff811660a084015260ff600160201b90910416151560c08301529093508e820b910b1215905061288f57509390940396509003935090039050612912565b8a60020b816020015160020b12156129035760006128ab613074565b60208301516040840151600554606086015193945060009384936128e1936009938893879392916001600160801b0316906137fd565b9a9003989098039b505094909603929092039650909103039250612912915050565b50949093039650039350900390505b9250925092565b600154600160201b900460ff1661295d576040805162461bcd60e51b81526020600482015260036024820152624c4f4b60e81b604482015290519081900360640190fd5b6001805460ff60201b19169055336001600160a01b037f0000000000000000000000000000000000000000000000000000000000000000161480612a2d57507f00000000000000000000000000000000000000000000000000000000000000006001600160a01b0316638da5cb5b6040518163ffffffff1660e01b815260040160206040518083038186803b1580156129f557600080fd5b505afa158015612a09573d6000803e3d6000fd5b505050506040513d6020811015612a1f57600080fd5b50516001600160a01b031633145b612a3657600080fd5b63ffffffff82161580612a6457506103e88263ffffffff1610158015612a645750610fa08263ffffffff1611155b8015612a99575063ffffffff81161580612a9957506103e88163ffffffff1610158015612a995750610fa08163ffffffff1611155b612aa257600080fd5b6001805465ffffffff0000601084901b16840163ffffffff90811663ffffffff19831617909255167fb3159fed3ddfba67bae294599eafe2d0ec98c08bb38e0e5fb87d33154b6e05aa62010000826040805163ffffffff939092068316825261ffff601086901c16602083015286831682820152918516606082015290519081900360800190a150506001805460ff60201b1916600160201b17905550565b7f000000000000000000000000000000000000000000000000000000000000000081565b336001600160a01b037f0000000000000000000000000000000000000000000000000000000000000000161480612c2857507f00000000000000000000000000000000000000000000000000000000000000006001600160a01b0316638da5cb5b6040518163ffffffff1660e01b815260040160206040518083038186803b158015612bf057600080fd5b505afa158015612c04573d6000803e3d6000fd5b505050506040513d6020811015612c1a57600080fd5b50516001600160a01b031633145b612c3157600080fd5b6201000880546001600160a01b0383166001600160a01b0319909116811790915560408051918252517f29983690a85a11696ce8a357993744f8d5a74fde14653e517cc2f8608a7235e99181900360200190a150565b7f000000000000000000000000000000000000000000000000000000000000000081565b7f000000000000000000000000000000000000000000000000000000000000000081565b600255565b7f000000000000000000000000000000000000000000000000000000000000000081565b60025481565b60066020819052600091825260409091208054600182015460028301546003909301546001600160801b03831694600160801b909304600f0b93919281900b90600160381b81046001600160a01b031690600160d81b810463ffffffff1690600160f81b900460ff1688565b6000546001600160a01b031615612dad576040805162461bcd60e51b8152602060048201526002602482015261414960f01b604482015290519081900360640190fd5b6000612db882613aff565b9050600080612dd0612dc8613074565b60099061488f565b6040805160e0810182526001600160a01b038816808252600288810b60208401819052600094840185905261ffff8781166060860181905290871660808601819052630c800c8060a08701819052600160c090970187905287546001600160a01b03191690951762ffffff60a01b1916600160a01b62ffffff9490950b8416949094029390931763ffffffff60b81b1916600160c81b9091021761ffff60d81b1916600160d81b909202919091179093558154600160201b63ffffffff1990911690911760ff60201b191617905591935091507f00000000000000000000000000000000000000000000000000000000000000001660641415612ee5576001805463ffffffff1916630ce40ce4179055612fb6565b7f000000000000000000000000000000000000000000000000000000000000000062ffffff166101f41415612f2c576001805463ffffffff1916630d480d48179055612fb6565b7f000000000000000000000000000000000000000000000000000000000000000062ffffff166109c41415612f73576001805463ffffffff1916630c800c80179055612fb6565b7f000000000000000000000000000000000000000000000000000000000000000062ffffff166127101415612fb6576001805463ffffffff1916630c800c801790555b604080516001600160a01b0386168152600285900b602082015281517f98636036cb66a9c19a37435efc1e90142190214e8abeb821bdba3f2990dd4c95929181900390910190a150505050565b600355565b60008082600281900b620d89e7198161301d57fe5b05029050600083600281900b620d89e88161303457fe5b0502905060008460020b83830360020b8161304b57fe5b0560010190508062ffffff166001600160801b0380168161306857fe5b0493505050505b919050565b620100095490565b60008060008460020b8660020b8161309057fe5b05905060008660020b1280156130b757508460020b8660020b816130b057fe5b0760020b15155b156130c157600019015b8315613136576000806130d3836148db565b600182810b810b600090815260208d9052604090205460ff83169190911b8001600019019081168015159750929450909250908561311857888360ff1686030261312b565b88613122826148ed565b840360ff168603025b9650505050506131b4565b600080613145836001016148db565b91509150600060018260ff166001901b031990506000818b60008660010b60010b815260200190815260200160002054169050806000141595508561319757888360ff0360ff168660010101026131ad565b88836131a28361498c565b0360ff168660010101025b9650505050505b5094509492505050565b60008060008360020b126131d5578260020b6131dd565b8260020b6000035b9050620d89e881111561321b576040805162461bcd60e51b81526020600482015260016024820152601560fa1b604482015290519081900360640190fd5b60006001821661322f57600160801b613241565b6ffffcb933bd6fad37aa2d162d1a5940015b70ffffffffffffffffffffffffffffffffff1690506002821615613275576ffff97272373d413259a46990580e213a0260801c5b6004821615613294576ffff2e50f5f656932ef12357cf3c7fdcc0260801c5b60088216156132b3576fffe5caca7e10e4e61c3624eaa0941cd00260801c5b60108216156132d2576fffcb9843d60f6159c9db58835c9266440260801c5b60208216156132f1576fff973b41fa98c081472e6896dfb254c00260801c5b6040821615613310576fff2ea16466c96a3843ec78b326b528610260801c5b608082161561332f576ffe5dee046a99a2a811c461f1969c30530260801c5b61010082161561334f576ffcbe86c7900a88aedcffc83b479aa3a40260801c5b61020082161561336f576ff987a7253ac413176f2b074cf7815e540260801c5b61040082161561338f576ff3392b0822b70005940c7a398e4b70f30260801c5b6108008216156133af576fe7159475a2c29b7443b29c7fa6e889d90260801c5b6110008216156133cf576fd097f3bdfd2022b8845ad8f792aa58250260801c5b6120008216156133ef576fa9f746462d870fdf8a65dc1f90e061e50260801c5b61400082161561340f576f70d869a156d2a1b890bb3df62baf32f70260801c5b61800082161561342f576f31be135f97d08fd981231505542fcfa60260801c5b62010000821615613450576f09aa508b5b7a84e1c677de54f3e99bc90260801c5b62020000821615613470576e5d6af8dedb81196699c329225ee6040260801c5b6204000082161561348f576d2216e584f5fa1ea926041bedfe980260801c5b620800008216156134ac576b048a170391f7dc42444e8fa20260801c5b60008460020b13156134c75780600019816134c357fe5b0490505b600160201b8106156134da5760016134dd565b60005b60ff16602082901c0192505050919050565b60008080806001600160a01b03808916908a1610158187128015906135745760006135288989620f42400362ffffff16620f424061374d565b9050826135415761353c8c8c8c6001614a76565b61354e565b61354e8b8d8c6001614af1565b955085811061355f578a965061356e565b61356b8c8b8386614b9c565b96505b506135be565b8161358b576135868b8b8b6000614af1565b613598565b6135988a8c8b6000614a76565b93508388600003106135ac578995506135be565b6135bb8b8a8a60000385614be8565b95505b6001600160a01b038a8116908716148215613621578080156135dd5750815b6135f3576135ee878d8c6001614af1565b6135f5565b855b9550808015613602575081155b61361857613613878d8c6000614a76565b61361a565b845b945061366b565b80801561362b5750815b6136415761363c8c888c6001614a76565b613643565b855b9550808015613650575081155b613666576136618c888c6000614af1565b613668565b845b94505b8115801561367b57508860000385115b15613687578860000394505b8180156136a657508a6001600160a01b0316876001600160a01b031614155b156136b55785890393506136d2565b6136cf868962ffffff168a620f42400362ffffff166145ce565b93505b50505095509550955095915050565b6000600160ff1b82106136f357600080fd5b5090565b8082038281131560008312151461370d57600080fd5b92915050565b8181018281121560008312151461370d57600080fd5b60008215806137445750508181028183828161374157fe5b04145b61370d57600080fd5b6000808060001985870986860292508281109083900303905080613783576000841161377857600080fd5b5082900490506137f6565b80841161378f57600080fd5b6000848688096000868103871696879004966002600389028118808a02820302808a02820302808a02820302808a02820302808a02820302808a02909103029181900381900460010186841190950394909402919094039290920491909117919091029150505b9392505050565b60008063ffffffff87166138a3576000898661ffff1661ffff811061381e57fe5b60408051608081018252919092015463ffffffff808216808452600160201b8304600690810b810b900b6020850152600160581b83046001600160a01b031694840194909452600160f81b90910460ff16151560608301529092508a161461388f5761388c818a8988614c34565b90505b806020015181604001519250925050613983565b8688036000806138b88c8c858c8c8c8c614cd7565b91509150816000015163ffffffff168363ffffffff1614156138ea578160200151826040015194509450505050613983565b805163ffffffff84811691161415613912578060200151816040015194509450505050613983565b8151815160208085015190840151918390039286039163ffffffff80841692908516910360060b8161394057fe5b05028460200151018263ffffffff168263ffffffff1686604001518660400151036001600160a01b0316028161397257fe5b048560400151019650965050505050505b97509795505050505050565b600295860b860b60009081526020979097526040909620600181018054909503909455938301805490920390915560038201805463ffffffff600160d81b6001600160a01b03600160381b808504821690960316909402600160381b600160d81b031990921691909117600681810b90960390950b66ffffffffffffff1666ffffffffffffff199095169490941782810485169095039093160263ffffffff60d81b1990931692909217905554600160801b9004600f0b90565b60008082600f0b1215613aae57826001600160801b03168260000384039150816001600160801b031610613aa9576040805162461bcd60e51b81526020600482015260026024820152614c5360f01b604482015290519081900360640190fd5b61370d565b826001600160801b03168284019150816001600160801b0316101561370d576040805162461bcd60e51b81526020600482015260026024820152614c4160f01b604482015290519081900360640190fd5b60006401000276a36001600160a01b03831610801590613b3b575073fffd8963efd1fc6a506488495d951d5263988d266001600160a01b038316105b613b70576040805162461bcd60e51b81526020600482015260016024820152602960f91b604482015290519081900360640190fd5b640100000000600160c01b03602083901b166001600160801b03811160071b81811c67ffffffffffffffff811160061b90811c63ffffffff811160051b90811c61ffff811160041b90811c60ff8111600390811b91821c600f811160021b90811c918211600190811b92831c97908811961790941790921717909117171760808110613c0457607f810383901c9150613c0e565b80607f0383901b91505b908002607f81811c60ff83811c9190911c800280831c81831c1c800280841c81841c1c800280851c81851c1c800280861c81861c1c800280871c81871c1c800280881c81881c1c800280891c81891c1c8002808a1c818a1c1c8002808b1c818b1c1c8002808c1c818c1c1c8002808d1c818d1c1c8002808e1c9c81901c9c909c1c80029c8d901c9e9d607f198f0160401b60c09190911c678000000000000000161760c19b909b1c674000000000000000169a909a1760c29990991c672000000000000000169890981760c39790971c671000000000000000169690961760c49590951c670800000000000000169490941760c59390931c670400000000000000169290921760c69190911c670200000000000000161760c79190911c600160381b161760c89190911c6680000000000000161760c99190911c6640000000000000161760ca9190911c6620000000000000161760cb9190911c6610000000000000161760cc9190911c6608000000000000161760cd9190911c66040000000000001617693627a301d71055774c8581026f028f6481ab7f045a5af012a19d003aa9198101608090811d906fdb2df09e81959a81455e260799a0632f8301901d600281810b9083900b14613e0b57886001600160a01b0316613def826131be565b6001600160a01b03161115613e045781613e06565b805b613e0d565b815b9998505050505050505050565b6000806000898961ffff1661ffff8110613e3057fe5b60408051608081018252919092015463ffffffff808216808452600160201b8304600690810b810b900b6020850152600160581b83046001600160a01b031694840194909452600160f81b90910460ff161515606083015290925089161415613e9f5788859250925050613983565b8461ffff168461ffff16118015613ec057506001850361ffff168961ffff16145b15613ecd57839150613ed1565b8491505b8161ffff168960010161ffff1681613ee557fe5b069250613ef481898989614c34565b8a8461ffff1661ffff8110613f0557fe5b825191018054602084015160408501516060909501511515600160f81b026001600160f81b036001600160a01b03909616600160581b027fff0000000000000000000000000000000000000000ffffffffffffffffffffff60069390930b66ffffffffffffff16600160201b026affffffffffffff000000001963ffffffff90971663ffffffff199095169490941795909516929092171692909217929092161790555097509795505050505050565b604080516001600160a01b038481166024830152604480830185905283518084039091018152606490920183526020820180516001600160e01b031663a9059cbb60e01b1781529251825160009485949389169392918291908083835b602083106140315780518252601f199092019160209182019101614012565b6001836020036101000a0380198251168184511680821785525050505050509050019150506000604051808303816000865af19150503d8060008114614093576040519150601f19603f3d011682016040523d82523d6000602084013e614098565b606091505b50915091508180156140c65750805115806140c657508080602001905160208110156140c357600080fd5b50515b6140fc576040805162461bcd60e51b81526020600482015260026024820152612a2360f11b604482015290519081900360640190fd5b5050505050565b604080513060248083019190915282518083039091018152604490910182526020810180516001600160e01b03166370a0823160e01b17815291518151600093849384936001600160a01b037f00000000000000000000000000000000000000000000000000000000000000001693919290918291908083835b6020831061419c5780518252601f19909201916020918201910161417d565b6001836020036101000a038019825116818451168082178552505050505050905001915050600060405180830381855afa9150503d80600081146141fc576040519150601f19603f3d011682016040523d82523d6000602084013e614201565b606091505b509150915081801561421557506020815110155b61421e57600080fd5b80806020019051602081101561423357600080fd5b50519250505090565b8082018281101561370d57600080fd5b604080513060248083019190915282518083039091018152604490910182526020810180516001600160e01b03166370a0823160e01b17815291518151600093849384936001600160a01b037f00000000000000000000000000000000000000000000000000000000000000001693919290918291908083836020831061419c5780518252601f19909201916020918201910161417d565b6000808361ffff1611614322576040805162461bcd60e51b81526020600482015260016024820152604960f81b604482015290519081900360640190fd5b8261ffff168261ffff16116143385750816137f6565b825b8261ffff168161ffff16101561437e576001858261ffff1661ffff811061435d57fe5b01805463ffffffff191663ffffffff9290921691909117905560010161433a565b50909392505050565b80600f81900b811461306f57600080fd5b60008060006143af846020015185604001516147c6565b6040805160e0810182526000546001600160a01b0381168252600160a01b8104600290810b810b900b602080840182905261ffff600160b81b8404811685870152600160c81b84048116606080870191909152600160d81b90940416608085015260015463ffffffff811660a086015260ff600160201b90910416151560c0850152885190890151948901519289015193946144519491939092909190614ed1565b93508460600151600f0b6000146145c657846020015160020b816020015160020b12156144a65761449f61448886602001516131be565b61449587604001516131be565b8760600151615086565b92506145c6565b846040015160020b816020015160020b121561459c5760055460408201516001600160801b03909116906144f8906144dc613074565b6020850151606086015160808701516009949392918791613e1a565b6000805461ffff60c81b1916600160c81b61ffff938416021761ffff60b81b1916600160b81b939092169290920217905581516040870151614548919061453e906131be565b8860600151615086565b935061456661455a87602001516131be565b835160608901516150ca565b9250614576818760600151613a49565b600580546001600160801b0319166001600160801b0392909216919091179055506145c6565b6145c36145ac86602001516131be565b6145b987604001516131be565b87606001516150ca565b91505b509193909250565b60006145db84848461374d565b9050600082806145e757fe5b84860911156137f65760001981106145fe57600080fd5b6001019392505050565b6040805160609490941b6bffffffffffffffffffffffff1916602080860191909152600293840b60e890811b60348701529290930b90911b60378401528051808403601a018152603a90930181528251928201929092206000908152929052902090565b60608060008361ffff16116146ac576040805162461bcd60e51b81526020600482015260016024820152604960f81b604482015290519081900360640190fd5b865167ffffffffffffffff811180156146c457600080fd5b506040519080825280602002602001820160405280156146ee578160200160208202803683370190505b509150865167ffffffffffffffff8111801561470957600080fd5b50604051908082528060200260200182016040528015614733578160200160208202803683370190505b50905060005b87518110156147b9576147648a8a8a848151811061475357fe5b60200260200101518a8a8a8a6137fd565b84838151811061477057fe5b6020026020010184848151811061478357fe5b60200260200101826001600160a01b03166001600160a01b03168152508260060b60060b81525050508080600101915050614739565b5097509795505050505050565b8060020b8260020b12614806576040805162461bcd60e51b8152602060048201526003602482015262544c5560e81b604482015290519081900360640190fd5b620d89e719600283900b1215614849576040805162461bcd60e51b8152602060048201526003602482015262544c4d60e81b604482015290519081900360640190fd5b620d89e8600282900b131561488b576040805162461bcd60e51b815260206004820152600360248201526254554d60e81b604482015290519081900360640190fd5b5050565b6040805160808101825263ffffffff9283168082526000602083018190529282019290925260016060909101819052835463ffffffff1916909117909116600160f81b17909155908190565b60020b600881901d9161010090910790565b60008082116148fb57600080fd5b600160801b821061490e57608091821c91015b68010000000000000000821061492657604091821c91015b600160201b821061493957602091821c91015b62010000821061494b57601091821c91015b610100821061495c57600891821c91015b6010821061496c57600491821c91015b6004821061497c57600291821c91015b6002821061306f57600101919050565b600080821161499a57600080fd5b5060ff6001600160801b038216156149b557607f19016149bd565b608082901c91505b67ffffffffffffffff8216156149d657603f19016149de565b604082901c91505b63ffffffff8216156149f357601f19016149fb565b602082901c91505b61ffff821615614a0e57600f1901614a16565b601082901c91505b60ff821615614a285760071901614a30565b600882901c91505b600f821615614a425760031901614a4a565b600482901c91505b6003821615614a5c5760011901614a64565b600282901c91505b600182161561306f5760001901919050565b6000836001600160a01b0316856001600160a01b03161115614a96579293925b81614ac357614abe836001600160801b03168686036001600160a01b0316600160601b61374d565b614ae6565b614ae6836001600160801b03168686036001600160a01b0316600160601b6145ce565b90505b949350505050565b6000836001600160a01b0316856001600160a01b03161115614b11579293925b600160601b600160e01b03606084901b166001600160a01b038686038116908716614b3b57600080fd5b83614b6b57866001600160a01b0316614b5e8383896001600160a01b031661374d565b81614b6557fe5b04614b91565b614b91614b828383896001600160a01b03166145ce565b886001600160a01b03166150f9565b979650505050505050565b600080856001600160a01b031611614bb357600080fd5b6000846001600160801b031611614bc957600080fd5b81614bdb57614abe8585856001615104565b614ae685858560016151e5565b600080856001600160a01b031611614bff57600080fd5b6000846001600160801b031611614c1557600080fd5b81614c2757614abe85858560006151e5565b614ae68585856000615104565b614c3c615a05565b600085600001518503905060405180608001604052808663ffffffff1681526020018263ffffffff168660020b0288602001510160060b81526020016000856001600160801b031611614c90576001614c92565b845b6001600160801b031663ffffffff60801b608085901b1681614cb057fe5b048860400151016001600160a01b0316815260200160011515815250915050949350505050565b614cdf615a05565b614ce7615a05565b888561ffff1661ffff8110614cf857fe5b60408051608081018252919092015463ffffffff8116808352600160201b8204600690810b810b900b6020840152600160581b82046001600160a01b031693830193909352600160f81b900460ff16151560608201529250614d5c908990896152c8565b15614d94578663ffffffff16826000015163ffffffff161415614d7e57613983565b81614d8b83898988614c34565b91509150613983565b888361ffff168660010161ffff1681614da957fe5b0661ffff1661ffff8110614db957fe5b60408051608081018252929091015463ffffffff81168352600160201b8104600690810b810b900b60208401526001600160a01b03600160581b8204169183019190915260ff600160f81b90910416151560608201819052909250614e6e57604080516080810182528a5463ffffffff81168252600160201b8104600690810b810b900b6020830152600160581b81046001600160a01b031692820192909252600160f81b90910460ff161515606082015291505b614e7d888360000151896152c8565b614eb4576040805162461bcd60e51b815260206004820152600360248201526213d31160ea1b604482015290519081900360640190fd5b614ec18989898887615389565b9150915097509795505050505050565b6000614ee06008878787614608565b60025460035491925090600080600f87900b15615026576000614f01613074565b6000805460055492935090918291614f4b9160099186918591600160a01b810460020b9161ffff600160b81b83048116926001600160801b0390921691600160c81b9004166137fd565b9092509050614f8560068d8b8d8b8b87898b60007f0000000000000000000000000000000000000000000000000000000000000000615527565b9450614fbc60068c8b8d8b8b87898b60017f0000000000000000000000000000000000000000000000000000000000000000615527565b93508415614ff057614ff060078d7f00000000000000000000000000000000000000000000000000000000000000006156e0565b83156150225761502260078c7f00000000000000000000000000000000000000000000000000000000000000006156e0565b5050505b60008061503860068c8c8b8a8a615746565b9092509050615049878a84846157f2565b600089600f0b12156150775783156150665761506660068c615987565b82156150775761507760068b615987565b50505050505095945050505050565b60008082600f0b126150ac576150a76150a28585856001614af1565b6136e1565b614ae9565b6150bf6150a28585856000036000614af1565b600003949350505050565b60008082600f0b126150e6576150a76150a28585856001614a76565b6150bf6150a28585856000036000614a76565b808204910615150190565b600081156151775760006001600160a01b0384111561513a5761513584600160601b876001600160801b031661374d565b615152565b6001600160801b038516606085901b8161515057fe5b045b905061516f61516a6001600160a01b0388168361423c565b6159b3565b915050614ae9565b60006001600160a01b038411156151a5576151a084600160601b876001600160801b03166145ce565b6151bc565b6151bc606085901b6001600160801b0387166150f9565b905080866001600160a01b0316116151d357600080fd5b6001600160a01b038616039050614ae9565b6000826151f3575083614ae9565b600160601b600160e01b03606085901b168215615281576001600160a01b0386168481029085828161522157fe5b041415615252578181018281106152505761524683896001600160a01b0316836145ce565b9350505050614ae9565b505b61527882615273878a6001600160a01b0316868161526c57fe5b049061423c565b6150f9565b92505050614ae9565b6001600160a01b0386168481029085828161529857fe5b041480156152a557508082115b6152ae57600080fd5b80820361524661516a846001600160a01b038b16846145ce565b60008363ffffffff168363ffffffff16111580156152f257508363ffffffff168263ffffffff1611155b1561530e578163ffffffff168363ffffffff16111590506137f6565b60008463ffffffff168463ffffffff1611615335578363ffffffff16600160201b0161533d565b8363ffffffff165b64ffffffffff16905060008563ffffffff168463ffffffff161161536d578363ffffffff16600160201b01615375565b8363ffffffff165b64ffffffffff169091111595945050505050565b615391615a05565b615399615a05565b60008361ffff168560010161ffff16816153af57fe5b0661ffff169050600060018561ffff16830103905060005b506002818301048961ffff871682816153dc57fe5b0661ffff81106153e857fe5b60408051608081018252929091015463ffffffff81168352600160201b8104600690810b810b900b60208401526001600160a01b03600160581b8204169183019190915260ff600160f81b90910416151560608201819052909550615452578060010192506153c7565b898661ffff16826001018161546357fe5b0661ffff811061546f57fe5b60408051608081018252929091015463ffffffff81168352600160201b8104600690810b810b900b60208401526001600160a01b03600160581b8204169183019190915260ff600160f81b909104161515606082015285519094506000906154d9908b908b6152c8565b90508080156154f257506154f28a8a87600001516152c8565b156154fd575061551a565b8061550d57600182039250615514565b8160010193505b506153c7565b5050509550959350505050565b60028a810b900b600090815260208c90526040812080546001600160801b031682615552828d613a49565b9050846001600160801b0316816001600160801b031611156155a0576040805162461bcd60e51b81526020600482015260026024820152614c4f60f01b604482015290519081900360640190fd5b6001600160801b038281161590821615811415945015615645578c60020b8e60020b1361562d57600183018b9055600283018a9055600383018054600160381b600160d81b031916600160381b6001600160a01b038c16021766ffffffffffffff191666ffffffffffffff60068b900b161763ffffffff60d81b1916600160d81b63ffffffff8a16021790555b6003830180546001600160f81b0316600160f81b1790555b82546001600160801b0319166001600160801b0382161783558561568e5782546156899061568490600160801b9004600f90810b810b908f900b613713565b614387565b6156af565b82546156af9061568490600160801b9004600f90810b810b908f900b6136f7565b8354600f9190910b6001600160801b03908116600160801b0291161790925550909c9b505050505050505050505050565b8060020b8260020b816156ef57fe5b0760020b156156fd57600080fd5b6000806157188360020b8560020b8161571257fe5b056148db565b600191820b820b60009081526020979097526040909620805460ff9097169190911b90951890945550505050565b600285810b80820b60009081526020899052604080822088850b850b83529082209193849391929184918291908a900b1261578c5750506001820154600283015461579f565b8360010154880391508360020154870390505b6000808b60020b8b60020b12156157c1575050600183015460028401546157d4565b84600101548a0391508460020154890390505b92909803979097039b96909503949094039850939650505050505050565b6040805160a08101825285546001600160801b0390811682526001870154602083015260028701549282019290925260038601548083166060830152600160801b900490911660808201526000600f85900b6158915781516001600160801b0316615889576040805162461bcd60e51b815260206004820152600260248201526104e560f41b604482015290519081900360640190fd5b5080516158a0565b815161589d9086613a49565b90505b60006158c48360200151860384600001516001600160801b0316600160801b61374d565b905060006158ea8460400151860385600001516001600160801b0316600160801b61374d565b905086600f0b6000146159115787546001600160801b0319166001600160801b0384161788555b60018801869055600288018590556001600160801b03821615158061593f57506000816001600160801b0316115b1561597d576003880180546001600160801b031981166001600160801b039182168501821617808216600160801b9182900483168501909216021790555b5050505050505050565b600290810b810b6000908152602092909252604082208281556001810183905590810182905560030155565b806001600160a01b038116811461306f57600080fd5b6040805160e081018252600080825260208201819052918101829052606081018290526080810182905260a0810182905260c081019190915290565b6040805160808101825260008082526020820181905291810182905260608101919091529056fea26469706673582212206faacb96e0a81b8a44c68eab487a827b88130b4b81340351c75e781916887f5564736f6c63430007060033","linkReferences":{}},"methodIdentifiers":{"advanceTime(uint256)":"07e32f0a","burn(int24,int24,uint128)":"a34123a7","collect(address,int24,int24,uint128,uint128)":"4f1eb3d8","collectProtocol(address,uint128,uint128)":"85b66729","factory()":"c45a0155","fee()":"ddca3f43","feeGrowthGlobal0X128()":"f3058399","feeGrowthGlobal1X128()":"46141319","flash(address,uint256,uint256,bytes)":"490e6cbc","increaseObservationCardinalityNext(uint16)":"32148f67","initialize(uint160)":"f637731d","liquidity()":"1a686502","lmPool()":"540d4918","maxLiquidityPerTick()":"70cf754a","mint(address,int24,int24,uint128,bytes)":"3c8a7d8d","observations(uint256)":"252c09d7","observe(uint32[])":"883bdbfd","positions(bytes32)":"514ea4bf","protocolFees()":"1ad8b03b","setFeeGrowthGlobal0X128(uint256)":"d380c679","setFeeGrowthGlobal1X128(uint256)":"f6eb760f","setFeeProtocol(uint32,uint32)":"b0d0d211","setLmPool(address)":"cc7e7fa2","slot0()":"3850c7bd","snapshotCumulativesInside(int24,int24)":"a38807f2","swap(address,bool,int256,uint160,bytes)":"128acb08","tickBitmap(int16)":"5339c296","tickSpacing()":"d0c93a7c","ticks(int24)":"f30dba93","time()":"16ada547","token0()":"0dfe1681","token1()":"d21220a7"},"id":176}