{"abi":[{"type":"constructor","inputs":[{"name":"_deployer","type":"address","internalType":"address"},{"name":"_factory","type":"address","internalType":"address"},{"name":"_WETH9","type":"address","internalType":"address"}],"stateMutability":"payable"},{"type":"function","name":"WETH9","inputs":[],"outputs":[{"name":"","type":"address","internalType":"address"}],"stateMutability":"view"},{"type":"function","name":"deployer","inputs":[],"outputs":[{"name":"","type":"address","internalType":"address"}],"stateMutability":"view"},{"type":"function","name":"factory","inputs":[],"outputs":[{"name":"","type":"address","internalType":"address"}],"stateMutability":"view"},{"type":"function","name":"getPool","inputs":[{"name":"tokenA","type":"address","internalType":"address"},{"name":"tokenB","type":"address","internalType":"address"},{"name":"fee","type":"uint24","internalType":"uint24"}],"outputs":[{"name":"","type":"address","internalType":"contract IPancakeV3Pool"}],"stateMutability":"view"},{"type":"function","name":"pancakeV3SwapCallback","inputs":[{"name":"amount0Delta","type":"int256","internalType":"int256"},{"name":"amount1Delta","type":"int256","internalType":"int256"},{"name":"path","type":"bytes","internalType":"bytes"}],"outputs":[],"stateMutability":"view"},{"type":"function","name":"quoteExactInput","inputs":[{"name":"path","type":"bytes","internalType":"bytes"},{"name":"amountIn","type":"uint256","internalType":"uint256"}],"outputs":[{"name":"amountOut","type":"uint256","internalType":"uint256"},{"name":"sqrtPriceX96AfterList","type":"uint160[]","internalType":"uint160[]"},{"name":"initializedTicksCrossedList","type":"uint32[]","internalType":"uint32[]"},{"name":"gasEstimate","type":"uint256","internalType":"uint256"}],"stateMutability":"nonpayable"},{"type":"function","name":"quoteExactInputSingle","inputs":[{"name":"params","type":"tuple","internalType":"struct IQuoterV2.QuoteExactInputSingleParams","components":[{"name":"tokenIn","type":"address","internalType":"address"},{"name":"tokenOut","type":"address","internalType":"address"},{"name":"amountIn","type":"uint256","internalType":"uint256"},{"name":"fee","type":"uint24","internalType":"uint24"},{"name":"sqrtPriceLimitX96","type":"uint160","internalType":"uint160"}]}],"outputs":[{"name":"kq","type":"bytes","internalType":"bytes"}],"stateMutability":"nonpayable"},{"type":"function","name":"quoteExactOutput","inputs":[{"name":"path","type":"bytes","internalType":"bytes"},{"name":"amountOut","type":"uint256","internalType":"uint256"}],"outputs":[{"name":"amountIn","type":"uint256","internalType":"uint256"},{"name":"sqrtPriceX96AfterList","type":"uint160[]","internalType":"uint160[]"},{"name":"initializedTicksCrossedList","type":"uint32[]","internalType":"uint32[]"},{"name":"gasEstimate","type":"uint256","internalType":"uint256"}],"stateMutability":"nonpayable"},{"type":"function","name":"quoteExactOutputSingle","inputs":[{"name":"params","type":"tuple","internalType":"struct IQuoterV2.QuoteExactOutputSingleParams","components":[{"name":"tokenIn","type":"address","internalType":"address"},{"name":"tokenOut","type":"address","internalType":"address"},{"name":"amount","type":"uint256","internalType":"uint256"},{"name":"fee","type":"uint24","internalType":"uint24"},{"name":"sqrtPriceLimitX96","type":"uint160","internalType":"uint160"}]}],"outputs":[{"name":"amountIn","type":"uint256","internalType":"uint256"},{"name":"sqrtPriceX96After","type":"uint160","internalType":"uint160"},{"name":"initializedTicksCrossed","type":"uint32","internalType":"uint32"},{"name":"gasEstimate","type":"uint256","internalType":"uint256"}],"stateMutability":"nonpayable"}],"bytecode":{"object":"0x60e060405260405162001bc038038062001bc083398101604081905262000026916200006b565b6001600160601b0319606093841b811660805291831b821660a05290911b1660c052620000b4565b80516001600160a01b03811681146200006657600080fd5b919050565b60008060006060848603121562000080578283fd5b6200008b846200004e565b92506200009b602085016200004e565b9150620000ab604085016200004e565b90509250925092565b60805160601c60a05160601c60c05160601c611acc620000f4600039806104d75250806106ce52508061016e52806101d6528061086b5250611acc6000f3fe608060405234801561001057600080fd5b50600436106100935760003560e01c8063bd21704a11610066578063bd21704a14610101578063c45a015514610124578063c6a5026a1461012c578063cdca17531461014c578063d5f394881461015f57610093565b80631698ee821461009857806323a69e75146100c15780632f80bb1d146100d65780634aa4a4fc146100f9575b600080fd5b6100ab6100a636600461144a565b610167565b6040516100b8919061176f565b60405180910390f35b6100d46100cf366004611517565b6101a5565b005b6100e96100e4366004611490565b610320565b6040516100b89493929190611943565b6100ab6104d5565b61011461010f3660046115cf565b6104f9565b6040516100b894939291906119de565b6100ab6106cc565b61013f61013a3660046115cf565b6106f0565b6040516100b891906117f1565b6100e961015a366004611490565b61085b565b6100ab610869565b600061019d7f000000000000000000000000000000000000000000000000000000000000000061019886868661088d565b6108e3565b949350505050565b60008313806101b45750600082135b6101bd57600080fd5b60008060006101cb84610994565b9250925092506101fd7f00000000000000000000000000000000000000000000000000000000000000008484846109c5565b50600080600080891361022957856001600160a01b0316856001600160a01b031610888a600003610244565b846001600160a01b0316866001600160a01b03161089896000035b9250925092506000610257878787610167565b9050600080826001600160a01b0316633850c7bd6040518163ffffffff1660e01b815260040160e06040518083038186803b15801561029557600080fd5b505afa1580156102a9573d6000803e3d6000fd5b505050506040513d601f19601f820116820180604052508101906102cd91906115ea565b50505050509150915085156102f357604051848152826020820152816040820152606081fd5b6000541561030957600054841461030957600080fd5b604051858152826020820152816040820152606081fd5b60006060806000610330866109e4565b67ffffffffffffffff8111801561034657600080fd5b50604051908082528060200260200182016040528015610370578160200160208202803683370190505b50925061037c866109e4565b67ffffffffffffffff8111801561039257600080fd5b506040519080825280602002602001820160405280156103bc578160200160208202803683370190505b50915060005b60008060006103d08a610994565b92509250925060008060008061042c6040518060a00160405280886001600160a01b03168152602001896001600160a01b031681526020018f81526020018762ffffff16815260200160006001600160a01b03168152506104f9565b9350935093509350828b898151811061044157fe5b60200260200101906001600160a01b031690816001600160a01b031681525050818a898151811061046e57fe5b63ffffffff90921660209283029190910190910152929b50968201966001909601958b9261049b8e6109f1565b156104b0576104a98e6109f9565b9d506104c0565b8c9b5050505050505050506104cc565b505050505050506103c2565b92959194509250565b7f000000000000000000000000000000000000000000000000000000000000000081565b6020810151815160608301516000928392839283926001600160a01b038082169084161092849261052a9290610167565b905086608001516001600160a01b03166000141561054b5760408701516000555b60005a9050816001600160a01b031663128acb08308561056e8c60400151610a16565b6000038c608001516001600160a01b0316600014610590578c608001516105b6565b876105af5773fffd8963efd1fc6a506488495d951d5263988d256105b6565b6401000276a45b8d602001518e606001518f600001516040516020016105d7939291906116fc565b6040516020818303038152906040526040518663ffffffff1660e01b81526004016106069594939291906117ab565b6040805180830381600087803b15801561061f57600080fd5b505af192505050801561064f575060408051601f3d908101601f1916820190925261064c918101906114f4565b60015b6106bf573d80801561067d576040519150601f19603f3d011682016040523d82523d6000602084013e610682565b606091505b505a8203945088608001516001600160a01b0316600014156106a357600080555b6106ae818487610a2c565b9750975097509750505050506106c5565b50505050505b9193509193565b7f000000000000000000000000000000000000000000000000000000000000000081565b6020810151815160608381015190926001600160a01b03808216908416109260009261071c9290610167565b9050806001600160a01b031663128acb08308461073c8860400151610a16565b60808901516001600160a01b03161561075957886080015161077f565b866107785773fffd8963efd1fc6a506488495d951d5263988d2561077f565b6401000276a45b895160608b01516020808d015160405161079b949392016116fc565b6040516020818303038152906040526040518663ffffffff1660e01b81526004016107ca9594939291906117ab565b6040805180830381600087803b1580156107e357600080fd5b505af1925050508015610813575060408051601f3d908101601f19168201909252610810918101906114f4565b60015b610851573d808015610841576040519150601f19603f3d011682016040523d82523d6000602084013e610846565b606091505b509250610856915050565b505050505b919050565b506000916060915081908390565b7f000000000000000000000000000000000000000000000000000000000000000081565b610895611318565b826001600160a01b0316846001600160a01b031611156108b3579192915b50604080516060810182526001600160a01b03948516815292909316602083015262ffffff169181019190915290565b600081602001516001600160a01b031682600001516001600160a01b03161061090b57600080fd5b8282600001518360200151846040015160405160200161092d93929190611783565b60408051601f19818403018152908290528051602091820120610975939290917facdd560bec24c2241d44343ced235273a9abaa0f6d115fa3204dca05dc84839f9101611737565b60408051601f1981840301815291905280516020909101209392505050565b600080806109a28482610ae6565b92506109af846014610b48565b90506109bc846017610ae6565b91509193909250565b60006109db856109d686868661088d565b610b9a565b95945050505050565b5160176013199091010490565b516042111590565b8051606090610a1090839060179060161901610bbd565b92915050565b6000600160ff1b8210610a2857600080fd5b5090565b600080600080600080876001600160a01b0316633850c7bd6040518163ffffffff1660e01b815260040160e06040518083038186803b158015610a6e57600080fd5b505afa158015610a82573d6000803e3d6000fd5b505050506040513d601f19601f82011682018060405250810190610aa691906115ea565b50939650610abb94508d9350610c9992505050565b91975095509050610ad66001600160a01b0389168383610d1d565b9350869250505093509350935093565b600081826014011015610b145760405162461bcd60e51b8152600401610b0b90611917565b60405180910390fd5b8160140183511015610b385760405162461bcd60e51b8152600401610b0b906118bd565b500160200151600160601b900490565b600081826003011015610b6d5760405162461bcd60e51b8152600401610b0b90611812565b8160030183511015610b915760405162461bcd60e51b8152600401610b0b90611865565b50016003015190565b6000610ba683836108e3565b9050336001600160a01b03821614610a1057600080fd5b60608182601f011015610be25760405162461bcd60e51b8152600401610b0b9061183d565b828284011015610c045760405162461bcd60e51b8152600401610b0b9061183d565b81830184511015610c275760405162461bcd60e51b8152600401610b0b906118ec565b606082158015610c465760405191506000825260208201604052610c90565b6040519150601f8416801560200281840101858101878315602002848b0101015b81831015610c7f578051835260209283019201610c67565b5050858452601f01601f1916604052505b50949350505050565b60008060008351606014610cfc57604484511015610cc95760405162461bcd60e51b8152600401610b0b90611893565b60048401935083806020019051810190610ce39190611565565b60405162461bcd60e51b8152600401610b0b91906117f1565b83806020019051810190610d10919061169c565b9250925092509193909250565b60008060008060008060008060088b6001600160a01b031663d0c93a7c6040518163ffffffff1660e01b815260040160206040518083038186803b158015610d6457600080fd5b505afa158015610d78573d6000803e3d6000fd5b505050506040513d601f19601f82011682018060405250810190610d9c91906114d3565b60020b8b60020b81610daa57fe5b0560020b901d905060006101008c6001600160a01b031663d0c93a7c6040518163ffffffff1660e01b815260040160206040518083038186803b158015610df057600080fd5b505afa158015610e04573d6000803e3d6000fd5b505050506040513d601f19601f82011682018060405250810190610e2891906114d3565b60020b8c60020b81610e3657fe5b0560020b81610e4157fe5b079050600060088d6001600160a01b031663d0c93a7c6040518163ffffffff1660e01b815260040160206040518083038186803b158015610e8157600080fd5b505afa158015610e95573d6000803e3d6000fd5b505050506040513d601f19601f82011682018060405250810190610eb991906114d3565b60020b8c60020b81610ec757fe5b0560020b901d905060006101008e6001600160a01b031663d0c93a7c6040518163ffffffff1660e01b815260040160206040518083038186803b158015610f0d57600080fd5b505afa158015610f21573d6000803e3d6000fd5b505050506040513d601f19601f82011682018060405250810190610f4591906114d3565b60020b8d60020b81610f5357fe5b0560020b81610f5e57fe5b07905060008160ff166001901b8f6001600160a01b0316635339c296856040518263ffffffff1660e01b8152600401610f979190611804565b60206040518083038186803b158015610faf57600080fd5b505afa158015610fc3573d6000803e3d6000fd5b505050506040513d601f19601f82011682018060405250810190610fe79190611684565b1611801561107557508d6001600160a01b031663d0c93a7c6040518163ffffffff1660e01b815260040160206040518083038186803b15801561102957600080fd5b505afa15801561103d573d6000803e3d6000fd5b505050506040513d601f19601f8201168201806040525081019061106191906114d3565b60020b8c60020b8161106f57fe5b0760020b155b801561108657508b60020b8d60020b135b945060008360ff166001901b8f6001600160a01b0316635339c296876040518263ffffffff1660e01b81526004016110be9190611804565b60206040518083038186803b1580156110d657600080fd5b505afa1580156110ea573d6000803e3d6000fd5b505050506040513d601f19601f8201168201806040525081019061110e9190611684565b1611801561119c57508d6001600160a01b031663d0c93a7c6040518163ffffffff1660e01b815260040160206040518083038186803b15801561115057600080fd5b505afa158015611164573d6000803e3d6000fd5b505050506040513d601f19601f8201168201806040525081019061118891906114d3565b60020b8d60020b8161119657fe5b0760020b155b80156111ad57508b60020b8d60020b125b95508160010b8460010b12806111d957508160010b8460010b1480156111d957508060ff168360ff1611155b156111ef578399508297508198508096506111fc565b8199508097508398508296505b505060001960ff87161b9150505b8560010b8760010b136112d5578560010b8760010b14156112315760001960ff858103161c165b6000818c6001600160a01b0316635339c2968a6040518263ffffffff1660e01b81526004016112609190611804565b60206040518083038186803b15801561127857600080fd5b505afa15801561128c573d6000803e3d6000fd5b505050506040513d601f19601f820116820180604052508101906112b09190611684565b1690506112bc816112fd565b61ffff169890980197505060019095019460001961120a565b81156112e2576001880397505b82156112ef576001880397505b505050505050509392505050565b6000805b8215610a1057600019830190921691600101611301565b604080516060810182526000808252602082018190529181019190915290565b600082601f830112611348578081fd5b813561135b61135682611a2c565b611a08565b81815284602083860101111561136f578283fd5b816020850160208301379081016020019190915292915050565b8051600281900b811461085657600080fd5b600060a082840312156113ac578081fd5b60405160a0810181811067ffffffffffffffff821117156113c957fe5b60405290508082356113da81611a7e565b815260208301356113ea81611a7e565b60208201526040838101359082015261140560608401611437565b6060820152608083013561141881611a7e565b6080919091015292915050565b805161ffff8116811461085657600080fd5b803562ffffff8116811461085657600080fd5b60008060006060848603121561145e578283fd5b833561146981611a7e565b9250602084013561147981611a7e565b915061148760408501611437565b90509250925092565b600080604083850312156114a2578182fd5b823567ffffffffffffffff8111156114b8578283fd5b6114c485828601611338565b95602094909401359450505050565b6000602082840312156114e4578081fd5b6114ed82611389565b9392505050565b60008060408385031215611506578182fd5b505080516020909101519092909150565b60008060006060848603121561152b578283fd5b8335925060208401359150604084013567ffffffffffffffff81111561154f578182fd5b61155b86828701611338565b9150509250925092565b600060208284031215611576578081fd5b815167ffffffffffffffff81111561158c578182fd5b8201601f8101841361159c578182fd5b80516115aa61135682611a2c565b8181528560208385010111156115be578384fd5b6109db826020830160208601611a4e565b600060a082840312156115e0578081fd5b6114ed838361139b565b600080600080600080600060e0888a031215611604578485fd5b875161160f81611a7e565b965061161d60208901611389565b955061162b60408901611425565b945061163960608901611425565b935061164760808901611425565b925060a088015163ffffffff8116811461165f578283fd5b60c08901519092508015158114611674578182fd5b8091505092959891949750929550565b600060208284031215611695578081fd5b5051919050565b6000806000606084860312156116b0578081fd5b8351925060208401516116c281611a7e565b915061148760408501611389565b600081518084526116e8816020860160208601611a4e565b601f01601f19169290920160200192915050565b606093841b6bffffffffffffffffffffffff19908116825260e89390931b6001600160e81b0319166014820152921b166017820152602b0190565b6001600160f81b0319815260609390931b6bffffffffffffffffffffffff191660018401526015830191909152603582015260550190565b6001600160a01b0391909116815260200190565b6001600160a01b03938416815291909216602082015262ffffff909116604082015260600190565b6001600160a01b0386811682528515156020830152604082018590528316606082015260a0608082018190526000906117e6908301846116d0565b979650505050505050565b6000602082526114ed60208301846116d0565b60019190910b815260200190565b602080825260119082015270746f55696e7432345f6f766572666c6f7760781b604082015260600190565b6020808252600e908201526d736c6963655f6f766572666c6f7760901b604082015260600190565b602080825260149082015273746f55696e7432345f6f75744f66426f756e647360601b604082015260600190565b60208082526010908201526f2ab732bc3832b1ba32b21032b93937b960811b604082015260600190565b602080825260159082015274746f416464726573735f6f75744f66426f756e647360581b604082015260600190565b602080825260119082015270736c6963655f6f75744f66426f756e647360781b604082015260600190565b602080825260129082015271746f416464726573735f6f766572666c6f7760701b604082015260600190565b600060808201868352602060808185015281875180845260a0860191508289019350845b8181101561198c5784516001600160a01b031683529383019391830191600101611967565b505084810360408601528651808252908201925081870190845b818110156119c857825163ffffffff16855293830193918301916001016119a6565b5050505060609290920192909252949350505050565b9384526001600160a01b0392909216602084015263ffffffff166040830152606082015260800190565b60405181810167ffffffffffffffff81118282101715611a2457fe5b604052919050565b600067ffffffffffffffff821115611a4057fe5b50601f01601f191660200190565b60005b83811015611a69578181015183820152602001611a51565b83811115611a78576000848401525b50505050565b6001600160a01b0381168114611a9357600080fd5b5056fea264697066735822122067d3fae9677147f208b766715433775d37cdeb8df7d7c61b5193e03bb6ea3f8b64736f6c63430007060033","linkReferences":{}},"methodIdentifiers":{"WETH9()":"4aa4a4fc","deployer()":"d5f39488","factory()":"c45a0155","getPool(address,address,uint24)":"1698ee82","pancakeV3SwapCallback(int256,int256,bytes)":"23a69e75","quoteExactInput(bytes,uint256)":"cdca1753","quoteExactInputSingle((address,address,uint256,uint24,uint160))":"c6a5026a","quoteExactOutput(bytes,uint256)":"2f80bb1d","quoteExactOutputSingle((address,address,uint256,uint24,uint160))":"bd21704a"},"id":246}