{"abi":[{"type":"function","name":"decodeFirstPool","inputs":[{"name":"path","type":"bytes","internalType":"bytes"}],"outputs":[{"name":"tokenA","type":"address","internalType":"address"},{"name":"tokenB","type":"address","internalType":"address"},{"name":"fee","type":"uint24","internalType":"uint24"}],"stateMutability":"pure"},{"type":"function","name":"getFirstPool","inputs":[{"name":"path","type":"bytes","internalType":"bytes"}],"outputs":[{"name":"","type":"bytes","internalType":"bytes"}],"stateMutability":"pure"},{"type":"function","name":"getGasCostOfDecodeFirstPool","inputs":[{"name":"path","type":"bytes","internalType":"bytes"}],"outputs":[{"name":"","type":"uint256","internalType":"uint256"}],"stateMutability":"view"},{"type":"function","name":"hasMultiplePools","inputs":[{"name":"path","type":"bytes","internalType":"bytes"}],"outputs":[{"name":"","type":"bool","internalType":"bool"}],"stateMutability":"pure"},{"type":"function","name":"skipToken","inputs":[{"name":"path","type":"bytes","internalType":"bytes"}],"outputs":[{"name":"","type":"bytes","internalType":"bytes"}],"stateMutability":"pure"}],"bytecode":{"object":"0x608060405234801561001057600080fd5b506107f4806100206000396000f3fe608060405234801561001057600080fd5b50600436106100575760003560e01c80637db6e2461461005c5780639dc1c39114610175578063bf8b627b1461022d578063d7c9ca0c146102d1578063eadc682a14610387575b600080fd5b6101006004803603602081101561007257600080fd5b810190602081018135600160201b81111561008c57600080fd5b82018360208201111561009e57600080fd5b803590602001918460018302840111600160201b831117156100bf57600080fd5b91908080601f01602080910402602001604051908101604052809392919081815260200183838082843760009201919091525092955061045a945050505050565b6040805160208082528351818301528351919283929083019185019080838360005b8381101561013a578181015183820152602001610122565b50505050905090810190601f1680156101675780820380516001836020036101000a031916815260200191505b509250505060405180910390f35b6102196004803603602081101561018b57600080fd5b810190602081018135600160201b8111156101a557600080fd5b8201836020820111156101b757600080fd5b803590602001918460018302840111600160201b831117156101d857600080fd5b91908080601f01602080910402602001604051908101604052809392919081815260200183838082843760009201919091525092955061046b945050505050565b604080519115158252519081900360200190f35b6101006004803603602081101561024357600080fd5b810190602081018135600160201b81111561025d57600080fd5b82018360208201111561026f57600080fd5b803590602001918460018302840111600160201b8311171561029057600080fd5b91908080601f016020809104026020016040519081016040528093929190818152602001838380828437600092019190915250929550610476945050505050565b610375600480360360208110156102e757600080fd5b810190602081018135600160201b81111561030157600080fd5b82018360208201111561031357600080fd5b803590602001918460018302840111600160201b8311171561033457600080fd5b91908080601f016020809104026020016040519081016040528093929190818152602001838380828437600092019190915250929550610481945050505050565b60408051918252519081900360200190f35b61042b6004803603602081101561039d57600080fd5b810190602081018135600160201b8111156103b757600080fd5b8201836020820111156103c957600080fd5b803590602001918460018302840111600160201b831117156103ea57600080fd5b91908080601f01602080910402602001604051908101604052809392919081815260200183838082843760009201919091525092955061049c945050505050565b604080516001600160a01b03948516815292909316602083015262ffffff168183015290519081900360600190f35b6060610465826104b7565b92915050565b6000610465826104c6565b6060610465826104ce565b6000805a9050610490836104e5565b5050505a900392915050565b60008060006104aa846104e5565b9250925092509193909250565b6060610465826000602b610516565b516042111590565b805160609061046590839060179060161901610516565b600080806104f38482610667565b9250610500846014610717565b905061050d846017610667565b91509193909250565b60608182601f011015610561576040805162461bcd60e51b815260206004820152600e60248201526d736c6963655f6f766572666c6f7760901b604482015290519081900360640190fd5b8282840110156105a9576040805162461bcd60e51b815260206004820152600e60248201526d736c6963655f6f766572666c6f7760901b604482015290519081900360640190fd5b818301845110156105f5576040805162461bcd60e51b8152602060048201526011602482015270736c6963655f6f75744f66426f756e647360781b604482015290519081900360640190fd5b606082158015610614576040519150600082526020820160405261065e565b6040519150601f8416801560200281840101858101878315602002848b0101015b8183101561064d578051835260209283019201610635565b5050858452601f01601f1916604052505b50949350505050565b6000818260140110156106b6576040805162461bcd60e51b8152602060048201526012602482015271746f416464726573735f6f766572666c6f7760701b604482015290519081900360640190fd5b8160140183511015610707576040805162461bcd60e51b8152602060048201526015602482015274746f416464726573735f6f75744f66426f756e647360581b604482015290519081900360640190fd5b500160200151600160601b900490565b600081826003011015610765576040805162461bcd60e51b8152602060048201526011602482015270746f55696e7432345f6f766572666c6f7760781b604482015290519081900360640190fd5b81600301835110156107b5576040805162461bcd60e51b8152602060048201526014602482015273746f55696e7432345f6f75744f66426f756e647360601b604482015290519081900360640190fd5b5001600301519056fea264697066735822122042e8c6ec404a057ae7402e00a8db1ba888b956cbb192e4018d0f2a7c8edaaab064736f6c63430007060033","linkReferences":{}},"methodIdentifiers":{"decodeFirstPool(bytes)":"eadc682a","getFirstPool(bytes)":"7db6e246","getGasCostOfDecodeFirstPool(bytes)":"d7c9ca0c","hasMultiplePools(bytes)":"9dc1c391","skipToken(bytes)":"bf8b627b"},"id":273}