{"abi":[{"type":"constructor","inputs":[{"name":"_deployer","type":"address","internalType":"address"},{"name":"_factory","type":"address","internalType":"address"},{"name":"_WETH9","type":"address","internalType":"address"},{"name":"_tokenDescriptor","type":"address","internalType":"address"}],"stateMutability":"nonpayable"},{"type":"receive","stateMutability":"payable"},{"type":"function","name":"DOMAIN_SEPARATOR","inputs":[],"outputs":[{"name":"","type":"bytes32","internalType":"bytes32"}],"stateMutability":"view"},{"type":"function","name":"PERMIT_TYPEHASH","inputs":[],"outputs":[{"name":"","type":"bytes32","internalType":"bytes32"}],"stateMutability":"view"},{"type":"function","name":"WETH9","inputs":[],"outputs":[{"name":"","type":"address","internalType":"address"}],"stateMutability":"view"},{"type":"function","name":"approve","inputs":[{"name":"to","type":"address","internalType":"address"},{"name":"tokenId","type":"uint256","internalType":"uint256"}],"outputs":[],"stateMutability":"nonpayable"},{"type":"function","name":"balanceOf","inputs":[{"name":"owner","type":"address","internalType":"address"}],"outputs":[{"name":"","type":"uint256","internalType":"uint256"}],"stateMutability":"view"},{"type":"function","name":"baseURI","inputs":[],"outputs":[{"name":"","type":"string","internalType":"string"}],"stateMutability":"pure"},{"type":"function","name":"burn","inputs":[{"name":"tokenId","type":"uint256","internalType":"uint256"}],"outputs":[],"stateMutability":"payable"},{"type":"function","name":"collect","inputs":[{"name":"params","type":"tuple","internalType":"struct INonfungiblePositionManager.CollectParams","components":[{"name":"tokenId","type":"uint256","internalType":"uint256"},{"name":"recipient","type":"address","internalType":"address"},{"name":"amount0Max","type":"uint128","internalType":"uint128"},{"name":"amount1Max","type":"uint128","internalType":"uint128"}]}],"outputs":[{"name":"amount0","type":"uint256","internalType":"uint256"},{"name":"amount1","type":"uint256","internalType":"uint256"}],"stateMutability":"payable"},{"type":"function","name":"createAndInitializePoolIfNecessary","inputs":[{"name":"token0","type":"address","internalType":"address"},{"name":"token1","type":"address","internalType":"address"},{"name":"fee","type":"uint24","internalType":"uint24"},{"name":"sqrtPriceX96","type":"uint160","internalType":"uint160"}],"outputs":[{"name":"pool","type":"address","internalType":"address"}],"stateMutability":"payable"},{"type":"function","name":"decreaseLiquidity","inputs":[{"name":"params","type":"tuple","internalType":"struct INonfungiblePositionManager.DecreaseLiquidityParams","components":[{"name":"tokenId","type":"uint256","internalType":"uint256"},{"name":"liquidity","type":"uint128","internalType":"uint128"},{"name":"amount0Min","type":"uint256","internalType":"uint256"},{"name":"amount1Min","type":"uint256","internalType":"uint256"},{"name":"deadline","type":"uint256","internalType":"uint256"}]}],"outputs":[{"name":"amount0","type":"uint256","internalType":"uint256"},{"name":"amount1","type":"uint256","internalType":"uint256"}],"stateMutability":"payable"},{"type":"function","name":"deployer","inputs":[],"outputs":[{"name":"","type":"address","internalType":"address"}],"stateMutability":"view"},{"type":"function","name":"factory","inputs":[],"outputs":[{"name":"","type":"address","internalType":"address"}],"stateMutability":"view"},{"type":"function","name":"getApproved","inputs":[{"name":"tokenId","type":"uint256","internalType":"uint256"}],"outputs":[{"name":"","type":"address","internalType":"address"}],"stateMutability":"view"},{"type":"function","name":"increaseLiquidity","inputs":[{"name":"params","type":"tuple","internalType":"struct INonfungiblePositionManager.IncreaseLiquidityParams","components":[{"name":"tokenId","type":"uint256","internalType":"uint256"},{"name":"amount0Desired","type":"uint256","internalType":"uint256"},{"name":"amount1Desired","type":"uint256","internalType":"uint256"},{"name":"amount0Min","type":"uint256","internalType":"uint256"},{"name":"amount1Min","type":"uint256","internalType":"uint256"},{"name":"deadline","type":"uint256","internalType":"uint256"}]}],"outputs":[{"name":"liquidity","type":"uint128","internalType":"uint128"},{"name":"amount0","type":"uint256","internalType":"uint256"},{"name":"amount1","type":"uint256","internalType":"uint256"}],"stateMutability":"payable"},{"type":"function","name":"isApprovedForAll","inputs":[{"name":"owner","type":"address","internalType":"address"},{"name":"operator","type":"address","internalType":"address"}],"outputs":[{"name":"","type":"bool","internalType":"bool"}],"stateMutability":"view"},{"type":"function","name":"mint","inputs":[{"name":"params","type":"tuple","internalType":"struct INonfungiblePositionManager.MintParams","components":[{"name":"token0","type":"address","internalType":"address"},{"name":"token1","type":"address","internalType":"address"},{"name":"fee","type":"uint24","internalType":"uint24"},{"name":"tickLower","type":"int24","internalType":"int24"},{"name":"tickUpper","type":"int24","internalType":"int24"},{"name":"amount0Desired","type":"uint256","internalType":"uint256"},{"name":"amount1Desired","type":"uint256","internalType":"uint256"},{"name":"amount0Min","type":"uint256","internalType":"uint256"},{"name":"amount1Min","type":"uint256","internalType":"uint256"},{"name":"recipient","type":"address","internalType":"address"},{"name":"deadline","type":"uint256","internalType":"uint256"}]}],"outputs":[{"name":"tokenId","type":"uint256","internalType":"uint256"},{"name":"liquidity","type":"uint128","internalType":"uint128"},{"name":"amount0","type":"uint256","internalType":"uint256"},{"name":"amount1","type":"uint256","internalType":"uint256"}],"stateMutability":"payable"},{"type":"function","name":"multicall","inputs":[{"name":"data","type":"bytes[]","internalType":"bytes[]"}],"outputs":[{"name":"results","type":"bytes[]","internalType":"bytes[]"}],"stateMutability":"payable"},{"type":"function","name":"name","inputs":[],"outputs":[{"name":"","type":"string","internalType":"string"}],"stateMutability":"view"},{"type":"function","name":"ownerOf","inputs":[{"name":"tokenId","type":"uint256","internalType":"uint256"}],"outputs":[{"name":"","type":"address","internalType":"address"}],"stateMutability":"view"},{"type":"function","name":"pancakeV3MintCallback","inputs":[{"name":"amount0Owed","type":"uint256","internalType":"uint256"},{"name":"amount1Owed","type":"uint256","internalType":"uint256"},{"name":"data","type":"bytes","internalType":"bytes"}],"outputs":[],"stateMutability":"nonpayable"},{"type":"function","name":"permit","inputs":[{"name":"spender","type":"address","internalType":"address"},{"name":"tokenId","type":"uint256","internalType":"uint256"},{"name":"deadline","type":"uint256","internalType":"uint256"},{"name":"v","type":"uint8","internalType":"uint8"},{"name":"r","type":"bytes32","internalType":"bytes32"},{"name":"s","type":"bytes32","internalType":"bytes32"}],"outputs":[],"stateMutability":"payable"},{"type":"function","name":"positions","inputs":[{"name":"tokenId","type":"uint256","internalType":"uint256"}],"outputs":[{"name":"nonce","type":"uint96","internalType":"uint96"},{"name":"operator","type":"address","internalType":"address"},{"name":"token0","type":"address","internalType":"address"},{"name":"token1","type":"address","internalType":"address"},{"name":"fee","type":"uint24","internalType":"uint24"},{"name":"tickLower","type":"int24","internalType":"int24"},{"name":"tickUpper","type":"int24","internalType":"int24"},{"name":"liquidity","type":"uint128","internalType":"uint128"},{"name":"feeGrowthInside0LastX128","type":"uint256","internalType":"uint256"},{"name":"feeGrowthInside1LastX128","type":"uint256","internalType":"uint256"},{"name":"tokensOwed0","type":"uint128","internalType":"uint128"},{"name":"tokensOwed1","type":"uint128","internalType":"uint128"}],"stateMutability":"view"},{"type":"function","name":"refundETH","inputs":[],"outputs":[],"stateMutability":"payable"},{"type":"function","name":"safeTransferFrom","inputs":[{"name":"from","type":"address","internalType":"address"},{"name":"to","type":"address","internalType":"address"},{"name":"tokenId","type":"uint256","internalType":"uint256"}],"outputs":[],"stateMutability":"nonpayable"},{"type":"function","name":"safeTransferFrom","inputs":[{"name":"from","type":"address","internalType":"address"},{"name":"to","type":"address","internalType":"address"},{"name":"tokenId","type":"uint256","internalType":"uint256"},{"name":"_data","type":"bytes","internalType":"bytes"}],"outputs":[],"stateMutability":"nonpayable"},{"type":"function","name":"selfPermit","inputs":[{"name":"token","type":"address","internalType":"address"},{"name":"value","type":"uint256","internalType":"uint256"},{"name":"deadline","type":"uint256","internalType":"uint256"},{"name":"v","type":"uint8","internalType":"uint8"},{"name":"r","type":"bytes32","internalType":"bytes32"},{"name":"s","type":"bytes32","internalType":"bytes32"}],"outputs":[],"stateMutability":"payable"},{"type":"function","name":"selfPermitAllowed","inputs":[{"name":"token","type":"address","internalType":"address"},{"name":"nonce","type":"uint256","internalType":"uint256"},{"name":"expiry","type":"uint256","internalType":"uint256"},{"name":"v","type":"uint8","internalType":"uint8"},{"name":"r","type":"bytes32","internalType":"bytes32"},{"name":"s","type":"bytes32","internalType":"bytes32"}],"outputs":[],"stateMutability":"payable"},{"type":"function","name":"selfPermitAllowedIfNecessary","inputs":[{"name":"token","type":"address","internalType":"address"},{"name":"nonce","type":"uint256","internalType":"uint256"},{"name":"expiry","type":"uint256","internalType":"uint256"},{"name":"v","type":"uint8","internalType":"uint8"},{"name":"r","type":"bytes32","internalType":"bytes32"},{"name":"s","type":"bytes32","internalType":"bytes32"}],"outputs":[],"stateMutability":"payable"},{"type":"function","name":"selfPermitIfNecessary","inputs":[{"name":"token","type":"address","internalType":"address"},{"name":"value","type":"uint256","internalType":"uint256"},{"name":"deadline","type":"uint256","internalType":"uint256"},{"name":"v","type":"uint8","internalType":"uint8"},{"name":"r","type":"bytes32","internalType":"bytes32"},{"name":"s","type":"bytes32","internalType":"bytes32"}],"outputs":[],"stateMutability":"payable"},{"type":"function","name":"setApprovalForAll","inputs":[{"name":"operator","type":"address","internalType":"address"},{"name":"approved","type":"bool","internalType":"bool"}],"outputs":[],"stateMutability":"nonpayable"},{"type":"function","name":"setTime","inputs":[{"name":"_time","type":"uint256","internalType":"uint256"}],"outputs":[],"stateMutability":"nonpayable"},{"type":"function","name":"supportsInterface","inputs":[{"name":"interfaceId","type":"bytes4","internalType":"bytes4"}],"outputs":[{"name":"","type":"bool","internalType":"bool"}],"stateMutability":"view"},{"type":"function","name":"sweepToken","inputs":[{"name":"token","type":"address","internalType":"address"},{"name":"amountMinimum","type":"uint256","internalType":"uint256"},{"name":"recipient","type":"address","internalType":"address"}],"outputs":[],"stateMutability":"payable"},{"type":"function","name":"symbol","inputs":[],"outputs":[{"name":"","type":"string","internalType":"string"}],"stateMutability":"view"},{"type":"function","name":"tokenByIndex","inputs":[{"name":"index","type":"uint256","internalType":"uint256"}],"outputs":[{"name":"","type":"uint256","internalType":"uint256"}],"stateMutability":"view"},{"type":"function","name":"tokenOfOwnerByIndex","inputs":[{"name":"owner","type":"address","internalType":"address"},{"name":"index","type":"uint256","internalType":"uint256"}],"outputs":[{"name":"","type":"uint256","internalType":"uint256"}],"stateMutability":"view"},{"type":"function","name":"tokenURI","inputs":[{"name":"tokenId","type":"uint256","internalType":"uint256"}],"outputs":[{"name":"","type":"string","internalType":"string"}],"stateMutability":"view"},{"type":"function","name":"totalSupply","inputs":[],"outputs":[{"name":"","type":"uint256","internalType":"uint256"}],"stateMutability":"view"},{"type":"function","name":"transferFrom","inputs":[{"name":"from","type":"address","internalType":"address"},{"name":"to","type":"address","internalType":"address"},{"name":"tokenId","type":"uint256","internalType":"uint256"}],"outputs":[],"stateMutability":"nonpayable"},{"type":"function","name":"unwrapWETH9","inputs":[{"name":"amountMinimum","type":"uint256","internalType":"uint256"},{"name":"recipient","type":"address","internalType":"address"}],"outputs":[],"stateMutability":"payable"},{"type":"event","name":"Approval","inputs":[{"name":"owner","type":"address","indexed":true,"internalType":"address"},{"name":"approved","type":"address","indexed":true,"internalType":"address"},{"name":"tokenId","type":"uint256","indexed":true,"internalType":"uint256"}],"anonymous":false},{"type":"event","name":"ApprovalForAll","inputs":[{"name":"owner","type":"address","indexed":true,"internalType":"address"},{"name":"operator","type":"address","indexed":true,"internalType":"address"},{"name":"approved","type":"bool","indexed":false,"internalType":"bool"}],"anonymous":false},{"type":"event","name":"Collect","inputs":[{"name":"tokenId","type":"uint256","indexed":true,"internalType":"uint256"},{"name":"recipient","type":"address","indexed":false,"internalType":"address"},{"name":"amount0","type":"uint256","indexed":false,"internalType":"uint256"},{"name":"amount1","type":"uint256","indexed":false,"internalType":"uint256"}],"anonymous":false},{"type":"event","name":"DecreaseLiquidity","inputs":[{"name":"tokenId","type":"uint256","indexed":true,"internalType":"uint256"},{"name":"liquidity","type":"uint128","indexed":false,"internalType":"uint128"},{"name":"amount0","type":"uint256","indexed":false,"internalType":"uint256"},{"name":"amount1","type":"uint256","indexed":false,"internalType":"uint256"}],"anonymous":false},{"type":"event","name":"IncreaseLiquidity","inputs":[{"name":"tokenId","type":"uint256","indexed":true,"internalType":"uint256"},{"name":"liquidity","type":"uint128","indexed":false,"internalType":"uint128"},{"name":"amount0","type":"uint256","indexed":false,"internalType":"uint256"},{"name":"amount1","type":"uint256","indexed":false,"internalType":"uint256"}],"anonymous":false},{"type":"event","name":"Transfer","inputs":[{"name":"from","type":"address","indexed":true,"internalType":"address"},{"name":"to","type":"address","indexed":true,"internalType":"address"},{"name":"tokenId","type":"uint256","indexed":true,"internalType":"uint256"}],"anonymous":false}],"bytecode":{"object":"0x610140604052600d80546001600160b01b0319166001176001600160b01b0316600160b01b1790553480156200003457600080fd5b5060405162005d0f38038062005d0f8339810160408190526200005791620002ed565b838383838383836040518060400160405280601b81526020017f50616e63616b6520563320506f736974696f6e73204e46542d563100000000008152506040518060400160405280600a8152602001695043532d56332d504f5360b01b815250604051806040016040528060018152602001603160f81b8152508282620000eb6301ffc9a760e01b6200019f60201b60201c565b81516200010090600690602085019062000224565b5080516200011690600790602084019062000224565b50620001296380ac58cd60e01b6200019f565b6200013b635b5e139f60e01b6200019f565b6200014d63780e9d6360e01b6200019f565b50508251602093840120608052805192019190912060a052506001600160601b0319606093841b811660c05291831b821660e052821b81166101005291901b1661012052506200034995505050505050565b6001600160e01b03198082161415620001ff576040805162461bcd60e51b815260206004820152601c60248201527f4552433136353a20696e76616c696420696e7465726661636520696400000000604482015290519081900360640190fd5b6001600160e01b0319166000908152602081905260409020805460ff19166001179055565b828054600181600116156101000203166002900490600052602060002090601f0160209004810192826200025c5760008555620002a7565b82601f106200027757805160ff1916838001178555620002a7565b82800160010185558215620002a7579182015b82811115620002a75782518255916020019190600101906200028a565b50620002b5929150620002b9565b5090565b5b80821115620002b55760008155600101620002ba565b80516001600160a01b0381168114620002e857600080fd5b919050565b6000806000806080858703121562000303578384fd5b6200030e85620002d0565b93506200031e60208601620002d0565b92506200032e60408601620002d0565b91506200033e60608601620002d0565b905092959194509250565b60805160a05160c05160601c60e05160601c6101005160601c6101205160601c615934620003db6000398061285252508061024f52806115fe52806116e9528061177152806139d35280613a195280613a8d525080610d105280610dd752806128055250806109f052806121be52806128df5280612b92528061331d5250806113f95250806113d852506159346000f3fe60806040526004361061023f5760003560e01c80636352211e1161012e578063ac9650d8116100ab578063d5f394881161006f578063d5f39488146106a4578063df2ab5bb146106b9578063e985e9c5146106cc578063f3995c67146106ec578063fc6f7865146106ff576102af565b8063ac9650d81461061c578063b88d4fde1461063c578063c2e3140a1461065c578063c45a01551461066f578063c87b56dd14610684576102af565b806395d89b41116100f257806395d89b411461057c57806399eee9d01461059157806399fbab88146105b1578063a22cb465146105e9578063a4a78f0c14610609576102af565b80636352211e146104f15780636c0360eb1461051157806370a08231146105265780637ac2ff7b146105465780638831645614610559576102af565b80632f745c59116101bc57806342966c681161018057806342966c68146104835780634659a4941461049657806349404b7c146104a95780634aa4a4fc146104bc5780634f6ccce7146104d1576102af565b80632f745c59146103f957806330adf81f146104195780633644e5151461042e5780633beb26c41461044357806342842e0e14610463576102af565b806312210e8a1161020357806312210e8a1461037a57806313ead5621461038257806318160ddd14610395578063219f5d17146103b757806323b872dd146103d9576102af565b806301ffc9a7146102b457806306fdde03146102ea578063081812fc1461030c578063095ea7b3146103395780630c49ccbe14610359576102af565b366102af57336001600160a01b037f000000000000000000000000000000000000000000000000000000000000000016146102ad576040805162461bcd60e51b81526020600482015260096024820152684e6f7420574554483960b81b604482015290519081900360640190fd5b005b600080fd5b3480156102c057600080fd5b506102d46102cf366004614e75565b610712565b6040516102e191906153be565b60405180910390f35b3480156102f657600080fd5b506102ff610735565b6040516102e19190615411565b34801561031857600080fd5b5061032c610327366004615177565b6107cb565b6040516102e191906152a1565b34801561034557600080fd5b506102ad610354366004614d3a565b61081e565b61036c610367366004614f3a565b610894565b6040516102e1929190615598565b6102ad610cdc565b61032c610390366004614bcd565b610cee565b3480156103a157600080fd5b506103aa610fe2565b6040516102e191906153c9565b6103ca6103c5366004614f4b565b610ff3565b6040516102e193929190615553565b3480156103e557600080fd5b506102ad6103f4366004614c26565b611308565b34801561040557600080fd5b506103aa610414366004614d3a565b611364565b34801561042557600080fd5b506103aa61138f565b34801561043a57600080fd5b506103aa6113b3565b34801561044f57600080fd5b506102ad61045e366004615177565b611471565b34801561046f57600080fd5b506102ad61047e366004614c26565b611476565b6102ad610491366004615177565b611491565b6102ad6104a4366004614da6565b611560565b6102ad6104b736600461518f565b6115fa565b3480156104c857600080fd5b5061032c61176f565b3480156104dd57600080fd5b506103aa6104ec366004615177565b611793565b3480156104fd57600080fd5b5061032c61050c366004615177565b6117a9565b34801561051d57600080fd5b506102ff6117d1565b34801561053257600080fd5b506103aa610541366004614b79565b6117d6565b6102ad610554366004614da6565b61183e565b61056c610567366004615007565b611c30565b6040516102e19493929190615574565b34801561058857600080fd5b506102ff612148565b34801561059d57600080fd5b506102ad6105ac3660046151d6565b6121a9565b3480156105bd57600080fd5b506105d16105cc366004615177565b612227565b6040516102e19c9b9a999897969594939291906155a6565b3480156105f557600080fd5b506102ad610604366004614d0d565b612438565b6102ad610617366004614da6565b61253d565b61062f61062a366004614e06565b6125d6565b6040516102e1919061535e565b34801561064857600080fd5b506102ad610657366004614c66565b612716565b6102ad61066a366004614da6565b612774565b34801561067b57600080fd5b5061032c612803565b34801561069057600080fd5b506102ff61069f366004615177565b612827565b3480156106b057600080fd5b5061032c6128dd565b6102ad6106c7366004614d65565b612901565b3480156106d857600080fd5b506102d46106e7366004614b95565b6129d9565b6102ad6106fa366004614da6565b612a07565b61036c61070d366004614f23565b612a79565b6001600160e01b0319811660009081526020819052604090205460ff165b919050565b60068054604080516020601f60026000196101006001881615020190951694909404938401819004810282018101909252828152606093909290918301828280156107c15780601f10610796576101008083540402835291602001916107c1565b820191906000526020600020905b8154815290600101906020018083116107a457829003601f168201915b5050505050905090565b60006107d682612f44565b6107fb5760405162461bcd60e51b81526004016107f29061544a565b60405180910390fd5b506000908152600c6020526040902054600160601b90046001600160a01b031690565b6000818152600c6020526040902080546001600160601b0316600160601b6001600160a01b03851690810291909117909155819061085b826117a9565b6001600160a01b03167f8c5be1e5ebec7d5bd14f71427d1e84f3dd0314c0f7b2291e5b200ac8c7c3b92560405160405180910390a45050565b60008082356108a33382612f51565b6108bf5760405162461bcd60e51b81526004016107f290615424565b8360800135806108cd612fed565b1115610916576040805162461bcd60e51b8152602060048201526013602482015272151c985b9cd858dd1a5bdb881d1bdbc81bdb19606a1b604482015290519081900360640190fd5b60006109286040870160208801615019565b6001600160801b03161161093b57600080fd5b84356000908152600c602090815260409182902060018101549092600160801b9091046001600160801b031691610976918901908901615019565b6001600160801b0316816001600160801b0316101561099457600080fd5b6001828101546001600160501b03166000908152600b60209081526040808320815160608101835281546001600160a01b039081168252919095015490811692850192909252600160a01b90910462ffffff1690830152610a157f000000000000000000000000000000000000000000000000000000000000000083612ff3565b60018501549091506001600160a01b0382169063a34123a790600160501b8104600290810b91600160681b9004900b610a5460408e0160208f01615019565b6040518463ffffffff1660e01b8152600401610a72939291906153eb565b6040805180830381600087803b158015610a8b57600080fd5b505af1158015610a9f573d6000803e3d6000fd5b505050506040513d601f19601f82011682018060405250810190610ac391906151b3565b909850965060408901358810801590610ae0575088606001358710155b610afc5760405162461bcd60e51b81526004016107f290615496565b6001840154600090610b25903090600160501b8104600290810b91600160681b9004900b6130d2565b9050600080836001600160a01b031663514ea4bf846040518263ffffffff1660e01b8152600401610b5691906153c9565b60a06040518083038186803b158015610b6e57600080fd5b505afa158015610b82573d6000803e3d6000fd5b505050506040513d601f19601f82011682018060405250810190610ba69190615063565b50509250925050610bcb87600201548303876001600160801b0316600160801b613127565b6004880180546001600160801b03198116928e016001600160801b039182160181169290921790556003880154610c0c91908303908816600160801b613127565b6004880180546001600160801b03808216938e01600160801b9283900482160116029190911790556002870182905560038701819055610c5260408d0160208e01615019565b86038760010160106101000a8154816001600160801b0302191690836001600160801b031602179055508b600001357f26f6a048ee9138f2c0ce266f322cb99228e8d619ae2bff30c67f8dcf9d2377b48d6020016020810190610cb59190615019565b8d8d604051610cc693929190615553565b60405180910390a2505050505050505050915091565b4715610cec57610cec33476131d6565b565b6000836001600160a01b0316856001600160a01b031610610d0e57600080fd5b7f00000000000000000000000000000000000000000000000000000000000000006001600160a01b0316631698ee828686866040518463ffffffff1660e01b815260040180846001600160a01b03168152602001836001600160a01b031681526020018262ffffff168152602001935050505060206040518083038186803b158015610d9957600080fd5b505afa158015610dad573d6000803e3d6000fd5b505050506040513d6020811015610dc357600080fd5b505190506001600160a01b038116610ef9577f00000000000000000000000000000000000000000000000000000000000000006001600160a01b031663a16712958686866040518463ffffffff1660e01b815260040180846001600160a01b03168152602001836001600160a01b031681526020018262ffffff1681526020019350505050602060405180830381600087803b158015610e6257600080fd5b505af1158015610e76573d6000803e3d6000fd5b505050506040513d6020811015610e8c57600080fd5b50516040805163f637731d60e01b81526001600160a01b03858116600483015291519293509083169163f637731d9160248082019260009290919082900301818387803b158015610edc57600080fd5b505af1158015610ef0573d6000803e3d6000fd5b50505050610fda565b6000816001600160a01b0316633850c7bd6040518163ffffffff1660e01b815260040160e06040518083038186803b158015610f3457600080fd5b505afa158015610f48573d6000803e3d6000fd5b505050506040513d60e0811015610f5e57600080fd5b505190506001600160a01b038116610fd857816001600160a01b031663f637731d846040518263ffffffff1660e01b815260040180826001600160a01b03168152602001915050600060405180830381600087803b158015610fbf57600080fd5b505af1158015610fd3573d6000803e3d6000fd5b505050505b505b949350505050565b6000610fee60026132c5565b905090565b60008060008360a0013580611006612fed565b111561104f576040805162461bcd60e51b8152602060048201526013602482015272151c985b9cd858dd1a5bdb881d1bdbc81bdb19606a1b604482015290519081900360640190fd5b84356000908152600c602090815260408083206001808201546001600160501b0381168652600b855283862084516060808201875282546001600160a01b039081168352929094015480831682890190815262ffffff600160a01b9092048216838901908152885161014081018a528451861681529151909416818a0152925116828701523082850152600160501b8304600290810b810b608080850191909152600160681b909404810b900b60a0830152958c013560c0820152938b013560e0850152908a01356101008401528901356101208301529290611131906132d0565b6001870154939a5091985096509150600090611164903090600160501b8104600290810b91600160681b9004900b6130d2565b9050600080836001600160a01b031663514ea4bf846040518263ffffffff1660e01b815260040161119591906153c9565b60a06040518083038186803b1580156111ad57600080fd5b505afa1580156111c1573d6000803e3d6000fd5b505050506040513d601f19601f820116820180604052508101906111e59190615063565b50509250925050611221866002015483038760010160109054906101000a90046001600160801b03166001600160801b0316600160801b613127565b6004870180546001600160801b0380821690930183166001600160801b0319909116179055600387015460018801546112689291840391600160801b918290041690613127565b6004870180546001600160801b03600160801b80830482169094018116840291811691909117909155600288018490556003880183905560018801805483810483168e018316909302929091169190911790556040518b35907f3067048beee31b25b2f1681f88dac838c8bba36af25bfb2b7cf7473a5847e35f906112f2908d908d908d90615553565b60405180910390a2505050505050509193909250565b61131961131361350b565b82612f51565b6113545760405162461bcd60e51b81526004018080602001828103825260318152602001806158ce6031913960400191505060405180910390fd5b61135f83838361350f565b505050565b6001600160a01b0382166000908152600160205260408120611386908361365b565b90505b92915050565b7f49ecf333e5b8c95c40fdafc95c1ad136e8914a8fb55e9dc8bb01eaa83a2df9ad81565b60007f8b73c3c69bb8fe3d512ecc4cf759cc79239f7b179b0ffacaa9a75d522b39400f7f00000000000000000000000000000000000000000000000000000000000000007f0000000000000000000000000000000000000000000000000000000000000000611420613667565b3060405160200180868152602001858152602001848152602001838152602001826001600160a01b031681526020019550505050505060405160208183030381529060405280519060200120905090565b600e55565b61135f83838360405180602001604052806000815250612716565b8061149c3382612f51565b6114b85760405162461bcd60e51b81526004016107f290615424565b6000828152600c602052604090206001810154600160801b90046001600160801b03161580156114f3575060048101546001600160801b0316155b801561151157506004810154600160801b90046001600160801b0316155b61152d5760405162461bcd60e51b81526004016107f2906154ee565b6000838152600c602052604081208181556001810182905560028101829055600381018290556004015561135f8361366b565b604080516323f2ebc360e21b815233600482015230602482015260448101879052606481018690526001608482015260ff851660a482015260c4810184905260e4810183905290516001600160a01b03881691638fcbaf0c9161010480830192600092919082900301818387803b1580156115da57600080fd5b505af11580156115ee573d6000803e3d6000fd5b50505050505050505050565b60007f00000000000000000000000000000000000000000000000000000000000000006001600160a01b03166370a08231306040518263ffffffff1660e01b815260040180826001600160a01b0316815260200191505060206040518083038186803b15801561166957600080fd5b505afa15801561167d573d6000803e3d6000fd5b505050506040513d602081101561169357600080fd5b50519050828110156116e1576040805162461bcd60e51b8152602060048201526012602482015271496e73756666696369656e7420574554483960701b604482015290519081900360640190fd5b801561135f577f00000000000000000000000000000000000000000000000000000000000000006001600160a01b0316632e1a7d4d826040518263ffffffff1660e01b815260040180828152602001915050600060405180830381600087803b15801561174d57600080fd5b505af1158015611761573d6000803e3d6000fd5b5050505061135f82826131d6565b7f000000000000000000000000000000000000000000000000000000000000000081565b6000806117a1600284613738565b509392505050565b60006113898260405180606001604052806029815260200161585a6029913960029190613756565b606090565b60006001600160a01b03821661181d5760405162461bcd60e51b815260040180806020018281038252602a815260200180615830602a913960400191505060405180910390fd5b6001600160a01b0382166000908152600160205260409020611389906132c5565b83611847612fed565b111561188b576040805162461bcd60e51b815260206004820152600e60248201526d14195c9b5a5d08195e1c1a5c995960921b604482015290519081900360640190fd5b60006118956113b3565b7f49ecf333e5b8c95c40fdafc95c1ad136e8914a8fb55e9dc8bb01eaa83a2df9ad88886118c181613763565b604080516020808201969096526001600160a01b03909416848201526060840192909252608083015260a08083018a90528151808403909101815260c08301825280519084012061190160f01b60e084015260e283019490945261010280830194909452805180830390940184526101229091019052815191012090506000611949876117a9565b9050806001600160a01b0316886001600160a01b0316141561199c5760405162461bcd60e51b81526004018080602001828103825260278152602001806157936027913960400191505060405180910390fd5b6119a581613798565b15611b0d576040805160208082018790528183018690526001600160f81b031960f889901b1660608301528251604181840301815260618301808552630b135d3f60e11b90526065830186815260858401948552815160a585015281516001600160a01b03871695631626ba7e958995919260c59091019185019080838360005b83811015611a3e578181015183820152602001611a26565b50505050905090810190601f168015611a6b5780820380516001836020036101000a031916815260200191505b50935050505060206040518083038186803b158015611a8957600080fd5b505afa158015611a9d573d6000803e3d6000fd5b505050506040513d6020811015611ab357600080fd5b50516001600160e01b031916630b135d3f60e11b14611b08576040805162461bcd60e51b815260206004820152600c60248201526b155b985d5d1a1bdc9a5e995960a21b604482015290519081900360640190fd5b611c1c565b600060018387878760405160008152602001604052604051808581526020018460ff1681526020018381526020018281526020019450505050506020604051602081039080840390855afa158015611b69573d6000803e3d6000fd5b5050604051601f1901519150506001600160a01b038116611bc5576040805162461bcd60e51b8152602060048201526011602482015270496e76616c6964207369676e617475726560781b604482015290519081900360640190fd5b816001600160a01b0316816001600160a01b031614611c1a576040805162461bcd60e51b815260206004820152600c60248201526b155b985d5d1a1bdc9a5e995960a21b604482015290519081900360640190fd5b505b611c26888861081e565b5050505050505050565b60008060008084610140013580611c45612fed565b1115611c8e576040805162461bcd60e51b8152602060048201526013602482015272151c985b9cd858dd1a5bdb881d1bdbc81bdb19606a1b604482015290519081900360640190fd5b604080516101408101909152600090611d5a9080611caf60208b018b614b79565b6001600160a01b03168152602001896020016020810190611cd09190614b79565b6001600160a01b03168152602001611cee60608b0160408c0161515d565b62ffffff168152306020820152604001611d0e60808b0160608c01614e9d565b60020b8152602001611d2660a08b0160808c01614e9d565b60020b81526020018960a0013581526020018960c0013581526020018960e0013581526020018961010001358152506132d0565b92975090955093509050611da7611d7961014089016101208a01614b79565b600d80546001600160b01b0319811660016001600160b01b039283169081019092161790915597508761379e565b6000611dd230611dbd60808b0160608c01614e9d565b611dcd60a08c0160808d01614e9d565b6130d2565b9050600080836001600160a01b031663514ea4bf846040518263ffffffff1660e01b8152600401611e0391906153c9565b60a06040518083038186803b158015611e1b57600080fd5b505afa158015611e2f573d6000803e3d6000fd5b505050506040513d601f19601f82011682018060405250810190611e539190615063565b505092509250506000611ecc8560405180606001604052808e6000016020810190611e7e9190614b79565b6001600160a01b031681526020018e6020016020810190611e9f9190614b79565b6001600160a01b031681526020018e6040016020810190611ec0919061515d565b62ffffff1690526138cc565b905060405180610140016040528060006001600160601b0316815260200160006001600160a01b03168152602001826001600160501b031681526020018c6060016020810190611f1c9190614e9d565b60020b8152602001611f3460a08e0160808f01614e9d565b60020b81526020018a6001600160801b0316815260200184815260200183815260200160006001600160801b0316815260200160006001600160801b0316815250600c60008c815260200190815260200160002060008201518160000160006101000a8154816001600160601b0302191690836001600160601b03160217905550602082015181600001600c6101000a8154816001600160a01b0302191690836001600160a01b0316021790555060408201518160010160006101000a8154816001600160501b0302191690836001600160501b03160217905550606082015181600101600a6101000a81548162ffffff021916908360020b62ffffff160217905550608082015181600101600d6101000a81548162ffffff021916908360020b62ffffff16021790555060a08201518160010160106101000a8154816001600160801b0302191690836001600160801b0316021790555060c0820151816002015560e082015181600301556101008201518160040160006101000a8154816001600160801b0302191690836001600160801b031602179055506101208201518160040160106101000a8154816001600160801b0302191690836001600160801b03160217905550905050897f3067048beee31b25b2f1681f88dac838c8bba36af25bfb2b7cf7473a5847e35f8a8a8a60405161213393929190615553565b60405180910390a25050505050509193509193565b60078054604080516020601f60026000196101006001881615020190951694909404938401819004810282018101909252828152606093909290918301828280156107c15780601f10610796576101008083540402835291602001916107c1565b60006121b782840184614f5c565b90506121e77f000000000000000000000000000000000000000000000000000000000000000082600001516139ae565b508415612202578051516020820151612202919033886139d1565b831561222057612220816000015160200151826020015133876139d1565b5050505050565b6000818152600c6020908152604080832081516101408101835281546001600160601b03811682526001600160a01b03600160601b909104169381019390935260018101546001600160501b038116928401839052600160501b8104600290810b810b810b6060860152600160681b8204810b810b810b60808601526001600160801b03600160801b92839004811660a08701529083015460c0860152600383015460e0860152600490920154808316610100860152041661012083015282918291829182918291829182918291829182918291906123185760405162461bcd60e51b81526004016107f2906154c4565b6000600b600083604001516001600160501b03166001600160501b031681526020019081526020016000206040518060600160405290816000820160009054906101000a90046001600160a01b03166001600160a01b03166001600160a01b031681526020016001820160009054906101000a90046001600160a01b03166001600160a01b03166001600160a01b031681526020016001820160149054906101000a900462ffffff1662ffffff1662ffffff1681525050905081600001518260200151826000015183602001518460400151866060015187608001518860a001518960c001518a60e001518b61010001518c61012001519d509d509d509d509d509d509d509d509d509d509d509d50505091939597999b5091939597999b565b61244061350b565b6001600160a01b0316826001600160a01b031614156124a6576040805162461bcd60e51b815260206004820152601960248201527f4552433732313a20617070726f766520746f2063616c6c657200000000000000604482015290519081900360640190fd5b80600560006124b361350b565b6001600160a01b03908116825260208083019390935260409182016000908120918716808252919093529120805460ff1916921515929092179091556124f761350b565b6001600160a01b03167f17307eab39ab6107e8899845ad3d59bd9653f200f220920489ca2b5937696c318360405180821515815260200191505060405180910390a35050565b60408051636eb1769f60e11b81523360048201523060248201529051600019916001600160a01b0389169163dd62ed3e91604480820192602092909190829003018186803b15801561258e57600080fd5b505afa1580156125a2573d6000803e3d6000fd5b505050506040513d60208110156125b857600080fd5b505110156125ce576125ce868686868686611560565b505050505050565b60608167ffffffffffffffff811180156125ef57600080fd5b5060405190808252806020026020018201604052801561262357816020015b606081526020019060019003908161260e5790505b50905060005b8281101561270f576000803086868581811061264157fe5b90506020028101906126539190615640565b604051612661929190615291565b600060405180830381855af49150503d806000811461269c576040519150601f19603f3d011682016040523d82523d6000602084013e6126a1565b606091505b5091509150816126ed576044815110156126ba57600080fd5b600481019050808060200190518101906126d49190614eb9565b60405162461bcd60e51b81526004016107f29190615411565b808484815181106126fa57fe5b60209081029190910101525050600101612629565b5092915050565b61272761272161350b565b83612f51565b6127625760405162461bcd60e51b81526004018080602001828103825260318152602001806158ce6031913960400191505060405180910390fd5b61276e84848484613b61565b50505050565b60408051636eb1769f60e11b8152336004820152306024820152905186916001600160a01b0389169163dd62ed3e91604480820192602092909190829003018186803b1580156127c357600080fd5b505afa1580156127d7573d6000803e3d6000fd5b505050506040513d60208110156127ed57600080fd5b505110156125ce576125ce868686868686612a07565b7f000000000000000000000000000000000000000000000000000000000000000081565b606061283282612f44565b61283b57600080fd5b60405163e9dc637560e01b81526001600160a01b037f0000000000000000000000000000000000000000000000000000000000000000169063e9dc63759061288990309086906004016153d2565b60006040518083038186803b1580156128a157600080fd5b505afa1580156128b5573d6000803e3d6000fd5b505050506040513d6000823e601f3d908101601f191682016040526113899190810190614eb9565b7f000000000000000000000000000000000000000000000000000000000000000081565b6000836001600160a01b03166370a08231306040518263ffffffff1660e01b815260040180826001600160a01b0316815260200191505060206040518083038186803b15801561295057600080fd5b505afa158015612964573d6000803e3d6000fd5b505050506040513d602081101561297a57600080fd5b50519050828110156129c8576040805162461bcd60e51b815260206004820152601260248201527124b739bab33334b1b4b2b73a103a37b5b2b760711b604482015290519081900360640190fd5b801561276e5761276e848383613bb3565b6001600160a01b03918216600090815260056020908152604080832093909416825291909152205460ff1690565b6040805163d505accf60e01b8152336004820152306024820152604481018790526064810186905260ff8516608482015260a4810184905260c4810183905290516001600160a01b0388169163d505accf9160e480830192600092919082900301818387803b1580156115da57600080fd5b6000808235612a883382612f51565b612aa45760405162461bcd60e51b81526004016107f290615424565b6000612ab66060860160408701615019565b6001600160801b03161180612ae357506000612ad86080860160608701615019565b6001600160801b0316115b612aec57600080fd5b600080612aff6040870160208801614b79565b6001600160a01b031614612b2257612b1d6040860160208701614b79565b612b24565b305b85356000908152600c602090815260408083206001808201546001600160501b03168552600b8452828520835160608101855281546001600160a01b039081168252919092015490811694820194909452600160a01b90930462ffffff169183019190915292935090612bb77f000000000000000000000000000000000000000000000000000000000000000083612ff3565b600484015460018501549192506001600160801b0380821692600160801b9283900482169290041615612dad57600185015460405163a34123a760e01b81526001600160a01b0385169163a34123a791612c2e91600160501b8104600290810b92600160681b909204900b906000906004016153eb565b6040805180830381600087803b158015612c4757600080fd5b505af1158015612c5b573d6000803e3d6000fd5b505050506040513d601f19601f82011682018060405250810190612c7f91906151b3565b5050600185015460009081906001600160a01b0386169063514ea4bf90612cbd903090600160501b8104600290810b91600160681b9004900b6130d2565b6040518263ffffffff1660e01b8152600401612cd991906153c9565b60a06040518083038186803b158015612cf157600080fd5b505afa158015612d05573d6000803e3d6000fd5b505050506040513d601f19601f82011682018060405250810190612d299190615063565b50509250925050612d65876002015483038860010160109054906101000a90046001600160801b03166001600160801b0316600160801b613127565b84019350612d9e876003015482038860010160109054906101000a90046001600160801b03166001600160801b0316600160801b613127565b60028801929092556003870155015b6000806001600160801b038416612dca60608e0160408f01615019565b6001600160801b031611612ded57612de860608d0160408e01615019565b612def565b835b836001600160801b03168d6060016020810190612e0c9190615019565b6001600160801b031611612e2f57612e2a60808e0160608f01615019565b612e31565b835b60018901546040516309e3d67b60e31b81529294509092506001600160a01b03871691634f1eb3d891612e84918c91600160501b8104600290810b92600160681b909204900b90889088906004016152f7565b6040805180830381600087803b158015612e9d57600080fd5b505af1158015612eb1573d6000803e3d6000fd5b505050506040513d601f19601f82011682018060405250810190612ed59190615035565b6004890180546001600160801b03196001600160801b03918216600160801b878a0384160217168689038216179091556040519281169d50169a508c35907f40d0efd1a53d60ecbf40971b9daf7dc90178c3aadc7aab1765632738fa8b8f0190610cc6908b9086908690615334565b6000611389600283613cfa565b6000612f5c82612f44565b612f975760405162461bcd60e51b815260040180806020018281038252602c815260200180615804602c913960400191505060405180910390fd5b6000612fa2836117a9565b9050806001600160a01b0316846001600160a01b03161480612fdd5750836001600160a01b0316612fd2846107cb565b6001600160a01b0316145b80610fda5750610fda81856129d9565b600e5490565b600081602001516001600160a01b031682600001516001600160a01b03161061301b57600080fd5b50805160208083015160409384015184516001600160a01b0394851681850152939091168385015262ffffff166060808401919091528351808403820181526080840185528051908301206001600160f81b031960a085015294901b6001600160601b03191660a183015260b58201939093527ff5c8cd209dba528041d79d4ba7073926156cd25911491a8fd976619bfd753a6060d5808301919091528251808303909101815260f5909101909152805191012090565b604080516001600160601b0319606086901b16602080830191909152600285810b60e890811b60348501529085900b901b60378301528251601a818403018152603a90920190925280519101205b9392505050565b600080806000198587098686029250828110908390030390508061315d576000841161315257600080fd5b508290049050613120565b80841161316957600080fd5b6000848688096000868103871696879004966002600389028118808a02820302808a02820302808a02820302808a02820302808a02820302808a02909103029181900381900460010186841190950394909402919094039290920491909117919091029150509392505050565b604080516000808252602082019092526001600160a01b0384169083906040518082805190602001908083835b602083106132225780518252601f199092019160209182019101613203565b6001836020036101000a03801982511681845116808217855250505050505090500191505060006040518083038185875af1925050503d8060008114613284576040519150601f19603f3d011682016040523d82523d6000602084013e613289565b606091505b505090508061135f576040805162461bcd60e51b815260206004820152600360248201526253544560e81b604482015290519081900360640190fd5b600061138982613d06565b6000806000806000604051806060016040528087600001516001600160a01b0316815260200187602001516001600160a01b03168152602001876040015162ffffff1681525090506133427f000000000000000000000000000000000000000000000000000000000000000082612ff3565b91506000826001600160a01b0316633850c7bd6040518163ffffffff1660e01b815260040160e06040518083038186803b15801561337f57600080fd5b505afa158015613393573d6000803e3d6000fd5b505050506040513d601f19601f820116820180604052508101906133b791906150c4565b505050505050905060006133ce8860800151613d0a565b905060006133df8960a00151613d0a565b90506133f68383838c60c001518d60e0015161403c565b9750505050816001600160a01b0316633c8a7d8d876060015188608001518960a00151896040518060400160405280888152602001336001600160a01b03168152506040516020016134489190615513565b6040516020818303038152906040526040518663ffffffff1660e01b81526004016134779594939291906152b5565b6040805180830381600087803b15801561349057600080fd5b505af11580156134a4573d6000803e3d6000fd5b505050506040513d601f19601f820116820180604052508101906134c891906151b3565b610100880151919550935084108015906134e757508561012001518310155b6135035760405162461bcd60e51b81526004016107f290615496565b509193509193565b3390565b826001600160a01b0316613522826117a9565b6001600160a01b0316146135675760405162461bcd60e51b81526004018080602001828103825260298152602001806158a56029913960400191505060405180910390fd5b6001600160a01b0382166135ac5760405162461bcd60e51b81526004018080602001828103825260248152602001806157ba6024913960400191505060405180910390fd5b6135b783838361135f565b6135c2600082614100565b6001600160a01b03831660009081526001602052604090206135e49082614135565b506001600160a01b03821660009081526001602052604090206136079082614141565b506136146002828461414d565b5080826001600160a01b0316846001600160a01b03167fddf252ad1be2c89b69c2b068fc378daa952ba7f163c4a11628f55a4df523b3ef60405160405180910390a4505050565b60006113868383614163565b4690565b6000613676826117a9565b90506136848160008461135f565b61368f600083614100565b60008281526008602052604090205460026000196101006001841615020190911604156136cd5760008281526008602052604081206136cd91614ae9565b6001600160a01b03811660009081526001602052604090206136ef9083614135565b506136fb6002836141c7565b5060405182906000906001600160a01b038416907fddf252ad1be2c89b69c2b068fc378daa952ba7f163c4a11628f55a4df523b3ef908390a45050565b600080808061374786866141d3565b909450925050505b9250929050565b6000610fda84848461424e565b6000908152600c6020526040902080546001600160601b0319811660016001600160601b039283169081019092161790915590565b3b151590565b6001600160a01b0382166137f9576040805162461bcd60e51b815260206004820181905260248201527f4552433732313a206d696e7420746f20746865207a65726f2061646472657373604482015290519081900360640190fd5b61380281612f44565b15613854576040805162461bcd60e51b815260206004820152601c60248201527f4552433732313a20746f6b656e20616c7265616479206d696e74656400000000604482015290519081900360640190fd5b6138606000838361135f565b6001600160a01b03821660009081526001602052604090206138829082614141565b5061388f6002828461414d565b5060405181906001600160a01b038416906000907fddf252ad1be2c89b69c2b068fc378daa952ba7f163c4a11628f55a4df523b3ef908290a45050565b6001600160a01b0382166000908152600a60205260409020546001600160501b0316806113895750600d805460016001600160501b03600160b01b8084048216838101909216026001600160b01b03909316929092179092556001600160a01b038085166000908152600a60209081526040808320805469ffffffffffffffffffff191686179055848352600b825291829020865181549085166001600160a01b031991821617825591870151950180549287015162ffffff16600160a01b0262ffffff60a01b19969094169290911691909117939093161790915592915050565b60006139ba8383612ff3565b9050336001600160a01b0382161461138957600080fd5b7f00000000000000000000000000000000000000000000000000000000000000006001600160a01b0316846001600160a01b0316148015613a125750804710155b15613b34577f00000000000000000000000000000000000000000000000000000000000000006001600160a01b031663d0e30db0826040518263ffffffff1660e01b81526004016000604051808303818588803b158015613a7257600080fd5b505af1158015613a86573d6000803e3d6000fd5b50505050507f00000000000000000000000000000000000000000000000000000000000000006001600160a01b031663a9059cbb83836040518363ffffffff1660e01b815260040180836001600160a01b0316815260200182815260200192505050602060405180830381600087803b158015613b0257600080fd5b505af1158015613b16573d6000803e3d6000fd5b505050506040513d6020811015613b2c57600080fd5b5061276e9050565b6001600160a01b038316301415613b5557613b50848383613bb3565b61276e565b61276e84848484614318565b613b6c84848461350f565b613b7884848484614468565b61276e5760405162461bcd60e51b81526004018080602001828103825260328152602001806157616032913960400191505060405180910390fd5b604080516001600160a01b038481166024830152604480830185905283518084039091018152606490920183526020820180516001600160e01b031663a9059cbb60e01b1781529251825160009485949389169392918291908083835b60208310613c2f5780518252601f199092019160209182019101613c10565b6001836020036101000a0380198251168184511680821785525050505050509050019150506000604051808303816000865af19150503d8060008114613c91576040519150601f19603f3d011682016040523d82523d6000602084013e613c96565b606091505b5091509150818015613cc4575080511580613cc45750808060200190516020811015613cc157600080fd5b50515b612220576040805162461bcd60e51b815260206004820152600260248201526114d560f21b604482015290519081900360640190fd5b600061138683836145d0565b5490565b60008060008360020b12613d21578260020b613d29565b8260020b6000035b9050620d89e8811115613d67576040805162461bcd60e51b81526020600482015260016024820152601560fa1b604482015290519081900360640190fd5b600060018216613d7b57600160801b613d8d565b6ffffcb933bd6fad37aa2d162d1a5940015b70ffffffffffffffffffffffffffffffffff1690506002821615613dc1576ffff97272373d413259a46990580e213a0260801c5b6004821615613de0576ffff2e50f5f656932ef12357cf3c7fdcc0260801c5b6008821615613dff576fffe5caca7e10e4e61c3624eaa0941cd00260801c5b6010821615613e1e576fffcb9843d60f6159c9db58835c9266440260801c5b6020821615613e3d576fff973b41fa98c081472e6896dfb254c00260801c5b6040821615613e5c576fff2ea16466c96a3843ec78b326b528610260801c5b6080821615613e7b576ffe5dee046a99a2a811c461f1969c30530260801c5b610100821615613e9b576ffcbe86c7900a88aedcffc83b479aa3a40260801c5b610200821615613ebb576ff987a7253ac413176f2b074cf7815e540260801c5b610400821615613edb576ff3392b0822b70005940c7a398e4b70f30260801c5b610800821615613efb576fe7159475a2c29b7443b29c7fa6e889d90260801c5b611000821615613f1b576fd097f3bdfd2022b8845ad8f792aa58250260801c5b612000821615613f3b576fa9f746462d870fdf8a65dc1f90e061e50260801c5b614000821615613f5b576f70d869a156d2a1b890bb3df62baf32f70260801c5b618000821615613f7b576f31be135f97d08fd981231505542fcfa60260801c5b62010000821615613f9c576f09aa508b5b7a84e1c677de54f3e99bc90260801c5b62020000821615613fbc576e5d6af8dedb81196699c329225ee6040260801c5b62040000821615613fdb576d2216e584f5fa1ea926041bedfe980260801c5b62080000821615613ff8576b048a170391f7dc42444e8fa20260801c5b60008460020b131561401357806000198161400f57fe5b0490505b64010000000081061561402757600161402a565b60005b60ff16602082901c0192505050919050565b6000836001600160a01b0316856001600160a01b0316111561405c579293925b846001600160a01b0316866001600160a01b031611614087576140808585856145e8565b90506140f7565b836001600160a01b0316866001600160a01b031610156140e95760006140ae8786866145e8565b905060006140bd87898661464b565b9050806001600160801b0316826001600160801b0316106140de57806140e0565b815b925050506140f7565b6140f485858461464b565b90505b95945050505050565b600081815260046020526040902080546001600160a01b0319166001600160a01b038416908117909155819061085b826117a9565b60006113868383614688565b6000611386838361474e565b6000610fda84846001600160a01b038516614798565b815460009082106141a55760405162461bcd60e51b815260040180806020018281038252602281526020018061573f6022913960400191505060405180910390fd5b8260000182815481106141b457fe5b9060005260206000200154905092915050565b6000611386838361482f565b8154600090819083106142175760405162461bcd60e51b81526004018080602001828103825260228152602001806158836022913960400191505060405180910390fd5b600084600001848154811061422857fe5b906000526020600020906002020190508060000154816001015492509250509250929050565b600082815260018401602052604081205482816142e95760405162461bcd60e51b81526004018080602001828103825283818151815260200191508051906020019080838360005b838110156142ae578181015183820152602001614296565b50505050905090810190601f1680156142db5780820380516001836020036101000a031916815260200191505b509250505060405180910390fd5b508460000160018203815481106142fc57fe5b9060005260206000209060020201600101549150509392505050565b604080516001600160a01b0385811660248301528481166044830152606480830185905283518084039091018152608490920183526020820180516001600160e01b03166323b872dd60e01b178152925182516000948594938a169392918291908083835b6020831061439c5780518252601f19909201916020918201910161437d565b6001836020036101000a0380198251168184511680821785525050505050509050019150506000604051808303816000865af19150503d80600081146143fe576040519150601f19603f3d011682016040523d82523d6000602084013e614403565b606091505b5091509150818015614431575080511580614431575080806020019051602081101561442e57600080fd5b50515b6125ce576040805162461bcd60e51b815260206004820152600360248201526229aa2360e91b604482015290519081900360640190fd5b600061447c846001600160a01b0316613798565b61448857506001610fda565b6000614596630a85bd0160e11b61449d61350b565b88878760405160240180856001600160a01b03168152602001846001600160a01b0316815260200183815260200180602001828103825283818151815260200191508051906020019080838360005b838110156145045781810151838201526020016144ec565b50505050905090810190601f1680156145315780820380516001836020036101000a031916815260200191505b5095505050505050604051602081830303815290604052906001600160e01b0319166020820180516001600160e01b038381831617835250505050604051806060016040528060328152602001615761603291396001600160a01b0388169190614903565b905060008180602001905160208110156145af57600080fd5b50516001600160e01b031916630a85bd0160e11b1492505050949350505050565b60009081526001919091016020526040902054151590565b6000826001600160a01b0316846001600160a01b03161115614608579192915b600061462b856001600160a01b0316856001600160a01b0316600160601b613127565b90506140f761464684838888036001600160a01b0316613127565b614912565b6000826001600160a01b0316846001600160a01b0316111561466b579192915b610fda61464683600160601b8787036001600160a01b0316613127565b6000818152600183016020526040812054801561474457835460001980830191908101906000908790839081106146bb57fe5b90600052602060002001549050808760000184815481106146d857fe5b60009182526020808320909101929092558281526001898101909252604090209084019055865487908061470857fe5b60019003818190600052602060002001600090559055866001016000878152602001908152602001600020600090556001945050505050611389565b6000915050611389565b600061475a83836145d0565b61479057508154600181810184556000848152602080822090930184905584548482528286019093526040902091909155611389565b506000611389565b6000828152600184016020526040812054806147fd575050604080518082018252838152602080820184815286546001818101895560008981528481209551600290930290950191825591519082015586548684528188019092529290912055613120565b8285600001600183038154811061481057fe5b9060005260206000209060020201600101819055506000915050613120565b60008181526001830160205260408120548015614744578354600019808301919081019060009087908390811061486257fe5b906000526020600020906002020190508087600001848154811061488257fe5b6000918252602080832084546002909302019182556001938401549184019190915583548252898301905260409020908401905586548790806148c157fe5b60008281526020808220600260001990940193840201828155600190810183905592909355888152898201909252604082209190915594506113899350505050565b6060610fda8484600085614928565b806001600160801b038116811461073057600080fd5b6060824710156149695760405162461bcd60e51b81526004018080602001828103825260268152602001806157de6026913960400191505060405180910390fd5b61497285613798565b6149c3576040805162461bcd60e51b815260206004820152601d60248201527f416464726573733a2063616c6c20746f206e6f6e2d636f6e7472616374000000604482015290519081900360640190fd5b600080866001600160a01b031685876040518082805190602001908083835b60208310614a015780518252601f1990920191602091820191016149e2565b6001836020036101000a03801982511681845116808217855250505050505090500191505060006040518083038185875af1925050503d8060008114614a63576040519150601f19603f3d011682016040523d82523d6000602084013e614a68565b606091505b5091509150614a78828286614a83565b979650505050505050565b60608315614a92575081613120565b825115614aa25782518084602001fd5b60405162461bcd60e51b81526020600482018181528451602484015284518593919283926044019190850190808383600083156142ae578181015183820152602001614296565b50805460018160011615610100020316600290046000825580601f10614b0f5750614b2d565b601f016020900490600052602060002090810190614b2d9190614b30565b50565b5b80821115614b455760008155600101614b31565b5090565b8035610730816156f7565b805161ffff8116811461073057600080fd5b803562ffffff8116811461073057600080fd5b600060208284031215614b8a578081fd5b8135613120816156f7565b60008060408385031215614ba7578081fd5b8235614bb2816156f7565b91506020830135614bc2816156f7565b809150509250929050565b60008060008060808587031215614be2578182fd5b8435614bed816156f7565b93506020850135614bfd816156f7565b9250614c0b60408601614b66565b91506060850135614c1b816156f7565b939692955090935050565b600080600060608486031215614c3a578081fd5b8335614c45816156f7565b92506020840135614c55816156f7565b929592945050506040919091013590565b60008060008060808587031215614c7b578182fd5b8435614c86816156f7565b93506020850135614c96816156f7565b925060408501359150606085013567ffffffffffffffff811115614cb8578182fd5b8501601f81018713614cc8578182fd5b8035614cdb614cd6826156a9565b615685565b818152886020838501011115614cef578384fd5b81602084016020830137908101602001929092525092959194509250565b60008060408385031215614d1f578182fd5b8235614d2a816156f7565b91506020830135614bc28161570c565b60008060408385031215614d4c578182fd5b8235614d57816156f7565b946020939093013593505050565b600080600060608486031215614d79578081fd5b8335614d84816156f7565b9250602084013591506040840135614d9b816156f7565b809150509250925092565b60008060008060008060c08789031215614dbe578384fd5b8635614dc9816156f7565b95506020870135945060408701359350606087013560ff81168114614dec578283fd5b9598949750929560808101359460a0909101359350915050565b60008060208385031215614e18578182fd5b823567ffffffffffffffff80821115614e2f578384fd5b818501915085601f830112614e42578384fd5b813581811115614e50578485fd5b8660208083028501011115614e63578485fd5b60209290920196919550909350505050565b600060208284031215614e86578081fd5b81356001600160e01b031981168114613120578182fd5b600060208284031215614eae578081fd5b81356131208161571a565b600060208284031215614eca578081fd5b815167ffffffffffffffff811115614ee0578182fd5b8201601f81018413614ef0578182fd5b8051614efe614cd6826156a9565b818152856020838501011115614f12578384fd5b6140f78260208301602086016156cb565b600060808284031215614f34578081fd5b50919050565b600060a08284031215614f34578081fd5b600060c08284031215614f34578081fd5b60008183036080811215614f6e578182fd5b6040516040810167ffffffffffffffff8282108183111715614f8c57fe5b816040526060841215614f9d578485fd5b60a0830193508184108185111715614fb157fe5b508260405284359250614fc3836156f7565b918252602084013591614fd5836156f7565b826060830152614fe760408601614b66565b60808301528152614ffa60608501614b49565b6020820152949350505050565b60006101608284031215614f34578081fd5b60006020828403121561502a578081fd5b813561312081615729565b60008060408385031215615047578182fd5b825161505281615729565b6020840151909250614bc281615729565b600080600080600060a0868803121561507a578283fd5b855161508581615729565b80955050602086015193506040860151925060608601516150a581615729565b60808701519092506150b681615729565b809150509295509295909350565b600080600080600080600060e0888a0312156150de578485fd5b87516150e9816156f7565b60208901519097506150fa8161571a565b955061510860408901614b54565b945061511660608901614b54565b935061512460808901614b54565b925060a088015163ffffffff8116811461513c578182fd5b60c089015190925061514d8161570c565b8091505092959891949750929550565b60006020828403121561516e578081fd5b61138682614b66565b600060208284031215615188578081fd5b5035919050565b600080604083850312156151a1578182fd5b823591506020830135614bc2816156f7565b600080604083850312156151c5578182fd5b505080516020909101519092909150565b600080600080606085870312156151eb578182fd5b8435935060208501359250604085013567ffffffffffffffff80821115615210578384fd5b818701915087601f830112615223578384fd5b813581811115615231578485fd5b886020828501011115615242578485fd5b95989497505060200194505050565b600081518084526152698160208601602086016156cb565b601f01601f19169290920160200192915050565b60020b9052565b6001600160801b03169052565b6000828483379101908152919050565b6001600160a01b0391909116815260200190565b600060018060a01b03871682528560020b60208301528460020b60408301526001600160801b038416606083015260a06080830152614a7860a0830184615251565b6001600160a01b03959095168552600293840b60208601529190920b60408401526001600160801b03918216606084015216608082015260a00190565b6001600160a01b039390931683526001600160801b03918216602084015216604082015260600190565b6000602080830181845280855180835260408601915060408482028701019250838701855b828110156153b157603f1988860301845261539f858351615251565b94509285019290850190600101615383565b5092979650505050505050565b901515815260200190565b90815260200190565b6001600160a01b03929092168252602082015260400190565b600293840b81529190920b60208201526001600160801b03909116604082015260600190565b6000602082526113866020830184615251565b6020808252600c908201526b139bdd08185c1c1c9bdd995960a21b604082015260600190565b6020808252602c908201527f4552433732313a20617070726f76656420717565727920666f72206e6f6e657860408201526b34b9ba32b73a103a37b5b2b760a11b606082015260800190565b602080825260149082015273507269636520736c69707061676520636865636b60601b604082015260600190565b60208082526010908201526f125b9d985b1a59081d1bdad95b88125160821b604082015260600190565b6020808252600b908201526a139bdd0818db19585c995960aa1b604082015260600190565b815180516001600160a01b03908116835260208083015182168185015260409283015162ffffff1692840192909252920151909116606082015260800190565b6001600160801b039390931683526020830191909152604082015260600190565b9384526001600160801b039290921660208401526040830152606082015260800190565b918252602082015260400190565b6001600160601b038d1681526001600160a01b038c811660208301528b811660408301528a16606082015262ffffff89166080820152600288900b60a082015261018081016155f860c083018961527d565b61560560e0830188615284565b8561010083015284610120830152615621610140830185615284565b61562f610160830184615284565b9d9c50505050505050505050505050565b6000808335601e19843603018112615656578283fd5b83018035915067ffffffffffffffff821115615670578283fd5b60200191503681900382131561374f57600080fd5b60405181810167ffffffffffffffff811182821017156156a157fe5b604052919050565b600067ffffffffffffffff8211156156bd57fe5b50601f01601f191660200190565b60005b838110156156e65781810151838201526020016156ce565b8381111561276e5750506000910152565b6001600160a01b0381168114614b2d57600080fd5b8015158114614b2d57600080fd5b8060020b8114614b2d57600080fd5b6001600160801b0381168114614b2d57600080fdfe456e756d657261626c655365743a20696e646578206f7574206f6620626f756e64734552433732313a207472616e7366657220746f206e6f6e20455243373231526563656976657220696d706c656d656e7465724552433732315065726d69743a20617070726f76616c20746f2063757272656e74206f776e65724552433732313a207472616e7366657220746f20746865207a65726f2061646472657373416464726573733a20696e73756666696369656e742062616c616e636520666f722063616c6c4552433732313a206f70657261746f7220717565727920666f72206e6f6e6578697374656e7420746f6b656e4552433732313a2062616c616e636520717565727920666f7220746865207a65726f20616464726573734552433732313a206f776e657220717565727920666f72206e6f6e6578697374656e7420746f6b656e456e756d657261626c654d61703a20696e646578206f7574206f6620626f756e64734552433732313a207472616e73666572206f6620746f6b656e2074686174206973206e6f74206f776e4552433732313a207472616e736665722063616c6c6572206973206e6f74206f776e6572206e6f7220617070726f766564a2646970667358221220d78a2812315e22b30a1781e58cddfccf273b31cf5c37efce3c5aad54a49b3da864736f6c63430007060033","linkReferences":{}},"methodIdentifiers":{"DOMAIN_SEPARATOR()":"3644e515","PERMIT_TYPEHASH()":"30adf81f","WETH9()":"4aa4a4fc","approve(address,uint256)":"095ea7b3","balanceOf(address)":"70a08231","baseURI()":"6c0360eb","burn(uint256)":"42966c68","collect((uint256,address,uint128,uint128))":"fc6f7865","createAndInitializePoolIfNecessary(address,address,uint24,uint160)":"13ead562","decreaseLiquidity((uint256,uint128,uint256,uint256,uint256))":"0c49ccbe","deployer()":"d5f39488","factory()":"c45a0155","getApproved(uint256)":"081812fc","increaseLiquidity((uint256,uint256,uint256,uint256,uint256,uint256))":"219f5d17","isApprovedForAll(address,address)":"e985e9c5","mint((address,address,uint24,int24,int24,uint256,uint256,uint256,uint256,address,uint256))":"88316456","multicall(bytes[])":"ac9650d8","name()":"06fdde03","ownerOf(uint256)":"6352211e","pancakeV3MintCallback(uint256,uint256,bytes)":"99eee9d0","permit(address,uint256,uint256,uint8,bytes32,bytes32)":"7ac2ff7b","positions(uint256)":"99fbab88","refundETH()":"12210e8a","safeTransferFrom(address,address,uint256)":"42842e0e","safeTransferFrom(address,address,uint256,bytes)":"b88d4fde","selfPermit(address,uint256,uint256,uint8,bytes32,bytes32)":"f3995c67","selfPermitAllowed(address,uint256,uint256,uint8,bytes32,bytes32)":"4659a494","selfPermitAllowedIfNecessary(address,uint256,uint256,uint8,bytes32,bytes32)":"a4a78f0c","selfPermitIfNecessary(address,uint256,uint256,uint8,bytes32,bytes32)":"c2e3140a","setApprovalForAll(address,bool)":"a22cb465","setTime(uint256)":"3beb26c4","supportsInterface(bytes4)":"01ffc9a7","sweepToken(address,uint256,address)":"df2ab5bb","symbol()":"95d89b41","tokenByIndex(uint256)":"4f6ccce7","tokenOfOwnerByIndex(address,uint256)":"2f745c59","tokenURI(uint256)":"c87b56dd","totalSupply()":"18160ddd","transferFrom(address,address,uint256)":"23b872dd","unwrapWETH9(uint256,address)":"49404b7c"},"id":160}