{"abi":[{"type":"function","name":"checkDivRoundingUp","inputs":[{"name":"x","type":"uint256","internalType":"uint256"},{"name":"d","type":"uint256","internalType":"uint256"}],"outputs":[],"stateMutability":"pure"}],"bytecode":{"object":"0x608060405234801561001057600080fd5b5060dd8061001f6000396000f3fe6080604052348015600f57600080fd5b506004361060285760003560e01c80632724da4e14602d575b600080fd5b604d60048036036040811015604157600080fd5b5080359060200135604f565b005b60008111605b57600080fd5b600060658383609c565b90506000828481607157fe5b0482039050828481607e57fe5b06608d578015608957fe5b6096565b80600114609657fe5b50505050565b80820491061515019056fea2646970667358221220207e850f077f37105eb749035beea5dc102ef10ea481aff63eee7c34852a868b64736f6c63430007060033","linkReferences":{}},"methodIdentifiers":{"checkDivRoundingUp(uint256,uint256)":"2724da4e"},"id":198}