{"abi":[{"type":"function","name":"computeAddress","inputs":[{"name":"deployer","type":"address","internalType":"address"},{"name":"key","type":"tuple","internalType":"struct SmartRouterHelper.PoolKey","components":[{"name":"token0","type":"address","internalType":"address"},{"name":"token1","type":"address","internalType":"address"},{"name":"fee","type":"uint24","internalType":"uint24"}]}],"outputs":[{"name":"pool","type":"address","internalType":"address"}],"stateMutability":"pure"},{"type":"function","name":"getAmountIn","inputs":[{"name":"amountOut","type":"uint256","internalType":"uint256"},{"name":"reserveIn","type":"uint256","internalType":"uint256"},{"name":"reserveOut","type":"uint256","internalType":"uint256"}],"outputs":[{"name":"amountIn","type":"uint256","internalType":"uint256"}],"stateMutability":"pure"},{"type":"function","name":"getAmountOut","inputs":[{"name":"amountIn","type":"uint256","internalType":"uint256"},{"name":"reserveIn","type":"uint256","internalType":"uint256"},{"name":"reserveOut","type":"uint256","internalType":"uint256"}],"outputs":[{"name":"amountOut","type":"uint256","internalType":"uint256"}],"stateMutability":"pure"},{"type":"function","name":"getAmountsIn","inputs":[{"name":"factory","type":"address","internalType":"address"},{"name":"amountOut","type":"uint256","internalType":"uint256"},{"name":"path","type":"address[]","internalType":"address[]"}],"outputs":[{"name":"amounts","type":"uint256[]","internalType":"uint256[]"}],"stateMutability":"view"},{"type":"function","name":"getPool","inputs":[{"name":"deployer","type":"address","internalType":"address"},{"name":"tokenA","type":"address","internalType":"address"},{"name":"tokenB","type":"address","internalType":"address"},{"name":"fee","type":"uint24","internalType":"uint24"}],"outputs":[{"name":"","type":"IPancakeV3Pool","internalType":"contract IPancakeV3Pool"}],"stateMutability":"pure"},{"type":"function","name":"getPoolKey","inputs":[{"name":"tokenA","type":"address","internalType":"address"},{"name":"tokenB","type":"address","internalType":"address"},{"name":"fee","type":"uint24","internalType":"uint24"}],"outputs":[{"name":"","type":"tuple","internalType":"struct SmartRouterHelper.PoolKey","components":[{"name":"token0","type":"address","internalType":"address"},{"name":"token1","type":"address","internalType":"address"},{"name":"fee","type":"uint24","internalType":"uint24"}]}],"stateMutability":"pure"},{"type":"function","name":"getReserves","inputs":[{"name":"factory","type":"address","internalType":"address"},{"name":"tokenA","type":"address","internalType":"address"},{"name":"tokenB","type":"address","internalType":"address"}],"outputs":[{"name":"reserveA","type":"uint256","internalType":"uint256"},{"name":"reserveB","type":"uint256","internalType":"uint256"}],"stateMutability":"view"},{"type":"function","name":"getStableAmountsIn","inputs":[{"name":"stableSwapFactory","type":"address","internalType":"address"},{"name":"stableSwapInfo","type":"address","internalType":"address"},{"name":"path","type":"address[]","internalType":"address[]"},{"name":"flag","type":"uint256[]","internalType":"uint256[]"},{"name":"amountOut","type":"uint256","internalType":"uint256"}],"outputs":[{"name":"amounts","type":"uint256[]","internalType":"uint256[]"}],"stateMutability":"view"},{"type":"function","name":"getStableInfo","inputs":[{"name":"stableSwapFactory","type":"address","internalType":"address"},{"name":"input","type":"address","internalType":"address"},{"name":"output","type":"address","internalType":"address"},{"name":"flag","type":"uint256","internalType":"uint256"}],"outputs":[{"name":"i","type":"uint256","internalType":"uint256"},{"name":"j","type":"uint256","internalType":"uint256"},{"name":"swapContract","type":"address","internalType":"address"}],"stateMutability":"view"},{"type":"function","name":"pairFor","inputs":[{"name":"factory","type":"address","internalType":"address"},{"name":"tokenA","type":"address","internalType":"address"},{"name":"tokenB","type":"address","internalType":"address"}],"outputs":[{"name":"pair","type":"address","internalType":"address"}],"stateMutability":"pure"},{"type":"function","name":"sortTokens","inputs":[{"name":"tokenA","type":"address","internalType":"address"},{"name":"tokenB","type":"address","internalType":"address"}],"outputs":[{"name":"token0","type":"address","internalType":"address"},{"name":"token1","type":"address","internalType":"address"}],"stateMutability":"pure"},{"type":"function","name":"verifyCallback","inputs":[{"name":"deployer","type":"address","internalType":"address"},{"name":"tokenA","type":"address","internalType":"address"},{"name":"tokenB","type":"address","internalType":"address"},{"name":"fee","type":"uint24","internalType":"uint24"}],"outputs":[{"name":"pool","type":"IPancakeV3Pool","internalType":"contract IPancakeV3Pool"}],"stateMutability":"view"},{"type":"function","name":"verifyCallback","inputs":[{"name":"deployer","type":"address","internalType":"address"},{"name":"poolKey","type":"tuple","internalType":"struct SmartRouterHelper.PoolKey","components":[{"name":"token0","type":"address","internalType":"address"},{"name":"token1","type":"address","internalType":"address"},{"name":"fee","type":"uint24","internalType":"uint24"}]}],"outputs":[{"name":"pool","type":"IPancakeV3Pool","internalType":"contract IPancakeV3Pool"}],"stateMutability":"view"}],"bytecode":{"object":"0x6114a7610026600b82828239805160001a60731461001957fe5b30600052607381538281f3fe73000000000000000000000000000000000000000030146080604052600436106100d95760003560e01c80635923cab31161009657806385f8c2591161007057806385f8c259146101e25780638bdb1925146101f5578063a497919d14610208578063b735aecd1461021b576100d9565b80635923cab3146101a95780636d91c0e2146101bc57806370c3718e146101cf576100d9565b8063054d50d4146100de578063192128b2146101075780632b6d5d8f1461012757806332749461146101475780634e6c8ed814610168578063544caa5614610188575b600080fd5b6100f16100ec366004611166565b61023d565b6040516100fe91906113e1565b60405180910390f35b61011a610115366004610fa5565b6102cd565b6040516100fe9190611274565b61013a610135366004610ece565b6103d2565b6040516100fe91906113ad565b61015a610155366004610cf8565b610428565b6040516100fe9291906113ea565b61017b610176366004610d42565b610501565b6040516100fe91906111f0565b61019b610196366004610cc0565b61051b565b6040516100fe929190611204565b61011a6101b7366004610deb565b61057f565b61017b6101ca366004610cf8565b610734565b61017b6101dd366004610f14565b6107c5565b6100f16101f0366004611166565b610876565b61017b610203366004610d42565b6108fd565b61017b610216366004610f14565b61090e565b61022e610229366004610d9b565b610937565b6040516100fe939291906113f8565b60008084116102675760405162461bcd60e51b815260040161025e9061133f565b60405180910390fd5b6000831180156102775750600082115b61028057600080fd5b600061028e856126f7610bb8565b9050600061029c8285610bb8565b905060006102b6836102b088612710610bb8565b90610bdc565b90508082816102c157fe5b04979650505050505050565b60606002825110156102de57600080fd5b815167ffffffffffffffff811180156102f657600080fd5b50604051908082528060200260200182016040528015610320578160200160208202803683370190505b509050828160018351038151811061033457fe5b60209081029190910101528151600019015b80156103ca576000806103838786600186038151811061036257fe5b602002602001015187868151811061037657fe5b6020026020010151610428565b915091506103a584848151811061039657fe5b60200260200101518383610876565b8460018503815181106103b457fe5b6020908102919091010152505060001901610346565b509392505050565b6103da610bfc565b826001600160a01b0316846001600160a01b031611156103f8579192915b50604080516060810182526001600160a01b03948516815292909316602083015262ffffff169181019190915290565b6000806000610437858561051b565b509050600080610448888888610734565b6001600160a01b0316630902f1ac6040518163ffffffff1660e01b815260040160606040518083038186803b15801561048057600080fd5b505afa158015610494573d6000803e3d6000fd5b505050506040513d601f19601f820116820180604052508101906104b8919061110b565b506001600160701b031691506001600160701b03169150826001600160a01b0316876001600160a01b0316146104ef5780826104f2565b81815b90999098509650505050505050565b6000610512856101dd8686866103d2565b95945050505050565b600080826001600160a01b0316846001600160a01b0316141561053d57600080fd5b826001600160a01b0316846001600160a01b03161061055d578284610560565b83835b90925090506001600160a01b03821661057857600080fd5b9250929050565b825160609060028110156105a55760405162461bcd60e51b815260040161025e906112b8565b8067ffffffffffffffff811180156105bc57600080fd5b506040519080825280602002602001820160405280156105e6578160200160208202803683370190505b509150828260018303815181106105f957fe5b602090810291909101015260001981015b801561072957600060018203905060008060006106628c8b868151811061062d57fe5b60200260200101518c888151811061064157fe5b60200260200101518c888151811061065557fe5b6020026020010151610937565b9250925092508a6001600160a01b031663ca4bc7148285858b8a8151811061068657fe5b60200260200101516000196040518663ffffffff1660e01b81526004016106b1959493929190611246565b60206040518083038186803b1580156106c957600080fd5b505afa1580156106dd573d6000803e3d6000fd5b505050506040513d601f19601f82011682018060405250810190610701919061114e565b87858151811061070d57fe5b60209081029190910101525050600019909201915061060a9050565b505095945050505050565b6000806000610743858561051b565b9150915085828260405160200161075b929190611191565b60408051601f198184030181529082905280516020918201206107a3939290917fd0d4c4cd0848c93cb4fd1f498d7013ee6bfb25783ea21593d5834f5d250ece6691016111b8565b60408051601f1981840301815291905280516020909101209695505050505050565b600081602001516001600160a01b031682600001516001600160a01b0316106107ed57600080fd5b8282600001518360200151846040015160405160200161080f9392919061121e565b60408051601f19818403018152908290528051602091820120610857939290917f6ce8eb472fa82df5469c6ab6d485f17c3ad13c8cd7af59b3d4a8026c5ce0f7e291016111b8565b60408051601f1981840301815291905280516020909101209392505050565b60008084116108975760405162461bcd60e51b815260040161025e90611376565b6000831180156108a75750600082115b6108b057600080fd5b60006108c86127106108c28688610bb8565b90610bb8565b905060006108dc6126f76108c28689610bec565b90506108f360018284816108ec57fe5b0490610bdc565b9695505050505050565b6000610512856102168686866103d2565b600061091a83836107c5565b9050336001600160a01b0382161461093157600080fd5b92915050565b60008060008360021415610a1657604051632007bd0f60e11b81526000906001600160a01b0389169063400f7a1e90610976908a908a90600401611204565b60806040518083038186803b15801561098e57600080fd5b505afa1580156109a2573d6000803e3d6000fd5b505050506040513d601f19601f820116820180604052508101906109c69190610ffc565b905080602001516001600160a01b0316876001600160a01b0316146109ec5760016109ef565b60005b60ff1693508315610a01576000610a04565b60015b60ff1692508060000151915050610b88565b8360031415610b885760405163923093cb60e01b81526000906001600160a01b0389169063923093cb90610a50908a908a90600401611204565b60a06040518083038186803b158015610a6857600080fd5b505afa158015610a7c573d6000803e3d6000fd5b505050506040513d601f19601f82011682018060405250810190610aa0919061107a565b905080602001516001600160a01b0316876001600160a01b03161415610ac95760009350610b13565b80604001516001600160a01b0316876001600160a01b03161415610af05760019350610b13565b80606001516001600160a01b0316876001600160a01b03161415610b1357600293505b80602001516001600160a01b0316866001600160a01b03161415610b3a5760009250610b84565b80604001516001600160a01b0316866001600160a01b03161415610b615760019250610b84565b80606001516001600160a01b0316866001600160a01b03161415610b8457600292505b5190505b6001600160a01b038116610bae5760405162461bcd60e51b815260040161025e906112fc565b9450945094915050565b6000821580610bd357505081810281838281610bd057fe5b04145b61093157600080fd5b8082018281101561093157600080fd5b8082038281111561093157600080fd5b604080516060810182526000808252602082018190529181019190915290565b600082601f830112610c2c578081fd5b81356020610c41610c3c8361143b565b611417565b8281528181019085830183850287018401881015610c5d578586fd5b855b85811015610c84578135610c7281611459565b84529284019290840190600101610c5f565b5090979650505050505050565b80516001600160701b0381168114610ca857600080fd5b919050565b803562ffffff81168114610ca857600080fd5b60008060408385031215610cd2578182fd5b8235610cdd81611459565b91506020830135610ced81611459565b809150509250929050565b600080600060608486031215610d0c578081fd5b8335610d1781611459565b92506020840135610d2781611459565b91506040840135610d3781611459565b809150509250925092565b60008060008060808587031215610d57578081fd5b8435610d6281611459565b93506020850135610d7281611459565b92506040850135610d8281611459565b9150610d9060608601610cad565b905092959194509250565b60008060008060808587031215610db0578384fd5b8435610dbb81611459565b93506020850135610dcb81611459565b92506040850135610ddb81611459565b9396929550929360600135925050565b600080600080600060a08688031215610e02578081fd5b8535610e0d81611459565b9450602086810135610e1e81611459565b9450604087013567ffffffffffffffff80821115610e3a578384fd5b610e468a838b01610c1c565b95506060890135915080821115610e5b578384fd5b508701601f81018913610e6c578283fd5b8035610e7a610c3c8261143b565b81815283810190838501858402850186018d1015610e96578687fd5b8694505b83851015610eb8578035835260019490940193918501918501610e9a565b50989b979a509598608001359695505050505050565b600080600060608486031215610ee2578081fd5b8335610eed81611459565b92506020840135610efd81611459565b9150610f0b60408501610cad565b90509250925092565b6000808284036080811215610f27578283fd5b8335610f3281611459565b92506060601f1982011215610f45578182fd5b506040516060810181811067ffffffffffffffff82111715610f6357fe5b6040526020840135610f7481611459565b81526040840135610f8481611459565b6020820152610f9560608501610cad565b6040820152809150509250929050565b600080600060608486031215610fb9578081fd5b8335610fc481611459565b925060208401359150604084013567ffffffffffffffff811115610fe6578182fd5b610ff286828701610c1c565b9150509250925092565b60006080828403121561100d578081fd5b6040516080810181811067ffffffffffffffff8211171561102a57fe5b604052825161103881611459565b8152602083015161104881611459565b6020820152604083015161105b81611459565b6040820152606083015161106e81611459565b60608201529392505050565b600060a0828403121561108b578081fd5b60405160a0810181811067ffffffffffffffff821117156110a857fe5b60405282516110b681611459565b815260208301516110c681611459565b602082015260408301516110d981611459565b604082015260608301516110ec81611459565b606082015260808301516110ff81611459565b60808201529392505050565b60008060006060848603121561111f578081fd5b61112884610c91565b925061113660208501610c91565b9150604084015163ffffffff81168114610d37578182fd5b60006020828403121561115f578081fd5b5051919050565b60008060006060848603121561117a578081fd5b505081359360208301359350604090920135919050565b6bffffffffffffffffffffffff19606093841b811682529190921b16601482015260280190565b6001600160f81b0319815260609390931b6bffffffffffffffffffffffff191660018401526015830191909152603582015260550190565b6001600160a01b0391909116815260200190565b6001600160a01b0392831681529116602082015260400190565b6001600160a01b03938416815291909216602082015262ffffff909116604082015260600190565b6001600160a01b03959095168552602085019390935260408401919091526060830152608082015260a00190565b6020808252825182820181905260009190848201906040850190845b818110156112ac57835183529284019291840191600101611290565b50909695505050505050565b60208082526024908201527f676574537461626c65416d6f756e7473496e3a20696e636f7272656374206c656040820152630dccee8d60e31b606082015260800190565b60208082526023908201527f676574537461626c65496e666f3a20696e76616c696420706f6f6c206164647260408201526265737360e81b606082015260800190565b60208082526019908201527f494e53554646494349454e545f494e5055545f414d4f554e5400000000000000604082015260600190565b6020808252601a908201527f494e53554646494349454e545f4f55545055545f414d4f554e54000000000000604082015260600190565b81516001600160a01b0390811682526020808401519091169082015260409182015162ffffff169181019190915260600190565b90815260200190565b918252602082015260400190565b92835260208301919091526001600160a01b0316604082015260600190565b60405181810167ffffffffffffffff8111828210171561143357fe5b604052919050565b600067ffffffffffffffff82111561144f57fe5b5060209081020190565b6001600160a01b038116811461146e57600080fd5b5056fea2646970667358221220cfbe9c4c991c163e7866273eae9297ae80bba9a2905d73febec935b94e1f8f1064736f6c63430007060033","linkReferences":{}},"methodIdentifiers":{"computeAddress(address,SmartRouterHelper.PoolKey)":"70c3718e","getAmountIn(uint256,uint256,uint256)":"85f8c259","getAmountOut(uint256,uint256,uint256)":"054d50d4","getAmountsIn(address,uint256,address[])":"192128b2","getPool(address,address,address,uint24)":"4e6c8ed8","getPoolKey(address,address,uint24)":"2b6d5d8f","getReserves(address,address,address)":"32749461","getStableAmountsIn(address,address,address[],uint256[],uint256)":"5923cab3","getStableInfo(address,address,address,uint256)":"b735aecd","pairFor(address,address,address)":"6d91c0e2","sortTokens(address,address)":"544caa56","verifyCallback(address,SmartRouterHelper.PoolKey)":"a497919d","verifyCallback(address,address,address,uint24)":"8bdb1925"},"id":134}