{"abi":[{"type":"function","name":"initialize","inputs":[{"name":"baseTokenURI","type":"string","internalType":"string"}],"outputs":[],"stateMutability":"nonpayable"},{"type":"function","name":"tokenURI","inputs":[{"name":"positionManager","type":"address","internalType":"contract INonfungiblePositionManager"},{"name":"tokenId","type":"uint256","internalType":"uint256"}],"outputs":[{"name":"","type":"string","internalType":"string"}],"stateMutability":"view"}],"bytecode":{"object":"0x608060405234801561001057600080fd5b50610512806100206000396000f3fe608060405234801561001057600080fd5b50600436106100365760003560e01c8063e9dc63751461003b578063f62d188814610064575b600080fd5b61004e610049366004610327565b610079565b60405161005b919061044b565b60405180910390f35b61007761007236600461035d565b6100e1565b005b606060006001805460018160011615610100020316600290049050116100ae57604051806020016040528060008152506100da565b60016100b983610192565b6040516020016100ca9291906103ca565b6040516020818303038152906040525b9392505050565b600054610100900460ff16806100fa57506100fa61026f565b80610108575060005460ff16155b6101435760405162461bcd60e51b815260040180806020018281038252602e8152602001806104af602e913960400191505060405180910390fd5b600054610100900460ff1615801561016e576000805460ff1961ff0019909116610100171660011790555b61017a60018484610286565b50801561018d576000805461ff00191690555b505050565b6060816101b757506040805180820190915260018152600360fc1b602082015261026a565b8160005b81156101cf57600101600a820491506101bb565b60008167ffffffffffffffff811180156101e857600080fd5b506040519080825280601f01601f191660200182016040528015610213576020820181803683370190505b50859350905060001982015b831561026457600a840660300160f81b8282806001900393508151811061024257fe5b60200101906001600160f81b031916908160001a905350600a8404935061021f565b50925050505b919050565b600061027a30610280565b15905090565b3b151590565b828054600181600116156101000203166002900490600052602060002090601f0160209004810192826102bc5760008555610302565b82601f106102d55782800160ff19823516178555610302565b82800160010185558215610302579182015b828111156103025782358255916020019190600101906102e7565b5061030e929150610312565b5090565b5b8082111561030e5760008155600101610313565b60008060408385031215610339578182fd5b82356001600160a01b038116811461034f578283fd5b946020939093013593505050565b6000806020838503121561036f578182fd5b823567ffffffffffffffff80821115610386578384fd5b818501915085601f830112610399578384fd5b8135818111156103a7578485fd5b8660208285010111156103b8578485fd5b60209290920196919550909350505050565b60008084546001808216600081146103e957600181146104005761042f565b60ff198316865260028304607f168601935061042f565b600283048886526020808720875b838110156104275781548a82015290850190820161040e565b505050860193505b505050835161044281836020880161047e565b01949350505050565b600060208252825180602084015261046a81604085016020870161047e565b601f01601f19169190910160400192915050565b60005b83811015610499578181015183820152602001610481565b838111156104a8576000848401525b5050505056fe496e697469616c697a61626c653a20636f6e747261637420697320616c726561647920696e697469616c697a6564a2646970667358221220af8398874798fae6ea57085bda87a6b9b49f942076b4056320665dc077f085d564736f6c63430007060033","linkReferences":{}},"methodIdentifiers":{"initialize(string)":"f62d1888","tokenURI(address,uint256)":"e9dc6375"},"id":111}