{"abi":[{"type":"function","name":"flash","inputs":[{"name":"pool","type":"address","internalType":"address"},{"name":"recipient","type":"address","internalType":"address"},{"name":"amount0","type":"uint256","internalType":"uint256"},{"name":"amount1","type":"uint256","internalType":"uint256"},{"name":"pay0","type":"uint256","internalType":"uint256"},{"name":"pay1","type":"uint256","internalType":"uint256"}],"outputs":[],"stateMutability":"nonpayable"},{"type":"function","name":"mint","inputs":[{"name":"pool","type":"address","internalType":"address"},{"name":"recipient","type":"address","internalType":"address"},{"name":"tickLower","type":"int24","internalType":"int24"},{"name":"tickUpper","type":"int24","internalType":"int24"},{"name":"amount","type":"uint128","internalType":"uint128"}],"outputs":[],"stateMutability":"nonpayable"},{"type":"function","name":"pancakeV3FlashCallback","inputs":[{"name":"fee0","type":"uint256","internalType":"uint256"},{"name":"fee1","type":"uint256","internalType":"uint256"},{"name":"data","type":"bytes","internalType":"bytes"}],"outputs":[],"stateMutability":"nonpayable"},{"type":"function","name":"pancakeV3MintCallback","inputs":[{"name":"amount0Owed","type":"uint256","internalType":"uint256"},{"name":"amount1Owed","type":"uint256","internalType":"uint256"},{"name":"data","type":"bytes","internalType":"bytes"}],"outputs":[],"stateMutability":"nonpayable"},{"type":"function","name":"pancakeV3SwapCallback","inputs":[{"name":"amount0Delta","type":"int256","internalType":"int256"},{"name":"amount1Delta","type":"int256","internalType":"int256"},{"name":"data","type":"bytes","internalType":"bytes"}],"outputs":[],"stateMutability":"nonpayable"},{"type":"function","name":"swap0ForExact1","inputs":[{"name":"pool","type":"address","internalType":"address"},{"name":"amount1Out","type":"uint256","internalType":"uint256"},{"name":"recipient","type":"address","internalType":"address"},{"name":"sqrtPriceLimitX96","type":"uint160","internalType":"uint160"}],"outputs":[],"stateMutability":"nonpayable"},{"type":"function","name":"swap1ForExact0","inputs":[{"name":"pool","type":"address","internalType":"address"},{"name":"amount0Out","type":"uint256","internalType":"uint256"},{"name":"recipient","type":"address","internalType":"address"},{"name":"sqrtPriceLimitX96","type":"uint160","internalType":"uint160"}],"outputs":[],"stateMutability":"nonpayable"},{"type":"function","name":"swapExact0For1","inputs":[{"name":"pool","type":"address","internalType":"address"},{"name":"amount0In","type":"uint256","internalType":"uint256"},{"name":"recipient","type":"address","internalType":"address"},{"name":"sqrtPriceLimitX96","type":"uint160","internalType":"uint160"}],"outputs":[],"stateMutability":"nonpayable"},{"type":"function","name":"swapExact1For0","inputs":[{"name":"pool","type":"address","internalType":"address"},{"name":"amount1In","type":"uint256","internalType":"uint256"},{"name":"recipient","type":"address","internalType":"address"},{"name":"sqrtPriceLimitX96","type":"uint160","internalType":"uint160"}],"outputs":[],"stateMutability":"nonpayable"},{"type":"function","name":"swapToHigherSqrtPrice","inputs":[{"name":"pool","type":"address","internalType":"address"},{"name":"sqrtPriceX96","type":"uint160","internalType":"uint160"},{"name":"recipient","type":"address","internalType":"address"}],"outputs":[],"stateMutability":"nonpayable"},{"type":"function","name":"swapToLowerSqrtPrice","inputs":[{"name":"pool","type":"address","internalType":"address"},{"name":"sqrtPriceX96","type":"uint160","internalType":"uint160"},{"name":"recipient","type":"address","internalType":"address"}],"outputs":[],"stateMutability":"nonpayable"},{"type":"event","name":"FlashCallback","inputs":[{"name":"fee0","type":"uint256","indexed":false,"internalType":"uint256"},{"name":"fee1","type":"uint256","indexed":false,"internalType":"uint256"}],"anonymous":false},{"type":"event","name":"MintCallback","inputs":[{"name":"amount0Owed","type":"uint256","indexed":false,"internalType":"uint256"},{"name":"amount1Owed","type":"uint256","indexed":false,"internalType":"uint256"}],"anonymous":false},{"type":"event","name":"SwapCallback","inputs":[{"name":"amount0Delta","type":"int256","indexed":false,"internalType":"int256"},{"name":"amount1Delta","type":"int256","indexed":false,"internalType":"int256"}],"anonymous":false}],"bytecode":{"object":"0x608060405234801561001057600080fd5b506111a9806100206000396000f3fe608060405234801561001057600080fd5b50600436106100a95760003560e01c806399eee9d01161007157806399eee9d01461023c5780639e77b805146102b8578063a1d48336146102f0578063bac7bf781461036c578063e2be9109146103a8578063f603482c146103e4576100a9565b8063034b0f8f146100ae57806323a69e75146100f85780632ec20bf9146101745780636dfc0ddb146101ac5780637b4f5327146101e8575b600080fd5b6100f6600480360360c08110156100c457600080fd5b506001600160a01b03813581169160208101359091169060408101359060608101359060808101359060a00135610420565b005b6100f66004803603606081101561010e57600080fd5b81359160208101359181019060608101604082013564010000000081111561013557600080fd5b82018360208201111561014757600080fd5b8035906020019184600183028401116401000000008311171561016957600080fd5b509092509050610541565b6100f66004803603606081101561018a57600080fd5b506001600160a01b038135811691602081013582169160409091013516610775565b6100f6600480360360808110156101c257600080fd5b506001600160a01b038135811691602081013591604082013581169160600135166108aa565b6100f6600480360360a08110156101fe57600080fd5b5080356001600160a01b03908116916020810135909116906040810135600290810b91606081013590910b90608001356001600160801b03166109e8565b6100f66004803603606081101561025257600080fd5b81359160208101359181019060608101604082013564010000000081111561027957600080fd5b82018360208201111561028b57600080fd5b803590602001918460018302840111640100000000831117156102ad57600080fd5b509092509050610b22565b6100f6600480360360608110156102ce57600080fd5b506001600160a01b038135811691602081013582169160409091013516610d5c565b6100f66004803603606081101561030657600080fd5b81359160208101359181019060608101604082013564010000000081111561032d57600080fd5b82018360208201111561033f57600080fd5b8035906020019184600183028401116401000000008311171561036157600080fd5b509092509050610e17565b6100f66004803603608081101561038257600080fd5b506001600160a01b0381358116916020810135916040820135811691606001351661106c565b6100f6600480360360808110156103be57600080fd5b506001600160a01b0381358116916020810135916040820135811691606001351661112b565b6100f6600480360360808110156103fa57600080fd5b506001600160a01b03813581169160208101359160408201358116916060013516611146565b856001600160a01b031663490e6cbc86868633878760405160200180846001600160a01b0316815260200183815260200182815260200193505050506040516020818303038152906040526040518563ffffffff1660e01b815260040180856001600160a01b0316815260200184815260200183815260200180602001828103825283818151815260200191508051906020019080838360005b838110156104d25781810151838201526020016104ba565b50505050905090810190601f1680156104ff5780820380516001836020036101000a031916815260200191505b5095505050505050600060405180830381600087803b15801561052157600080fd5b505af1158015610535573d6000803e3d6000fd5b50505050505050505050565b60008282602081101561055357600080fd5b506040805187815260208101879052815192356001600160a01b031693507fd48241df4a75e663b29e55f9506b31f77ed0f48cfe7e7612d1163144995dc1ca929081900390910190a1600085131561069557336001600160a01b0316630dfe16816040518163ffffffff1660e01b815260040160206040518083038186803b1580156105de57600080fd5b505afa1580156105f2573d6000803e3d6000fd5b505050506040513d602081101561060857600080fd5b5051604080516323b872dd60e01b81526001600160a01b03848116600483015233602483015260448201899052915191909216916323b872dd9160648083019260209291908290030181600087803b15801561066357600080fd5b505af1158015610677573d6000803e3d6000fd5b505050506040513d602081101561068d57600080fd5b5061076e9050565b600084131561075c57336001600160a01b031663d21220a76040518163ffffffff1660e01b815260040160206040518083038186803b1580156106d757600080fd5b505afa1580156106eb573d6000803e3d6000fd5b505050506040513d602081101561070157600080fd5b5051604080516323b872dd60e01b81526001600160a01b03848116600483015233602483015260448201889052915191909216916323b872dd9160648083019260209291908290030181600087803b15801561066357600080fd5b84158015610768575083155b61076e57fe5b5050505050565b826001600160a01b031663128acb088260016001600160ff1b03863360405160200180826001600160a01b031681526020019150506040516020818303038152906040526040518663ffffffff1660e01b815260040180866001600160a01b031681526020018515158152602001848152602001836001600160a01b0316815260200180602001828103825283818151815260200191508051906020019080838360005b83811015610831578181015183820152602001610819565b50505050905090810190601f16801561085e5780820380516001836020036101000a031916815260200191505b5096505050505050506040805180830381600087803b15801561088057600080fd5b505af1158015610894573d6000803e3d6000fd5b505050506040513d604081101561076e57600080fd5b836001600160a01b031663128acb088360016108c58761115d565b853360405160200180826001600160a01b031681526020019150506040516020818303038152906040526040518663ffffffff1660e01b815260040180866001600160a01b031681526020018515158152602001848152602001836001600160a01b0316815260200180602001828103825283818151815260200191508051906020019080838360005b8381101561096757818101518382015260200161094f565b50505050905090810190601f1680156109945780820380516001836020036101000a031916815260200191505b5096505050505050506040805180830381600087803b1580156109b657600080fd5b505af11580156109ca573d6000803e3d6000fd5b505050506040513d60408110156109e057600080fd5b505050505050565b846001600160a01b0316633c8a7d8d858585853360405160200180826001600160a01b031681526020019150506040516020818303038152906040526040518663ffffffff1660e01b815260040180866001600160a01b031681526020018560020b81526020018460020b8152602001836001600160801b0316815260200180602001828103825283818151815260200191508051906020019080838360005b83811015610aa0578181015183820152602001610a88565b50505050905090810190601f168015610acd5780820380516001836020036101000a031916815260200191505b5096505050505050506040805180830381600087803b158015610aef57600080fd5b505af1158015610b03573d6000803e3d6000fd5b505050506040513d6040811015610b1957600080fd5b50505050505050565b600082826020811015610b3457600080fd5b506040805187815260208101879052815192356001600160a01b031693507fa0968be00566083701c9ef671c169d7fb05ac8907de4ca17185de74ccbb694d4929081900390910190a18415610c6e57336001600160a01b0316630dfe16816040518163ffffffff1660e01b815260040160206040518083038186803b158015610bbc57600080fd5b505afa158015610bd0573d6000803e3d6000fd5b505050506040513d6020811015610be657600080fd5b5051604080516323b872dd60e01b81526001600160a01b03848116600483015233602483015260448201899052915191909216916323b872dd9160648083019260209291908290030181600087803b158015610c4157600080fd5b505af1158015610c55573d6000803e3d6000fd5b505050506040513d6020811015610c6b57600080fd5b50505b831561076e57336001600160a01b031663d21220a76040518163ffffffff1660e01b815260040160206040518083038186803b158015610cad57600080fd5b505afa158015610cc1573d6000803e3d6000fd5b505050506040513d6020811015610cd757600080fd5b5051604080516323b872dd60e01b81526001600160a01b03848116600483015233602483015260448201889052915191909216916323b872dd9160648083019260209291908290030181600087803b158015610d3257600080fd5b505af1158015610d46573d6000803e3d6000fd5b505050506040513d6020811015610b1957600080fd5b826001600160a01b031663128acb088260006001600160ff1b03863360405160200180826001600160a01b031681526020019150506040516020818303038152906040526040518663ffffffff1660e01b815260040180866001600160a01b031681526020018515158152602001848152602001836001600160a01b03168152602001806020018281038252838181518152602001915080519060200190808383600083811015610831578181015183820152602001610819565b604080518581526020810185905281517f2b0391b4fa408cfe47abd1977d72985695b2e5ebd3175f55be25f2c68c5df21b929181900390910190a1600080600084846060811015610e6757600080fd5b506001600160a01b038135169350602081013592506040013590508115610f7357336001600160a01b0316630dfe16816040518163ffffffff1660e01b815260040160206040518083038186803b158015610ec157600080fd5b505afa158015610ed5573d6000803e3d6000fd5b505050506040513d6020811015610eeb57600080fd5b5051604080516323b872dd60e01b81526001600160a01b03868116600483015233602483015260448201869052915191909216916323b872dd9160648083019260209291908290030181600087803b158015610f4657600080fd5b505af1158015610f5a573d6000803e3d6000fd5b505050506040513d6020811015610f7057600080fd5b50505b8015610b1957336001600160a01b031663d21220a76040518163ffffffff1660e01b815260040160206040518083038186803b158015610fb257600080fd5b505afa158015610fc6573d6000803e3d6000fd5b505050506040513d6020811015610fdc57600080fd5b5051604080516323b872dd60e01b81526001600160a01b03868116600483015233602483015260448201859052915191909216916323b872dd9160648083019260209291908290030181600087803b15801561103757600080fd5b505af115801561104b573d6000803e3d6000fd5b505050506040513d602081101561106157600080fd5b505050505050505050565b836001600160a01b031663128acb088360016110878761115d565b600003853360405160200180826001600160a01b031681526020019150506040516020818303038152906040526040518663ffffffff1660e01b815260040180866001600160a01b031681526020018515158152602001848152602001836001600160a01b0316815260200180602001828103825283818151815260200191508051906020019080838360008381101561096757818101518382015260200161094f565b836001600160a01b031663128acb088360006108c58761115d565b836001600160a01b031663128acb08836000611087875b6000600160ff1b821061116f57600080fd5b509056fea264697066735822122001f1c102c2ef74772b0a12d6c9930eb2a4e32b313aa81b082b85606b694a92f364736f6c63430007060033","linkReferences":{}},"methodIdentifiers":{"flash(address,address,uint256,uint256,uint256,uint256)":"034b0f8f","mint(address,address,int24,int24,uint128)":"7b4f5327","pancakeV3FlashCallback(uint256,uint256,bytes)":"a1d48336","pancakeV3MintCallback(uint256,uint256,bytes)":"99eee9d0","pancakeV3SwapCallback(int256,int256,bytes)":"23a69e75","swap0ForExact1(address,uint256,address,uint160)":"bac7bf78","swap1ForExact0(address,uint256,address,uint160)":"f603482c","swapExact0For1(address,uint256,address,uint160)":"6dfc0ddb","swapExact1For0(address,uint256,address,uint160)":"e2be9109","swapToHigherSqrtPrice(address,uint160,address)":"9e77b805","swapToLowerSqrtPrice(address,uint160,address)":"2ec20bf9"},"id":187}