{"abi":[{"type":"constructor","inputs":[{"name":"_deployer","type":"address","internalType":"address"},{"name":"_factory","type":"address","internalType":"address"},{"name":"_WETH9","type":"address","internalType":"address"}],"stateMutability":"payable"},{"type":"receive","stateMutability":"payable"},{"type":"function","name":"WETH9","inputs":[],"outputs":[{"name":"","type":"address","internalType":"address"}],"stateMutability":"view"},{"type":"function","name":"deployer","inputs":[],"outputs":[{"name":"","type":"address","internalType":"address"}],"stateMutability":"view"},{"type":"function","name":"exactInput","inputs":[{"name":"params","type":"tuple","internalType":"struct ISwapRouter.ExactInputParams","components":[{"name":"path","type":"bytes","internalType":"bytes"},{"name":"recipient","type":"address","internalType":"address"},{"name":"deadline","type":"uint256","internalType":"uint256"},{"name":"amountIn","type":"uint256","internalType":"uint256"},{"name":"amountOutMinimum","type":"uint256","internalType":"uint256"}]}],"outputs":[{"name":"amountOut","type":"uint256","internalType":"uint256"}],"stateMutability":"payable"},{"type":"function","name":"exactInputSingle","inputs":[{"name":"params","type":"tuple","internalType":"struct ISwapRouter.ExactInputSingleParams","components":[{"name":"tokenIn","type":"address","internalType":"address"},{"name":"tokenOut","type":"address","internalType":"address"},{"name":"fee","type":"uint24","internalType":"uint24"},{"name":"recipient","type":"address","internalType":"address"},{"name":"deadline","type":"uint256","internalType":"uint256"},{"name":"amountIn","type":"uint256","internalType":"uint256"},{"name":"amountOutMinimum","type":"uint256","internalType":"uint256"},{"name":"sqrtPriceLimitX96","type":"uint160","internalType":"uint160"}]}],"outputs":[{"name":"amountOut","type":"uint256","internalType":"uint256"}],"stateMutability":"payable"},{"type":"function","name":"exactOutput","inputs":[{"name":"params","type":"tuple","internalType":"struct ISwapRouter.ExactOutputParams","components":[{"name":"path","type":"bytes","internalType":"bytes"},{"name":"recipient","type":"address","internalType":"address"},{"name":"deadline","type":"uint256","internalType":"uint256"},{"name":"amountOut","type":"uint256","internalType":"uint256"},{"name":"amountInMaximum","type":"uint256","internalType":"uint256"}]}],"outputs":[{"name":"amountIn","type":"uint256","internalType":"uint256"}],"stateMutability":"payable"},{"type":"function","name":"exactOutputSingle","inputs":[{"name":"params","type":"tuple","internalType":"struct ISwapRouter.ExactOutputSingleParams","components":[{"name":"tokenIn","type":"address","internalType":"address"},{"name":"tokenOut","type":"address","internalType":"address"},{"name":"fee","type":"uint24","internalType":"uint24"},{"name":"recipient","type":"address","internalType":"address"},{"name":"deadline","type":"uint256","internalType":"uint256"},{"name":"amountOut","type":"uint256","internalType":"uint256"},{"name":"amountInMaximum","type":"uint256","internalType":"uint256"},{"name":"sqrtPriceLimitX96","type":"uint160","internalType":"uint160"}]}],"outputs":[{"name":"amountIn","type":"uint256","internalType":"uint256"}],"stateMutability":"payable"},{"type":"function","name":"factory","inputs":[],"outputs":[{"name":"","type":"address","internalType":"address"}],"stateMutability":"view"},{"type":"function","name":"multicall","inputs":[{"name":"data","type":"bytes[]","internalType":"bytes[]"}],"outputs":[{"name":"results","type":"bytes[]","internalType":"bytes[]"}],"stateMutability":"payable"},{"type":"function","name":"pancakeV3SwapCallback","inputs":[{"name":"amount0Delta","type":"int256","internalType":"int256"},{"name":"amount1Delta","type":"int256","internalType":"int256"},{"name":"_data","type":"bytes","internalType":"bytes"}],"outputs":[],"stateMutability":"nonpayable"},{"type":"function","name":"refundETH","inputs":[],"outputs":[],"stateMutability":"payable"},{"type":"function","name":"selfPermit","inputs":[{"name":"token","type":"address","internalType":"address"},{"name":"value","type":"uint256","internalType":"uint256"},{"name":"deadline","type":"uint256","internalType":"uint256"},{"name":"v","type":"uint8","internalType":"uint8"},{"name":"r","type":"bytes32","internalType":"bytes32"},{"name":"s","type":"bytes32","internalType":"bytes32"}],"outputs":[],"stateMutability":"payable"},{"type":"function","name":"selfPermitAllowed","inputs":[{"name":"token","type":"address","internalType":"address"},{"name":"nonce","type":"uint256","internalType":"uint256"},{"name":"expiry","type":"uint256","internalType":"uint256"},{"name":"v","type":"uint8","internalType":"uint8"},{"name":"r","type":"bytes32","internalType":"bytes32"},{"name":"s","type":"bytes32","internalType":"bytes32"}],"outputs":[],"stateMutability":"payable"},{"type":"function","name":"selfPermitAllowedIfNecessary","inputs":[{"name":"token","type":"address","internalType":"address"},{"name":"nonce","type":"uint256","internalType":"uint256"},{"name":"expiry","type":"uint256","internalType":"uint256"},{"name":"v","type":"uint8","internalType":"uint8"},{"name":"r","type":"bytes32","internalType":"bytes32"},{"name":"s","type":"bytes32","internalType":"bytes32"}],"outputs":[],"stateMutability":"payable"},{"type":"function","name":"selfPermitIfNecessary","inputs":[{"name":"token","type":"address","internalType":"address"},{"name":"value","type":"uint256","internalType":"uint256"},{"name":"deadline","type":"uint256","internalType":"uint256"},{"name":"v","type":"uint8","internalType":"uint8"},{"name":"r","type":"bytes32","internalType":"bytes32"},{"name":"s","type":"bytes32","internalType":"bytes32"}],"outputs":[],"stateMutability":"payable"},{"type":"function","name":"sweepToken","inputs":[{"name":"token","type":"address","internalType":"address"},{"name":"amountMinimum","type":"uint256","internalType":"uint256"},{"name":"recipient","type":"address","internalType":"address"}],"outputs":[],"stateMutability":"payable"},{"type":"function","name":"sweepTokenWithFee","inputs":[{"name":"token","type":"address","internalType":"address"},{"name":"amountMinimum","type":"uint256","internalType":"uint256"},{"name":"recipient","type":"address","internalType":"address"},{"name":"feeBips","type":"uint256","internalType":"uint256"},{"name":"feeRecipient","type":"address","internalType":"address"}],"outputs":[],"stateMutability":"payable"},{"type":"function","name":"unwrapWETH9","inputs":[{"name":"amountMinimum","type":"uint256","internalType":"uint256"},{"name":"recipient","type":"address","internalType":"address"}],"outputs":[],"stateMutability":"payable"},{"type":"function","name":"unwrapWETH9WithFee","inputs":[{"name":"amountMinimum","type":"uint256","internalType":"uint256"},{"name":"recipient","type":"address","internalType":"address"},{"name":"feeBips","type":"uint256","internalType":"uint256"},{"name":"feeRecipient","type":"address","internalType":"address"}],"outputs":[],"stateMutability":"payable"}],"bytecode":{"object":"0x60e06040526000196000556040516200276c3803806200276c8339810160408190526200002c9162000071565b6001600160601b0319606093841b811660805291831b821660a05290911b1660c052620000ba565b80516001600160a01b03811681146200006c57600080fd5b919050565b60008060006060848603121562000086578283fd5b620000918462000054565b9250620000a16020850162000054565b9150620000b16040850162000054565b90509250925092565b60805160601c60a05160601c60c05160601c61264a620001226000398061011d528061059f528061066352806106db528061073152806107f552806110d5528061111b52806111a1525080610bf852508061034f5280610c1c5280611972525061264a6000f3fe60806040526004361061010d5760003560e01c8063c04b8d5911610095578063db3e219811610064578063db3e219814610299578063df2ab5bb146102ac578063e0e189a0146102bf578063f28c0498146102d2578063f3995c67146102e557610165565b8063c04b8d5914610249578063c2e3140a1461025c578063c45a01551461026f578063d5f394881461028457610165565b806349404b7c116100dc57806349404b7c146101ce5780634aa4a4fc146101e15780639b2c0a3714610203578063a4a78f0c14610216578063ac9650d81461022957610165565b806312210e8a1461016a57806323a69e7514610172578063414bf389146101925780634659a494146101bb57610165565b3661016557336001600160a01b037f000000000000000000000000000000000000000000000000000000000000000016146101635760405162461bcd60e51b815260040161015a906123ac565b60405180910390fd5b005b600080fd5b6101636102f8565b34801561017e57600080fd5b5061016361018d366004611cd2565b61030a565b6101a56101a0366004611e62565b610429565b6040516101b29190612535565b60405180910390f35b6101636101c9366004611bc0565b61051c565b6101636101dc366004611f81565b610585565b3480156101ed57600080fd5b506101f66106d9565b6040516101b291906120c4565b610163610211366004611fb0565b6106fd565b610163610224366004611bc0565b6108a3565b61023c610237366004611c20565b610939565b6040516101b29190612227565b6101a5610257366004611db7565b610a79565b61016361026a366004611bc0565b610b62565b34801561027b57600080fd5b506101f6610bf6565b34801561029057600080fd5b506101f6610c1a565b6101a56102a7366004611e62565b610c3e565b6101636102ba366004611b21565b610d3a565b6101636102cd366004611b62565b610df2565b6101a56102e0366004611e7e565b610ef3565b6101636102f3366004611bc0565b610fbe565b4715610308576103083347610ff6565b565b60008413806103195750600083135b61032257600080fd5b600061033082840184611eb6565b905060008060006103448460000151611083565b9250925092506103767f00000000000000000000000000000000000000000000000000000000000000008484846110b4565b5060008060008a1361039d57846001600160a01b0316846001600160a01b031610896103b4565b836001600160a01b0316856001600160a01b0316108a5b9150915081156103d3576103ce85876020015133846110d3565b61041d565b85516103de90611260565b156104035785516103ee9061126c565b86526103fd8133600089611289565b5061041d565b8060008190555083945061041d85876020015133846110d3565b50505050505050505050565b6000816080013580610439611404565b11156104575760405162461bcd60e51b815260040161015a90612447565b6104f060a084013561046f6080860160608701611afe565b610480610100870160e08801611afe565b604080518082019091528061049860208a018a611afe565b6104a860608b0160408c01611f46565b6104b860408c0160208d01611afe565b6040516020016104ca93929190612025565b6040516020818303038152906040528152602001336001600160a01b0316815250611408565b91508260c001358210156105165760405162461bcd60e51b815260040161015a9061249f565b50919050565b6040516323f2ebc360e21b81526001600160a01b03871690638fcbaf0c9061055790339030908a908a906001908b908b908b906004016120f2565b600060405180830381600087803b15801561057157600080fd5b505af115801561041d573d6000803e3d6000fd5b6040516370a0823160e01b81526000906001600160a01b037f000000000000000000000000000000000000000000000000000000000000000016906370a08231906105d49030906004016120c4565b60206040518083038186803b1580156105ec57600080fd5b505afa158015610600573d6000803e3d6000fd5b505050506040513d601f19601f820116820180604052508101906106249190611f69565b9050828110156106465760405162461bcd60e51b815260040161015a9061229a565b80156106d457604051632e1a7d4d60e01b81526001600160a01b037f00000000000000000000000000000000000000000000000000000000000000001690632e1a7d4d90610698908490600401612535565b600060405180830381600087803b1580156106b257600080fd5b505af11580156106c6573d6000803e3d6000fd5b505050506106d48282610ff6565b505050565b7f000000000000000000000000000000000000000000000000000000000000000081565b60008211801561070e575060648211155b61071757600080fd5b6040516370a0823160e01b81526000906001600160a01b037f000000000000000000000000000000000000000000000000000000000000000016906370a08231906107669030906004016120c4565b60206040518083038186803b15801561077e57600080fd5b505afa158015610792573d6000803e3d6000fd5b505050506040513d601f19601f820116820180604052508101906107b69190611f69565b9050848110156107d85760405162461bcd60e51b815260040161015a9061229a565b801561089c57604051632e1a7d4d60e01b81526001600160a01b037f00000000000000000000000000000000000000000000000000000000000000001690632e1a7d4d9061082a908490600401612535565b600060405180830381600087803b15801561084457600080fd5b505af1158015610858573d6000803e3d6000fd5b505050506000612710610874858461155a90919063ffffffff16565b8161087b57fe5b049050801561088e5761088e8382610ff6565b61089a85828403610ff6565b505b5050505050565b604051636eb1769f60e11b8152600019906001600160a01b0388169063dd62ed3e906108d590339030906004016120d8565b60206040518083038186803b1580156108ed57600080fd5b505afa158015610901573d6000803e3d6000fd5b505050506040513d601f19601f820116820180604052508101906109259190611f69565b101561089a5761089a86868686868661051c565b60608167ffffffffffffffff8111801561095257600080fd5b5060405190808252806020026020018201604052801561098657816020015b60608152602001906001900390816109715790505b50905060005b82811015610a7257600080308686858181106109a457fe5b90506020028101906109b6919061253e565b6040516109c4929190612060565b600060405180830381855af49150503d80600081146109ff576040519150601f19603f3d011682016040523d82523d6000602084013e610a04565b606091505b509150915081610a5057604481511015610a1d57600080fd5b60048101905080806020019051810190610a379190611d4d565b60405162461bcd60e51b815260040161015a9190612287565b80848481518110610a5d57fe5b6020908102919091010152505060010161098c565b5092915050565b6000816040015180610a89611404565b1115610aa75760405162461bcd60e51b815260040161015a90612447565b335b6000610ab88560000151611260565b9050610b04856060015182610ad1578660200151610ad3565b305b60006040518060400160405280610aed8b6000015161157e565b8152602001876001600160a01b0316815250611408565b60608601528015610b24578451309250610b1d9061126c565b8552610b31565b8460600151935050610b37565b50610aa9565b8360800151831015610b5b5760405162461bcd60e51b815260040161015a9061249f565b5050919050565b604051636eb1769f60e11b815285906001600160a01b0388169063dd62ed3e90610b9290339030906004016120d8565b60206040518083038186803b158015610baa57600080fd5b505afa158015610bbe573d6000803e3d6000fd5b505050506040513d601f19601f82011682018060405250810190610be29190611f69565b101561089a5761089a868686868686610fbe565b7f000000000000000000000000000000000000000000000000000000000000000081565b7f000000000000000000000000000000000000000000000000000000000000000081565b6000816080013580610c4e611404565b1115610c6c5760405162461bcd60e51b815260040161015a90612447565b610d0860a0840135610c846080860160608701611afe565b610c95610100870160e08801611afe565b6040518060400160405280886020016020810190610cb39190611afe565b610cc360608b0160408c01611f46565b610cd060208c018c611afe565b604051602001610ce293929190612025565b6040516020818303038152906040528152602001336001600160a01b0316815250611289565b91508260c00135821115610d2e5760405162461bcd60e51b815260040161015a9061241b565b50600019600055919050565b6040516370a0823160e01b81526000906001600160a01b038516906370a0823190610d699030906004016120c4565b60206040518083038186803b158015610d8157600080fd5b505afa158015610d95573d6000803e3d6000fd5b505050506040513d601f19601f82011682018060405250810190610db99190611f69565b905082811015610ddb5760405162461bcd60e51b815260040161015a906122c6565b8015610dec57610dec84838361158d565b50505050565b600082118015610e03575060648211155b610e0c57600080fd5b6040516370a0823160e01b81526000906001600160a01b038716906370a0823190610e3b9030906004016120c4565b60206040518083038186803b158015610e5357600080fd5b505afa158015610e67573d6000803e3d6000fd5b505050506040513d601f19601f82011682018060405250810190610e8b9190611f69565b905084811015610ead5760405162461bcd60e51b815260040161015a906122c6565b801561089a576000612710610ec2838661155a565b81610ec957fe5b0490508015610edd57610edd87848361158d565b610eea878683850361158d565b50505050505050565b6000816040013580610f03611404565b1115610f215760405162461bcd60e51b815260040161015a90612447565b610f946060840135610f396040860160208701611afe565b6040805180820190915260009080610f51898061253e565b8080601f01602080910402602001604051908101604052809392919081815260200183838082843760009201919091525050509082525033602090910152611289565b5060005491508260800135821115610d2e5760405162461bcd60e51b815260040161015a9061241b565b60405163d505accf60e01b81526001600160a01b0387169063d505accf9061055790339030908a908a908a908a908a9060040161213b565b604080516000808252602082019092526001600160a01b0384169083906040516110209190612070565b60006040518083038185875af1925050503d806000811461105d576040519150601f19603f3d011682016040523d82523d6000602084013e611062565b606091505b50509050806106d45760405162461bcd60e51b815260040161015a9061231d565b60008080611091848261167b565b925061109e8460146116d4565b90506110ab84601761167b565b91509193909250565b60006110ca856110c5868686611726565b61177c565b95945050505050565b7f00000000000000000000000000000000000000000000000000000000000000006001600160a01b0316846001600160a01b03161480156111145750804710155b15611233577f00000000000000000000000000000000000000000000000000000000000000006001600160a01b031663d0e30db0826040518263ffffffff1660e01b81526004016000604051808303818588803b15801561117457600080fd5b505af1158015611188573d6000803e3d6000fd5b505060405163a9059cbb60e01b81526001600160a01b037f000000000000000000000000000000000000000000000000000000000000000016935063a9059cbb92506111db91508590859060040161220e565b602060405180830381600087803b1580156111f557600080fd5b505af1158015611209573d6000803e3d6000fd5b505050506040513d601f19601f8201168201806040525081019061122d9190611c8f565b50610dec565b6001600160a01b0383163014156112545761124f84838361158d565b610dec565b610dec8484848461179f565b8051604211155b919050565b80516060906112839083906017906016190161188f565b92915050565b60006001600160a01b03841661129d573093505b60008060006112af8560000151611083565b919450925090506001600160a01b03808416908316106000806112d385878661196b565b6001600160a01b031663128acb088b856112ec8f6119a9565b6000036001600160a01b038e1615611304578d61132a565b876113235773fffd8963efd1fc6a506488495d951d5263988d2561132a565b6401000276a45b8d60405160200161133b91906124f8565b6040516020818303038152906040526040518663ffffffff1660e01b815260040161136a9594939291906121c8565b6040805180830381600087803b15801561138357600080fd5b505af1158015611397573d6000803e3d6000fd5b505050506040513d601f19601f820116820180604052508101906113bb9190611caf565b915091506000836113d05781836000036113d6565b82826000035b90985090506001600160a01b038a166113f5578b81146113f557600080fd5b50505050505050949350505050565b4290565b60006001600160a01b03841661141c573093505b600080600061142e8560000151611083565b919450925090506001600160a01b038083169084161060008061145286868661196b565b6001600160a01b031663128acb088b8561146b8f6119a9565b6001600160a01b038e1615611480578d6114a6565b8761149f5773fffd8963efd1fc6a506488495d951d5263988d256114a6565b6401000276a45b8d6040516020016114b791906124f8565b6040516020818303038152906040526040518663ffffffff1660e01b81526004016114e69594939291906121c8565b6040805180830381600087803b1580156114ff57600080fd5b505af1158015611513573d6000803e3d6000fd5b505050506040513d601f19601f820116820180604052508101906115379190611caf565b91509150826115465781611548565b805b6000039b9a5050505050505050505050565b60008215806115755750508181028183828161157257fe5b04145b61128357600080fd5b6060611283826000602b61188f565b600080846001600160a01b031663a9059cbb60e01b85856040516024016115b592919061220e565b60408051601f198184030181529181526020820180516001600160e01b03166001600160e01b03199094169390931790925290516115f39190612070565b6000604051808303816000865af19150503d8060008114611630576040519150601f19603f3d011682016040523d82523d6000602084013e611635565b606091505b509150915081801561165f57508051158061165f57508080602001905181019061165f9190611c8f565b61089c5760405162461bcd60e51b815260040161015a90612362565b6000818260140110156116a05760405162461bcd60e51b815260040161015a906124cc565b81601401835110156116c45760405162461bcd60e51b815260040161015a906123cf565b500160200151600160601b900490565b6000818260030110156116f95760405162461bcd60e51b815260040161015a906122f2565b816003018351101561171d5760405162461bcd60e51b815260040161015a9061237e565b50016003015190565b61172e611a70565b826001600160a01b0316846001600160a01b0316111561174c579192915b50604080516060810182526001600160a01b03948516815292909316602083015262ffffff169181019190915290565b600061178883836119bf565b9050336001600160a01b0382161461128357600080fd5b600080856001600160a01b03166323b872dd60e01b8686866040516024016117c9939291906121a4565b60408051601f198184030181529181526020820180516001600160e01b03166001600160e01b03199094169390931790925290516118079190612070565b6000604051808303816000865af19150503d8060008114611844576040519150601f19603f3d011682016040523d82523d6000602084013e611849565b606091505b50915091508180156118735750805115806118735750808060200190518101906118739190611c8f565b61089a5760405162461bcd60e51b815260040161015a906123fe565b60608182601f0110156118b45760405162461bcd60e51b815260040161015a9061233a565b8282840110156118d65760405162461bcd60e51b815260040161015a9061233a565b818301845110156118f95760405162461bcd60e51b815260040161015a90612474565b6060821580156119185760405191506000825260208201604052611962565b6040519150601f8416801560200281840101858101878315602002848b0101015b81831015611951578051835260209283019201611939565b5050858452601f01601f1916604052505b50949350505050565b60006119a17f000000000000000000000000000000000000000000000000000000000000000061199c868686611726565b6119bf565b949350505050565b6000600160ff1b82106119bb57600080fd5b5090565b600081602001516001600160a01b031682600001516001600160a01b0316106119e757600080fd5b82826000015183602001518460400151604051602001611a099392919061217c565b60408051601f19818403018152908290528051602091820120611a51939290917ff5c8cd209dba528041d79d4ba7073926156cd25911491a8fd976619bfd753a60910161208c565b60408051601f1981840301815291905280516020909101209392505050565b604080516060810182526000808252602082018190529181019190915290565b8035611267816125fc565b600082601f830112611aab578081fd5b8135611abe611ab9826125ae565b61258a565b818152846020838601011115611ad2578283fd5b816020850160208301379081016020019190915292915050565b60006101008284031215610516578081fd5b600060208284031215611b0f578081fd5b8135611b1a816125fc565b9392505050565b600080600060608486031215611b35578182fd5b8335611b40816125fc565b9250602084013591506040840135611b57816125fc565b809150509250925092565b600080600080600060a08688031215611b79578081fd5b8535611b84816125fc565b9450602086013593506040860135611b9b816125fc565b9250606086013591506080860135611bb2816125fc565b809150509295509295909350565b60008060008060008060c08789031215611bd8578081fd5b8635611be3816125fc565b95506020870135945060408701359350606087013560ff81168114611c06578182fd5b9598949750929560808101359460a0909101359350915050565b60008060208385031215611c32578182fd5b823567ffffffffffffffff80821115611c49578384fd5b818501915085601f830112611c5c578384fd5b813581811115611c6a578485fd5b8660208083028501011115611c7d578485fd5b60209290920196919550909350505050565b600060208284031215611ca0578081fd5b81518015158114611b1a578182fd5b60008060408385031215611cc1578182fd5b505080516020909101519092909150565b60008060008060608587031215611ce7578182fd5b8435935060208501359250604085013567ffffffffffffffff80821115611d0c578384fd5b818701915087601f830112611d1f578384fd5b813581811115611d2d578485fd5b886020828501011115611d3e578485fd5b95989497505060200194505050565b600060208284031215611d5e578081fd5b815167ffffffffffffffff811115611d74578182fd5b8201601f81018413611d84578182fd5b8051611d92611ab9826125ae565b818152856020838501011115611da6578384fd5b6110ca8260208301602086016125d0565b600060208284031215611dc8578081fd5b813567ffffffffffffffff80821115611ddf578283fd5b9083019060a08286031215611df2578283fd5b60405160a081018181108382111715611e0757fe5b604052823582811115611e18578485fd5b611e2487828601611a9b565b825250611e3360208401611a90565b602082015260408301356040820152606083013560608201526080830135608082015280935050505092915050565b60006101008284031215611e74578081fd5b611b1a8383611aec565b600060208284031215611e8f578081fd5b813567ffffffffffffffff811115611ea5578182fd5b820160a08185031215611b1a578182fd5b600060208284031215611ec7578081fd5b813567ffffffffffffffff80821115611ede578283fd5b9083019060408286031215611ef1578283fd5b604051604081018181108382111715611f0657fe5b604052823582811115611f17578485fd5b611f2387828601611a9b565b82525060208301359250611f36836125fc565b6020810192909252509392505050565b600060208284031215611f57578081fd5b813562ffffff81168114611b1a578182fd5b600060208284031215611f7a578081fd5b5051919050565b60008060408385031215611f93578182fd5b823591506020830135611fa5816125fc565b809150509250929050565b60008060008060808587031215611fc5578182fd5b843593506020850135611fd7816125fc565b9250604085013591506060850135611fee816125fc565b939692955090935050565b600081518084526120118160208601602086016125d0565b601f01601f19169290920160200192915050565b606093841b6bffffffffffffffffffffffff19908116825260e89390931b6001600160e81b0319166014820152921b166017820152602b0190565b6000828483379101908152919050565b600082516120828184602087016125d0565b9190910192915050565b6001600160f81b0319815260609390931b6bffffffffffffffffffffffff191660018401526015830191909152603582015260550190565b6001600160a01b0391909116815260200190565b6001600160a01b0392831681529116602082015260400190565b6001600160a01b039889168152969097166020870152604086019490945260608501929092521515608084015260ff1660a083015260c082015260e08101919091526101000190565b6001600160a01b0397881681529590961660208601526040850193909352606084019190915260ff16608083015260a082015260c081019190915260e00190565b6001600160a01b03938416815291909216602082015262ffffff909116604082015260600190565b6001600160a01b039384168152919092166020820152604081019190915260600190565b6001600160a01b0386811682528515156020830152604082018590528316606082015260a06080820181905260009061220390830184611ff9565b979650505050505050565b6001600160a01b03929092168252602082015260400190565b6000602080830181845280855180835260408601915060408482028701019250838701855b8281101561227a57603f19888603018452612268858351611ff9565b9450928501929085019060010161224c565b5092979650505050505050565b600060208252611b1a6020830184611ff9565b602080825260129082015271496e73756666696369656e7420574554483960701b604082015260600190565b60208082526012908201527124b739bab33334b1b4b2b73a103a37b5b2b760711b604082015260600190565b602080825260119082015270746f55696e7432345f6f766572666c6f7760781b604082015260600190565b60208082526003908201526253544560e81b604082015260600190565b6020808252600e908201526d736c6963655f6f766572666c6f7760901b604082015260600190565b60208082526002908201526114d560f21b604082015260600190565b602080825260149082015273746f55696e7432345f6f75744f66426f756e647360601b604082015260600190565b6020808252600990820152684e6f7420574554483960b81b604082015260600190565b602080825260159082015274746f416464726573735f6f75744f66426f756e647360581b604082015260600190565b60208082526003908201526229aa2360e91b604082015260600190565b602080825260129082015271151bdbc81b5d58da081c995c5d595cdd195960721b604082015260600190565b602080825260139082015272151c985b9cd858dd1a5bdb881d1bdbc81bdb19606a1b604082015260600190565b602080825260119082015270736c6963655f6f75744f66426f756e647360781b604082015260600190565b602080825260139082015272151bdbc81b1a5d1d1b19481c9958d95a5d9959606a1b604082015260600190565b602080825260129082015271746f416464726573735f6f766572666c6f7760701b604082015260600190565b6000602082528251604060208401526125146060840182611ff9565b602094909401516001600160a01b0316604093909301929092525090919050565b90815260200190565b6000808335601e19843603018112612554578283fd5b83018035915067ffffffffffffffff82111561256e578283fd5b60200191503681900382131561258357600080fd5b9250929050565b60405181810167ffffffffffffffff811182821017156125a657fe5b604052919050565b600067ffffffffffffffff8211156125c257fe5b50601f01601f191660200190565b60005b838110156125eb5781810151838201526020016125d3565b83811115610dec5750506000910152565b6001600160a01b038116811461261157600080fd5b5056fea26469706673582212209b9ee93bb8510a0781b2d863711f0d931372f505cfe2033a9f81984d733984de64736f6c63430007060033","linkReferences":{}},"methodIdentifiers":{"WETH9()":"4aa4a4fc","deployer()":"d5f39488","exactInput((bytes,address,uint256,uint256,uint256))":"c04b8d59","exactInputSingle((address,address,uint24,address,uint256,uint256,uint256,uint160))":"414bf389","exactOutput((bytes,address,uint256,uint256,uint256))":"f28c0498","exactOutputSingle((address,address,uint24,address,uint256,uint256,uint256,uint160))":"db3e2198","factory()":"c45a0155","multicall(bytes[])":"ac9650d8","pancakeV3SwapCallback(int256,int256,bytes)":"23a69e75","refundETH()":"12210e8a","selfPermit(address,uint256,uint256,uint8,bytes32,bytes32)":"f3995c67","selfPermitAllowed(address,uint256,uint256,uint8,bytes32,bytes32)":"4659a494","selfPermitAllowedIfNecessary(address,uint256,uint256,uint8,bytes32,bytes32)":"a4a78f0c","selfPermitIfNecessary(address,uint256,uint256,uint8,bytes32,bytes32)":"c2e3140a","sweepToken(address,uint256,address)":"df2ab5bb","sweepTokenWithFee(address,uint256,address,uint256,address)":"e0e189a0","unwrapWETH9(uint256,address)":"49404b7c","unwrapWETH9WithFee(uint256,address,uint256,address)":"9b2c0a37"},"id":118}