{"abi":[{"type":"constructor","inputs":[{"name":"_poolDeployer","type":"address","internalType":"address"}],"stateMutability":"nonpayable"},{"type":"function","name":"collectProtocol","inputs":[{"name":"pool","type":"address","internalType":"address"},{"name":"recipient","type":"address","internalType":"address"},{"name":"amount0Requested","type":"uint128","internalType":"uint128"},{"name":"amount1Requested","type":"uint128","internalType":"uint128"}],"outputs":[{"name":"amount0","type":"uint128","internalType":"uint128"},{"name":"amount1","type":"uint128","internalType":"uint128"}],"stateMutability":"nonpayable"},{"type":"function","name":"createPool","inputs":[{"name":"tokenA","type":"address","internalType":"address"},{"name":"tokenB","type":"address","internalType":"address"},{"name":"fee","type":"uint24","internalType":"uint24"}],"outputs":[{"name":"pool","type":"address","internalType":"address"}],"stateMutability":"nonpayable"},{"type":"function","name":"enableFeeAmount","inputs":[{"name":"fee","type":"uint24","internalType":"uint24"},{"name":"tickSpacing","type":"int24","internalType":"int24"}],"outputs":[],"stateMutability":"nonpayable"},{"type":"function","name":"feeAmountTickSpacing","inputs":[{"name":"","type":"uint24","internalType":"uint24"}],"outputs":[{"name":"","type":"int24","internalType":"int24"}],"stateMutability":"view"},{"type":"function","name":"feeAmountTickSpacingExtraInfo","inputs":[{"name":"","type":"uint24","internalType":"uint24"}],"outputs":[{"name":"whitelistRequested","type":"bool","internalType":"bool"},{"name":"enabled","type":"bool","internalType":"bool"}],"stateMutability":"view"},{"type":"function","name":"getPool","inputs":[{"name":"","type":"address","internalType":"address"},{"name":"","type":"address","internalType":"address"},{"name":"","type":"uint24","internalType":"uint24"}],"outputs":[{"name":"","type":"address","internalType":"address"}],"stateMutability":"view"},{"type":"function","name":"lmPoolDeployer","inputs":[],"outputs":[{"name":"","type":"address","internalType":"address"}],"stateMutability":"view"},{"type":"function","name":"owner","inputs":[],"outputs":[{"name":"","type":"address","internalType":"address"}],"stateMutability":"view"},{"type":"function","name":"poolDeployer","inputs":[],"outputs":[{"name":"","type":"address","internalType":"address"}],"stateMutability":"view"},{"type":"function","name":"setFeeAmountExtraInfo","inputs":[{"name":"fee","type":"uint24","internalType":"uint24"},{"name":"whitelistRequested","type":"bool","internalType":"bool"},{"name":"enabled","type":"bool","internalType":"bool"}],"outputs":[],"stateMutability":"nonpayable"},{"type":"function","name":"setFeeProtocol","inputs":[{"name":"pool","type":"address","internalType":"address"},{"name":"feeProtocol0","type":"uint32","internalType":"uint32"},{"name":"feeProtocol1","type":"uint32","internalType":"uint32"}],"outputs":[],"stateMutability":"nonpayable"},{"type":"function","name":"setLmPool","inputs":[{"name":"pool","type":"address","internalType":"address"},{"name":"lmPool","type":"address","internalType":"address"}],"outputs":[],"stateMutability":"nonpayable"},{"type":"function","name":"setLmPoolDeployer","inputs":[{"name":"_lmPoolDeployer","type":"address","internalType":"address"}],"outputs":[],"stateMutability":"nonpayable"},{"type":"function","name":"setOwner","inputs":[{"name":"_owner","type":"address","internalType":"address"}],"outputs":[],"stateMutability":"nonpayable"},{"type":"function","name":"setWhiteListAddress","inputs":[{"name":"user","type":"address","internalType":"address"},{"name":"verified","type":"bool","internalType":"bool"}],"outputs":[],"stateMutability":"nonpayable"},{"type":"event","name":"FeeAmountEnabled","inputs":[{"name":"fee","type":"uint24","indexed":true,"internalType":"uint24"},{"name":"tickSpacing","type":"int24","indexed":true,"internalType":"int24"}],"anonymous":false},{"type":"event","name":"FeeAmountExtraInfoUpdated","inputs":[{"name":"fee","type":"uint24","indexed":true,"internalType":"uint24"},{"name":"whitelistRequested","type":"bool","indexed":false,"internalType":"bool"},{"name":"enabled","type":"bool","indexed":false,"internalType":"bool"}],"anonymous":false},{"type":"event","name":"OwnerChanged","inputs":[{"name":"oldOwner","type":"address","indexed":true,"internalType":"address"},{"name":"newOwner","type":"address","indexed":true,"internalType":"address"}],"anonymous":false},{"type":"event","name":"PoolCreated","inputs":[{"name":"token0","type":"address","indexed":true,"internalType":"address"},{"name":"token1","type":"address","indexed":true,"internalType":"address"},{"name":"fee","type":"uint24","indexed":true,"internalType":"uint24"},{"name":"tickSpacing","type":"int24","indexed":false,"internalType":"int24"},{"name":"pool","type":"address","indexed":false,"internalType":"address"}],"anonymous":false},{"type":"event","name":"SetLmPoolDeployer","inputs":[{"name":"lmPoolDeployer","type":"address","indexed":true,"internalType":"address"}],"anonymous":false},{"type":"event","name":"WhiteListAdded","inputs":[{"name":"user","type":"address","indexed":true,"internalType":"address"},{"name":"verified","type":"bool","indexed":false,"internalType":"bool"}],"anonymous":false}],"bytecode":{"object":"0x60a060405234801561001057600080fd5b506040516113923803806113928339818101604052602081101561003357600080fd5b50516001600160601b0319606082901b16608052600080546001600160a01b0319163390811782556040519091907fb532073b38c83145e3e5135377a08bf9aab55bc0fd7c1179cd4fb995d2a5159c908290a37f1bd07f61ef326b4de236f5b68f225f46ff76ee2c375ae31a06da201c49c70c12805462ffffff19166001908117909155604080518082018252600080825260208281018581526064808452600390925292517f6b16ef514f22b74729cbea5cc7babfecbdc2309e530ca716643d11fe929eed2e8054945115156101000261ff001992151560ff199096169590951791909116939093179092559151909160008051602061135283398151915291a36040805160008152600160208201528151606492600080516020611372833981519152928290030190a27f344a86d038cc67650617710ee5afca4f5d1ed60d199ecd86852cac7a55b2d3e5805462ffffff1916600a9081179091556040805180820182526000808252600160208381019182526101f4808452600390915292517f5ed261ce397475c8f8ccd7526f550ae383248415591df3d1b32ee25c9ab0af2e8054925115156101000261ff001992151560ff1990941693909317919091169190911790559151909160008051602061135283398151915291a360408051600081526001602082015281516101f492600080516020611372833981519152928290030190a27f18ea07d45b61092cf379823b7e255753fc01638d9bcaaef647c0748469d0c8cb805462ffffff191660329081179091556040805180820182526000808252600160208381019182526109c4808452600390915292517f2cb06da9fad5bc9043c9933b28e89aaba34d84764c67113fa1d4256f6b23f7558054925115156101000261ff001992151560ff1990941693909317919091169190911790559151909160008051602061135283398151915291a360408051600081526001602082015281516109c492600080516020611372833981519152928290030190a27f1ca239af1d44623dfaa87ee0cbbbe4bbeb2112df36e66deedafd694350d045cd805462ffffff191660c8908117909155604080518082018252600080825260016020838101918252612710808452600390915292517fbed90d45c8c5fb2e8fcae0027c6e57da3d943cdb82d794c1080bce28e166f2118054925115156101000261ff001992151560ff1990941693909317919091169190911790559151909160008051602061135283398151915291a3604080516000815260016020820152815161271092600080516020611372833981519152928290030190a25060805160601c610f3c6104166000398061059b5280610c8e5250610f3c6000f3fe608060405234801561001057600080fd5b50600436106100f55760003560e01c80637e8435e6116100975780638da5cb5b116100665780638da5cb5b1461032f5780638ff38e8014610337578063a167129514610369578063e4a86a99146103a5576100f5565b80637e8435e61461026757806380d6a792146102a157806388e8006d146102c75780638a7c195f14610304576100f5565b806322afcccb116100d357806322afcccb146101a85780633119049a146101e157806343db87da146101e95780635e492ac81461025f576100f5565b806311ff5e8d146100fa57806313af40351461012a5780631698ee8214610150575b600080fd5b6101286004803603604081101561011057600080fd5b506001600160a01b03813581169160200135166103d3565b005b6101286004803603602081101561014057600080fd5b50356001600160a01b03166104b2565b61018c6004803603606081101561016657600080fd5b5080356001600160a01b03908116916020810135909116906040013562ffffff16610558565b604080516001600160a01b039092168252519081900360200190f35b6101ca600480360360208110156101be57600080fd5b503562ffffff16610584565b6040805160029290920b8252519081900360200190f35b61018c610599565b610230600480360360808110156101ff57600080fd5b506001600160a01b0381358116916020810135909116906001600160801b03604082013581169160600135166105bd565b60405180836001600160801b03168152602001826001600160801b031681526020019250505060405180910390f35b61018c6106a9565b6101286004803603606081101561027d57600080fd5b506001600160a01b038135169063ffffffff602082013581169160400135166106b8565b610128600480360360208110156102b757600080fd5b50356001600160a01b0316610775565b6102e9600480360360208110156102dd57600080fd5b503562ffffff1661080a565b60408051921515835290151560208301528051918290030190f35b6101286004803603604081101561031a57600080fd5b5062ffffff813516906020013560020b610828565b61018c6109a1565b6101286004803603606081101561034d57600080fd5b5062ffffff8135169060208101351515906040013515156109b0565b61018c6004803603606081101561037f57600080fd5b5080356001600160a01b03908116916020810135909116906040013562ffffff16610aab565b610128600480360360408110156103bb57600080fd5b506001600160a01b0381351690602001351515610dc2565b6000546001600160a01b03163314806103f657506005546001600160a01b031633145b610447576040805162461bcd60e51b815260206004820152601d60248201527f4e6f74206f776e6572206f72204c4d20706f6f6c206465706c6f796572000000604482015290519081900360640190fd5b816001600160a01b031663cc7e7fa2826040518263ffffffff1660e01b815260040180826001600160a01b03168152602001915050600060405180830381600087803b15801561049657600080fd5b505af11580156104aa573d6000803e3d6000fd5b505050505050565b6000546001600160a01b031633146104fd576040805162461bcd60e51b81526020600482015260096024820152682737ba1037bbb732b960b91b604482015290519081900360640190fd5b600080546040516001600160a01b03808516939216917fb532073b38c83145e3e5135377a08bf9aab55bc0fd7c1179cd4fb995d2a5159c91a3600080546001600160a01b0319166001600160a01b0392909216919091179055565b60026020908152600093845260408085208252928452828420905282529020546001600160a01b031681565b60016020526000908152604090205460020b81565b7f000000000000000000000000000000000000000000000000000000000000000081565b6000805481906001600160a01b0316331461060b576040805162461bcd60e51b81526020600482015260096024820152682737ba1037bbb732b960b91b604482015290519081900360640190fd5b604080516385b6672960e01b81526001600160a01b0387811660048301526001600160801b038088166024840152861660448301528251908916926385b6672992606480820193918290030181600087803b15801561066957600080fd5b505af115801561067d573d6000803e3d6000fd5b505050506040513d604081101561069357600080fd5b5080516020909101519097909650945050505050565b6005546001600160a01b031681565b6000546001600160a01b03163314610703576040805162461bcd60e51b81526020600482015260096024820152682737ba1037bbb732b960b91b604482015290519081900360640190fd5b6040805163b0d0d21160e01b815263ffffffff80851660048301528316602482015290516001600160a01b0385169163b0d0d21191604480830192600092919082900301818387803b15801561075857600080fd5b505af115801561076c573d6000803e3d6000fd5b50505050505050565b6000546001600160a01b031633146107c0576040805162461bcd60e51b81526020600482015260096024820152682737ba1037bbb732b960b91b604482015290519081900360640190fd5b600580546001600160a01b0319166001600160a01b0383169081179091556040517f4c912280cda47bed324de14f601d3f125a98254671772f3f1f491e50fa0ca40790600090a250565b60036020526000908152604090205460ff8082169161010090041682565b6000546001600160a01b03163314610873576040805162461bcd60e51b81526020600482015260096024820152682737ba1037bbb732b960b91b604482015290519081900360640190fd5b620f42408262ffffff161061088757600080fd5b60008160020b13801561089e57506140008160020b125b6108a757600080fd5b62ffffff8216600090815260016020526040902054600290810b900b156108cd57600080fd5b62ffffff8281166000818152600160208181526040808420805462ffffff1916600289900b97881617905580518082018252848152808301938452858552600390925280842091518254935160ff199094169015151761ff00191661010093151593909302929092179055517fc66a3fdf07232cdd185febcc6579d408c241b47ae2f9907d84be655141eeaecc9190a3604080516000815260016020820152815162ffffff8516927fed85b616dbfbc54d0f1180a7bd0f6e3bb645b269b234e7a9edcc269ef1443d88928290030190a25050565b6000546001600160a01b031681565b6000546001600160a01b031633146109fb576040805162461bcd60e51b81526020600482015260096024820152682737ba1037bbb732b960b91b604482015290519081900360640190fd5b62ffffff8316600090815260016020526040902054600290810b900b610a2057600080fd5b604080518082018252831515808252831515602080840182815262ffffff891660008181526003845287902095518654925115156101000261ff001991151560ff199094169390931716919091179094558451928352820152825191927fed85b616dbfbc54d0f1180a7bd0f6e3bb645b269b234e7a9edcc269ef1443d8892918290030190a2505050565b6000826001600160a01b0316846001600160a01b03161415610acc57600080fd5b600080846001600160a01b0316866001600160a01b031610610aef578486610af2565b85855b90925090506001600160a01b038216610b0a57600080fd5b62ffffff8416600090815260016020908152604080832054600383529281902081518083019092525460ff8082161515835261010090910416151591810191909152600291820b9182900b15801590610b64575080602001515b610bb5576040805162461bcd60e51b815260206004820152601860248201527f666565206973206e6f7420617661696c61626c65207965740000000000000000604482015290519081900360640190fd5b805115610c0a573360009081526004602052604090205460ff16610c0a5760405162461bcd60e51b8152600401808060200182810382526032815260200180610ed56032913960400191505060405180910390fd5b6001600160a01b0384811660009081526002602090815260408083208785168452825280832062ffffff8b1684529091529020541615610c4957600080fd5b6040805163fad5359f60e01b81523060048201526001600160a01b038681166024830152858116604483015262ffffff89166064830152600285900b608483015291517f00000000000000000000000000000000000000000000000000000000000000009092169163fad5359f9160a4808201926020929091908290030181600087803b158015610cd957600080fd5b505af1158015610ced573d6000803e3d6000fd5b505050506040513d6020811015610d0357600080fd5b50516001600160a01b0380861660008181526002602081815260408084208a871680865290835281852062ffffff8f168087529084528286208054988a166001600160a01b0319998a1681179091558287528585528387208888528552838720828852855295839020805490981686179097558151938a900b8452918301939093528251959a5093947f783cca1c0412dd0d695e784568c96da2e9c22ff989357a2e8b1d9b2b4e6b7118929181900390910190a4505050509392505050565b6000546001600160a01b03163314610e0d576040805162461bcd60e51b81526020600482015260096024820152682737ba1037bbb732b960b91b604482015290519081900360640190fd5b6001600160a01b03821660009081526004602052604090205460ff1615158115151415610e74576040805162461bcd60e51b815260206004820152601060248201526f7374617465206e6f74206368616e676560801b604482015290519081900360640190fd5b6001600160a01b038216600081815260046020908152604091829020805460ff1916851515908117909155825190815291517faec42ac7f1bb8651906ae6522f50a19429e124e8ea678ef59fd27750759288a29281900390910190a2505056fe757365722073686f756c6420626520696e20746865207768697465206c69737420666f722074686973206665652074696572a264697066735822122065b66168e873b2f77ce7ec4f73c63e38d7b72fbc4a38b3eb6a094b4ee799e4a764736f6c63430007060033c66a3fdf07232cdd185febcc6579d408c241b47ae2f9907d84be655141eeaecced85b616dbfbc54d0f1180a7bd0f6e3bb645b269b234e7a9edcc269ef1443d88","linkReferences":{}},"methodIdentifiers":{"collectProtocol(address,address,uint128,uint128)":"43db87da","createPool(address,address,uint24)":"a1671295","enableFeeAmount(uint24,int24)":"8a7c195f","feeAmountTickSpacing(uint24)":"22afcccb","feeAmountTickSpacingExtraInfo(uint24)":"88e8006d","getPool(address,address,uint24)":"1698ee82","lmPoolDeployer()":"5e492ac8","owner()":"8da5cb5b","poolDeployer()":"3119049a","setFeeAmountExtraInfo(uint24,bool,bool)":"8ff38e80","setFeeProtocol(address,uint32,uint32)":"7e8435e6","setLmPool(address,address)":"11ff5e8d","setLmPoolDeployer(address)":"80d6a792","setOwner(address)":"13af4035","setWhiteListAddress(address,bool)":"e4a86a99"},"id":137}