{"abi":[{"type":"constructor","inputs":[{"name":"_deployer","type":"address","internalType":"address"},{"name":"_factory","type":"address","internalType":"address"},{"name":"_WETH9","type":"address","internalType":"address"}],"stateMutability":"nonpayable"},{"type":"receive","stateMutability":"payable"},{"type":"function","name":"WETH9","inputs":[],"outputs":[{"name":"","type":"address","internalType":"address"}],"stateMutability":"view"},{"type":"function","name":"deployer","inputs":[],"outputs":[{"name":"","type":"address","internalType":"address"}],"stateMutability":"view"},{"type":"function","name":"exactInput","inputs":[{"name":"params","type":"tuple","internalType":"struct ISwapRouter.ExactInputParams","components":[{"name":"path","type":"bytes","internalType":"bytes"},{"name":"recipient","type":"address","internalType":"address"},{"name":"deadline","type":"uint256","internalType":"uint256"},{"name":"amountIn","type":"uint256","internalType":"uint256"},{"name":"amountOutMinimum","type":"uint256","internalType":"uint256"}]}],"outputs":[{"name":"amountOut","type":"uint256","internalType":"uint256"}],"stateMutability":"payable"},{"type":"function","name":"exactInputSingle","inputs":[{"name":"params","type":"tuple","internalType":"struct ISwapRouter.ExactInputSingleParams","components":[{"name":"tokenIn","type":"address","internalType":"address"},{"name":"tokenOut","type":"address","internalType":"address"},{"name":"fee","type":"uint24","internalType":"uint24"},{"name":"recipient","type":"address","internalType":"address"},{"name":"deadline","type":"uint256","internalType":"uint256"},{"name":"amountIn","type":"uint256","internalType":"uint256"},{"name":"amountOutMinimum","type":"uint256","internalType":"uint256"},{"name":"sqrtPriceLimitX96","type":"uint160","internalType":"uint160"}]}],"outputs":[{"name":"amountOut","type":"uint256","internalType":"uint256"}],"stateMutability":"payable"},{"type":"function","name":"exactOutput","inputs":[{"name":"params","type":"tuple","internalType":"struct ISwapRouter.ExactOutputParams","components":[{"name":"path","type":"bytes","internalType":"bytes"},{"name":"recipient","type":"address","internalType":"address"},{"name":"deadline","type":"uint256","internalType":"uint256"},{"name":"amountOut","type":"uint256","internalType":"uint256"},{"name":"amountInMaximum","type":"uint256","internalType":"uint256"}]}],"outputs":[{"name":"amountIn","type":"uint256","internalType":"uint256"}],"stateMutability":"payable"},{"type":"function","name":"exactOutputSingle","inputs":[{"name":"params","type":"tuple","internalType":"struct ISwapRouter.ExactOutputSingleParams","components":[{"name":"tokenIn","type":"address","internalType":"address"},{"name":"tokenOut","type":"address","internalType":"address"},{"name":"fee","type":"uint24","internalType":"uint24"},{"name":"recipient","type":"address","internalType":"address"},{"name":"deadline","type":"uint256","internalType":"uint256"},{"name":"amountOut","type":"uint256","internalType":"uint256"},{"name":"amountInMaximum","type":"uint256","internalType":"uint256"},{"name":"sqrtPriceLimitX96","type":"uint160","internalType":"uint160"}]}],"outputs":[{"name":"amountIn","type":"uint256","internalType":"uint256"}],"stateMutability":"payable"},{"type":"function","name":"factory","inputs":[],"outputs":[{"name":"","type":"address","internalType":"address"}],"stateMutability":"view"},{"type":"function","name":"multicall","inputs":[{"name":"data","type":"bytes[]","internalType":"bytes[]"}],"outputs":[{"name":"results","type":"bytes[]","internalType":"bytes[]"}],"stateMutability":"payable"},{"type":"function","name":"pancakeV3SwapCallback","inputs":[{"name":"amount0Delta","type":"int256","internalType":"int256"},{"name":"amount1Delta","type":"int256","internalType":"int256"},{"name":"_data","type":"bytes","internalType":"bytes"}],"outputs":[],"stateMutability":"nonpayable"},{"type":"function","name":"refundETH","inputs":[],"outputs":[],"stateMutability":"payable"},{"type":"function","name":"selfPermit","inputs":[{"name":"token","type":"address","internalType":"address"},{"name":"value","type":"uint256","internalType":"uint256"},{"name":"deadline","type":"uint256","internalType":"uint256"},{"name":"v","type":"uint8","internalType":"uint8"},{"name":"r","type":"bytes32","internalType":"bytes32"},{"name":"s","type":"bytes32","internalType":"bytes32"}],"outputs":[],"stateMutability":"payable"},{"type":"function","name":"selfPermitAllowed","inputs":[{"name":"token","type":"address","internalType":"address"},{"name":"nonce","type":"uint256","internalType":"uint256"},{"name":"expiry","type":"uint256","internalType":"uint256"},{"name":"v","type":"uint8","internalType":"uint8"},{"name":"r","type":"bytes32","internalType":"bytes32"},{"name":"s","type":"bytes32","internalType":"bytes32"}],"outputs":[],"stateMutability":"payable"},{"type":"function","name":"selfPermitAllowedIfNecessary","inputs":[{"name":"token","type":"address","internalType":"address"},{"name":"nonce","type":"uint256","internalType":"uint256"},{"name":"expiry","type":"uint256","internalType":"uint256"},{"name":"v","type":"uint8","internalType":"uint8"},{"name":"r","type":"bytes32","internalType":"bytes32"},{"name":"s","type":"bytes32","internalType":"bytes32"}],"outputs":[],"stateMutability":"payable"},{"type":"function","name":"selfPermitIfNecessary","inputs":[{"name":"token","type":"address","internalType":"address"},{"name":"value","type":"uint256","internalType":"uint256"},{"name":"deadline","type":"uint256","internalType":"uint256"},{"name":"v","type":"uint8","internalType":"uint8"},{"name":"r","type":"bytes32","internalType":"bytes32"},{"name":"s","type":"bytes32","internalType":"bytes32"}],"outputs":[],"stateMutability":"payable"},{"type":"function","name":"setTime","inputs":[{"name":"_time","type":"uint256","internalType":"uint256"}],"outputs":[],"stateMutability":"nonpayable"},{"type":"function","name":"sweepToken","inputs":[{"name":"token","type":"address","internalType":"address"},{"name":"amountMinimum","type":"uint256","internalType":"uint256"},{"name":"recipient","type":"address","internalType":"address"}],"outputs":[],"stateMutability":"payable"},{"type":"function","name":"sweepTokenWithFee","inputs":[{"name":"token","type":"address","internalType":"address"},{"name":"amountMinimum","type":"uint256","internalType":"uint256"},{"name":"recipient","type":"address","internalType":"address"},{"name":"feeBips","type":"uint256","internalType":"uint256"},{"name":"feeRecipient","type":"address","internalType":"address"}],"outputs":[],"stateMutability":"payable"},{"type":"function","name":"unwrapWETH9","inputs":[{"name":"amountMinimum","type":"uint256","internalType":"uint256"},{"name":"recipient","type":"address","internalType":"address"}],"outputs":[],"stateMutability":"payable"},{"type":"function","name":"unwrapWETH9WithFee","inputs":[{"name":"amountMinimum","type":"uint256","internalType":"uint256"},{"name":"recipient","type":"address","internalType":"address"},{"name":"feeBips","type":"uint256","internalType":"uint256"},{"name":"feeRecipient","type":"address","internalType":"address"}],"outputs":[],"stateMutability":"payable"}],"bytecode":{"object":"0x60e06040526000196000553480156200001757600080fd5b5060405162002856380380620028568339810160408190526200003a916200007f565b6001600160601b0319606093841b811660805291831b821660a05290911b1660c052620000c8565b80516001600160a01b03811681146200007a57600080fd5b919050565b60008060006060848603121562000094578283fd5b6200009f8462000062565b9250620000af6020850162000062565b9150620000bf6040850162000062565b90509250925092565b60805160601c60a05160601c60c05160601c6127266200013060003980610128528061062a528061071552806107a252806107e252806108cd5280611321528061136752806113db525080610d065250806103925280610d2a5280611d9d52506127266000f3fe6080604052600436106101185760003560e01c8063ac9650d8116100a0578063db3e219811610064578063db3e2198146102dc578063df2ab5bb146102ef578063e0e189a014610302578063f28c049814610315578063f3995c671461032857610188565b8063ac9650d81461026c578063c04b8d591461028c578063c2e3140a1461029f578063c45a0155146102b2578063d5f39488146102c757610188565b80634659a494116100e75780634659a494146101fe57806349404b7c146102115780634aa4a4fc146102245780639b2c0a3714610246578063a4a78f0c1461025957610188565b806312210e8a1461018d57806323a69e75146101955780633beb26c4146101b5578063414bf389146101d557610188565b3661018857336001600160a01b037f00000000000000000000000000000000000000000000000000000000000000001614610186576040805162461bcd60e51b81526020600482015260096024820152684e6f7420574554483960b81b604482015290519081900360640190fd5b005b600080fd5b61018661033b565b3480156101a157600080fd5b506101866101b0366004612110565b61034d565b3480156101c157600080fd5b506101866101d03660046123a7565b61046c565b6101e86101e33660046122a0565b610471565b6040516101f59190612611565b60405180910390f35b61018661020c36600461201e565b610598565b61018661021f3660046123bf565b610626565b34801561023057600080fd5b506102396107a0565b6040516101f591906124ae565b6101866102543660046123ee565b6107c4565b61018661026736600461201e565b610990565b61027f61027a36600461207e565b610a21565b6040516101f59190612508565b6101e861029a3660046121f5565b610b61565b6101866102ad36600461201e565b610c75565b3480156102be57600080fd5b50610239610d04565b3480156102d357600080fd5b50610239610d28565b6101e86102ea3660046122a0565b610d4c565b6101866102fd366004611f7f565b610e73565b610186610310366004611fc0565b610f51565b6101e86103233660046122bc565b611078565b61018661033636600461201e565b61116e565b471561034b5761034b33476111e0565b565b600084138061035c5750600083135b61036557600080fd5b6000610373828401846122f4565b9050600080600061038784600001516112cf565b9250925092506103b97f0000000000000000000000000000000000000000000000000000000000000000848484611300565b5060008060008a136103e057846001600160a01b0316846001600160a01b031610896103f7565b836001600160a01b0316856001600160a01b0316108a5b91509150811561041657610411858760200151338461131f565b610460565b8551610421906114af565b15610446578551610431906114bb565b865261044081336000896114d8565b50610460565b80600081905550839450610460858760200151338461131f565b50505050505050505050565b600155565b6000816080013580610481611653565b11156104ca576040805162461bcd60e51b8152602060048201526013602482015272151c985b9cd858dd1a5bdb881d1bdbc81bdb19606a1b604482015290519081900360640190fd5b61056360a08401356104e26080860160608701611f5c565b6104f3610100870160e08801611f5c565b604080518082019091528061050b60208a018a611f5c565b61051b60608b0160408c01612384565b61052b60408c0160208d01611f5c565b60405160200161053d93929190612463565b6040516020818303038152906040528152602001336001600160a01b0316815250611659565b91508260c001358210156105925760405162461bcd60e51b8152600401610589906125a7565b60405180910390fd5b50919050565b604080516323f2ebc360e21b815233600482015230602482015260448101879052606481018690526001608482015260ff851660a482015260c4810184905260e4810183905290516001600160a01b03881691638fcbaf0c9161010480830192600092919082900301818387803b15801561061257600080fd5b505af1158015610460573d6000803e3d6000fd5b60007f00000000000000000000000000000000000000000000000000000000000000006001600160a01b03166370a08231306040518263ffffffff1660e01b815260040180826001600160a01b0316815260200191505060206040518083038186803b15801561069557600080fd5b505afa1580156106a9573d6000803e3d6000fd5b505050506040513d60208110156106bf57600080fd5b505190508281101561070d576040805162461bcd60e51b8152602060048201526012602482015271496e73756666696369656e7420574554483960701b604482015290519081900360640190fd5b801561079b577f00000000000000000000000000000000000000000000000000000000000000006001600160a01b0316632e1a7d4d826040518263ffffffff1660e01b815260040180828152602001915050600060405180830381600087803b15801561077957600080fd5b505af115801561078d573d6000803e3d6000fd5b5050505061079b82826111e0565b505050565b7f000000000000000000000000000000000000000000000000000000000000000081565b6000821180156107d5575060648211155b6107de57600080fd5b60007f00000000000000000000000000000000000000000000000000000000000000006001600160a01b03166370a08231306040518263ffffffff1660e01b815260040180826001600160a01b0316815260200191505060206040518083038186803b15801561084d57600080fd5b505afa158015610861573d6000803e3d6000fd5b505050506040513d602081101561087757600080fd5b50519050848110156108c5576040805162461bcd60e51b8152602060048201526012602482015271496e73756666696369656e7420574554483960701b604482015290519081900360640190fd5b8015610989577f00000000000000000000000000000000000000000000000000000000000000006001600160a01b0316632e1a7d4d826040518263ffffffff1660e01b815260040180828152602001915050600060405180830381600087803b15801561093157600080fd5b505af1158015610945573d6000803e3d6000fd5b50505050600061271061096185846117ab90919063ffffffff16565b8161096857fe5b049050801561097b5761097b83826111e0565b610987858284036111e0565b505b5050505050565b60408051636eb1769f60e11b81523360048201523060248201529051600019916001600160a01b0389169163dd62ed3e91604480820192602092909190829003018186803b1580156109e157600080fd5b505afa1580156109f5573d6000803e3d6000fd5b505050506040513d6020811015610a0b57600080fd5b5051101561098757610987868686868686610598565b60608167ffffffffffffffff81118015610a3a57600080fd5b50604051908082528060200260200182016040528015610a6e57816020015b6060815260200190600190039081610a595790505b50905060005b82811015610b5a5760008030868685818110610a8c57fe5b9050602002810190610a9e919061261a565b604051610aac92919061249e565b600060405180830381855af49150503d8060008114610ae7576040519150601f19603f3d011682016040523d82523d6000602084013e610aec565b606091505b509150915081610b3857604481511015610b0557600080fd5b60048101905080806020019051810190610b1f919061218b565b60405162461bcd60e51b81526004016105899190612568565b80848481518110610b4557fe5b60209081029190910101525050600101610a74565b5092915050565b6000816040015180610b71611653565b1115610bba576040805162461bcd60e51b8152602060048201526013602482015272151c985b9cd858dd1a5bdb881d1bdbc81bdb19606a1b604482015290519081900360640190fd5b335b6000610bcb85600001516114af565b9050610c17856060015182610be4578660200151610be6565b305b60006040518060400160405280610c008b600001516117cf565b8152602001876001600160a01b0316815250611659565b60608601528015610c37578451309250610c30906114bb565b8552610c44565b8460600151935050610c4a565b50610bbc565b8360800151831015610c6e5760405162461bcd60e51b8152600401610589906125a7565b5050919050565b60408051636eb1769f60e11b8152336004820152306024820152905186916001600160a01b0389169163dd62ed3e91604480820192602092909190829003018186803b158015610cc457600080fd5b505afa158015610cd8573d6000803e3d6000fd5b505050506040513d6020811015610cee57600080fd5b505110156109875761098786868686868661116e565b7f000000000000000000000000000000000000000000000000000000000000000081565b7f000000000000000000000000000000000000000000000000000000000000000081565b6000816080013580610d5c611653565b1115610da5576040805162461bcd60e51b8152602060048201526013602482015272151c985b9cd858dd1a5bdb881d1bdbc81bdb19606a1b604482015290519081900360640190fd5b610e4160a0840135610dbd6080860160608701611f5c565b610dce610100870160e08801611f5c565b6040518060400160405280886020016020810190610dec9190611f5c565b610dfc60608b0160408c01612384565b610e0960208c018c611f5c565b604051602001610e1b93929190612463565b6040516020818303038152906040528152602001336001600160a01b03168152506114d8565b91508260c00135821115610e675760405162461bcd60e51b81526004016105899061257b565b50600019600055919050565b6000836001600160a01b03166370a08231306040518263ffffffff1660e01b815260040180826001600160a01b0316815260200191505060206040518083038186803b158015610ec257600080fd5b505afa158015610ed6573d6000803e3d6000fd5b505050506040513d6020811015610eec57600080fd5b5051905082811015610f3a576040805162461bcd60e51b815260206004820152601260248201527124b739bab33334b1b4b2b73a103a37b5b2b760711b604482015290519081900360640190fd5b8015610f4b57610f4b8483836117de565b50505050565b600082118015610f62575060648211155b610f6b57600080fd5b6000856001600160a01b03166370a08231306040518263ffffffff1660e01b815260040180826001600160a01b0316815260200191505060206040518083038186803b158015610fba57600080fd5b505afa158015610fce573d6000803e3d6000fd5b505050506040513d6020811015610fe457600080fd5b5051905084811015611032576040805162461bcd60e51b815260206004820152601260248201527124b739bab33334b1b4b2b73a103a37b5b2b760711b604482015290519081900360640190fd5b801561098757600061271061104783866117ab565b8161104e57fe5b0490508015611062576110628784836117de565b61106f87868385036117de565b50505050505050565b6000816040013580611088611653565b11156110d1576040805162461bcd60e51b8152602060048201526013602482015272151c985b9cd858dd1a5bdb881d1bdbc81bdb19606a1b604482015290519081900360640190fd5b61114460608401356110e96040860160208701611f5c565b6040805180820190915260009080611101898061261a565b8080601f016020809104026020016040519081016040528093929190818152602001838380828437600092019190915250505090825250336020909101526114d8565b5060005491508260800135821115610e675760405162461bcd60e51b81526004016105899061257b565b6040805163d505accf60e01b8152336004820152306024820152604481018790526064810186905260ff8516608482015260a4810184905260c4810183905290516001600160a01b0388169163d505accf9160e480830192600092919082900301818387803b15801561061257600080fd5b604080516000808252602082019092526001600160a01b0384169083906040518082805190602001908083835b6020831061122c5780518252601f19909201916020918201910161120d565b6001836020036101000a03801982511681845116808217855250505050505090500191505060006040518083038185875af1925050503d806000811461128e576040519150601f19603f3d011682016040523d82523d6000602084013e611293565b606091505b505090508061079b576040805162461bcd60e51b815260206004820152600360248201526253544560e81b604482015290519081900360640190fd5b600080806112dd8482611925565b92506112ea8460146119d5565b90506112f7846017611925565b91509193909250565b600061131685611311868686611a7c565b611ad2565b95945050505050565b7f00000000000000000000000000000000000000000000000000000000000000006001600160a01b0316846001600160a01b03161480156113605750804710155b15611482577f00000000000000000000000000000000000000000000000000000000000000006001600160a01b031663d0e30db0826040518263ffffffff1660e01b81526004016000604051808303818588803b1580156113c057600080fd5b505af11580156113d4573d6000803e3d6000fd5b50505050507f00000000000000000000000000000000000000000000000000000000000000006001600160a01b031663a9059cbb83836040518363ffffffff1660e01b815260040180836001600160a01b0316815260200182815260200192505050602060405180830381600087803b15801561145057600080fd5b505af1158015611464573d6000803e3d6000fd5b505050506040513d602081101561147a57600080fd5b50610f4b9050565b6001600160a01b0383163014156114a35761149e8483836117de565b610f4b565b610f4b84848484611af5565b8051604211155b919050565b80516060906114d290839060179060161901611c45565b92915050565b60006001600160a01b0384166114ec573093505b60008060006114fe85600001516112cf565b919450925090506001600160a01b0380841690831610600080611522858786611d96565b6001600160a01b031663128acb088b8561153b8f611dd4565b6000036001600160a01b038e1615611553578d611579565b876115725773fffd8963efd1fc6a506488495d951d5263988d25611579565b6401000276a45b8d60405160200161158a91906125d4565b6040516020818303038152906040526040518663ffffffff1660e01b81526004016115b99594939291906124c2565b6040805180830381600087803b1580156115d257600080fd5b505af11580156115e6573d6000803e3d6000fd5b505050506040513d601f19601f8201168201806040525081019061160a91906120ed565b9150915060008361161f578183600003611625565b82826000035b90985090506001600160a01b038a16611644578b811461164457600080fd5b50505050505050949350505050565b60015490565b60006001600160a01b03841661166d573093505b600080600061167f85600001516112cf565b919450925090506001600160a01b03808316908416106000806116a3868686611d96565b6001600160a01b031663128acb088b856116bc8f611dd4565b6001600160a01b038e16156116d1578d6116f7565b876116f05773fffd8963efd1fc6a506488495d951d5263988d256116f7565b6401000276a45b8d60405160200161170891906125d4565b6040516020818303038152906040526040518663ffffffff1660e01b81526004016117379594939291906124c2565b6040805180830381600087803b15801561175057600080fd5b505af1158015611764573d6000803e3d6000fd5b505050506040513d601f19601f8201168201806040525081019061178891906120ed565b91509150826117975781611799565b805b6000039b9a5050505050505050505050565b60008215806117c6575050818102818382816117c357fe5b04145b6114d257600080fd5b60606114d2826000602b611c45565b604080516001600160a01b038481166024830152604480830185905283518084039091018152606490920183526020820180516001600160e01b031663a9059cbb60e01b1781529251825160009485949389169392918291908083835b6020831061185a5780518252601f19909201916020918201910161183b565b6001836020036101000a0380198251168184511680821785525050505050509050019150506000604051808303816000865af19150503d80600081146118bc576040519150601f19603f3d011682016040523d82523d6000602084013e6118c1565b606091505b50915091508180156118ef5750805115806118ef57508080602001905160208110156118ec57600080fd5b50515b610989576040805162461bcd60e51b815260206004820152600260248201526114d560f21b604482015290519081900360640190fd5b600081826014011015611974576040805162461bcd60e51b8152602060048201526012602482015271746f416464726573735f6f766572666c6f7760701b604482015290519081900360640190fd5b81601401835110156119c5576040805162461bcd60e51b8152602060048201526015602482015274746f416464726573735f6f75744f66426f756e647360581b604482015290519081900360640190fd5b500160200151600160601b900490565b600081826003011015611a23576040805162461bcd60e51b8152602060048201526011602482015270746f55696e7432345f6f766572666c6f7760781b604482015290519081900360640190fd5b8160030183511015611a73576040805162461bcd60e51b8152602060048201526014602482015273746f55696e7432345f6f75744f66426f756e647360601b604482015290519081900360640190fd5b50016003015190565b611a84611ece565b826001600160a01b0316846001600160a01b03161115611aa2579192915b50604080516060810182526001600160a01b03948516815292909316602083015262ffffff169181019190915290565b6000611ade8383611dea565b9050336001600160a01b038216146114d257600080fd5b604080516001600160a01b0385811660248301528481166044830152606480830185905283518084039091018152608490920183526020820180516001600160e01b03166323b872dd60e01b178152925182516000948594938a169392918291908083835b60208310611b795780518252601f199092019160209182019101611b5a565b6001836020036101000a0380198251168184511680821785525050505050509050019150506000604051808303816000865af19150503d8060008114611bdb576040519150601f19603f3d011682016040523d82523d6000602084013e611be0565b606091505b5091509150818015611c0e575080511580611c0e5750808060200190516020811015611c0b57600080fd5b50515b610987576040805162461bcd60e51b815260206004820152600360248201526229aa2360e91b604482015290519081900360640190fd5b60608182601f011015611c90576040805162461bcd60e51b815260206004820152600e60248201526d736c6963655f6f766572666c6f7760901b604482015290519081900360640190fd5b828284011015611cd8576040805162461bcd60e51b815260206004820152600e60248201526d736c6963655f6f766572666c6f7760901b604482015290519081900360640190fd5b81830184511015611d24576040805162461bcd60e51b8152602060048201526011602482015270736c6963655f6f75744f66426f756e647360781b604482015290519081900360640190fd5b606082158015611d435760405191506000825260208201604052611d8d565b6040519150601f8416801560200281840101858101878315602002848b0101015b81831015611d7c578051835260209283019201611d64565b5050858452601f01601f1916604052505b50949350505050565b6000611dcc7f0000000000000000000000000000000000000000000000000000000000000000611dc7868686611a7c565b611dea565b949350505050565b6000600160ff1b8210611de657600080fd5b5090565b600081602001516001600160a01b031682600001516001600160a01b031610611e1257600080fd5b50805160208083015160409384015184516001600160a01b0394851681850152939091168385015262ffffff166060808401919091528351808403820181526080840185528051908301206001600160f81b031960a085015294901b6bffffffffffffffffffffffff191660a183015260b58201939093527ff5c8cd209dba528041d79d4ba7073926156cd25911491a8fd976619bfd753a6060d5808301919091528251808303909101815260f5909101909152805191012090565b604080516060810182526000808252602082018190529181019190915290565b80356114b6816126d8565b600082601f830112611f09578081fd5b8135611f1c611f178261268a565b612666565b818152846020838601011115611f30578283fd5b816020850160208301379081016020019190915292915050565b60006101008284031215610592578081fd5b600060208284031215611f6d578081fd5b8135611f78816126d8565b9392505050565b600080600060608486031215611f93578182fd5b8335611f9e816126d8565b9250602084013591506040840135611fb5816126d8565b809150509250925092565b600080600080600060a08688031215611fd7578081fd5b8535611fe2816126d8565b9450602086013593506040860135611ff9816126d8565b9250606086013591506080860135612010816126d8565b809150509295509295909350565b60008060008060008060c08789031215612036578081fd5b8635612041816126d8565b95506020870135945060408701359350606087013560ff81168114612064578182fd5b9598949750929560808101359460a0909101359350915050565b60008060208385031215612090578182fd5b823567ffffffffffffffff808211156120a7578384fd5b818501915085601f8301126120ba578384fd5b8135818111156120c8578485fd5b86602080830285010111156120db578485fd5b60209290920196919550909350505050565b600080604083850312156120ff578182fd5b505080516020909101519092909150565b60008060008060608587031215612125578182fd5b8435935060208501359250604085013567ffffffffffffffff8082111561214a578384fd5b818701915087601f83011261215d578384fd5b81358181111561216b578485fd5b88602082850101111561217c578485fd5b95989497505060200194505050565b60006020828403121561219c578081fd5b815167ffffffffffffffff8111156121b2578182fd5b8201601f810184136121c2578182fd5b80516121d0611f178261268a565b8181528560208385010111156121e4578384fd5b6113168260208301602086016126ac565b600060208284031215612206578081fd5b813567ffffffffffffffff8082111561221d578283fd5b9083019060a08286031215612230578283fd5b60405160a08101818110838211171561224557fe5b604052823582811115612256578485fd5b61226287828601611ef9565b82525061227160208401611eee565b602082015260408301356040820152606083013560608201526080830135608082015280935050505092915050565b600061010082840312156122b2578081fd5b611f788383611f4a565b6000602082840312156122cd578081fd5b813567ffffffffffffffff8111156122e3578182fd5b820160a08185031215611f78578182fd5b600060208284031215612305578081fd5b813567ffffffffffffffff8082111561231c578283fd5b908301906040828603121561232f578283fd5b60405160408101818110838211171561234457fe5b604052823582811115612355578485fd5b61236187828601611ef9565b82525060208301359250612374836126d8565b6020810192909252509392505050565b600060208284031215612395578081fd5b813562ffffff81168114611f78578182fd5b6000602082840312156123b8578081fd5b5035919050565b600080604083850312156123d1578182fd5b8235915060208301356123e3816126d8565b809150509250929050565b60008060008060808587031215612403578182fd5b843593506020850135612415816126d8565b925060408501359150606085013561242c816126d8565b939692955090935050565b6000815180845261244f8160208601602086016126ac565b601f01601f19169290920160200192915050565b606093841b6bffffffffffffffffffffffff19908116825260e89390931b6001600160e81b0319166014820152921b166017820152602b0190565b6000828483379101908152919050565b6001600160a01b0391909116815260200190565b6001600160a01b0386811682528515156020830152604082018590528316606082015260a0608082018190526000906124fd90830184612437565b979650505050505050565b6000602080830181845280855180835260408601915060408482028701019250838701855b8281101561255b57603f19888603018452612549858351612437565b9450928501929085019060010161252d565b5092979650505050505050565b600060208252611f786020830184612437565b602080825260129082015271151bdbc81b5d58da081c995c5d595cdd195960721b604082015260600190565b602080825260139082015272151bdbc81b1a5d1d1b19481c9958d95a5d9959606a1b604082015260600190565b6000602082528251604060208401526125f06060840182612437565b602094909401516001600160a01b0316604093909301929092525090919050565b90815260200190565b6000808335601e19843603018112612630578283fd5b83018035915067ffffffffffffffff82111561264a578283fd5b60200191503681900382131561265f57600080fd5b9250929050565b60405181810167ffffffffffffffff8111828210171561268257fe5b604052919050565b600067ffffffffffffffff82111561269e57fe5b50601f01601f191660200190565b60005b838110156126c75781810151838201526020016126af565b83811115610f4b5750506000910152565b6001600160a01b03811681146126ed57600080fd5b5056fea264697066735822122011e5c55be6321affd011573c885e7c69c66aa2d1ffd6ae717e3fcb90653252eb64736f6c63430007060033","linkReferences":{}},"methodIdentifiers":{"WETH9()":"4aa4a4fc","deployer()":"d5f39488","exactInput((bytes,address,uint256,uint256,uint256))":"c04b8d59","exactInputSingle((address,address,uint24,address,uint256,uint256,uint256,uint160))":"414bf389","exactOutput((bytes,address,uint256,uint256,uint256))":"f28c0498","exactOutputSingle((address,address,uint24,address,uint256,uint256,uint256,uint160))":"db3e2198","factory()":"c45a0155","multicall(bytes[])":"ac9650d8","pancakeV3SwapCallback(int256,int256,bytes)":"23a69e75","refundETH()":"12210e8a","selfPermit(address,uint256,uint256,uint8,bytes32,bytes32)":"f3995c67","selfPermitAllowed(address,uint256,uint256,uint8,bytes32,bytes32)":"4659a494","selfPermitAllowedIfNecessary(address,uint256,uint256,uint8,bytes32,bytes32)":"a4a78f0c","selfPermitIfNecessary(address,uint256,uint256,uint8,bytes32,bytes32)":"c2e3140a","setTime(uint256)":"3beb26c4","sweepToken(address,uint256,address)":"df2ab5bb","sweepTokenWithFee(address,uint256,address,uint256,address)":"e0e189a0","unwrapWETH9(uint256,address)":"49404b7c","unwrapWETH9WithFee(uint256,address,uint256,address)":"9b2c0a37"},"id":161}