{"abi":[{"type":"constructor","inputs":[{"name":"_deployer","type":"address","internalType":"address"},{"name":"_factory","type":"address","internalType":"address"},{"name":"_WETH9","type":"address","internalType":"address"}],"stateMutability":"nonpayable"},{"type":"function","name":"WETH9","inputs":[],"outputs":[{"name":"","type":"address","internalType":"address"}],"stateMutability":"view"},{"type":"function","name":"deployer","inputs":[],"outputs":[{"name":"","type":"address","internalType":"address"}],"stateMutability":"view"},{"type":"function","name":"factory","inputs":[],"outputs":[{"name":"","type":"address","internalType":"address"}],"stateMutability":"view"}],"bytecode":{"object":"0x60e060405234801561001057600080fd5b506040516101a53803806101a58339818101604052606081101561003357600080fd5b50805160208201516040909201516001600160601b0319606092831b811660805292821b831660a052901b1660c05260805160601c60a05160601c60c05160601c610111610094600039806071525080609552508060b952506101116000f3fe6080604052348015600f57600080fd5b5060043610603c5760003560e01c80634aa4a4fc146041578063c45a0155146063578063d5f39488146069575b600080fd5b6047606f565b604080516001600160a01b039092168252519081900360200190f35b60476093565b604760b7565b7f000000000000000000000000000000000000000000000000000000000000000081565b7f000000000000000000000000000000000000000000000000000000000000000081565b7f00000000000000000000000000000000000000000000000000000000000000008156fea264697066735822122023e77a73ce236bc3726a050ff2bc6bf7c98b6453b92c1c1d951881242103626464736f6c63430007060033","linkReferences":{}},"methodIdentifiers":{"WETH9()":"4aa4a4fc","deployer()":"d5f39488","factory()":"c45a0155"},"id":274}